{
	"lender.sol": {
		"LendingProtocol": {
			"abi": [
				{
					"inputs": [],
					"stateMutability": "nonpayable",
					"type": "constructor"
				},
				{
					"inputs": [
						{
							"internalType": "address",
							"name": "owner",
							"type": "address"
						}
					],
					"name": "OwnableInvalidOwner",
					"type": "error"
				},
				{
					"inputs": [
						{
							"internalType": "address",
							"name": "account",
							"type": "address"
						}
					],
					"name": "OwnableUnauthorizedAccount",
					"type": "error"
				},
				{
					"anonymous": false,
					"inputs": [
						{
							"indexed": true,
							"internalType": "address",
							"name": "user",
							"type": "address"
						},
						{
							"indexed": false,
							"internalType": "uint256",
							"name": "amount",
							"type": "uint256"
						},
						{
							"indexed": false,
							"internalType": "address",
							"name": "token",
							"type": "address"
						}
					],
					"name": "CollateralLocked",
					"type": "event"
				},
				{
					"anonymous": false,
					"inputs": [
						{
							"indexed": true,
							"internalType": "address",
							"name": "user",
							"type": "address"
						},
						{
							"indexed": false,
							"internalType": "uint256",
							"name": "amount",
							"type": "uint256"
						},
						{
							"indexed": false,
							"internalType": "address",
							"name": "token",
							"type": "address"
						}
					],
					"name": "CollateralReleased",
					"type": "event"
				},
				{
					"anonymous": false,
					"inputs": [
						{
							"indexed": true,
							"internalType": "address",
							"name": "user",
							"type": "address"
						},
						{
							"indexed": false,
							"internalType": "uint256",
							"name": "amount",
							"type": "uint256"
						},
						{
							"indexed": false,
							"internalType": "address",
							"name": "token",
							"type": "address"
						}
					],
					"name": "LoanIssued",
					"type": "event"
				},
				{
					"anonymous": false,
					"inputs": [
						{
							"indexed": true,
							"internalType": "address",
							"name": "user",
							"type": "address"
						},
						{
							"indexed": false,
							"internalType": "uint256",
							"name": "amount",
							"type": "uint256"
						},
						{
							"indexed": false,
							"internalType": "address",
							"name": "token",
							"type": "address"
						},
						{
							"indexed": false,
							"internalType": "address",
							"name": "recipient",
							"type": "address"
						}
					],
					"name": "LoanRepaid",
					"type": "event"
				},
				{
					"anonymous": false,
					"inputs": [
						{
							"indexed": true,
							"internalType": "address",
							"name": "previousOwner",
							"type": "address"
						},
						{
							"indexed": true,
							"internalType": "address",
							"name": "newOwner",
							"type": "address"
						}
					],
					"name": "OwnershipTransferred",
					"type": "event"
				},
				{
					"inputs": [],
					"name": "MAX_LOAN_DURATION",
					"outputs": [
						{
							"internalType": "uint256",
							"name": "",
							"type": "uint256"
						}
					],
					"stateMutability": "view",
					"type": "function"
				},
				{
					"inputs": [
						{
							"internalType": "address",
							"name": "user",
							"type": "address"
						}
					],
					"name": "getLoanCount",
					"outputs": [
						{
							"internalType": "uint256",
							"name": "",
							"type": "uint256"
						}
					],
					"stateMutability": "view",
					"type": "function"
				},
				{
					"inputs": [
						{
							"internalType": "address",
							"name": "user",
							"type": "address"
						},
						{
							"internalType": "uint256",
							"name": "loanIndex",
							"type": "uint256"
						}
					],
					"name": "getLoanDetails",
					"outputs": [
						{
							"components": [
								{
									"internalType": "uint256",
									"name": "collateralAmount",
									"type": "uint256"
								},
								{
									"internalType": "uint256",
									"name": "loanAmount",
									"type": "uint256"
								},
								{
									"internalType": "address",
									"name": "collateralToken",
									"type": "address"
								},
								{
									"internalType": "address",
									"name": "loanToken",
									"type": "address"
								},
								{
									"internalType": "address",
									"name": "recipient",
									"type": "address"
								},
								{
									"internalType": "uint256",
									"name": "deadline",
									"type": "uint256"
								},
								{
									"internalType": "bool",
									"name": "isRepaid",
									"type": "bool"
								}
							],
							"internalType": "struct LendingProtocol.Loan",
							"name": "",
							"type": "tuple"
						}
					],
					"stateMutability": "view",
					"type": "function"
				},
				{
					"inputs": [
						{
							"internalType": "address",
							"name": "user",
							"type": "address"
						}
					],
					"name": "getLoans",
					"outputs": [
						{
							"components": [
								{
									"internalType": "uint256",
									"name": "collateralAmount",
									"type": "uint256"
								},
								{
									"internalType": "uint256",
									"name": "loanAmount",
									"type": "uint256"
								},
								{
									"internalType": "address",
									"name": "collateralToken",
									"type": "address"
								},
								{
									"internalType": "address",
									"name": "loanToken",
									"type": "address"
								},
								{
									"internalType": "address",
									"name": "recipient",
									"type": "address"
								},
								{
									"internalType": "uint256",
									"name": "deadline",
									"type": "uint256"
								},
								{
									"internalType": "bool",
									"name": "isRepaid",
									"type": "bool"
								}
							],
							"internalType": "struct LendingProtocol.Loan[]",
							"name": "",
							"type": "tuple[]"
						}
					],
					"stateMutability": "view",
					"type": "function"
				},
				{
					"inputs": [
						{
							"internalType": "address",
							"name": "",
							"type": "address"
						},
						{
							"internalType": "uint256",
							"name": "",
							"type": "uint256"
						}
					],
					"name": "loans",
					"outputs": [
						{
							"internalType": "uint256",
							"name": "collateralAmount",
							"type": "uint256"
						},
						{
							"internalType": "uint256",
							"name": "loanAmount",
							"type": "uint256"
						},
						{
							"internalType": "address",
							"name": "collateralToken",
							"type": "address"
						},
						{
							"internalType": "address",
							"name": "loanToken",
							"type": "address"
						},
						{
							"internalType": "address",
							"name": "recipient",
							"type": "address"
						},
						{
							"internalType": "uint256",
							"name": "deadline",
							"type": "uint256"
						},
						{
							"internalType": "bool",
							"name": "isRepaid",
							"type": "bool"
						}
					],
					"stateMutability": "view",
					"type": "function"
				},
				{
					"inputs": [
						{
							"internalType": "uint256",
							"name": "collateralAmount",
							"type": "uint256"
						},
						{
							"internalType": "address",
							"name": "collateralToken",
							"type": "address"
						},
						{
							"internalType": "uint256",
							"name": "loanAmount",
							"type": "uint256"
						},
						{
							"internalType": "address",
							"name": "loanToken",
							"type": "address"
						},
						{
							"internalType": "address",
							"name": "recipient",
							"type": "address"
						},
						{
							"internalType": "uint256",
							"name": "duration",
							"type": "uint256"
						}
					],
					"name": "lockCollateralAndBorrow",
					"outputs": [],
					"stateMutability": "nonpayable",
					"type": "function"
				},
				{
					"inputs": [],
					"name": "owner",
					"outputs": [
						{
							"internalType": "address",
							"name": "",
							"type": "address"
						}
					],
					"stateMutability": "view",
					"type": "function"
				},
				{
					"inputs": [],
					"name": "renounceOwnership",
					"outputs": [],
					"stateMutability": "nonpayable",
					"type": "function"
				},
				{
					"inputs": [
						{
							"internalType": "uint256",
							"name": "loanIndex",
							"type": "uint256"
						}
					],
					"name": "repayLoan",
					"outputs": [],
					"stateMutability": "nonpayable",
					"type": "function"
				},
				{
					"inputs": [
						{
							"internalType": "address",
							"name": "newOwner",
							"type": "address"
						}
					],
					"name": "transferOwnership",
					"outputs": [],
					"stateMutability": "nonpayable",
					"type": "function"
				},
				{
					"inputs": [
						{
							"internalType": "address",
							"name": "token",
							"type": "address"
						},
						{
							"internalType": "uint256",
							"name": "amount",
							"type": "uint256"
						}
					],
					"name": "withdrawTokens",
					"outputs": [],
					"stateMutability": "nonpayable",
					"type": "function"
				}
			],
			"devdoc": {
				"errors": {
					"OwnableInvalidOwner(address)": [
						{
							"details": "The owner is not a valid owner account. (eg. `address(0)`)"
						}
					],
					"OwnableUnauthorizedAccount(address)": [
						{
							"details": "The caller account is not authorized to perform an operation."
						}
					]
				},
				"kind": "dev",
				"methods": {
					"owner()": {
						"details": "Returns the address of the current owner."
					},
					"renounceOwnership()": {
						"details": "Leaves the contract without owner. It will not be possible to call `onlyOwner` functions. Can only be called by the current owner. NOTE: Renouncing ownership will leave the contract without an owner, thereby disabling any functionality that is only available to the owner."
					},
					"transferOwnership(address)": {
						"details": "Transfers ownership of the contract to a new account (`newOwner`). Can only be called by the current owner."
					}
				},
				"version": 1
			},
			"evm": {
				"assembly": "    /* \"lender.sol\":168:4136  contract LendingProtocol is Ownable {... */\n  mstore(0x40, 0x80)\n    /* \"lender.sol\":909:947  constructor() Ownable(_msgSender()) {} */\n  callvalue\n  dup1\n  iszero\n  tag_1\n  jumpi\n  0x00\n  dup1\n  revert\ntag_1:\n  pop\n    /* \"lender.sol\":931:943  _msgSender() */\n  tag_3\n    /* \"lender.sol\":931:941  _msgSender */\n  shl(0x20, tag_4)\n    /* \"lender.sol\":931:943  _msgSender() */\n  0x20\n  shr\n  jump\t// in\ntag_3:\n    /* \"@openzeppelin/contracts/access/Ownable.sol\":1297:1298  0 */\n  0x00\n    /* \"@openzeppelin/contracts/access/Ownable.sol\":1273:1299  initialOwner == address(0) */\n  0xffffffffffffffffffffffffffffffffffffffff\n  and\n    /* \"@openzeppelin/contracts/access/Ownable.sol\":1273:1285  initialOwner */\n  dup2\n    /* \"@openzeppelin/contracts/access/Ownable.sol\":1273:1299  initialOwner == address(0) */\n  0xffffffffffffffffffffffffffffffffffffffff\n  and\n  sub\n    /* \"@openzeppelin/contracts/access/Ownable.sol\":1269:1364  if (initialOwner == address(0)) {... */\n  tag_7\n  jumpi\n    /* \"@openzeppelin/contracts/access/Ownable.sol\":1350:1351  0 */\n  0x00\n    /* \"@openzeppelin/contracts/access/Ownable.sol\":1322:1353  OwnableInvalidOwner(address(0)) */\n  mload(0x40)\n  0x1e4fbdf700000000000000000000000000000000000000000000000000000000\n  dup2\n  mstore\n  0x04\n  add\n  tag_8\n  swap2\n  swap1\n  tag_9\n  jump\t// in\ntag_8:\n  mload(0x40)\n  dup1\n  swap2\n  sub\n  swap1\n  revert\n    /* \"@openzeppelin/contracts/access/Ownable.sol\":1269:1364  if (initialOwner == address(0)) {... */\ntag_7:\n    /* \"@openzeppelin/contracts/access/Ownable.sol\":1373:1405  _transferOwnership(initialOwner) */\n  tag_10\n    /* \"@openzeppelin/contracts/access/Ownable.sol\":1392:1404  initialOwner */\n  dup2\n    /* \"@openzeppelin/contracts/access/Ownable.sol\":1373:1391  _transferOwnership */\n  shl(0x20, tag_11)\n    /* \"@openzeppelin/contracts/access/Ownable.sol\":1373:1405  _transferOwnership(initialOwner) */\n  0x20\n  shr\n  jump\t// in\ntag_10:\n    /* \"@openzeppelin/contracts/access/Ownable.sol\":1225:1412  constructor(address initialOwner) {... */\n  pop\n    /* \"lender.sol\":168:4136  contract LendingProtocol is Ownable {... */\n  jump(tag_13)\n    /* \"@openzeppelin/contracts/utils/Context.sol\":656:752  function _msgSender() internal view virtual returns (address) {... */\ntag_4:\n    /* \"@openzeppelin/contracts/utils/Context.sol\":709:716  address */\n  0x00\n    /* \"@openzeppelin/contracts/utils/Context.sol\":735:745  msg.sender */\n  caller\n    /* \"@openzeppelin/contracts/utils/Context.sol\":728:745  return msg.sender */\n  swap1\n  pop\n    /* \"@openzeppelin/contracts/utils/Context.sol\":656:752  function _msgSender() internal view virtual returns (address) {... */\n  swap1\n  jump\t// out\n    /* \"@openzeppelin/contracts/access/Ownable.sol\":2912:3099  function _transferOwnership(address newOwner) internal virtual {... */\ntag_11:\n    /* \"@openzeppelin/contracts/access/Ownable.sol\":2985:3001  address oldOwner */\n  0x00\n    /* \"@openzeppelin/contracts/access/Ownable.sol\":3004:3010  _owner */\n  dup1\n  0x00\n  swap1\n  sload\n  swap1\n  0x0100\n  exp\n  swap1\n  div\n  0xffffffffffffffffffffffffffffffffffffffff\n  and\n    /* \"@openzeppelin/contracts/access/Ownable.sol\":2985:3010  address oldOwner = _owner */\n  swap1\n  pop\n    /* \"@openzeppelin/contracts/access/Ownable.sol\":3029:3037  newOwner */\n  dup2\n    /* \"@openzeppelin/contracts/access/Ownable.sol\":3020:3026  _owner */\n  0x00\n  dup1\n    /* \"@openzeppelin/contracts/access/Ownable.sol\":3020:3037  _owner = newOwner */\n  0x0100\n  exp\n  dup2\n  sload\n  dup2\n  0xffffffffffffffffffffffffffffffffffffffff\n  mul\n  not\n  and\n  swap1\n  dup4\n  0xffffffffffffffffffffffffffffffffffffffff\n  and\n  mul\n  or\n  swap1\n  sstore\n  pop\n    /* \"@openzeppelin/contracts/access/Ownable.sol\":3083:3091  newOwner */\n  dup2\n    /* \"@openzeppelin/contracts/access/Ownable.sol\":3052:3092  OwnershipTransferred(oldOwner, newOwner) */\n  0xffffffffffffffffffffffffffffffffffffffff\n  and\n    /* \"@openzeppelin/contracts/access/Ownable.sol\":3073:3081  oldOwner */\n  dup2\n    /* \"@openzeppelin/contracts/access/Ownable.sol\":3052:3092  OwnershipTransferred(oldOwner, newOwner) */\n  0xffffffffffffffffffffffffffffffffffffffff\n  and\n  0x8be0079c531659141344cd1fd0a4f28419497f9722a3daafe3b4186f6b6457e0\n  mload(0x40)\n  mload(0x40)\n  dup1\n  swap2\n  sub\n  swap1\n  log3\n    /* \"@openzeppelin/contracts/access/Ownable.sol\":2975:3099  {... */\n  pop\n    /* \"@openzeppelin/contracts/access/Ownable.sol\":2912:3099  function _transferOwnership(address newOwner) internal virtual {... */\n  pop\n  jump\t// out\n    /* \"#utility.yul\":7:133   */\ntag_16:\n    /* \"#utility.yul\":44:51   */\n  0x00\n    /* \"#utility.yul\":84:126   */\n  0xffffffffffffffffffffffffffffffffffffffff\n    /* \"#utility.yul\":77:82   */\n  dup3\n    /* \"#utility.yul\":73:127   */\n  and\n    /* \"#utility.yul\":62:127   */\n  swap1\n  pop\n    /* \"#utility.yul\":7:133   */\n  swap2\n  swap1\n  pop\n  jump\t// out\n    /* \"#utility.yul\":139:235   */\ntag_17:\n    /* \"#utility.yul\":176:183   */\n  0x00\n    /* \"#utility.yul\":205:229   */\n  tag_22\n    /* \"#utility.yul\":223:228   */\n  dup3\n    /* \"#utility.yul\":205:229   */\n  tag_16\n  jump\t// in\ntag_22:\n    /* \"#utility.yul\":194:229   */\n  swap1\n  pop\n    /* \"#utility.yul\":139:235   */\n  swap2\n  swap1\n  pop\n  jump\t// out\n    /* \"#utility.yul\":241:359   */\ntag_18:\n    /* \"#utility.yul\":328:352   */\n  tag_24\n    /* \"#utility.yul\":346:351   */\n  dup2\n    /* \"#utility.yul\":328:352   */\n  tag_17\n  jump\t// in\ntag_24:\n    /* \"#utility.yul\":323:326   */\n  dup3\n    /* \"#utility.yul\":316:353   */\n  mstore\n    /* \"#utility.yul\":241:359   */\n  pop\n  pop\n  jump\t// out\n    /* \"#utility.yul\":365:587   */\ntag_9:\n    /* \"#utility.yul\":458:462   */\n  0x00\n    /* \"#utility.yul\":496:498   */\n  0x20\n    /* \"#utility.yul\":485:494   */\n  dup3\n    /* \"#utility.yul\":481:499   */\n  add\n    /* \"#utility.yul\":473:499   */\n  swap1\n  pop\n    /* \"#utility.yul\":509:580   */\n  tag_26\n    /* \"#utility.yul\":577:578   */\n  0x00\n    /* \"#utility.yul\":566:575   */\n  dup4\n    /* \"#utility.yul\":562:579   */\n  add\n    /* \"#utility.yul\":553:559   */\n  dup5\n    /* \"#utility.yul\":509:580   */\n  tag_18\n  jump\t// in\ntag_26:\n    /* \"#utility.yul\":365:587   */\n  swap3\n  swap2\n  pop\n  pop\n  jump\t// out\n    /* \"lender.sol\":168:4136  contract LendingProtocol is Ownable {... */\ntag_13:\n  dataSize(sub_0)\n  dup1\n  dataOffset(sub_0)\n  0x00\n  codecopy\n  0x00\n  return\nstop\n\nsub_0: assembly {\n        /* \"lender.sol\":168:4136  contract LendingProtocol is Ownable {... */\n      mstore(0x40, 0x80)\n      callvalue\n      dup1\n      iszero\n      tag_1\n      jumpi\n      0x00\n      dup1\n      revert\n    tag_1:\n      pop\n      jumpi(tag_2, lt(calldatasize, 0x04))\n      shr(0xe0, calldataload(0x00))\n      dup1\n      0xab7b1c89\n      gt\n      tag_14\n      jumpi\n      dup1\n      0xab7b1c89\n      eq\n      tag_8\n      jumpi\n      dup1\n      0xc377fdab\n      eq\n      tag_9\n      jumpi\n      dup1\n      0xd13d5e56\n      eq\n      tag_10\n      jumpi\n      dup1\n      0xd988ef20\n      eq\n      tag_11\n      jumpi\n      dup1\n      0xf2fde38b\n      eq\n      tag_12\n      jumpi\n      dup1\n      0xf53c61e0\n      eq\n      tag_13\n      jumpi\n      jump(tag_2)\n    tag_14:\n      dup1\n      0x06b091f9\n      eq\n      tag_3\n      jumpi\n      dup1\n      0x0d0b2ca6\n      eq\n      tag_4\n      jumpi\n      dup1\n      0x715018a6\n      eq\n      tag_5\n      jumpi\n      dup1\n      0x8da5cb5b\n      eq\n      tag_6\n      jumpi\n      dup1\n      0x98c61c37\n      eq\n      tag_7\n      jumpi\n    tag_2:\n      0x00\n      dup1\n      revert\n        /* \"lender.sol\":4001:4134  function withdrawTokens(address token, uint256 amount) external onlyOwner {... */\n    tag_3:\n      tag_15\n      0x04\n      dup1\n      calldatasize\n      sub\n      dup2\n      add\n      swap1\n      tag_16\n      swap2\n      swap1\n      tag_17\n      jump\t// in\n    tag_16:\n      tag_18\n      jump\t// in\n    tag_15:\n      stop\n        /* \"lender.sol\":851:902  uint256 public constant MAX_LOAN_DURATION = 30 days */\n    tag_4:\n      tag_19\n      tag_20\n      jump\t// in\n    tag_19:\n      mload(0x40)\n      tag_21\n      swap2\n      swap1\n      tag_22\n      jump\t// in\n    tag_21:\n      mload(0x40)\n      dup1\n      swap2\n      sub\n      swap1\n      return\n        /* \"@openzeppelin/contracts/access/Ownable.sol\":2293:2394  function renounceOwnership() public virtual onlyOwner {... */\n    tag_5:\n      tag_23\n      tag_24\n      jump\t// in\n    tag_23:\n      stop\n        /* \"@openzeppelin/contracts/access/Ownable.sol\":1638:1723  function owner() public view virtual returns (address) {... */\n    tag_6:\n      tag_25\n      tag_26\n      jump\t// in\n    tag_25:\n      mload(0x40)\n      tag_27\n      swap2\n      swap1\n      tag_28\n      jump\t// in\n    tag_27:\n      mload(0x40)\n      dup1\n      swap2\n      sub\n      swap1\n      return\n        /* \"lender.sol\":433:472  mapping(address => Loan[]) public loans */\n    tag_7:\n      tag_29\n      0x04\n      dup1\n      calldatasize\n      sub\n      dup2\n      add\n      swap1\n      tag_30\n      swap2\n      swap1\n      tag_17\n      jump\t// in\n    tag_30:\n      tag_31\n      jump\t// in\n    tag_29:\n      mload(0x40)\n      tag_32\n      swap8\n      swap7\n      swap6\n      swap5\n      swap4\n      swap3\n      swap2\n      swap1\n      tag_33\n      jump\t// in\n    tag_32:\n      mload(0x40)\n      dup1\n      swap2\n      sub\n      swap1\n      return\n        /* \"lender.sol\":2446:3524  function repayLoan(uint256 loanIndex) external {... */\n    tag_8:\n      tag_34\n      0x04\n      dup1\n      calldatasize\n      sub\n      dup2\n      add\n      swap1\n      tag_35\n      swap2\n      swap1\n      tag_36\n      jump\t// in\n    tag_35:\n      tag_37\n      jump\t// in\n    tag_34:\n      stop\n        /* \"lender.sol\":953:2440  function lockCollateralAndBorrow(... */\n    tag_9:\n      tag_38\n      0x04\n      dup1\n      calldatasize\n      sub\n      dup2\n      add\n      swap1\n      tag_39\n      swap2\n      swap1\n      tag_40\n      jump\t// in\n    tag_39:\n      tag_41\n      jump\t// in\n    tag_38:\n      stop\n        /* \"lender.sol\":3641:3879  function getLoanDetails(address user, uint256 loanIndex)... */\n    tag_10:\n      tag_42\n      0x04\n      dup1\n      calldatasize\n      sub\n      dup2\n      add\n      swap1\n      tag_43\n      swap2\n      swap1\n      tag_17\n      jump\t// in\n    tag_43:\n      tag_44\n      jump\t// in\n    tag_42:\n      mload(0x40)\n      tag_45\n      swap2\n      swap1\n      tag_46\n      jump\t// in\n    tag_45:\n      mload(0x40)\n      dup1\n      swap2\n      sub\n      swap1\n      return\n        /* \"lender.sol\":3530:3635  function getLoans(address user) external view returns (Loan[] memory) {... */\n    tag_11:\n      tag_47\n      0x04\n      dup1\n      calldatasize\n      sub\n      dup2\n      add\n      swap1\n      tag_48\n      swap2\n      swap1\n      tag_49\n      jump\t// in\n    tag_48:\n      tag_50\n      jump\t// in\n    tag_47:\n      mload(0x40)\n      tag_51\n      swap2\n      swap1\n      tag_52\n      jump\t// in\n    tag_51:\n      mload(0x40)\n      dup1\n      swap2\n      sub\n      swap1\n      return\n        /* \"@openzeppelin/contracts/access/Ownable.sol\":2543:2758  function transferOwnership(address newOwner) public virtual onlyOwner {... */\n    tag_12:\n      tag_53\n      0x04\n      dup1\n      calldatasize\n      sub\n      dup2\n      add\n      swap1\n      tag_54\n      swap2\n      swap1\n      tag_49\n      jump\t// in\n    tag_54:\n      tag_55\n      jump\t// in\n    tag_53:\n      stop\n        /* \"lender.sol\":3885:3995  function getLoanCount(address user) external view returns (uint256) {... */\n    tag_13:\n      tag_56\n      0x04\n      dup1\n      calldatasize\n      sub\n      dup2\n      add\n      swap1\n      tag_57\n      swap2\n      swap1\n      tag_49\n      jump\t// in\n    tag_57:\n      tag_58\n      jump\t// in\n    tag_56:\n      mload(0x40)\n      tag_59\n      swap2\n      swap1\n      tag_22\n      jump\t// in\n    tag_59:\n      mload(0x40)\n      dup1\n      swap2\n      sub\n      swap1\n      return\n        /* \"lender.sol\":4001:4134  function withdrawTokens(address token, uint256 amount) external onlyOwner {... */\n    tag_18:\n        /* \"@openzeppelin/contracts/access/Ownable.sol\":1531:1544  _checkOwner() */\n      tag_61\n        /* \"@openzeppelin/contracts/access/Ownable.sol\":1531:1542  _checkOwner */\n      tag_62\n        /* \"@openzeppelin/contracts/access/Ownable.sol\":1531:1544  _checkOwner() */\n      jump\t// in\n    tag_61:\n        /* \"lender.sol\":4092:4097  token */\n      dup2\n        /* \"lender.sol\":4085:4107  IERC20(token).transfer */\n      0xffffffffffffffffffffffffffffffffffffffff\n      and\n      0xa9059cbb\n        /* \"lender.sol\":4108:4118  msg.sender */\n      caller\n        /* \"lender.sol\":4120:4126  amount */\n      dup4\n        /* \"lender.sol\":4085:4127  IERC20(token).transfer(msg.sender, amount) */\n      mload(0x40)\n      dup4\n      0xffffffff\n      and\n      0xe0\n      shl\n      dup2\n      mstore\n      0x04\n      add\n      tag_64\n      swap3\n      swap2\n      swap1\n      tag_65\n      jump\t// in\n    tag_64:\n      0x20\n      mload(0x40)\n      dup1\n      dup4\n      sub\n      dup2\n      0x00\n      dup8\n      gas\n      call\n      iszero\n      dup1\n      iszero\n      tag_67\n      jumpi\n      returndatasize\n      0x00\n      dup1\n      returndatacopy\n      revert(0x00, returndatasize)\n    tag_67:\n      pop\n      pop\n      pop\n      pop\n      mload(0x40)\n      returndatasize\n      not(0x1f)\n      0x1f\n      dup3\n      add\n      and\n      dup3\n      add\n      dup1\n      0x40\n      mstore\n      pop\n      dup2\n      add\n      swap1\n      tag_68\n      swap2\n      swap1\n      tag_69\n      jump\t// in\n    tag_68:\n      pop\n        /* \"lender.sol\":4001:4134  function withdrawTokens(address token, uint256 amount) external onlyOwner {... */\n      pop\n      pop\n      jump\t// out\n        /* \"lender.sol\":851:902  uint256 public constant MAX_LOAN_DURATION = 30 days */\n    tag_20:\n        /* \"lender.sol\":895:902  30 days */\n      0x278d00\n        /* \"lender.sol\":851:902  uint256 public constant MAX_LOAN_DURATION = 30 days */\n      dup2\n      jump\t// out\n        /* \"@openzeppelin/contracts/access/Ownable.sol\":2293:2394  function renounceOwnership() public virtual onlyOwner {... */\n    tag_24:\n        /* \"@openzeppelin/contracts/access/Ownable.sol\":1531:1544  _checkOwner() */\n      tag_71\n        /* \"@openzeppelin/contracts/access/Ownable.sol\":1531:1542  _checkOwner */\n      tag_62\n        /* \"@openzeppelin/contracts/access/Ownable.sol\":1531:1544  _checkOwner() */\n      jump\t// in\n    tag_71:\n        /* \"@openzeppelin/contracts/access/Ownable.sol\":2357:2387  _transferOwnership(address(0)) */\n      tag_73\n        /* \"@openzeppelin/contracts/access/Ownable.sol\":2384:2385  0 */\n      0x00\n        /* \"@openzeppelin/contracts/access/Ownable.sol\":2357:2375  _transferOwnership */\n      tag_74\n        /* \"@openzeppelin/contracts/access/Ownable.sol\":2357:2387  _transferOwnership(address(0)) */\n      jump\t// in\n    tag_73:\n        /* \"@openzeppelin/contracts/access/Ownable.sol\":2293:2394  function renounceOwnership() public virtual onlyOwner {... */\n      jump\t// out\n        /* \"@openzeppelin/contracts/access/Ownable.sol\":1638:1723  function owner() public view virtual returns (address) {... */\n    tag_26:\n        /* \"@openzeppelin/contracts/access/Ownable.sol\":1684:1691  address */\n      0x00\n        /* \"@openzeppelin/contracts/access/Ownable.sol\":1710:1716  _owner */\n      dup1\n      0x00\n      swap1\n      sload\n      swap1\n      0x0100\n      exp\n      swap1\n      div\n      0xffffffffffffffffffffffffffffffffffffffff\n      and\n        /* \"@openzeppelin/contracts/access/Ownable.sol\":1703:1716  return _owner */\n      swap1\n      pop\n        /* \"@openzeppelin/contracts/access/Ownable.sol\":1638:1723  function owner() public view virtual returns (address) {... */\n      swap1\n      jump\t// out\n        /* \"lender.sol\":433:472  mapping(address => Loan[]) public loans */\n    tag_31:\n      mstore(0x20, 0x01)\n      dup2\n      0x00\n      mstore\n      keccak256(0x00, 0x40)\n      dup2\n      dup2\n      sload\n      dup2\n      lt\n      tag_76\n      jumpi\n      0x00\n      dup1\n      revert\n    tag_76:\n      swap1\n      0x00\n      mstore\n      keccak256(0x00, 0x20)\n      swap1\n      0x07\n      mul\n      add\n      0x00\n      swap2\n      pop\n      swap2\n      pop\n      pop\n      dup1\n      0x00\n      add\n      sload\n      swap1\n      dup1\n      0x01\n      add\n      sload\n      swap1\n      dup1\n      0x02\n      add\n      0x00\n      swap1\n      sload\n      swap1\n      0x0100\n      exp\n      swap1\n      div\n      0xffffffffffffffffffffffffffffffffffffffff\n      and\n      swap1\n      dup1\n      0x03\n      add\n      0x00\n      swap1\n      sload\n      swap1\n      0x0100\n      exp\n      swap1\n      div\n      0xffffffffffffffffffffffffffffffffffffffff\n      and\n      swap1\n      dup1\n      0x04\n      add\n      0x00\n      swap1\n      sload\n      swap1\n      0x0100\n      exp\n      swap1\n      div\n      0xffffffffffffffffffffffffffffffffffffffff\n      and\n      swap1\n      dup1\n      0x05\n      add\n      sload\n      swap1\n      dup1\n      0x06\n      add\n      0x00\n      swap1\n      sload\n      swap1\n      0x0100\n      exp\n      swap1\n      div\n      0xff\n      and\n      swap1\n      pop\n      dup8\n      jump\t// out\n        /* \"lender.sol\":2446:3524  function repayLoan(uint256 loanIndex) external {... */\n    tag_37:\n        /* \"lender.sol\":2523:2528  loans */\n      0x01\n        /* \"lender.sol\":2523:2540  loans[msg.sender] */\n      0x00\n        /* \"lender.sol\":2529:2539  msg.sender */\n      caller\n        /* \"lender.sol\":2523:2540  loans[msg.sender] */\n      0xffffffffffffffffffffffffffffffffffffffff\n      and\n      0xffffffffffffffffffffffffffffffffffffffff\n      and\n      dup2\n      mstore\n      0x20\n      add\n      swap1\n      dup2\n      mstore\n      0x20\n      add\n      0x00\n      keccak256\n        /* \"lender.sol\":2523:2547  loans[msg.sender].length */\n      dup1\n      sload\n      swap1\n      pop\n        /* \"lender.sol\":2511:2520  loanIndex */\n      dup2\n        /* \"lender.sol\":2511:2547  loanIndex < loans[msg.sender].length */\n      lt\n        /* \"lender.sol\":2503:2570  require(loanIndex < loans[msg.sender].length, \"Invalid loan index\") */\n      tag_79\n      jumpi\n      mload(0x40)\n      0x08c379a000000000000000000000000000000000000000000000000000000000\n      dup2\n      mstore\n      0x04\n      add\n      tag_80\n      swap1\n      tag_81\n      jump\t// in\n    tag_80:\n      mload(0x40)\n      dup1\n      swap2\n      sub\n      swap1\n      revert\n    tag_79:\n        /* \"lender.sol\":2580:2601  Loan storage userLoan */\n      0x00\n        /* \"lender.sol\":2604:2609  loans */\n      0x01\n        /* \"lender.sol\":2604:2621  loans[msg.sender] */\n      0x00\n        /* \"lender.sol\":2610:2620  msg.sender */\n      caller\n        /* \"lender.sol\":2604:2621  loans[msg.sender] */\n      0xffffffffffffffffffffffffffffffffffffffff\n      and\n      0xffffffffffffffffffffffffffffffffffffffff\n      and\n      dup2\n      mstore\n      0x20\n      add\n      swap1\n      dup2\n      mstore\n      0x20\n      add\n      0x00\n      keccak256\n        /* \"lender.sol\":2622:2631  loanIndex */\n      dup3\n        /* \"lender.sol\":2604:2632  loans[msg.sender][loanIndex] */\n      dup2\n      sload\n      dup2\n      lt\n      tag_82\n      jumpi\n      tag_83\n      tag_84\n      jump\t// in\n    tag_83:\n    tag_82:\n      swap1\n      0x00\n      mstore\n      keccak256(0x00, 0x20)\n      swap1\n      0x07\n      mul\n      add\n        /* \"lender.sol\":2580:2632  Loan storage userLoan = loans[msg.sender][loanIndex] */\n      swap1\n      pop\n        /* \"lender.sol\":2651:2659  userLoan */\n      dup1\n        /* \"lender.sol\":2651:2668  userLoan.isRepaid */\n      0x06\n      add\n      0x00\n      swap1\n      sload\n      swap1\n      0x0100\n      exp\n      swap1\n      div\n      0xff\n      and\n        /* \"lender.sol\":2650:2668  !userLoan.isRepaid */\n      iszero\n        /* \"lender.sol\":2642:2692  require(!userLoan.isRepaid, \"Loan already repaid\") */\n      tag_86\n      jumpi\n      mload(0x40)\n      0x08c379a000000000000000000000000000000000000000000000000000000000\n      dup2\n      mstore\n      0x04\n      add\n      tag_87\n      swap1\n      tag_88\n      jump\t// in\n    tag_87:\n      mload(0x40)\n      dup1\n      swap2\n      sub\n      swap1\n      revert\n    tag_86:\n        /* \"lender.sol\":2729:2737  userLoan */\n      dup1\n        /* \"lender.sol\":2729:2746  userLoan.deadline */\n      0x05\n      add\n      sload\n        /* \"lender.sol\":2710:2725  block.timestamp */\n      timestamp\n        /* \"lender.sol\":2710:2746  block.timestamp <= userLoan.deadline */\n      gt\n      iszero\n        /* \"lender.sol\":2702:2781  require(block.timestamp <= userLoan.deadline, \"Loan repayment deadline passed\") */\n      tag_89\n      jumpi\n      mload(0x40)\n      0x08c379a000000000000000000000000000000000000000000000000000000000\n      dup2\n      mstore\n      0x04\n      add\n      tag_90\n      swap1\n      tag_91\n      jump\t// in\n    tag_90:\n      mload(0x40)\n      dup1\n      swap2\n      sub\n      swap1\n      revert\n    tag_89:\n        /* \"lender.sol\":2792:2803  IERC20 loan */\n      0x00\n        /* \"lender.sol\":2813:2821  userLoan */\n      dup2\n        /* \"lender.sol\":2813:2831  userLoan.loanToken */\n      0x03\n      add\n      0x00\n      swap1\n      sload\n      swap1\n      0x0100\n      exp\n      swap1\n      div\n      0xffffffffffffffffffffffffffffffffffffffff\n      and\n        /* \"lender.sol\":2792:2832  IERC20 loan = IERC20(userLoan.loanToken) */\n      swap1\n      pop\n        /* \"lender.sol\":2842:2859  IERC20 collateral */\n      0x00\n        /* \"lender.sol\":2869:2877  userLoan */\n      dup3\n        /* \"lender.sol\":2869:2893  userLoan.collateralToken */\n      0x02\n      add\n      0x00\n      swap1\n      sload\n      swap1\n      0x0100\n      exp\n      swap1\n      div\n      0xffffffffffffffffffffffffffffffffffffffff\n      and\n        /* \"lender.sol\":2842:2894  IERC20 collateral = IERC20(userLoan.collateralToken) */\n      swap1\n      pop\n        /* \"lender.sol\":2956:2964  userLoan */\n      dup3\n        /* \"lender.sol\":2956:2975  userLoan.loanAmount */\n      0x01\n      add\n      sload\n        /* \"lender.sol\":2926:2930  loan */\n      dup3\n        /* \"lender.sol\":2926:2940  loan.balanceOf */\n      0xffffffffffffffffffffffffffffffffffffffff\n      and\n      0x70a08231\n        /* \"lender.sol\":2941:2951  msg.sender */\n      caller\n        /* \"lender.sol\":2926:2952  loan.balanceOf(msg.sender) */\n      mload(0x40)\n      dup3\n      0xffffffff\n      and\n      0xe0\n      shl\n      dup2\n      mstore\n      0x04\n      add\n      tag_92\n      swap2\n      swap1\n      tag_28\n      jump\t// in\n    tag_92:\n      0x20\n      mload(0x40)\n      dup1\n      dup4\n      sub\n      dup2\n      dup7\n      gas\n      staticcall\n      iszero\n      dup1\n      iszero\n      tag_94\n      jumpi\n      returndatasize\n      0x00\n      dup1\n      returndatacopy\n      revert(0x00, returndatasize)\n    tag_94:\n      pop\n      pop\n      pop\n      pop\n      mload(0x40)\n      returndatasize\n      not(0x1f)\n      0x1f\n      dup3\n      add\n      and\n      dup3\n      add\n      dup1\n      0x40\n      mstore\n      pop\n      dup2\n      add\n      swap1\n      tag_95\n      swap2\n      swap1\n      tag_96\n      jump\t// in\n    tag_95:\n        /* \"lender.sol\":2926:2975  loan.balanceOf(msg.sender) >= userLoan.loanAmount */\n      lt\n      iszero\n        /* \"lender.sol\":2905:3032  require(... */\n      tag_97\n      jumpi\n      mload(0x40)\n      0x08c379a000000000000000000000000000000000000000000000000000000000\n      dup2\n      mstore\n      0x04\n      add\n      tag_98\n      swap1\n      tag_99\n      jump\t// in\n    tag_98:\n      mload(0x40)\n      dup1\n      swap2\n      sub\n      swap1\n      revert\n    tag_97:\n        /* \"lender.sol\":3043:3047  loan */\n      dup2\n        /* \"lender.sol\":3043:3060  loan.transferFrom */\n      0xffffffffffffffffffffffffffffffffffffffff\n      and\n      0x23b872dd\n        /* \"lender.sol\":3061:3071  msg.sender */\n      caller\n        /* \"lender.sol\":3073:3081  userLoan */\n      dup6\n        /* \"lender.sol\":3073:3091  userLoan.recipient */\n      0x04\n      add\n      0x00\n      swap1\n      sload\n      swap1\n      0x0100\n      exp\n      swap1\n      div\n      0xffffffffffffffffffffffffffffffffffffffff\n      and\n        /* \"lender.sol\":3093:3101  userLoan */\n      dup7\n        /* \"lender.sol\":3093:3112  userLoan.loanAmount */\n      0x01\n      add\n      sload\n        /* \"lender.sol\":3043:3113  loan.transferFrom(msg.sender, userLoan.recipient, userLoan.loanAmount) */\n      mload(0x40)\n      dup5\n      0xffffffff\n      and\n      0xe0\n      shl\n      dup2\n      mstore\n      0x04\n      add\n      tag_100\n      swap4\n      swap3\n      swap2\n      swap1\n      tag_101\n      jump\t// in\n    tag_100:\n      0x20\n      mload(0x40)\n      dup1\n      dup4\n      sub\n      dup2\n      0x00\n      dup8\n      gas\n      call\n      iszero\n      dup1\n      iszero\n      tag_103\n      jumpi\n      returndatasize\n      0x00\n      dup1\n      returndatacopy\n      revert(0x00, returndatasize)\n    tag_103:\n      pop\n      pop\n      pop\n      pop\n      mload(0x40)\n      returndatasize\n      not(0x1f)\n      0x1f\n      dup3\n      add\n      and\n      dup3\n      add\n      dup1\n      0x40\n      mstore\n      pop\n      dup2\n      add\n      swap1\n      tag_104\n      swap2\n      swap1\n      tag_69\n      jump\t// in\n    tag_104:\n      pop\n        /* \"lender.sol\":3123:3133  collateral */\n      dup1\n        /* \"lender.sol\":3123:3142  collateral.transfer */\n      0xffffffffffffffffffffffffffffffffffffffff\n      and\n      0xa9059cbb\n        /* \"lender.sol\":3143:3153  msg.sender */\n      caller\n        /* \"lender.sol\":3155:3163  userLoan */\n      dup6\n        /* \"lender.sol\":3155:3180  userLoan.collateralAmount */\n      0x00\n      add\n      sload\n        /* \"lender.sol\":3123:3181  collateral.transfer(msg.sender, userLoan.collateralAmount) */\n      mload(0x40)\n      dup4\n      0xffffffff\n      and\n      0xe0\n      shl\n      dup2\n      mstore\n      0x04\n      add\n      tag_105\n      swap3\n      swap2\n      swap1\n      tag_65\n      jump\t// in\n    tag_105:\n      0x20\n      mload(0x40)\n      dup1\n      dup4\n      sub\n      dup2\n      0x00\n      dup8\n      gas\n      call\n      iszero\n      dup1\n      iszero\n      tag_107\n      jumpi\n      returndatasize\n      0x00\n      dup1\n      returndatacopy\n      revert(0x00, returndatasize)\n    tag_107:\n      pop\n      pop\n      pop\n      pop\n      mload(0x40)\n      returndatasize\n      not(0x1f)\n      0x1f\n      dup3\n      add\n      and\n      dup3\n      add\n      dup1\n      0x40\n      mstore\n      pop\n      dup2\n      add\n      swap1\n      tag_108\n      swap2\n      swap1\n      tag_69\n      jump\t// in\n    tag_108:\n      pop\n        /* \"lender.sol\":3212:3216  true */\n      0x01\n        /* \"lender.sol\":3192:3200  userLoan */\n      dup4\n        /* \"lender.sol\":3192:3209  userLoan.isRepaid */\n      0x06\n      add\n      0x00\n        /* \"lender.sol\":3192:3216  userLoan.isRepaid = true */\n      0x0100\n      exp\n      dup2\n      sload\n      dup2\n      0xff\n      mul\n      not\n      and\n      swap1\n      dup4\n      iszero\n      iszero\n      mul\n      or\n      swap1\n      sstore\n      pop\n        /* \"lender.sol\":3256:3266  msg.sender */\n      caller\n        /* \"lender.sol\":3232:3373  LoanRepaid(... */\n      0xffffffffffffffffffffffffffffffffffffffff\n      and\n      0x9608baf6a01f4df6acf0f08534b9db5a0b94d085bc53b58698e5502655fe57c5\n        /* \"lender.sol\":3280:3288  userLoan */\n      dup5\n        /* \"lender.sol\":3280:3299  userLoan.loanAmount */\n      0x01\n      add\n      sload\n        /* \"lender.sol\":3313:3321  userLoan */\n      dup6\n        /* \"lender.sol\":3313:3331  userLoan.loanToken */\n      0x03\n      add\n      0x00\n      swap1\n      sload\n      swap1\n      0x0100\n      exp\n      swap1\n      div\n      0xffffffffffffffffffffffffffffffffffffffff\n      and\n        /* \"lender.sol\":3345:3353  userLoan */\n      dup7\n        /* \"lender.sol\":3345:3363  userLoan.recipient */\n      0x04\n      add\n      0x00\n      swap1\n      sload\n      swap1\n      0x0100\n      exp\n      swap1\n      div\n      0xffffffffffffffffffffffffffffffffffffffff\n      and\n        /* \"lender.sol\":3232:3373  LoanRepaid(... */\n      mload(0x40)\n      tag_109\n      swap4\n      swap3\n      swap2\n      swap1\n      tag_110\n      jump\t// in\n    tag_109:\n      mload(0x40)\n      dup1\n      swap2\n      sub\n      swap1\n      log2\n        /* \"lender.sol\":3420:3430  msg.sender */\n      caller\n        /* \"lender.sol\":3388:3517  CollateralReleased(... */\n      0xffffffffffffffffffffffffffffffffffffffff\n      and\n      0x887eb7234a2c4fa94c5778832c90928b2ce458cfee0053ed170baa8cde476fb5\n        /* \"lender.sol\":3444:3452  userLoan */\n      dup5\n        /* \"lender.sol\":3444:3469  userLoan.collateralAmount */\n      0x00\n      add\n      sload\n        /* \"lender.sol\":3483:3491  userLoan */\n      dup6\n        /* \"lender.sol\":3483:3507  userLoan.collateralToken */\n      0x02\n      add\n      0x00\n      swap1\n      sload\n      swap1\n      0x0100\n      exp\n      swap1\n      div\n      0xffffffffffffffffffffffffffffffffffffffff\n      and\n        /* \"lender.sol\":3388:3517  CollateralReleased(... */\n      mload(0x40)\n      tag_111\n      swap3\n      swap2\n      swap1\n      tag_112\n      jump\t// in\n    tag_111:\n      mload(0x40)\n      dup1\n      swap2\n      sub\n      swap1\n      log2\n        /* \"lender.sol\":2493:3524  {... */\n      pop\n      pop\n      pop\n        /* \"lender.sol\":2446:3524  function repayLoan(uint256 loanIndex) external {... */\n      pop\n      jump\t// out\n        /* \"lender.sol\":953:2440  function lockCollateralAndBorrow(... */\n    tag_41:\n        /* \"lender.sol\":1213:1214  0 */\n      0x00\n        /* \"lender.sol\":1194:1210  collateralAmount */\n      dup7\n        /* \"lender.sol\":1194:1214  collateralAmount > 0 */\n      gt\n        /* \"lender.sol\":1186:1259  require(collateralAmount > 0, \"Collateral amount must be greater than 0\") */\n      tag_114\n      jumpi\n      mload(0x40)\n      0x08c379a000000000000000000000000000000000000000000000000000000000\n      dup2\n      mstore\n      0x04\n      add\n      tag_115\n      swap1\n      tag_116\n      jump\t// in\n    tag_115:\n      mload(0x40)\n      dup1\n      swap2\n      sub\n      swap1\n      revert\n    tag_114:\n        /* \"lender.sol\":1290:1291  0 */\n      0x00\n        /* \"lender.sol\":1277:1287  loanAmount */\n      dup5\n        /* \"lender.sol\":1277:1291  loanAmount > 0 */\n      gt\n        /* \"lender.sol\":1269:1330  require(loanAmount > 0, \"Loan amount must be greater than 0\") */\n      tag_117\n      jumpi\n      mload(0x40)\n      0x08c379a000000000000000000000000000000000000000000000000000000000\n      dup2\n      mstore\n      0x04\n      add\n      tag_118\n      swap1\n      tag_119\n      jump\t// in\n    tag_118:\n      mload(0x40)\n      dup1\n      swap2\n      sub\n      swap1\n      revert\n    tag_117:\n        /* \"lender.sol\":895:902  30 days */\n      0x278d00\n        /* \"lender.sol\":1348:1356  duration */\n      dup2\n        /* \"lender.sol\":1348:1377  duration <= MAX_LOAN_DURATION */\n      gt\n      iszero\n        /* \"lender.sol\":1340:1417  require(duration <= MAX_LOAN_DURATION, \"Loan duration exceeds maximum limit\") */\n      tag_120\n      jumpi\n      mload(0x40)\n      0x08c379a000000000000000000000000000000000000000000000000000000000\n      dup2\n      mstore\n      0x04\n      add\n      tag_121\n      swap1\n      tag_122\n      jump\t// in\n    tag_121:\n      mload(0x40)\n      dup1\n      swap2\n      sub\n      swap1\n      revert\n    tag_120:\n        /* \"lender.sol\":1428:1445  IERC20 collateral */\n      0x00\n        /* \"lender.sol\":1455:1470  collateralToken */\n      dup6\n        /* \"lender.sol\":1428:1471  IERC20 collateral = IERC20(collateralToken) */\n      swap1\n      pop\n        /* \"lender.sol\":1481:1492  IERC20 loan */\n      0x00\n        /* \"lender.sol\":1502:1511  loanToken */\n      dup5\n        /* \"lender.sol\":1481:1512  IERC20 loan = IERC20(loanToken) */\n      swap1\n      pop\n        /* \"lender.sol\":1580:1596  collateralAmount */\n      dup8\n        /* \"lender.sol\":1544:1554  collateral */\n      dup3\n        /* \"lender.sol\":1544:1564  collateral.balanceOf */\n      0xffffffffffffffffffffffffffffffffffffffff\n      and\n      0x70a08231\n        /* \"lender.sol\":1565:1575  msg.sender */\n      caller\n        /* \"lender.sol\":1544:1576  collateral.balanceOf(msg.sender) */\n      mload(0x40)\n      dup3\n      0xffffffff\n      and\n      0xe0\n      shl\n      dup2\n      mstore\n      0x04\n      add\n      tag_123\n      swap2\n      swap1\n      tag_28\n      jump\t// in\n    tag_123:\n      0x20\n      mload(0x40)\n      dup1\n      dup4\n      sub\n      dup2\n      dup7\n      gas\n      staticcall\n      iszero\n      dup1\n      iszero\n      tag_125\n      jumpi\n      returndatasize\n      0x00\n      dup1\n      returndatacopy\n      revert(0x00, returndatasize)\n    tag_125:\n      pop\n      pop\n      pop\n      pop\n      mload(0x40)\n      returndatasize\n      not(0x1f)\n      0x1f\n      dup3\n      add\n      and\n      dup3\n      add\n      dup1\n      0x40\n      mstore\n      pop\n      dup2\n      add\n      swap1\n      tag_126\n      swap2\n      swap1\n      tag_96\n      jump\t// in\n    tag_126:\n        /* \"lender.sol\":1544:1596  collateral.balanceOf(msg.sender) >= collateralAmount */\n      lt\n      iszero\n        /* \"lender.sol\":1523:1653  require(... */\n      tag_127\n      jumpi\n      mload(0x40)\n      0x08c379a000000000000000000000000000000000000000000000000000000000\n      dup2\n      mstore\n      0x04\n      add\n      tag_128\n      swap1\n      tag_129\n      jump\t// in\n    tag_128:\n      mload(0x40)\n      dup1\n      swap2\n      sub\n      swap1\n      revert\n    tag_127:\n        /* \"lender.sol\":1717:1727  loanAmount */\n      dup6\n        /* \"lender.sol\":1684:1688  loan */\n      dup2\n        /* \"lender.sol\":1684:1698  loan.balanceOf */\n      0xffffffffffffffffffffffffffffffffffffffff\n      and\n      0x70a08231\n        /* \"lender.sol\":1707:1711  this */\n      address\n        /* \"lender.sol\":1684:1713  loan.balanceOf(address(this)) */\n      mload(0x40)\n      dup3\n      0xffffffff\n      and\n      0xe0\n      shl\n      dup2\n      mstore\n      0x04\n      add\n      tag_130\n      swap2\n      swap1\n      tag_28\n      jump\t// in\n    tag_130:\n      0x20\n      mload(0x40)\n      dup1\n      dup4\n      sub\n      dup2\n      dup7\n      gas\n      staticcall\n      iszero\n      dup1\n      iszero\n      tag_132\n      jumpi\n      returndatasize\n      0x00\n      dup1\n      returndatacopy\n      revert(0x00, returndatasize)\n    tag_132:\n      pop\n      pop\n      pop\n      pop\n      mload(0x40)\n      returndatasize\n      not(0x1f)\n      0x1f\n      dup3\n      add\n      and\n      dup3\n      add\n      dup1\n      0x40\n      mstore\n      pop\n      dup2\n      add\n      swap1\n      tag_133\n      swap2\n      swap1\n      tag_96\n      jump\t// in\n    tag_133:\n        /* \"lender.sol\":1684:1727  loan.balanceOf(address(this)) >= loanAmount */\n      lt\n      iszero\n        /* \"lender.sol\":1663:1786  require(... */\n      tag_134\n      jumpi\n      mload(0x40)\n      0x08c379a000000000000000000000000000000000000000000000000000000000\n      dup2\n      mstore\n      0x04\n      add\n      tag_135\n      swap1\n      tag_136\n      jump\t// in\n    tag_135:\n      mload(0x40)\n      dup1\n      swap2\n      sub\n      swap1\n      revert\n    tag_134:\n        /* \"lender.sol\":1797:1807  collateral */\n      dup2\n        /* \"lender.sol\":1797:1820  collateral.transferFrom */\n      0xffffffffffffffffffffffffffffffffffffffff\n      and\n      0x23b872dd\n        /* \"lender.sol\":1821:1831  msg.sender */\n      caller\n        /* \"lender.sol\":1841:1845  this */\n      address\n        /* \"lender.sol\":1848:1864  collateralAmount */\n      dup12\n        /* \"lender.sol\":1797:1865  collateral.transferFrom(msg.sender, address(this), collateralAmount) */\n      mload(0x40)\n      dup5\n      0xffffffff\n      and\n      0xe0\n      shl\n      dup2\n      mstore\n      0x04\n      add\n      tag_137\n      swap4\n      swap3\n      swap2\n      swap1\n      tag_101\n      jump\t// in\n    tag_137:\n      0x20\n      mload(0x40)\n      dup1\n      dup4\n      sub\n      dup2\n      0x00\n      dup8\n      gas\n      call\n      iszero\n      dup1\n      iszero\n      tag_139\n      jumpi\n      returndatasize\n      0x00\n      dup1\n      returndatacopy\n      revert(0x00, returndatasize)\n    tag_139:\n      pop\n      pop\n      pop\n      pop\n      mload(0x40)\n      returndatasize\n      not(0x1f)\n      0x1f\n      dup3\n      add\n      and\n      dup3\n      add\n      dup1\n      0x40\n      mstore\n      pop\n      dup2\n      add\n      swap1\n      tag_140\n      swap2\n      swap1\n      tag_69\n      jump\t// in\n    tag_140:\n      pop\n        /* \"lender.sol\":1875:1879  loan */\n      dup1\n        /* \"lender.sol\":1875:1888  loan.transfer */\n      0xffffffffffffffffffffffffffffffffffffffff\n      and\n      0xa9059cbb\n        /* \"lender.sol\":1889:1899  msg.sender */\n      caller\n        /* \"lender.sol\":1901:1911  loanAmount */\n      dup9\n        /* \"lender.sol\":1875:1912  loan.transfer(msg.sender, loanAmount) */\n      mload(0x40)\n      dup4\n      0xffffffff\n      and\n      0xe0\n      shl\n      dup2\n      mstore\n      0x04\n      add\n      tag_141\n      swap3\n      swap2\n      swap1\n      tag_65\n      jump\t// in\n    tag_141:\n      0x20\n      mload(0x40)\n      dup1\n      dup4\n      sub\n      dup2\n      0x00\n      dup8\n      gas\n      call\n      iszero\n      dup1\n      iszero\n      tag_143\n      jumpi\n      returndatasize\n      0x00\n      dup1\n      returndatacopy\n      revert(0x00, returndatasize)\n    tag_143:\n      pop\n      pop\n      pop\n      pop\n      mload(0x40)\n      returndatasize\n      not(0x1f)\n      0x1f\n      dup3\n      add\n      and\n      dup3\n      add\n      dup1\n      0x40\n      mstore\n      pop\n      dup2\n      add\n      swap1\n      tag_144\n      swap2\n      swap1\n      tag_69\n      jump\t// in\n    tag_144:\n      pop\n        /* \"lender.sol\":1923:1928  loans */\n      0x01\n        /* \"lender.sol\":1923:1940  loans[msg.sender] */\n      0x00\n        /* \"lender.sol\":1929:1939  msg.sender */\n      caller\n        /* \"lender.sol\":1923:1940  loans[msg.sender] */\n      0xffffffffffffffffffffffffffffffffffffffff\n      and\n      0xffffffffffffffffffffffffffffffffffffffff\n      and\n      dup2\n      mstore\n      0x20\n      add\n      swap1\n      dup2\n      mstore\n      0x20\n      add\n      0x00\n      keccak256\n        /* \"lender.sol\":1959:2284  Loan({... */\n      mload(0x40)\n      dup1\n      0xe0\n      add\n      0x40\n      mstore\n      dup1\n        /* \"lender.sol\":2000:2016  collateralAmount */\n      dup11\n        /* \"lender.sol\":1959:2284  Loan({... */\n      dup2\n      mstore\n      0x20\n      add\n        /* \"lender.sol\":2046:2056  loanAmount */\n      dup9\n        /* \"lender.sol\":1959:2284  Loan({... */\n      dup2\n      mstore\n      0x20\n      add\n        /* \"lender.sol\":2091:2106  collateralToken */\n      dup10\n        /* \"lender.sol\":1959:2284  Loan({... */\n      0xffffffffffffffffffffffffffffffffffffffff\n      and\n      dup2\n      mstore\n      0x20\n      add\n        /* \"lender.sol\":2135:2144  loanToken */\n      dup8\n        /* \"lender.sol\":1959:2284  Loan({... */\n      0xffffffffffffffffffffffffffffffffffffffff\n      and\n      dup2\n      mstore\n      0x20\n      add\n        /* \"lender.sol\":2173:2182  recipient */\n      dup7\n        /* \"lender.sol\":1959:2284  Loan({... */\n      0xffffffffffffffffffffffffffffffffffffffff\n      and\n      dup2\n      mstore\n      0x20\n      add\n        /* \"lender.sol\":2228:2236  duration */\n      dup6\n        /* \"lender.sol\":2210:2225  block.timestamp */\n      timestamp\n        /* \"lender.sol\":2210:2236  block.timestamp + duration */\n      tag_145\n      swap2\n      swap1\n      tag_146\n      jump\t// in\n    tag_145:\n        /* \"lender.sol\":1959:2284  Loan({... */\n      dup2\n      mstore\n      0x20\n      add\n        /* \"lender.sol\":2264:2269  false */\n      0x00\n        /* \"lender.sol\":1959:2284  Loan({... */\n      iszero\n      iszero\n      dup2\n      mstore\n      pop\n        /* \"lender.sol\":1923:2294  loans[msg.sender].push(... */\n      swap1\n      dup1\n      0x01\n      dup2\n      sload\n      add\n      dup1\n      dup3\n      sstore\n      dup1\n      swap2\n      pop\n      pop\n      0x01\n      swap1\n      sub\n      swap1\n      0x00\n      mstore\n      keccak256(0x00, 0x20)\n      swap1\n      0x07\n      mul\n      add\n      0x00\n      swap1\n      swap2\n      swap1\n      swap2\n      swap1\n      swap2\n      pop\n      0x00\n      dup3\n      add\n      mload\n      dup2\n      0x00\n      add\n      sstore\n      0x20\n      dup3\n      add\n      mload\n      dup2\n      0x01\n      add\n      sstore\n      0x40\n      dup3\n      add\n      mload\n      dup2\n      0x02\n      add\n      exp(0x0100, 0x00)\n      dup2\n      sload\n      dup2\n      0xffffffffffffffffffffffffffffffffffffffff\n      mul\n      not\n      and\n      swap1\n      dup4\n      0xffffffffffffffffffffffffffffffffffffffff\n      and\n      mul\n      or\n      swap1\n      sstore\n      pop\n      0x60\n      dup3\n      add\n      mload\n      dup2\n      0x03\n      add\n      exp(0x0100, 0x00)\n      dup2\n      sload\n      dup2\n      0xffffffffffffffffffffffffffffffffffffffff\n      mul\n      not\n      and\n      swap1\n      dup4\n      0xffffffffffffffffffffffffffffffffffffffff\n      and\n      mul\n      or\n      swap1\n      sstore\n      pop\n      0x80\n      dup3\n      add\n      mload\n      dup2\n      0x04\n      add\n      exp(0x0100, 0x00)\n      dup2\n      sload\n      dup2\n      0xffffffffffffffffffffffffffffffffffffffff\n      mul\n      not\n      and\n      swap1\n      dup4\n      0xffffffffffffffffffffffffffffffffffffffff\n      and\n      mul\n      or\n      swap1\n      sstore\n      pop\n      0xa0\n      dup3\n      add\n      mload\n      dup2\n      0x05\n      add\n      sstore\n      0xc0\n      dup3\n      add\n      mload\n      dup2\n      0x06\n      add\n      exp(0x0100, 0x00)\n      dup2\n      sload\n      dup2\n      0xff\n      mul\n      not\n      and\n      swap1\n      dup4\n      iszero\n      iszero\n      mul\n      or\n      swap1\n      sstore\n      pop\n      pop\n      pop\n        /* \"lender.sol\":2327:2337  msg.sender */\n      caller\n        /* \"lender.sol\":2310:2373  CollateralLocked(msg.sender, collateralAmount, collateralToken) */\n      0xffffffffffffffffffffffffffffffffffffffff\n      and\n      0x56b60085244fe1afa467f92231debadc8bcb6127e9dbf35dbb58ca8406a423fe\n        /* \"lender.sol\":2339:2355  collateralAmount */\n      dup10\n        /* \"lender.sol\":2357:2372  collateralToken */\n      dup10\n        /* \"lender.sol\":2310:2373  CollateralLocked(msg.sender, collateralAmount, collateralToken) */\n      mload(0x40)\n      tag_148\n      swap3\n      swap2\n      swap1\n      tag_112\n      jump\t// in\n    tag_148:\n      mload(0x40)\n      dup1\n      swap2\n      sub\n      swap1\n      log2\n        /* \"lender.sol\":2399:2409  msg.sender */\n      caller\n        /* \"lender.sol\":2388:2433  LoanIssued(msg.sender, loanAmount, loanToken) */\n      0xffffffffffffffffffffffffffffffffffffffff\n      and\n      0xe5024716f30be6e51e2a7cc6145e6659cd5bdb7a0c451e22b7e9d39c9b5f03ac\n        /* \"lender.sol\":2411:2421  loanAmount */\n      dup8\n        /* \"lender.sol\":2423:2432  loanToken */\n      dup8\n        /* \"lender.sol\":2388:2433  LoanIssued(msg.sender, loanAmount, loanToken) */\n      mload(0x40)\n      tag_149\n      swap3\n      swap2\n      swap1\n      tag_112\n      jump\t// in\n    tag_149:\n      mload(0x40)\n      dup1\n      swap2\n      sub\n      swap1\n      log2\n        /* \"lender.sol\":1176:2440  {... */\n      pop\n      pop\n        /* \"lender.sol\":953:2440  function lockCollateralAndBorrow(... */\n      pop\n      pop\n      pop\n      pop\n      pop\n      pop\n      jump\t// out\n        /* \"lender.sol\":3641:3879  function getLoanDetails(address user, uint256 loanIndex)... */\n    tag_44:\n        /* \"lender.sol\":3745:3756  Loan memory */\n      tag_150\n      tag_151\n      jump\t// in\n    tag_150:\n        /* \"lender.sol\":3792:3797  loans */\n      0x01\n        /* \"lender.sol\":3792:3803  loans[user] */\n      0x00\n        /* \"lender.sol\":3798:3802  user */\n      dup5\n        /* \"lender.sol\":3792:3803  loans[user] */\n      0xffffffffffffffffffffffffffffffffffffffff\n      and\n      0xffffffffffffffffffffffffffffffffffffffff\n      and\n      dup2\n      mstore\n      0x20\n      add\n      swap1\n      dup2\n      mstore\n      0x20\n      add\n      0x00\n      keccak256\n        /* \"lender.sol\":3792:3810  loans[user].length */\n      dup1\n      sload\n      swap1\n      pop\n        /* \"lender.sol\":3780:3789  loanIndex */\n      dup3\n        /* \"lender.sol\":3780:3810  loanIndex < loans[user].length */\n      lt\n        /* \"lender.sol\":3772:3833  require(loanIndex < loans[user].length, \"Invalid loan index\") */\n      tag_153\n      jumpi\n      mload(0x40)\n      0x08c379a000000000000000000000000000000000000000000000000000000000\n      dup2\n      mstore\n      0x04\n      add\n      tag_154\n      swap1\n      tag_81\n      jump\t// in\n    tag_154:\n      mload(0x40)\n      dup1\n      swap2\n      sub\n      swap1\n      revert\n    tag_153:\n        /* \"lender.sol\":3850:3855  loans */\n      0x01\n        /* \"lender.sol\":3850:3861  loans[user] */\n      0x00\n        /* \"lender.sol\":3856:3860  user */\n      dup5\n        /* \"lender.sol\":3850:3861  loans[user] */\n      0xffffffffffffffffffffffffffffffffffffffff\n      and\n      0xffffffffffffffffffffffffffffffffffffffff\n      and\n      dup2\n      mstore\n      0x20\n      add\n      swap1\n      dup2\n      mstore\n      0x20\n      add\n      0x00\n      keccak256\n        /* \"lender.sol\":3862:3871  loanIndex */\n      dup3\n        /* \"lender.sol\":3850:3872  loans[user][loanIndex] */\n      dup2\n      sload\n      dup2\n      lt\n      tag_155\n      jumpi\n      tag_156\n      tag_84\n      jump\t// in\n    tag_156:\n    tag_155:\n      swap1\n      0x00\n      mstore\n      keccak256(0x00, 0x20)\n      swap1\n      0x07\n      mul\n      add\n        /* \"lender.sol\":3843:3872  return loans[user][loanIndex] */\n      mload(0x40)\n      dup1\n      0xe0\n      add\n      0x40\n      mstore\n      swap1\n      dup2\n      0x00\n      dup3\n      add\n      sload\n      dup2\n      mstore\n      0x20\n      add\n      0x01\n      dup3\n      add\n      sload\n      dup2\n      mstore\n      0x20\n      add\n      0x02\n      dup3\n      add\n      0x00\n      swap1\n      sload\n      swap1\n      0x0100\n      exp\n      swap1\n      div\n      0xffffffffffffffffffffffffffffffffffffffff\n      and\n      0xffffffffffffffffffffffffffffffffffffffff\n      and\n      0xffffffffffffffffffffffffffffffffffffffff\n      and\n      dup2\n      mstore\n      0x20\n      add\n      0x03\n      dup3\n      add\n      0x00\n      swap1\n      sload\n      swap1\n      0x0100\n      exp\n      swap1\n      div\n      0xffffffffffffffffffffffffffffffffffffffff\n      and\n      0xffffffffffffffffffffffffffffffffffffffff\n      and\n      0xffffffffffffffffffffffffffffffffffffffff\n      and\n      dup2\n      mstore\n      0x20\n      add\n      0x04\n      dup3\n      add\n      0x00\n      swap1\n      sload\n      swap1\n      0x0100\n      exp\n      swap1\n      div\n      0xffffffffffffffffffffffffffffffffffffffff\n      and\n      0xffffffffffffffffffffffffffffffffffffffff\n      and\n      0xffffffffffffffffffffffffffffffffffffffff\n      and\n      dup2\n      mstore\n      0x20\n      add\n      0x05\n      dup3\n      add\n      sload\n      dup2\n      mstore\n      0x20\n      add\n      0x06\n      dup3\n      add\n      0x00\n      swap1\n      sload\n      swap1\n      0x0100\n      exp\n      swap1\n      div\n      0xff\n      and\n      iszero\n      iszero\n      iszero\n      iszero\n      dup2\n      mstore\n      pop\n      pop\n      swap1\n      pop\n        /* \"lender.sol\":3641:3879  function getLoanDetails(address user, uint256 loanIndex)... */\n      swap3\n      swap2\n      pop\n      pop\n      jump\t// out\n        /* \"lender.sol\":3530:3635  function getLoans(address user) external view returns (Loan[] memory) {... */\n    tag_50:\n        /* \"lender.sol\":3585:3598  Loan[] memory */\n      0x60\n        /* \"lender.sol\":3617:3622  loans */\n      0x01\n        /* \"lender.sol\":3617:3628  loans[user] */\n      0x00\n        /* \"lender.sol\":3623:3627  user */\n      dup4\n        /* \"lender.sol\":3617:3628  loans[user] */\n      0xffffffffffffffffffffffffffffffffffffffff\n      and\n      0xffffffffffffffffffffffffffffffffffffffff\n      and\n      dup2\n      mstore\n      0x20\n      add\n      swap1\n      dup2\n      mstore\n      0x20\n      add\n      0x00\n      keccak256\n        /* \"lender.sol\":3610:3628  return loans[user] */\n      dup1\n      sload\n      dup1\n      0x20\n      mul\n      0x20\n      add\n      mload(0x40)\n      swap1\n      dup2\n      add\n      0x40\n      mstore\n      dup1\n      swap3\n      swap2\n      swap1\n      dup2\n      dup2\n      mstore\n      0x20\n      add\n      0x00\n      swap1\n    tag_159:\n      dup3\n      dup3\n      lt\n      iszero\n      tag_160\n      jumpi\n      dup4\n      dup3\n      swap1\n      0x00\n      mstore\n      keccak256(0x00, 0x20)\n      swap1\n      0x07\n      mul\n      add\n      mload(0x40)\n      dup1\n      0xe0\n      add\n      0x40\n      mstore\n      swap1\n      dup2\n      0x00\n      dup3\n      add\n      sload\n      dup2\n      mstore\n      0x20\n      add\n      0x01\n      dup3\n      add\n      sload\n      dup2\n      mstore\n      0x20\n      add\n      0x02\n      dup3\n      add\n      0x00\n      swap1\n      sload\n      swap1\n      0x0100\n      exp\n      swap1\n      div\n      0xffffffffffffffffffffffffffffffffffffffff\n      and\n      0xffffffffffffffffffffffffffffffffffffffff\n      and\n      0xffffffffffffffffffffffffffffffffffffffff\n      and\n      dup2\n      mstore\n      0x20\n      add\n      0x03\n      dup3\n      add\n      0x00\n      swap1\n      sload\n      swap1\n      0x0100\n      exp\n      swap1\n      div\n      0xffffffffffffffffffffffffffffffffffffffff\n      and\n      0xffffffffffffffffffffffffffffffffffffffff\n      and\n      0xffffffffffffffffffffffffffffffffffffffff\n      and\n      dup2\n      mstore\n      0x20\n      add\n      0x04\n      dup3\n      add\n      0x00\n      swap1\n      sload\n      swap1\n      0x0100\n      exp\n      swap1\n      div\n      0xffffffffffffffffffffffffffffffffffffffff\n      and\n      0xffffffffffffffffffffffffffffffffffffffff\n      and\n      0xffffffffffffffffffffffffffffffffffffffff\n      and\n      dup2\n      mstore\n      0x20\n      add\n      0x05\n      dup3\n      add\n      sload\n      dup2\n      mstore\n      0x20\n      add\n      0x06\n      dup3\n      add\n      0x00\n      swap1\n      sload\n      swap1\n      0x0100\n      exp\n      swap1\n      div\n      0xff\n      and\n      iszero\n      iszero\n      iszero\n      iszero\n      dup2\n      mstore\n      pop\n      pop\n      dup2\n      mstore\n      0x20\n      add\n      swap1\n      0x01\n      add\n      swap1\n      jump(tag_159)\n    tag_160:\n      pop\n      pop\n      pop\n      pop\n      swap1\n      pop\n        /* \"lender.sol\":3530:3635  function getLoans(address user) external view returns (Loan[] memory) {... */\n      swap2\n      swap1\n      pop\n      jump\t// out\n        /* \"@openzeppelin/contracts/access/Ownable.sol\":2543:2758  function transferOwnership(address newOwner) public virtual onlyOwner {... */\n    tag_55:\n        /* \"@openzeppelin/contracts/access/Ownable.sol\":1531:1544  _checkOwner() */\n      tag_163\n        /* \"@openzeppelin/contracts/access/Ownable.sol\":1531:1542  _checkOwner */\n      tag_62\n        /* \"@openzeppelin/contracts/access/Ownable.sol\":1531:1544  _checkOwner() */\n      jump\t// in\n    tag_163:\n        /* \"@openzeppelin/contracts/access/Ownable.sol\":2647:2648  0 */\n      0x00\n        /* \"@openzeppelin/contracts/access/Ownable.sol\":2627:2649  newOwner == address(0) */\n      0xffffffffffffffffffffffffffffffffffffffff\n      and\n        /* \"@openzeppelin/contracts/access/Ownable.sol\":2627:2635  newOwner */\n      dup2\n        /* \"@openzeppelin/contracts/access/Ownable.sol\":2627:2649  newOwner == address(0) */\n      0xffffffffffffffffffffffffffffffffffffffff\n      and\n      sub\n        /* \"@openzeppelin/contracts/access/Ownable.sol\":2623:2714  if (newOwner == address(0)) {... */\n      tag_165\n      jumpi\n        /* \"@openzeppelin/contracts/access/Ownable.sol\":2700:2701  0 */\n      0x00\n        /* \"@openzeppelin/contracts/access/Ownable.sol\":2672:2703  OwnableInvalidOwner(address(0)) */\n      mload(0x40)\n      0x1e4fbdf700000000000000000000000000000000000000000000000000000000\n      dup2\n      mstore\n      0x04\n      add\n      tag_166\n      swap2\n      swap1\n      tag_28\n      jump\t// in\n    tag_166:\n      mload(0x40)\n      dup1\n      swap2\n      sub\n      swap1\n      revert\n        /* \"@openzeppelin/contracts/access/Ownable.sol\":2623:2714  if (newOwner == address(0)) {... */\n    tag_165:\n        /* \"@openzeppelin/contracts/access/Ownable.sol\":2723:2751  _transferOwnership(newOwner) */\n      tag_167\n        /* \"@openzeppelin/contracts/access/Ownable.sol\":2742:2750  newOwner */\n      dup2\n        /* \"@openzeppelin/contracts/access/Ownable.sol\":2723:2741  _transferOwnership */\n      tag_74\n        /* \"@openzeppelin/contracts/access/Ownable.sol\":2723:2751  _transferOwnership(newOwner) */\n      jump\t// in\n    tag_167:\n        /* \"@openzeppelin/contracts/access/Ownable.sol\":2543:2758  function transferOwnership(address newOwner) public virtual onlyOwner {... */\n      pop\n      jump\t// out\n        /* \"lender.sol\":3885:3995  function getLoanCount(address user) external view returns (uint256) {... */\n    tag_58:\n        /* \"lender.sol\":3944:3951  uint256 */\n      0x00\n        /* \"lender.sol\":3970:3975  loans */\n      0x01\n        /* \"lender.sol\":3970:3981  loans[user] */\n      0x00\n        /* \"lender.sol\":3976:3980  user */\n      dup4\n        /* \"lender.sol\":3970:3981  loans[user] */\n      0xffffffffffffffffffffffffffffffffffffffff\n      and\n      0xffffffffffffffffffffffffffffffffffffffff\n      and\n      dup2\n      mstore\n      0x20\n      add\n      swap1\n      dup2\n      mstore\n      0x20\n      add\n      0x00\n      keccak256\n        /* \"lender.sol\":3970:3988  loans[user].length */\n      dup1\n      sload\n      swap1\n      pop\n        /* \"lender.sol\":3963:3988  return loans[user].length */\n      swap1\n      pop\n        /* \"lender.sol\":3885:3995  function getLoanCount(address user) external view returns (uint256) {... */\n      swap2\n      swap1\n      pop\n      jump\t// out\n        /* \"@openzeppelin/contracts/access/Ownable.sol\":1796:1958  function _checkOwner() internal view virtual {... */\n    tag_62:\n        /* \"@openzeppelin/contracts/access/Ownable.sol\":1866:1878  _msgSender() */\n      tag_170\n        /* \"@openzeppelin/contracts/access/Ownable.sol\":1866:1876  _msgSender */\n      tag_171\n        /* \"@openzeppelin/contracts/access/Ownable.sol\":1866:1878  _msgSender() */\n      jump\t// in\n    tag_170:\n        /* \"@openzeppelin/contracts/access/Ownable.sol\":1855:1878  owner() != _msgSender() */\n      0xffffffffffffffffffffffffffffffffffffffff\n      and\n        /* \"@openzeppelin/contracts/access/Ownable.sol\":1855:1862  owner() */\n      tag_172\n        /* \"@openzeppelin/contracts/access/Ownable.sol\":1855:1860  owner */\n      tag_26\n        /* \"@openzeppelin/contracts/access/Ownable.sol\":1855:1862  owner() */\n      jump\t// in\n    tag_172:\n        /* \"@openzeppelin/contracts/access/Ownable.sol\":1855:1878  owner() != _msgSender() */\n      0xffffffffffffffffffffffffffffffffffffffff\n      and\n      eq\n        /* \"@openzeppelin/contracts/access/Ownable.sol\":1851:1952  if (owner() != _msgSender()) {... */\n      tag_173\n      jumpi\n        /* \"@openzeppelin/contracts/access/Ownable.sol\":1928:1940  _msgSender() */\n      tag_174\n        /* \"@openzeppelin/contracts/access/Ownable.sol\":1928:1938  _msgSender */\n      tag_171\n        /* \"@openzeppelin/contracts/access/Ownable.sol\":1928:1940  _msgSender() */\n      jump\t// in\n    tag_174:\n        /* \"@openzeppelin/contracts/access/Ownable.sol\":1901:1941  OwnableUnauthorizedAccount(_msgSender()) */\n      mload(0x40)\n      0x118cdaa700000000000000000000000000000000000000000000000000000000\n      dup2\n      mstore\n      0x04\n      add\n      tag_175\n      swap2\n      swap1\n      tag_28\n      jump\t// in\n    tag_175:\n      mload(0x40)\n      dup1\n      swap2\n      sub\n      swap1\n      revert\n        /* \"@openzeppelin/contracts/access/Ownable.sol\":1851:1952  if (owner() != _msgSender()) {... */\n    tag_173:\n        /* \"@openzeppelin/contracts/access/Ownable.sol\":1796:1958  function _checkOwner() internal view virtual {... */\n      jump\t// out\n        /* \"@openzeppelin/contracts/access/Ownable.sol\":2912:3099  function _transferOwnership(address newOwner) internal virtual {... */\n    tag_74:\n        /* \"@openzeppelin/contracts/access/Ownable.sol\":2985:3001  address oldOwner */\n      0x00\n        /* \"@openzeppelin/contracts/access/Ownable.sol\":3004:3010  _owner */\n      dup1\n      0x00\n      swap1\n      sload\n      swap1\n      0x0100\n      exp\n      swap1\n      div\n      0xffffffffffffffffffffffffffffffffffffffff\n      and\n        /* \"@openzeppelin/contracts/access/Ownable.sol\":2985:3010  address oldOwner = _owner */\n      swap1\n      pop\n        /* \"@openzeppelin/contracts/access/Ownable.sol\":3029:3037  newOwner */\n      dup2\n        /* \"@openzeppelin/contracts/access/Ownable.sol\":3020:3026  _owner */\n      0x00\n      dup1\n        /* \"@openzeppelin/contracts/access/Ownable.sol\":3020:3037  _owner = newOwner */\n      0x0100\n      exp\n      dup2\n      sload\n      dup2\n      0xffffffffffffffffffffffffffffffffffffffff\n      mul\n      not\n      and\n      swap1\n      dup4\n      0xffffffffffffffffffffffffffffffffffffffff\n      and\n      mul\n      or\n      swap1\n      sstore\n      pop\n        /* \"@openzeppelin/contracts/access/Ownable.sol\":3083:3091  newOwner */\n      dup2\n        /* \"@openzeppelin/contracts/access/Ownable.sol\":3052:3092  OwnershipTransferred(oldOwner, newOwner) */\n      0xffffffffffffffffffffffffffffffffffffffff\n      and\n        /* \"@openzeppelin/contracts/access/Ownable.sol\":3073:3081  oldOwner */\n      dup2\n        /* \"@openzeppelin/contracts/access/Ownable.sol\":3052:3092  OwnershipTransferred(oldOwner, newOwner) */\n      0xffffffffffffffffffffffffffffffffffffffff\n      and\n      0x8be0079c531659141344cd1fd0a4f28419497f9722a3daafe3b4186f6b6457e0\n      mload(0x40)\n      mload(0x40)\n      dup1\n      swap2\n      sub\n      swap1\n      log3\n        /* \"@openzeppelin/contracts/access/Ownable.sol\":2975:3099  {... */\n      pop\n        /* \"@openzeppelin/contracts/access/Ownable.sol\":2912:3099  function _transferOwnership(address newOwner) internal virtual {... */\n      pop\n      jump\t// out\n        /* \"@openzeppelin/contracts/utils/Context.sol\":656:752  function _msgSender() internal view virtual returns (address) {... */\n    tag_171:\n        /* \"@openzeppelin/contracts/utils/Context.sol\":709:716  address */\n      0x00\n        /* \"@openzeppelin/contracts/utils/Context.sol\":735:745  msg.sender */\n      caller\n        /* \"@openzeppelin/contracts/utils/Context.sol\":728:745  return msg.sender */\n      swap1\n      pop\n        /* \"@openzeppelin/contracts/utils/Context.sol\":656:752  function _msgSender() internal view virtual returns (address) {... */\n      swap1\n      jump\t// out\n    tag_151:\n      mload(0x40)\n      dup1\n      0xe0\n      add\n      0x40\n      mstore\n      dup1\n      0x00\n      dup2\n      mstore\n      0x20\n      add\n      0x00\n      dup2\n      mstore\n      0x20\n      add\n      and(0xffffffffffffffffffffffffffffffffffffffff, 0x00)\n      dup2\n      mstore\n      0x20\n      add\n      and(0xffffffffffffffffffffffffffffffffffffffff, 0x00)\n      dup2\n      mstore\n      0x20\n      add\n      and(0xffffffffffffffffffffffffffffffffffffffff, 0x00)\n      dup2\n      mstore\n      0x20\n      add\n      0x00\n      dup2\n      mstore\n      0x20\n      add\n      iszero(iszero(0x00))\n      dup2\n      mstore\n      pop\n      swap1\n      jump\t// out\n        /* \"#utility.yul\":88:205   */\n    tag_179:\n        /* \"#utility.yul\":197:198   */\n      0x00\n        /* \"#utility.yul\":194:195   */\n      dup1\n        /* \"#utility.yul\":187:199   */\n      revert\n        /* \"#utility.yul\":334:460   */\n    tag_181:\n        /* \"#utility.yul\":371:378   */\n      0x00\n        /* \"#utility.yul\":411:453   */\n      0xffffffffffffffffffffffffffffffffffffffff\n        /* \"#utility.yul\":404:409   */\n      dup3\n        /* \"#utility.yul\":400:454   */\n      and\n        /* \"#utility.yul\":389:454   */\n      swap1\n      pop\n        /* \"#utility.yul\":334:460   */\n      swap2\n      swap1\n      pop\n      jump\t// out\n        /* \"#utility.yul\":466:562   */\n    tag_182:\n        /* \"#utility.yul\":503:510   */\n      0x00\n        /* \"#utility.yul\":532:556   */\n      tag_232\n        /* \"#utility.yul\":550:555   */\n      dup3\n        /* \"#utility.yul\":532:556   */\n      tag_181\n      jump\t// in\n    tag_232:\n        /* \"#utility.yul\":521:556   */\n      swap1\n      pop\n        /* \"#utility.yul\":466:562   */\n      swap2\n      swap1\n      pop\n      jump\t// out\n        /* \"#utility.yul\":568:690   */\n    tag_183:\n        /* \"#utility.yul\":641:665   */\n      tag_234\n        /* \"#utility.yul\":659:664   */\n      dup2\n        /* \"#utility.yul\":641:665   */\n      tag_182\n      jump\t// in\n    tag_234:\n        /* \"#utility.yul\":634:639   */\n      dup2\n        /* \"#utility.yul\":631:666   */\n      eq\n        /* \"#utility.yul\":621:684   */\n      tag_235\n      jumpi\n        /* \"#utility.yul\":680:681   */\n      0x00\n        /* \"#utility.yul\":677:678   */\n      dup1\n        /* \"#utility.yul\":670:682   */\n      revert\n        /* \"#utility.yul\":621:684   */\n    tag_235:\n        /* \"#utility.yul\":568:690   */\n      pop\n      jump\t// out\n        /* \"#utility.yul\":696:835   */\n    tag_184:\n        /* \"#utility.yul\":742:747   */\n      0x00\n        /* \"#utility.yul\":780:786   */\n      dup2\n        /* \"#utility.yul\":767:787   */\n      calldataload\n        /* \"#utility.yul\":758:787   */\n      swap1\n      pop\n        /* \"#utility.yul\":796:829   */\n      tag_237\n        /* \"#utility.yul\":823:828   */\n      dup2\n        /* \"#utility.yul\":796:829   */\n      tag_183\n      jump\t// in\n    tag_237:\n        /* \"#utility.yul\":696:835   */\n      swap3\n      swap2\n      pop\n      pop\n      jump\t// out\n        /* \"#utility.yul\":841:918   */\n    tag_185:\n        /* \"#utility.yul\":878:885   */\n      0x00\n        /* \"#utility.yul\":907:912   */\n      dup2\n        /* \"#utility.yul\":896:912   */\n      swap1\n      pop\n        /* \"#utility.yul\":841:918   */\n      swap2\n      swap1\n      pop\n      jump\t// out\n        /* \"#utility.yul\":924:1046   */\n    tag_186:\n        /* \"#utility.yul\":997:1021   */\n      tag_240\n        /* \"#utility.yul\":1015:1020   */\n      dup2\n        /* \"#utility.yul\":997:1021   */\n      tag_185\n      jump\t// in\n    tag_240:\n        /* \"#utility.yul\":990:995   */\n      dup2\n        /* \"#utility.yul\":987:1022   */\n      eq\n        /* \"#utility.yul\":977:1040   */\n      tag_241\n      jumpi\n        /* \"#utility.yul\":1036:1037   */\n      0x00\n        /* \"#utility.yul\":1033:1034   */\n      dup1\n        /* \"#utility.yul\":1026:1038   */\n      revert\n        /* \"#utility.yul\":977:1040   */\n    tag_241:\n        /* \"#utility.yul\":924:1046   */\n      pop\n      jump\t// out\n        /* \"#utility.yul\":1052:1191   */\n    tag_187:\n        /* \"#utility.yul\":1098:1103   */\n      0x00\n        /* \"#utility.yul\":1136:1142   */\n      dup2\n        /* \"#utility.yul\":1123:1143   */\n      calldataload\n        /* \"#utility.yul\":1114:1143   */\n      swap1\n      pop\n        /* \"#utility.yul\":1152:1185   */\n      tag_243\n        /* \"#utility.yul\":1179:1184   */\n      dup2\n        /* \"#utility.yul\":1152:1185   */\n      tag_186\n      jump\t// in\n    tag_243:\n        /* \"#utility.yul\":1052:1191   */\n      swap3\n      swap2\n      pop\n      pop\n      jump\t// out\n        /* \"#utility.yul\":1197:1671   */\n    tag_17:\n        /* \"#utility.yul\":1265:1271   */\n      0x00\n        /* \"#utility.yul\":1273:1279   */\n      dup1\n        /* \"#utility.yul\":1322:1324   */\n      0x40\n        /* \"#utility.yul\":1310:1319   */\n      dup4\n        /* \"#utility.yul\":1301:1308   */\n      dup6\n        /* \"#utility.yul\":1297:1320   */\n      sub\n        /* \"#utility.yul\":1293:1325   */\n      slt\n        /* \"#utility.yul\":1290:1409   */\n      iszero\n      tag_245\n      jumpi\n        /* \"#utility.yul\":1328:1407   */\n      tag_246\n      tag_179\n      jump\t// in\n    tag_246:\n        /* \"#utility.yul\":1290:1409   */\n    tag_245:\n        /* \"#utility.yul\":1448:1449   */\n      0x00\n        /* \"#utility.yul\":1473:1526   */\n      tag_247\n        /* \"#utility.yul\":1518:1525   */\n      dup6\n        /* \"#utility.yul\":1509:1515   */\n      dup3\n        /* \"#utility.yul\":1498:1507   */\n      dup7\n        /* \"#utility.yul\":1494:1516   */\n      add\n        /* \"#utility.yul\":1473:1526   */\n      tag_184\n      jump\t// in\n    tag_247:\n        /* \"#utility.yul\":1463:1526   */\n      swap3\n      pop\n        /* \"#utility.yul\":1419:1536   */\n      pop\n        /* \"#utility.yul\":1575:1577   */\n      0x20\n        /* \"#utility.yul\":1601:1654   */\n      tag_248\n        /* \"#utility.yul\":1646:1653   */\n      dup6\n        /* \"#utility.yul\":1637:1643   */\n      dup3\n        /* \"#utility.yul\":1626:1635   */\n      dup7\n        /* \"#utility.yul\":1622:1644   */\n      add\n        /* \"#utility.yul\":1601:1654   */\n      tag_187\n      jump\t// in\n    tag_248:\n        /* \"#utility.yul\":1591:1654   */\n      swap2\n      pop\n        /* \"#utility.yul\":1546:1664   */\n      pop\n        /* \"#utility.yul\":1197:1671   */\n      swap3\n      pop\n      swap3\n      swap1\n      pop\n      jump\t// out\n        /* \"#utility.yul\":1677:1795   */\n    tag_188:\n        /* \"#utility.yul\":1764:1788   */\n      tag_250\n        /* \"#utility.yul\":1782:1787   */\n      dup2\n        /* \"#utility.yul\":1764:1788   */\n      tag_185\n      jump\t// in\n    tag_250:\n        /* \"#utility.yul\":1759:1762   */\n      dup3\n        /* \"#utility.yul\":1752:1789   */\n      mstore\n        /* \"#utility.yul\":1677:1795   */\n      pop\n      pop\n      jump\t// out\n        /* \"#utility.yul\":1801:2023   */\n    tag_22:\n        /* \"#utility.yul\":1894:1898   */\n      0x00\n        /* \"#utility.yul\":1932:1934   */\n      0x20\n        /* \"#utility.yul\":1921:1930   */\n      dup3\n        /* \"#utility.yul\":1917:1935   */\n      add\n        /* \"#utility.yul\":1909:1935   */\n      swap1\n      pop\n        /* \"#utility.yul\":1945:2016   */\n      tag_252\n        /* \"#utility.yul\":2013:2014   */\n      0x00\n        /* \"#utility.yul\":2002:2011   */\n      dup4\n        /* \"#utility.yul\":1998:2015   */\n      add\n        /* \"#utility.yul\":1989:1995   */\n      dup5\n        /* \"#utility.yul\":1945:2016   */\n      tag_188\n      jump\t// in\n    tag_252:\n        /* \"#utility.yul\":1801:2023   */\n      swap3\n      swap2\n      pop\n      pop\n      jump\t// out\n        /* \"#utility.yul\":2029:2147   */\n    tag_189:\n        /* \"#utility.yul\":2116:2140   */\n      tag_254\n        /* \"#utility.yul\":2134:2139   */\n      dup2\n        /* \"#utility.yul\":2116:2140   */\n      tag_182\n      jump\t// in\n    tag_254:\n        /* \"#utility.yul\":2111:2114   */\n      dup3\n        /* \"#utility.yul\":2104:2141   */\n      mstore\n        /* \"#utility.yul\":2029:2147   */\n      pop\n      pop\n      jump\t// out\n        /* \"#utility.yul\":2153:2375   */\n    tag_28:\n        /* \"#utility.yul\":2246:2250   */\n      0x00\n        /* \"#utility.yul\":2284:2286   */\n      0x20\n        /* \"#utility.yul\":2273:2282   */\n      dup3\n        /* \"#utility.yul\":2269:2287   */\n      add\n        /* \"#utility.yul\":2261:2287   */\n      swap1\n      pop\n        /* \"#utility.yul\":2297:2368   */\n      tag_256\n        /* \"#utility.yul\":2365:2366   */\n      0x00\n        /* \"#utility.yul\":2354:2363   */\n      dup4\n        /* \"#utility.yul\":2350:2367   */\n      add\n        /* \"#utility.yul\":2341:2347   */\n      dup5\n        /* \"#utility.yul\":2297:2368   */\n      tag_189\n      jump\t// in\n    tag_256:\n        /* \"#utility.yul\":2153:2375   */\n      swap3\n      swap2\n      pop\n      pop\n      jump\t// out\n        /* \"#utility.yul\":2381:2471   */\n    tag_190:\n        /* \"#utility.yul\":2415:2422   */\n      0x00\n        /* \"#utility.yul\":2458:2463   */\n      dup2\n        /* \"#utility.yul\":2451:2464   */\n      iszero\n        /* \"#utility.yul\":2444:2465   */\n      iszero\n        /* \"#utility.yul\":2433:2465   */\n      swap1\n      pop\n        /* \"#utility.yul\":2381:2471   */\n      swap2\n      swap1\n      pop\n      jump\t// out\n        /* \"#utility.yul\":2477:2586   */\n    tag_191:\n        /* \"#utility.yul\":2558:2579   */\n      tag_259\n        /* \"#utility.yul\":2573:2578   */\n      dup2\n        /* \"#utility.yul\":2558:2579   */\n      tag_190\n      jump\t// in\n    tag_259:\n        /* \"#utility.yul\":2553:2556   */\n      dup3\n        /* \"#utility.yul\":2546:2580   */\n      mstore\n        /* \"#utility.yul\":2477:2586   */\n      pop\n      pop\n      jump\t// out\n        /* \"#utility.yul\":2592:3466   */\n    tag_33:\n        /* \"#utility.yul\":2847:2851   */\n      0x00\n        /* \"#utility.yul\":2885:2888   */\n      0xe0\n        /* \"#utility.yul\":2874:2883   */\n      dup3\n        /* \"#utility.yul\":2870:2889   */\n      add\n        /* \"#utility.yul\":2862:2889   */\n      swap1\n      pop\n        /* \"#utility.yul\":2899:2970   */\n      tag_261\n        /* \"#utility.yul\":2967:2968   */\n      0x00\n        /* \"#utility.yul\":2956:2965   */\n      dup4\n        /* \"#utility.yul\":2952:2969   */\n      add\n        /* \"#utility.yul\":2943:2949   */\n      dup11\n        /* \"#utility.yul\":2899:2970   */\n      tag_188\n      jump\t// in\n    tag_261:\n        /* \"#utility.yul\":2980:3052   */\n      tag_262\n        /* \"#utility.yul\":3048:3050   */\n      0x20\n        /* \"#utility.yul\":3037:3046   */\n      dup4\n        /* \"#utility.yul\":3033:3051   */\n      add\n        /* \"#utility.yul\":3024:3030   */\n      dup10\n        /* \"#utility.yul\":2980:3052   */\n      tag_188\n      jump\t// in\n    tag_262:\n        /* \"#utility.yul\":3062:3134   */\n      tag_263\n        /* \"#utility.yul\":3130:3132   */\n      0x40\n        /* \"#utility.yul\":3119:3128   */\n      dup4\n        /* \"#utility.yul\":3115:3133   */\n      add\n        /* \"#utility.yul\":3106:3112   */\n      dup9\n        /* \"#utility.yul\":3062:3134   */\n      tag_189\n      jump\t// in\n    tag_263:\n        /* \"#utility.yul\":3144:3216   */\n      tag_264\n        /* \"#utility.yul\":3212:3214   */\n      0x60\n        /* \"#utility.yul\":3201:3210   */\n      dup4\n        /* \"#utility.yul\":3197:3215   */\n      add\n        /* \"#utility.yul\":3188:3194   */\n      dup8\n        /* \"#utility.yul\":3144:3216   */\n      tag_189\n      jump\t// in\n    tag_264:\n        /* \"#utility.yul\":3226:3299   */\n      tag_265\n        /* \"#utility.yul\":3294:3297   */\n      0x80\n        /* \"#utility.yul\":3283:3292   */\n      dup4\n        /* \"#utility.yul\":3279:3298   */\n      add\n        /* \"#utility.yul\":3270:3276   */\n      dup7\n        /* \"#utility.yul\":3226:3299   */\n      tag_189\n      jump\t// in\n    tag_265:\n        /* \"#utility.yul\":3309:3382   */\n      tag_266\n        /* \"#utility.yul\":3377:3380   */\n      0xa0\n        /* \"#utility.yul\":3366:3375   */\n      dup4\n        /* \"#utility.yul\":3362:3381   */\n      add\n        /* \"#utility.yul\":3353:3359   */\n      dup6\n        /* \"#utility.yul\":3309:3382   */\n      tag_188\n      jump\t// in\n    tag_266:\n        /* \"#utility.yul\":3392:3459   */\n      tag_267\n        /* \"#utility.yul\":3454:3457   */\n      0xc0\n        /* \"#utility.yul\":3443:3452   */\n      dup4\n        /* \"#utility.yul\":3439:3458   */\n      add\n        /* \"#utility.yul\":3430:3436   */\n      dup5\n        /* \"#utility.yul\":3392:3459   */\n      tag_191\n      jump\t// in\n    tag_267:\n        /* \"#utility.yul\":2592:3466   */\n      swap9\n      swap8\n      pop\n      pop\n      pop\n      pop\n      pop\n      pop\n      pop\n      pop\n      jump\t// out\n        /* \"#utility.yul\":3472:3801   */\n    tag_36:\n        /* \"#utility.yul\":3531:3537   */\n      0x00\n        /* \"#utility.yul\":3580:3582   */\n      0x20\n        /* \"#utility.yul\":3568:3577   */\n      dup3\n        /* \"#utility.yul\":3559:3566   */\n      dup5\n        /* \"#utility.yul\":3555:3578   */\n      sub\n        /* \"#utility.yul\":3551:3583   */\n      slt\n        /* \"#utility.yul\":3548:3667   */\n      iszero\n      tag_269\n      jumpi\n        /* \"#utility.yul\":3586:3665   */\n      tag_270\n      tag_179\n      jump\t// in\n    tag_270:\n        /* \"#utility.yul\":3548:3667   */\n    tag_269:\n        /* \"#utility.yul\":3706:3707   */\n      0x00\n        /* \"#utility.yul\":3731:3784   */\n      tag_271\n        /* \"#utility.yul\":3776:3783   */\n      dup5\n        /* \"#utility.yul\":3767:3773   */\n      dup3\n        /* \"#utility.yul\":3756:3765   */\n      dup6\n        /* \"#utility.yul\":3752:3774   */\n      add\n        /* \"#utility.yul\":3731:3784   */\n      tag_187\n      jump\t// in\n    tag_271:\n        /* \"#utility.yul\":3721:3784   */\n      swap2\n      pop\n        /* \"#utility.yul\":3677:3794   */\n      pop\n        /* \"#utility.yul\":3472:3801   */\n      swap3\n      swap2\n      pop\n      pop\n      jump\t// out\n        /* \"#utility.yul\":3807:4864   */\n    tag_40:\n        /* \"#utility.yul\":3911:3917   */\n      0x00\n        /* \"#utility.yul\":3919:3925   */\n      dup1\n        /* \"#utility.yul\":3927:3933   */\n      0x00\n        /* \"#utility.yul\":3935:3941   */\n      dup1\n        /* \"#utility.yul\":3943:3949   */\n      0x00\n        /* \"#utility.yul\":3951:3957   */\n      dup1\n        /* \"#utility.yul\":4000:4003   */\n      0xc0\n        /* \"#utility.yul\":3988:3997   */\n      dup8\n        /* \"#utility.yul\":3979:3986   */\n      dup10\n        /* \"#utility.yul\":3975:3998   */\n      sub\n        /* \"#utility.yul\":3971:4004   */\n      slt\n        /* \"#utility.yul\":3968:4088   */\n      iszero\n      tag_273\n      jumpi\n        /* \"#utility.yul\":4007:4086   */\n      tag_274\n      tag_179\n      jump\t// in\n    tag_274:\n        /* \"#utility.yul\":3968:4088   */\n    tag_273:\n        /* \"#utility.yul\":4127:4128   */\n      0x00\n        /* \"#utility.yul\":4152:4205   */\n      tag_275\n        /* \"#utility.yul\":4197:4204   */\n      dup10\n        /* \"#utility.yul\":4188:4194   */\n      dup3\n        /* \"#utility.yul\":4177:4186   */\n      dup11\n        /* \"#utility.yul\":4173:4195   */\n      add\n        /* \"#utility.yul\":4152:4205   */\n      tag_187\n      jump\t// in\n    tag_275:\n        /* \"#utility.yul\":4142:4205   */\n      swap7\n      pop\n        /* \"#utility.yul\":4098:4215   */\n      pop\n        /* \"#utility.yul\":4254:4256   */\n      0x20\n        /* \"#utility.yul\":4280:4333   */\n      tag_276\n        /* \"#utility.yul\":4325:4332   */\n      dup10\n        /* \"#utility.yul\":4316:4322   */\n      dup3\n        /* \"#utility.yul\":4305:4314   */\n      dup11\n        /* \"#utility.yul\":4301:4323   */\n      add\n        /* \"#utility.yul\":4280:4333   */\n      tag_184\n      jump\t// in\n    tag_276:\n        /* \"#utility.yul\":4270:4333   */\n      swap6\n      pop\n        /* \"#utility.yul\":4225:4343   */\n      pop\n        /* \"#utility.yul\":4382:4384   */\n      0x40\n        /* \"#utility.yul\":4408:4461   */\n      tag_277\n        /* \"#utility.yul\":4453:4460   */\n      dup10\n        /* \"#utility.yul\":4444:4450   */\n      dup3\n        /* \"#utility.yul\":4433:4442   */\n      dup11\n        /* \"#utility.yul\":4429:4451   */\n      add\n        /* \"#utility.yul\":4408:4461   */\n      tag_187\n      jump\t// in\n    tag_277:\n        /* \"#utility.yul\":4398:4461   */\n      swap5\n      pop\n        /* \"#utility.yul\":4353:4471   */\n      pop\n        /* \"#utility.yul\":4510:4512   */\n      0x60\n        /* \"#utility.yul\":4536:4589   */\n      tag_278\n        /* \"#utility.yul\":4581:4588   */\n      dup10\n        /* \"#utility.yul\":4572:4578   */\n      dup3\n        /* \"#utility.yul\":4561:4570   */\n      dup11\n        /* \"#utility.yul\":4557:4579   */\n      add\n        /* \"#utility.yul\":4536:4589   */\n      tag_184\n      jump\t// in\n    tag_278:\n        /* \"#utility.yul\":4526:4589   */\n      swap4\n      pop\n        /* \"#utility.yul\":4481:4599   */\n      pop\n        /* \"#utility.yul\":4638:4641   */\n      0x80\n        /* \"#utility.yul\":4665:4718   */\n      tag_279\n        /* \"#utility.yul\":4710:4717   */\n      dup10\n        /* \"#utility.yul\":4701:4707   */\n      dup3\n        /* \"#utility.yul\":4690:4699   */\n      dup11\n        /* \"#utility.yul\":4686:4708   */\n      add\n        /* \"#utility.yul\":4665:4718   */\n      tag_184\n      jump\t// in\n    tag_279:\n        /* \"#utility.yul\":4655:4718   */\n      swap3\n      pop\n        /* \"#utility.yul\":4609:4728   */\n      pop\n        /* \"#utility.yul\":4767:4770   */\n      0xa0\n        /* \"#utility.yul\":4794:4847   */\n      tag_280\n        /* \"#utility.yul\":4839:4846   */\n      dup10\n        /* \"#utility.yul\":4830:4836   */\n      dup3\n        /* \"#utility.yul\":4819:4828   */\n      dup11\n        /* \"#utility.yul\":4815:4837   */\n      add\n        /* \"#utility.yul\":4794:4847   */\n      tag_187\n      jump\t// in\n    tag_280:\n        /* \"#utility.yul\":4784:4847   */\n      swap2\n      pop\n        /* \"#utility.yul\":4738:4857   */\n      pop\n        /* \"#utility.yul\":3807:4864   */\n      swap3\n      swap6\n      pop\n      swap3\n      swap6\n      pop\n      swap3\n      swap6\n      jump\t// out\n        /* \"#utility.yul\":4870:4978   */\n    tag_192:\n        /* \"#utility.yul\":4947:4971   */\n      tag_282\n        /* \"#utility.yul\":4965:4970   */\n      dup2\n        /* \"#utility.yul\":4947:4971   */\n      tag_185\n      jump\t// in\n    tag_282:\n        /* \"#utility.yul\":4942:4945   */\n      dup3\n        /* \"#utility.yul\":4935:4972   */\n      mstore\n        /* \"#utility.yul\":4870:4978   */\n      pop\n      pop\n      jump\t// out\n        /* \"#utility.yul\":4984:5092   */\n    tag_193:\n        /* \"#utility.yul\":5061:5085   */\n      tag_284\n        /* \"#utility.yul\":5079:5084   */\n      dup2\n        /* \"#utility.yul\":5061:5085   */\n      tag_182\n      jump\t// in\n    tag_284:\n        /* \"#utility.yul\":5056:5059   */\n      dup3\n        /* \"#utility.yul\":5049:5086   */\n      mstore\n        /* \"#utility.yul\":4984:5092   */\n      pop\n      pop\n      jump\t// out\n        /* \"#utility.yul\":5098:5197   */\n    tag_194:\n        /* \"#utility.yul\":5169:5190   */\n      tag_286\n        /* \"#utility.yul\":5184:5189   */\n      dup2\n        /* \"#utility.yul\":5169:5190   */\n      tag_190\n      jump\t// in\n    tag_286:\n        /* \"#utility.yul\":5164:5167   */\n      dup3\n        /* \"#utility.yul\":5157:5191   */\n      mstore\n        /* \"#utility.yul\":5098:5197   */\n      pop\n      pop\n      jump\t// out\n        /* \"#utility.yul\":5269:6679   */\n    tag_195:\n        /* \"#utility.yul\":5408:5412   */\n      0xe0\n        /* \"#utility.yul\":5403:5406   */\n      dup3\n        /* \"#utility.yul\":5399:5413   */\n      add\n        /* \"#utility.yul\":5507:5511   */\n      0x00\n        /* \"#utility.yul\":5500:5505   */\n      dup3\n        /* \"#utility.yul\":5496:5512   */\n      add\n        /* \"#utility.yul\":5490:5513   */\n      mload\n        /* \"#utility.yul\":5526:5589   */\n      tag_288\n        /* \"#utility.yul\":5583:5587   */\n      0x00\n        /* \"#utility.yul\":5578:5581   */\n      dup6\n        /* \"#utility.yul\":5574:5588   */\n      add\n        /* \"#utility.yul\":5560:5572   */\n      dup3\n        /* \"#utility.yul\":5526:5589   */\n      tag_192\n      jump\t// in\n    tag_288:\n        /* \"#utility.yul\":5423:5599   */\n      pop\n        /* \"#utility.yul\":5687:5691   */\n      0x20\n        /* \"#utility.yul\":5680:5685   */\n      dup3\n        /* \"#utility.yul\":5676:5692   */\n      add\n        /* \"#utility.yul\":5670:5693   */\n      mload\n        /* \"#utility.yul\":5706:5769   */\n      tag_289\n        /* \"#utility.yul\":5763:5767   */\n      0x20\n        /* \"#utility.yul\":5758:5761   */\n      dup6\n        /* \"#utility.yul\":5754:5768   */\n      add\n        /* \"#utility.yul\":5740:5752   */\n      dup3\n        /* \"#utility.yul\":5706:5769   */\n      tag_192\n      jump\t// in\n    tag_289:\n        /* \"#utility.yul\":5609:5779   */\n      pop\n        /* \"#utility.yul\":5872:5876   */\n      0x40\n        /* \"#utility.yul\":5865:5870   */\n      dup3\n        /* \"#utility.yul\":5861:5877   */\n      add\n        /* \"#utility.yul\":5855:5878   */\n      mload\n        /* \"#utility.yul\":5891:5954   */\n      tag_290\n        /* \"#utility.yul\":5948:5952   */\n      0x40\n        /* \"#utility.yul\":5943:5946   */\n      dup6\n        /* \"#utility.yul\":5939:5953   */\n      add\n        /* \"#utility.yul\":5925:5937   */\n      dup3\n        /* \"#utility.yul\":5891:5954   */\n      tag_193\n      jump\t// in\n    tag_290:\n        /* \"#utility.yul\":5789:5964   */\n      pop\n        /* \"#utility.yul\":6051:6055   */\n      0x60\n        /* \"#utility.yul\":6044:6049   */\n      dup3\n        /* \"#utility.yul\":6040:6056   */\n      add\n        /* \"#utility.yul\":6034:6057   */\n      mload\n        /* \"#utility.yul\":6070:6133   */\n      tag_291\n        /* \"#utility.yul\":6127:6131   */\n      0x60\n        /* \"#utility.yul\":6122:6125   */\n      dup6\n        /* \"#utility.yul\":6118:6132   */\n      add\n        /* \"#utility.yul\":6104:6116   */\n      dup3\n        /* \"#utility.yul\":6070:6133   */\n      tag_193\n      jump\t// in\n    tag_291:\n        /* \"#utility.yul\":5974:6143   */\n      pop\n        /* \"#utility.yul\":6230:6234   */\n      0x80\n        /* \"#utility.yul\":6223:6228   */\n      dup3\n        /* \"#utility.yul\":6219:6235   */\n      add\n        /* \"#utility.yul\":6213:6236   */\n      mload\n        /* \"#utility.yul\":6249:6312   */\n      tag_292\n        /* \"#utility.yul\":6306:6310   */\n      0x80\n        /* \"#utility.yul\":6301:6304   */\n      dup6\n        /* \"#utility.yul\":6297:6311   */\n      add\n        /* \"#utility.yul\":6283:6295   */\n      dup3\n        /* \"#utility.yul\":6249:6312   */\n      tag_193\n      jump\t// in\n    tag_292:\n        /* \"#utility.yul\":6153:6322   */\n      pop\n        /* \"#utility.yul\":6408:6412   */\n      0xa0\n        /* \"#utility.yul\":6401:6406   */\n      dup3\n        /* \"#utility.yul\":6397:6413   */\n      add\n        /* \"#utility.yul\":6391:6414   */\n      mload\n        /* \"#utility.yul\":6427:6490   */\n      tag_293\n        /* \"#utility.yul\":6484:6488   */\n      0xa0\n        /* \"#utility.yul\":6479:6482   */\n      dup6\n        /* \"#utility.yul\":6475:6489   */\n      add\n        /* \"#utility.yul\":6461:6473   */\n      dup3\n        /* \"#utility.yul\":6427:6490   */\n      tag_192\n      jump\t// in\n    tag_293:\n        /* \"#utility.yul\":6332:6500   */\n      pop\n        /* \"#utility.yul\":6586:6590   */\n      0xc0\n        /* \"#utility.yul\":6579:6584   */\n      dup3\n        /* \"#utility.yul\":6575:6591   */\n      add\n        /* \"#utility.yul\":6569:6592   */\n      mload\n        /* \"#utility.yul\":6605:6662   */\n      tag_294\n        /* \"#utility.yul\":6656:6660   */\n      0xc0\n        /* \"#utility.yul\":6651:6654   */\n      dup6\n        /* \"#utility.yul\":6647:6661   */\n      add\n        /* \"#utility.yul\":6633:6645   */\n      dup3\n        /* \"#utility.yul\":6605:6662   */\n      tag_194\n      jump\t// in\n    tag_294:\n        /* \"#utility.yul\":6510:6672   */\n      pop\n        /* \"#utility.yul\":5377:6679   */\n      pop\n        /* \"#utility.yul\":5269:6679   */\n      pop\n      pop\n      jump\t// out\n        /* \"#utility.yul\":6685:6992   */\n    tag_46:\n        /* \"#utility.yul\":6820:6824   */\n      0x00\n        /* \"#utility.yul\":6858:6861   */\n      0xe0\n        /* \"#utility.yul\":6847:6856   */\n      dup3\n        /* \"#utility.yul\":6843:6862   */\n      add\n        /* \"#utility.yul\":6835:6862   */\n      swap1\n      pop\n        /* \"#utility.yul\":6872:6985   */\n      tag_296\n        /* \"#utility.yul\":6982:6983   */\n      0x00\n        /* \"#utility.yul\":6971:6980   */\n      dup4\n        /* \"#utility.yul\":6967:6984   */\n      add\n        /* \"#utility.yul\":6958:6964   */\n      dup5\n        /* \"#utility.yul\":6872:6985   */\n      tag_195\n      jump\t// in\n    tag_296:\n        /* \"#utility.yul\":6685:6992   */\n      swap3\n      swap2\n      pop\n      pop\n      jump\t// out\n        /* \"#utility.yul\":6998:7327   */\n    tag_49:\n        /* \"#utility.yul\":7057:7063   */\n      0x00\n        /* \"#utility.yul\":7106:7108   */\n      0x20\n        /* \"#utility.yul\":7094:7103   */\n      dup3\n        /* \"#utility.yul\":7085:7092   */\n      dup5\n        /* \"#utility.yul\":7081:7104   */\n      sub\n        /* \"#utility.yul\":7077:7109   */\n      slt\n        /* \"#utility.yul\":7074:7193   */\n      iszero\n      tag_298\n      jumpi\n        /* \"#utility.yul\":7112:7191   */\n      tag_299\n      tag_179\n      jump\t// in\n    tag_299:\n        /* \"#utility.yul\":7074:7193   */\n    tag_298:\n        /* \"#utility.yul\":7232:7233   */\n      0x00\n        /* \"#utility.yul\":7257:7310   */\n      tag_300\n        /* \"#utility.yul\":7302:7309   */\n      dup5\n        /* \"#utility.yul\":7293:7299   */\n      dup3\n        /* \"#utility.yul\":7282:7291   */\n      dup6\n        /* \"#utility.yul\":7278:7300   */\n      add\n        /* \"#utility.yul\":7257:7310   */\n      tag_184\n      jump\t// in\n    tag_300:\n        /* \"#utility.yul\":7247:7310   */\n      swap2\n      pop\n        /* \"#utility.yul\":7203:7320   */\n      pop\n        /* \"#utility.yul\":6998:7327   */\n      swap3\n      swap2\n      pop\n      pop\n      jump\t// out\n        /* \"#utility.yul\":7333:7468   */\n    tag_196:\n        /* \"#utility.yul\":7421:7427   */\n      0x00\n        /* \"#utility.yul\":7455:7460   */\n      dup2\n        /* \"#utility.yul\":7449:7461   */\n      mload\n        /* \"#utility.yul\":7439:7461   */\n      swap1\n      pop\n        /* \"#utility.yul\":7333:7468   */\n      swap2\n      swap1\n      pop\n      jump\t// out\n        /* \"#utility.yul\":7474:7679   */\n    tag_197:\n        /* \"#utility.yul\":7594:7605   */\n      0x00\n        /* \"#utility.yul\":7628:7634   */\n      dup3\n        /* \"#utility.yul\":7623:7626   */\n      dup3\n        /* \"#utility.yul\":7616:7635   */\n      mstore\n        /* \"#utility.yul\":7668:7672   */\n      0x20\n        /* \"#utility.yul\":7663:7666   */\n      dup3\n        /* \"#utility.yul\":7659:7673   */\n      add\n        /* \"#utility.yul\":7644:7673   */\n      swap1\n      pop\n        /* \"#utility.yul\":7474:7679   */\n      swap3\n      swap2\n      pop\n      pop\n      jump\t// out\n        /* \"#utility.yul\":7685:7838   */\n    tag_198:\n        /* \"#utility.yul\":7773:7777   */\n      0x00\n        /* \"#utility.yul\":7796:7799   */\n      dup2\n        /* \"#utility.yul\":7788:7799   */\n      swap1\n      pop\n        /* \"#utility.yul\":7826:7830   */\n      0x20\n        /* \"#utility.yul\":7821:7824   */\n      dup3\n        /* \"#utility.yul\":7817:7831   */\n      add\n        /* \"#utility.yul\":7809:7831   */\n      swap1\n      pop\n        /* \"#utility.yul\":7685:7838   */\n      swap2\n      swap1\n      pop\n      jump\t// out\n        /* \"#utility.yul\":7910:9310   */\n    tag_199:\n        /* \"#utility.yul\":8039:8043   */\n      0xe0\n        /* \"#utility.yul\":8034:8037   */\n      dup3\n        /* \"#utility.yul\":8030:8044   */\n      add\n        /* \"#utility.yul\":8138:8142   */\n      0x00\n        /* \"#utility.yul\":8131:8136   */\n      dup3\n        /* \"#utility.yul\":8127:8143   */\n      add\n        /* \"#utility.yul\":8121:8144   */\n      mload\n        /* \"#utility.yul\":8157:8220   */\n      tag_305\n        /* \"#utility.yul\":8214:8218   */\n      0x00\n        /* \"#utility.yul\":8209:8212   */\n      dup6\n        /* \"#utility.yul\":8205:8219   */\n      add\n        /* \"#utility.yul\":8191:8203   */\n      dup3\n        /* \"#utility.yul\":8157:8220   */\n      tag_192\n      jump\t// in\n    tag_305:\n        /* \"#utility.yul\":8054:8230   */\n      pop\n        /* \"#utility.yul\":8318:8322   */\n      0x20\n        /* \"#utility.yul\":8311:8316   */\n      dup3\n        /* \"#utility.yul\":8307:8323   */\n      add\n        /* \"#utility.yul\":8301:8324   */\n      mload\n        /* \"#utility.yul\":8337:8400   */\n      tag_306\n        /* \"#utility.yul\":8394:8398   */\n      0x20\n        /* \"#utility.yul\":8389:8392   */\n      dup6\n        /* \"#utility.yul\":8385:8399   */\n      add\n        /* \"#utility.yul\":8371:8383   */\n      dup3\n        /* \"#utility.yul\":8337:8400   */\n      tag_192\n      jump\t// in\n    tag_306:\n        /* \"#utility.yul\":8240:8410   */\n      pop\n        /* \"#utility.yul\":8503:8507   */\n      0x40\n        /* \"#utility.yul\":8496:8501   */\n      dup3\n        /* \"#utility.yul\":8492:8508   */\n      add\n        /* \"#utility.yul\":8486:8509   */\n      mload\n        /* \"#utility.yul\":8522:8585   */\n      tag_307\n        /* \"#utility.yul\":8579:8583   */\n      0x40\n        /* \"#utility.yul\":8574:8577   */\n      dup6\n        /* \"#utility.yul\":8570:8584   */\n      add\n        /* \"#utility.yul\":8556:8568   */\n      dup3\n        /* \"#utility.yul\":8522:8585   */\n      tag_193\n      jump\t// in\n    tag_307:\n        /* \"#utility.yul\":8420:8595   */\n      pop\n        /* \"#utility.yul\":8682:8686   */\n      0x60\n        /* \"#utility.yul\":8675:8680   */\n      dup3\n        /* \"#utility.yul\":8671:8687   */\n      add\n        /* \"#utility.yul\":8665:8688   */\n      mload\n        /* \"#utility.yul\":8701:8764   */\n      tag_308\n        /* \"#utility.yul\":8758:8762   */\n      0x60\n        /* \"#utility.yul\":8753:8756   */\n      dup6\n        /* \"#utility.yul\":8749:8763   */\n      add\n        /* \"#utility.yul\":8735:8747   */\n      dup3\n        /* \"#utility.yul\":8701:8764   */\n      tag_193\n      jump\t// in\n    tag_308:\n        /* \"#utility.yul\":8605:8774   */\n      pop\n        /* \"#utility.yul\":8861:8865   */\n      0x80\n        /* \"#utility.yul\":8854:8859   */\n      dup3\n        /* \"#utility.yul\":8850:8866   */\n      add\n        /* \"#utility.yul\":8844:8867   */\n      mload\n        /* \"#utility.yul\":8880:8943   */\n      tag_309\n        /* \"#utility.yul\":8937:8941   */\n      0x80\n        /* \"#utility.yul\":8932:8935   */\n      dup6\n        /* \"#utility.yul\":8928:8942   */\n      add\n        /* \"#utility.yul\":8914:8926   */\n      dup3\n        /* \"#utility.yul\":8880:8943   */\n      tag_193\n      jump\t// in\n    tag_309:\n        /* \"#utility.yul\":8784:8953   */\n      pop\n        /* \"#utility.yul\":9039:9043   */\n      0xa0\n        /* \"#utility.yul\":9032:9037   */\n      dup3\n        /* \"#utility.yul\":9028:9044   */\n      add\n        /* \"#utility.yul\":9022:9045   */\n      mload\n        /* \"#utility.yul\":9058:9121   */\n      tag_310\n        /* \"#utility.yul\":9115:9119   */\n      0xa0\n        /* \"#utility.yul\":9110:9113   */\n      dup6\n        /* \"#utility.yul\":9106:9120   */\n      add\n        /* \"#utility.yul\":9092:9104   */\n      dup3\n        /* \"#utility.yul\":9058:9121   */\n      tag_192\n      jump\t// in\n    tag_310:\n        /* \"#utility.yul\":8963:9131   */\n      pop\n        /* \"#utility.yul\":9217:9221   */\n      0xc0\n        /* \"#utility.yul\":9210:9215   */\n      dup3\n        /* \"#utility.yul\":9206:9222   */\n      add\n        /* \"#utility.yul\":9200:9223   */\n      mload\n        /* \"#utility.yul\":9236:9293   */\n      tag_311\n        /* \"#utility.yul\":9287:9291   */\n      0xc0\n        /* \"#utility.yul\":9282:9285   */\n      dup6\n        /* \"#utility.yul\":9278:9292   */\n      add\n        /* \"#utility.yul\":9264:9276   */\n      dup3\n        /* \"#utility.yul\":9236:9293   */\n      tag_194\n      jump\t// in\n    tag_311:\n        /* \"#utility.yul\":9141:9303   */\n      pop\n        /* \"#utility.yul\":8008:9310   */\n      pop\n        /* \"#utility.yul\":7910:9310   */\n      pop\n      pop\n      jump\t// out\n        /* \"#utility.yul\":9316:9579   */\n    tag_200:\n        /* \"#utility.yul\":9427:9437   */\n      0x00\n        /* \"#utility.yul\":9448:9536   */\n      tag_313\n        /* \"#utility.yul\":9532:9535   */\n      dup4\n        /* \"#utility.yul\":9524:9530   */\n      dup4\n        /* \"#utility.yul\":9448:9536   */\n      tag_199\n      jump\t// in\n    tag_313:\n        /* \"#utility.yul\":9568:9572   */\n      0xe0\n        /* \"#utility.yul\":9563:9566   */\n      dup4\n        /* \"#utility.yul\":9559:9573   */\n      add\n        /* \"#utility.yul\":9545:9573   */\n      swap1\n      pop\n        /* \"#utility.yul\":9316:9579   */\n      swap3\n      swap2\n      pop\n      pop\n      jump\t// out\n        /* \"#utility.yul\":9585:9719   */\n    tag_201:\n        /* \"#utility.yul\":9676:9680   */\n      0x00\n        /* \"#utility.yul\":9708:9712   */\n      0x20\n        /* \"#utility.yul\":9703:9706   */\n      dup3\n        /* \"#utility.yul\":9699:9713   */\n      add\n        /* \"#utility.yul\":9691:9713   */\n      swap1\n      pop\n        /* \"#utility.yul\":9585:9719   */\n      swap2\n      swap1\n      pop\n      jump\t// out\n        /* \"#utility.yul\":9795:10695   */\n    tag_202:\n        /* \"#utility.yul\":9956:9959   */\n      0x00\n        /* \"#utility.yul\":9985:10060   */\n      tag_316\n        /* \"#utility.yul\":10054:10059   */\n      dup3\n        /* \"#utility.yul\":9985:10060   */\n      tag_196\n      jump\t// in\n    tag_316:\n        /* \"#utility.yul\":10076:10183   */\n      tag_317\n        /* \"#utility.yul\":10176:10182   */\n      dup2\n        /* \"#utility.yul\":10171:10174   */\n      dup6\n        /* \"#utility.yul\":10076:10183   */\n      tag_197\n      jump\t// in\n    tag_317:\n        /* \"#utility.yul\":10069:10183   */\n      swap4\n      pop\n        /* \"#utility.yul\":10207:10284   */\n      tag_318\n        /* \"#utility.yul\":10278:10283   */\n      dup4\n        /* \"#utility.yul\":10207:10284   */\n      tag_198\n      jump\t// in\n    tag_318:\n        /* \"#utility.yul\":10307:10314   */\n      dup1\n        /* \"#utility.yul\":10338:10339   */\n      0x00\n        /* \"#utility.yul\":10323:10670   */\n    tag_319:\n        /* \"#utility.yul\":10348:10354   */\n      dup4\n        /* \"#utility.yul\":10345:10346   */\n      dup2\n        /* \"#utility.yul\":10342:10355   */\n      lt\n        /* \"#utility.yul\":10323:10670   */\n      iszero\n      tag_321\n      jumpi\n        /* \"#utility.yul\":10424:10430   */\n      dup2\n        /* \"#utility.yul\":10418:10431   */\n      mload\n        /* \"#utility.yul\":10451:10556   */\n      tag_322\n        /* \"#utility.yul\":10552:10555   */\n      dup9\n        /* \"#utility.yul\":10537:10550   */\n      dup3\n        /* \"#utility.yul\":10451:10556   */\n      tag_200\n      jump\t// in\n    tag_322:\n        /* \"#utility.yul\":10444:10556   */\n      swap8\n      pop\n        /* \"#utility.yul\":10579:10660   */\n      tag_323\n        /* \"#utility.yul\":10653:10659   */\n      dup4\n        /* \"#utility.yul\":10579:10660   */\n      tag_201\n      jump\t// in\n    tag_323:\n        /* \"#utility.yul\":10569:10660   */\n      swap3\n      pop\n        /* \"#utility.yul\":10383:10670   */\n      pop\n        /* \"#utility.yul\":10370:10371   */\n      0x01\n        /* \"#utility.yul\":10367:10368   */\n      dup2\n        /* \"#utility.yul\":10363:10372   */\n      add\n        /* \"#utility.yul\":10358:10372   */\n      swap1\n      pop\n        /* \"#utility.yul\":10323:10670   */\n      jump(tag_319)\n    tag_321:\n        /* \"#utility.yul\":10327:10341   */\n      pop\n        /* \"#utility.yul\":10686:10689   */\n      dup6\n        /* \"#utility.yul\":10679:10689   */\n      swap4\n      pop\n        /* \"#utility.yul\":9961:10695   */\n      pop\n      pop\n      pop\n        /* \"#utility.yul\":9795:10695   */\n      swap3\n      swap2\n      pop\n      pop\n      jump\t// out\n        /* \"#utility.yul\":10701:11158   */\n    tag_52:\n        /* \"#utility.yul\":10886:10890   */\n      0x00\n        /* \"#utility.yul\":10924:10926   */\n      0x20\n        /* \"#utility.yul\":10913:10922   */\n      dup3\n        /* \"#utility.yul\":10909:10927   */\n      add\n        /* \"#utility.yul\":10901:10927   */\n      swap1\n      pop\n        /* \"#utility.yul\":10973:10982   */\n      dup2\n        /* \"#utility.yul\":10967:10971   */\n      dup2\n        /* \"#utility.yul\":10963:10983   */\n      sub\n        /* \"#utility.yul\":10959:10960   */\n      0x00\n        /* \"#utility.yul\":10948:10957   */\n      dup4\n        /* \"#utility.yul\":10944:10961   */\n      add\n        /* \"#utility.yul\":10937:10984   */\n      mstore\n        /* \"#utility.yul\":11001:11151   */\n      tag_325\n        /* \"#utility.yul\":11146:11150   */\n      dup2\n        /* \"#utility.yul\":11137:11143   */\n      dup5\n        /* \"#utility.yul\":11001:11151   */\n      tag_202\n      jump\t// in\n    tag_325:\n        /* \"#utility.yul\":10993:11151   */\n      swap1\n      pop\n        /* \"#utility.yul\":10701:11158   */\n      swap3\n      swap2\n      pop\n      pop\n      jump\t// out\n        /* \"#utility.yul\":11164:11496   */\n    tag_65:\n        /* \"#utility.yul\":11285:11289   */\n      0x00\n        /* \"#utility.yul\":11323:11325   */\n      0x40\n        /* \"#utility.yul\":11312:11321   */\n      dup3\n        /* \"#utility.yul\":11308:11326   */\n      add\n        /* \"#utility.yul\":11300:11326   */\n      swap1\n      pop\n        /* \"#utility.yul\":11336:11407   */\n      tag_327\n        /* \"#utility.yul\":11404:11405   */\n      0x00\n        /* \"#utility.yul\":11393:11402   */\n      dup4\n        /* \"#utility.yul\":11389:11406   */\n      add\n        /* \"#utility.yul\":11380:11386   */\n      dup6\n        /* \"#utility.yul\":11336:11407   */\n      tag_189\n      jump\t// in\n    tag_327:\n        /* \"#utility.yul\":11417:11489   */\n      tag_328\n        /* \"#utility.yul\":11485:11487   */\n      0x20\n        /* \"#utility.yul\":11474:11483   */\n      dup4\n        /* \"#utility.yul\":11470:11488   */\n      add\n        /* \"#utility.yul\":11461:11467   */\n      dup5\n        /* \"#utility.yul\":11417:11489   */\n      tag_188\n      jump\t// in\n    tag_328:\n        /* \"#utility.yul\":11164:11496   */\n      swap4\n      swap3\n      pop\n      pop\n      pop\n      jump\t// out\n        /* \"#utility.yul\":11502:11618   */\n    tag_203:\n        /* \"#utility.yul\":11572:11593   */\n      tag_330\n        /* \"#utility.yul\":11587:11592   */\n      dup2\n        /* \"#utility.yul\":11572:11593   */\n      tag_190\n      jump\t// in\n    tag_330:\n        /* \"#utility.yul\":11565:11570   */\n      dup2\n        /* \"#utility.yul\":11562:11594   */\n      eq\n        /* \"#utility.yul\":11552:11612   */\n      tag_331\n      jumpi\n        /* \"#utility.yul\":11608:11609   */\n      0x00\n        /* \"#utility.yul\":11605:11606   */\n      dup1\n        /* \"#utility.yul\":11598:11610   */\n      revert\n        /* \"#utility.yul\":11552:11612   */\n    tag_331:\n        /* \"#utility.yul\":11502:11618   */\n      pop\n      jump\t// out\n        /* \"#utility.yul\":11624:11761   */\n    tag_204:\n        /* \"#utility.yul\":11678:11683   */\n      0x00\n        /* \"#utility.yul\":11709:11715   */\n      dup2\n        /* \"#utility.yul\":11703:11716   */\n      mload\n        /* \"#utility.yul\":11694:11716   */\n      swap1\n      pop\n        /* \"#utility.yul\":11725:11755   */\n      tag_333\n        /* \"#utility.yul\":11749:11754   */\n      dup2\n        /* \"#utility.yul\":11725:11755   */\n      tag_203\n      jump\t// in\n    tag_333:\n        /* \"#utility.yul\":11624:11761   */\n      swap3\n      swap2\n      pop\n      pop\n      jump\t// out\n        /* \"#utility.yul\":11767:12112   */\n    tag_69:\n        /* \"#utility.yul\":11834:11840   */\n      0x00\n        /* \"#utility.yul\":11883:11885   */\n      0x20\n        /* \"#utility.yul\":11871:11880   */\n      dup3\n        /* \"#utility.yul\":11862:11869   */\n      dup5\n        /* \"#utility.yul\":11858:11881   */\n      sub\n        /* \"#utility.yul\":11854:11886   */\n      slt\n        /* \"#utility.yul\":11851:11970   */\n      iszero\n      tag_335\n      jumpi\n        /* \"#utility.yul\":11889:11968   */\n      tag_336\n      tag_179\n      jump\t// in\n    tag_336:\n        /* \"#utility.yul\":11851:11970   */\n    tag_335:\n        /* \"#utility.yul\":12009:12010   */\n      0x00\n        /* \"#utility.yul\":12034:12095   */\n      tag_337\n        /* \"#utility.yul\":12087:12094   */\n      dup5\n        /* \"#utility.yul\":12078:12084   */\n      dup3\n        /* \"#utility.yul\":12067:12076   */\n      dup6\n        /* \"#utility.yul\":12063:12085   */\n      add\n        /* \"#utility.yul\":12034:12095   */\n      tag_204\n      jump\t// in\n    tag_337:\n        /* \"#utility.yul\":12024:12095   */\n      swap2\n      pop\n        /* \"#utility.yul\":11980:12105   */\n      pop\n        /* \"#utility.yul\":11767:12112   */\n      swap3\n      swap2\n      pop\n      pop\n      jump\t// out\n        /* \"#utility.yul\":12118:12287   */\n    tag_205:\n        /* \"#utility.yul\":12202:12213   */\n      0x00\n        /* \"#utility.yul\":12236:12242   */\n      dup3\n        /* \"#utility.yul\":12231:12234   */\n      dup3\n        /* \"#utility.yul\":12224:12243   */\n      mstore\n        /* \"#utility.yul\":12276:12280   */\n      0x20\n        /* \"#utility.yul\":12271:12274   */\n      dup3\n        /* \"#utility.yul\":12267:12281   */\n      add\n        /* \"#utility.yul\":12252:12281   */\n      swap1\n      pop\n        /* \"#utility.yul\":12118:12287   */\n      swap3\n      swap2\n      pop\n      pop\n      jump\t// out\n        /* \"#utility.yul\":12293:12461   */\n    tag_206:\n        /* \"#utility.yul\":12433:12453   */\n      0x496e76616c6964206c6f616e20696e6465780000000000000000000000000000\n        /* \"#utility.yul\":12429:12430   */\n      0x00\n        /* \"#utility.yul\":12421:12427   */\n      dup3\n        /* \"#utility.yul\":12417:12431   */\n      add\n        /* \"#utility.yul\":12410:12454   */\n      mstore\n        /* \"#utility.yul\":12293:12461   */\n      pop\n      jump\t// out\n        /* \"#utility.yul\":12467:12833   */\n    tag_207:\n        /* \"#utility.yul\":12609:12612   */\n      0x00\n        /* \"#utility.yul\":12630:12697   */\n      tag_341\n        /* \"#utility.yul\":12694:12696   */\n      0x12\n        /* \"#utility.yul\":12689:12692   */\n      dup4\n        /* \"#utility.yul\":12630:12697   */\n      tag_205\n      jump\t// in\n    tag_341:\n        /* \"#utility.yul\":12623:12697   */\n      swap2\n      pop\n        /* \"#utility.yul\":12706:12799   */\n      tag_342\n        /* \"#utility.yul\":12795:12798   */\n      dup3\n        /* \"#utility.yul\":12706:12799   */\n      tag_206\n      jump\t// in\n    tag_342:\n        /* \"#utility.yul\":12824:12826   */\n      0x20\n        /* \"#utility.yul\":12819:12822   */\n      dup3\n        /* \"#utility.yul\":12815:12827   */\n      add\n        /* \"#utility.yul\":12808:12827   */\n      swap1\n      pop\n        /* \"#utility.yul\":12467:12833   */\n      swap2\n      swap1\n      pop\n      jump\t// out\n        /* \"#utility.yul\":12839:13258   */\n    tag_81:\n        /* \"#utility.yul\":13005:13009   */\n      0x00\n        /* \"#utility.yul\":13043:13045   */\n      0x20\n        /* \"#utility.yul\":13032:13041   */\n      dup3\n        /* \"#utility.yul\":13028:13046   */\n      add\n        /* \"#utility.yul\":13020:13046   */\n      swap1\n      pop\n        /* \"#utility.yul\":13092:13101   */\n      dup2\n        /* \"#utility.yul\":13086:13090   */\n      dup2\n        /* \"#utility.yul\":13082:13102   */\n      sub\n        /* \"#utility.yul\":13078:13079   */\n      0x00\n        /* \"#utility.yul\":13067:13076   */\n      dup4\n        /* \"#utility.yul\":13063:13080   */\n      add\n        /* \"#utility.yul\":13056:13103   */\n      mstore\n        /* \"#utility.yul\":13120:13251   */\n      tag_344\n        /* \"#utility.yul\":13246:13250   */\n      dup2\n        /* \"#utility.yul\":13120:13251   */\n      tag_207\n      jump\t// in\n    tag_344:\n        /* \"#utility.yul\":13112:13251   */\n      swap1\n      pop\n        /* \"#utility.yul\":12839:13258   */\n      swap2\n      swap1\n      pop\n      jump\t// out\n        /* \"#utility.yul\":13264:13444   */\n    tag_84:\n        /* \"#utility.yul\":13312:13389   */\n      0x4e487b7100000000000000000000000000000000000000000000000000000000\n        /* \"#utility.yul\":13309:13310   */\n      0x00\n        /* \"#utility.yul\":13302:13390   */\n      mstore\n        /* \"#utility.yul\":13409:13413   */\n      0x32\n        /* \"#utility.yul\":13406:13407   */\n      0x04\n        /* \"#utility.yul\":13399:13414   */\n      mstore\n        /* \"#utility.yul\":13433:13437   */\n      0x24\n        /* \"#utility.yul\":13430:13431   */\n      0x00\n        /* \"#utility.yul\":13423:13438   */\n      revert\n        /* \"#utility.yul\":13450:13619   */\n    tag_208:\n        /* \"#utility.yul\":13590:13611   */\n      0x4c6f616e20616c72656164792072657061696400000000000000000000000000\n        /* \"#utility.yul\":13586:13587   */\n      0x00\n        /* \"#utility.yul\":13578:13584   */\n      dup3\n        /* \"#utility.yul\":13574:13588   */\n      add\n        /* \"#utility.yul\":13567:13612   */\n      mstore\n        /* \"#utility.yul\":13450:13619   */\n      pop\n      jump\t// out\n        /* \"#utility.yul\":13625:13991   */\n    tag_209:\n        /* \"#utility.yul\":13767:13770   */\n      0x00\n        /* \"#utility.yul\":13788:13855   */\n      tag_348\n        /* \"#utility.yul\":13852:13854   */\n      0x13\n        /* \"#utility.yul\":13847:13850   */\n      dup4\n        /* \"#utility.yul\":13788:13855   */\n      tag_205\n      jump\t// in\n    tag_348:\n        /* \"#utility.yul\":13781:13855   */\n      swap2\n      pop\n        /* \"#utility.yul\":13864:13957   */\n      tag_349\n        /* \"#utility.yul\":13953:13956   */\n      dup3\n        /* \"#utility.yul\":13864:13957   */\n      tag_208\n      jump\t// in\n    tag_349:\n        /* \"#utility.yul\":13982:13984   */\n      0x20\n        /* \"#utility.yul\":13977:13980   */\n      dup3\n        /* \"#utility.yul\":13973:13985   */\n      add\n        /* \"#utility.yul\":13966:13985   */\n      swap1\n      pop\n        /* \"#utility.yul\":13625:13991   */\n      swap2\n      swap1\n      pop\n      jump\t// out\n        /* \"#utility.yul\":13997:14416   */\n    tag_88:\n        /* \"#utility.yul\":14163:14167   */\n      0x00\n        /* \"#utility.yul\":14201:14203   */\n      0x20\n        /* \"#utility.yul\":14190:14199   */\n      dup3\n        /* \"#utility.yul\":14186:14204   */\n      add\n        /* \"#utility.yul\":14178:14204   */\n      swap1\n      pop\n        /* \"#utility.yul\":14250:14259   */\n      dup2\n        /* \"#utility.yul\":14244:14248   */\n      dup2\n        /* \"#utility.yul\":14240:14260   */\n      sub\n        /* \"#utility.yul\":14236:14237   */\n      0x00\n        /* \"#utility.yul\":14225:14234   */\n      dup4\n        /* \"#utility.yul\":14221:14238   */\n      add\n        /* \"#utility.yul\":14214:14261   */\n      mstore\n        /* \"#utility.yul\":14278:14409   */\n      tag_351\n        /* \"#utility.yul\":14404:14408   */\n      dup2\n        /* \"#utility.yul\":14278:14409   */\n      tag_209\n      jump\t// in\n    tag_351:\n        /* \"#utility.yul\":14270:14409   */\n      swap1\n      pop\n        /* \"#utility.yul\":13997:14416   */\n      swap2\n      swap1\n      pop\n      jump\t// out\n        /* \"#utility.yul\":14422:14602   */\n    tag_210:\n        /* \"#utility.yul\":14562:14594   */\n      0x4c6f616e2072657061796d656e7420646561646c696e65207061737365640000\n        /* \"#utility.yul\":14558:14559   */\n      0x00\n        /* \"#utility.yul\":14550:14556   */\n      dup3\n        /* \"#utility.yul\":14546:14560   */\n      add\n        /* \"#utility.yul\":14539:14595   */\n      mstore\n        /* \"#utility.yul\":14422:14602   */\n      pop\n      jump\t// out\n        /* \"#utility.yul\":14608:14974   */\n    tag_211:\n        /* \"#utility.yul\":14750:14753   */\n      0x00\n        /* \"#utility.yul\":14771:14838   */\n      tag_354\n        /* \"#utility.yul\":14835:14837   */\n      0x1e\n        /* \"#utility.yul\":14830:14833   */\n      dup4\n        /* \"#utility.yul\":14771:14838   */\n      tag_205\n      jump\t// in\n    tag_354:\n        /* \"#utility.yul\":14764:14838   */\n      swap2\n      pop\n        /* \"#utility.yul\":14847:14940   */\n      tag_355\n        /* \"#utility.yul\":14936:14939   */\n      dup3\n        /* \"#utility.yul\":14847:14940   */\n      tag_210\n      jump\t// in\n    tag_355:\n        /* \"#utility.yul\":14965:14967   */\n      0x20\n        /* \"#utility.yul\":14960:14963   */\n      dup3\n        /* \"#utility.yul\":14956:14968   */\n      add\n        /* \"#utility.yul\":14949:14968   */\n      swap1\n      pop\n        /* \"#utility.yul\":14608:14974   */\n      swap2\n      swap1\n      pop\n      jump\t// out\n        /* \"#utility.yul\":14980:15399   */\n    tag_91:\n        /* \"#utility.yul\":15146:15150   */\n      0x00\n        /* \"#utility.yul\":15184:15186   */\n      0x20\n        /* \"#utility.yul\":15173:15182   */\n      dup3\n        /* \"#utility.yul\":15169:15187   */\n      add\n        /* \"#utility.yul\":15161:15187   */\n      swap1\n      pop\n        /* \"#utility.yul\":15233:15242   */\n      dup2\n        /* \"#utility.yul\":15227:15231   */\n      dup2\n        /* \"#utility.yul\":15223:15243   */\n      sub\n        /* \"#utility.yul\":15219:15220   */\n      0x00\n        /* \"#utility.yul\":15208:15217   */\n      dup4\n        /* \"#utility.yul\":15204:15221   */\n      add\n        /* \"#utility.yul\":15197:15244   */\n      mstore\n        /* \"#utility.yul\":15261:15392   */\n      tag_357\n        /* \"#utility.yul\":15387:15391   */\n      dup2\n        /* \"#utility.yul\":15261:15392   */\n      tag_211\n      jump\t// in\n    tag_357:\n        /* \"#utility.yul\":15253:15392   */\n      swap1\n      pop\n        /* \"#utility.yul\":14980:15399   */\n      swap2\n      swap1\n      pop\n      jump\t// out\n        /* \"#utility.yul\":15405:15548   */\n    tag_212:\n        /* \"#utility.yul\":15462:15467   */\n      0x00\n        /* \"#utility.yul\":15493:15499   */\n      dup2\n        /* \"#utility.yul\":15487:15500   */\n      mload\n        /* \"#utility.yul\":15478:15500   */\n      swap1\n      pop\n        /* \"#utility.yul\":15509:15542   */\n      tag_359\n        /* \"#utility.yul\":15536:15541   */\n      dup2\n        /* \"#utility.yul\":15509:15542   */\n      tag_186\n      jump\t// in\n    tag_359:\n        /* \"#utility.yul\":15405:15548   */\n      swap3\n      swap2\n      pop\n      pop\n      jump\t// out\n        /* \"#utility.yul\":15554:15905   */\n    tag_96:\n        /* \"#utility.yul\":15624:15630   */\n      0x00\n        /* \"#utility.yul\":15673:15675   */\n      0x20\n        /* \"#utility.yul\":15661:15670   */\n      dup3\n        /* \"#utility.yul\":15652:15659   */\n      dup5\n        /* \"#utility.yul\":15648:15671   */\n      sub\n        /* \"#utility.yul\":15644:15676   */\n      slt\n        /* \"#utility.yul\":15641:15760   */\n      iszero\n      tag_361\n      jumpi\n        /* \"#utility.yul\":15679:15758   */\n      tag_362\n      tag_179\n      jump\t// in\n    tag_362:\n        /* \"#utility.yul\":15641:15760   */\n    tag_361:\n        /* \"#utility.yul\":15799:15800   */\n      0x00\n        /* \"#utility.yul\":15824:15888   */\n      tag_363\n        /* \"#utility.yul\":15880:15887   */\n      dup5\n        /* \"#utility.yul\":15871:15877   */\n      dup3\n        /* \"#utility.yul\":15860:15869   */\n      dup6\n        /* \"#utility.yul\":15856:15878   */\n      add\n        /* \"#utility.yul\":15824:15888   */\n      tag_212\n      jump\t// in\n    tag_363:\n        /* \"#utility.yul\":15814:15888   */\n      swap2\n      pop\n        /* \"#utility.yul\":15770:15898   */\n      pop\n        /* \"#utility.yul\":15554:15905   */\n      swap3\n      swap2\n      pop\n      pop\n      jump\t// out\n        /* \"#utility.yul\":15911:16092   */\n    tag_213:\n        /* \"#utility.yul\":16051:16084   */\n      0x496e73756666696369656e74206c6f616e20746f6b656e2062616c616e636500\n        /* \"#utility.yul\":16047:16048   */\n      0x00\n        /* \"#utility.yul\":16039:16045   */\n      dup3\n        /* \"#utility.yul\":16035:16049   */\n      add\n        /* \"#utility.yul\":16028:16085   */\n      mstore\n        /* \"#utility.yul\":15911:16092   */\n      pop\n      jump\t// out\n        /* \"#utility.yul\":16098:16464   */\n    tag_214:\n        /* \"#utility.yul\":16240:16243   */\n      0x00\n        /* \"#utility.yul\":16261:16328   */\n      tag_366\n        /* \"#utility.yul\":16325:16327   */\n      0x1f\n        /* \"#utility.yul\":16320:16323   */\n      dup4\n        /* \"#utility.yul\":16261:16328   */\n      tag_205\n      jump\t// in\n    tag_366:\n        /* \"#utility.yul\":16254:16328   */\n      swap2\n      pop\n        /* \"#utility.yul\":16337:16430   */\n      tag_367\n        /* \"#utility.yul\":16426:16429   */\n      dup3\n        /* \"#utility.yul\":16337:16430   */\n      tag_213\n      jump\t// in\n    tag_367:\n        /* \"#utility.yul\":16455:16457   */\n      0x20\n        /* \"#utility.yul\":16450:16453   */\n      dup3\n        /* \"#utility.yul\":16446:16458   */\n      add\n        /* \"#utility.yul\":16439:16458   */\n      swap1\n      pop\n        /* \"#utility.yul\":16098:16464   */\n      swap2\n      swap1\n      pop\n      jump\t// out\n        /* \"#utility.yul\":16470:16889   */\n    tag_99:\n        /* \"#utility.yul\":16636:16640   */\n      0x00\n        /* \"#utility.yul\":16674:16676   */\n      0x20\n        /* \"#utility.yul\":16663:16672   */\n      dup3\n        /* \"#utility.yul\":16659:16677   */\n      add\n        /* \"#utility.yul\":16651:16677   */\n      swap1\n      pop\n        /* \"#utility.yul\":16723:16732   */\n      dup2\n        /* \"#utility.yul\":16717:16721   */\n      dup2\n        /* \"#utility.yul\":16713:16733   */\n      sub\n        /* \"#utility.yul\":16709:16710   */\n      0x00\n        /* \"#utility.yul\":16698:16707   */\n      dup4\n        /* \"#utility.yul\":16694:16711   */\n      add\n        /* \"#utility.yul\":16687:16734   */\n      mstore\n        /* \"#utility.yul\":16751:16882   */\n      tag_369\n        /* \"#utility.yul\":16877:16881   */\n      dup2\n        /* \"#utility.yul\":16751:16882   */\n      tag_214\n      jump\t// in\n    tag_369:\n        /* \"#utility.yul\":16743:16882   */\n      swap1\n      pop\n        /* \"#utility.yul\":16470:16889   */\n      swap2\n      swap1\n      pop\n      jump\t// out\n        /* \"#utility.yul\":16895:17337   */\n    tag_101:\n        /* \"#utility.yul\":17044:17048   */\n      0x00\n        /* \"#utility.yul\":17082:17084   */\n      0x60\n        /* \"#utility.yul\":17071:17080   */\n      dup3\n        /* \"#utility.yul\":17067:17085   */\n      add\n        /* \"#utility.yul\":17059:17085   */\n      swap1\n      pop\n        /* \"#utility.yul\":17095:17166   */\n      tag_371\n        /* \"#utility.yul\":17163:17164   */\n      0x00\n        /* \"#utility.yul\":17152:17161   */\n      dup4\n        /* \"#utility.yul\":17148:17165   */\n      add\n        /* \"#utility.yul\":17139:17145   */\n      dup7\n        /* \"#utility.yul\":17095:17166   */\n      tag_189\n      jump\t// in\n    tag_371:\n        /* \"#utility.yul\":17176:17248   */\n      tag_372\n        /* \"#utility.yul\":17244:17246   */\n      0x20\n        /* \"#utility.yul\":17233:17242   */\n      dup4\n        /* \"#utility.yul\":17229:17247   */\n      add\n        /* \"#utility.yul\":17220:17226   */\n      dup6\n        /* \"#utility.yul\":17176:17248   */\n      tag_189\n      jump\t// in\n    tag_372:\n        /* \"#utility.yul\":17258:17330   */\n      tag_373\n        /* \"#utility.yul\":17326:17328   */\n      0x40\n        /* \"#utility.yul\":17315:17324   */\n      dup4\n        /* \"#utility.yul\":17311:17329   */\n      add\n        /* \"#utility.yul\":17302:17308   */\n      dup5\n        /* \"#utility.yul\":17258:17330   */\n      tag_188\n      jump\t// in\n    tag_373:\n        /* \"#utility.yul\":16895:17337   */\n      swap5\n      swap4\n      pop\n      pop\n      pop\n      pop\n      jump\t// out\n        /* \"#utility.yul\":17343:17785   */\n    tag_110:\n        /* \"#utility.yul\":17492:17496   */\n      0x00\n        /* \"#utility.yul\":17530:17532   */\n      0x60\n        /* \"#utility.yul\":17519:17528   */\n      dup3\n        /* \"#utility.yul\":17515:17533   */\n      add\n        /* \"#utility.yul\":17507:17533   */\n      swap1\n      pop\n        /* \"#utility.yul\":17543:17614   */\n      tag_375\n        /* \"#utility.yul\":17611:17612   */\n      0x00\n        /* \"#utility.yul\":17600:17609   */\n      dup4\n        /* \"#utility.yul\":17596:17613   */\n      add\n        /* \"#utility.yul\":17587:17593   */\n      dup7\n        /* \"#utility.yul\":17543:17614   */\n      tag_188\n      jump\t// in\n    tag_375:\n        /* \"#utility.yul\":17624:17696   */\n      tag_376\n        /* \"#utility.yul\":17692:17694   */\n      0x20\n        /* \"#utility.yul\":17681:17690   */\n      dup4\n        /* \"#utility.yul\":17677:17695   */\n      add\n        /* \"#utility.yul\":17668:17674   */\n      dup6\n        /* \"#utility.yul\":17624:17696   */\n      tag_189\n      jump\t// in\n    tag_376:\n        /* \"#utility.yul\":17706:17778   */\n      tag_377\n        /* \"#utility.yul\":17774:17776   */\n      0x40\n        /* \"#utility.yul\":17763:17772   */\n      dup4\n        /* \"#utility.yul\":17759:17777   */\n      add\n        /* \"#utility.yul\":17750:17756   */\n      dup5\n        /* \"#utility.yul\":17706:17778   */\n      tag_189\n      jump\t// in\n    tag_377:\n        /* \"#utility.yul\":17343:17785   */\n      swap5\n      swap4\n      pop\n      pop\n      pop\n      pop\n      jump\t// out\n        /* \"#utility.yul\":17791:18123   */\n    tag_112:\n        /* \"#utility.yul\":17912:17916   */\n      0x00\n        /* \"#utility.yul\":17950:17952   */\n      0x40\n        /* \"#utility.yul\":17939:17948   */\n      dup3\n        /* \"#utility.yul\":17935:17953   */\n      add\n        /* \"#utility.yul\":17927:17953   */\n      swap1\n      pop\n        /* \"#utility.yul\":17963:18034   */\n      tag_379\n        /* \"#utility.yul\":18031:18032   */\n      0x00\n        /* \"#utility.yul\":18020:18029   */\n      dup4\n        /* \"#utility.yul\":18016:18033   */\n      add\n        /* \"#utility.yul\":18007:18013   */\n      dup6\n        /* \"#utility.yul\":17963:18034   */\n      tag_188\n      jump\t// in\n    tag_379:\n        /* \"#utility.yul\":18044:18116   */\n      tag_380\n        /* \"#utility.yul\":18112:18114   */\n      0x20\n        /* \"#utility.yul\":18101:18110   */\n      dup4\n        /* \"#utility.yul\":18097:18115   */\n      add\n        /* \"#utility.yul\":18088:18094   */\n      dup5\n        /* \"#utility.yul\":18044:18116   */\n      tag_189\n      jump\t// in\n    tag_380:\n        /* \"#utility.yul\":17791:18123   */\n      swap4\n      swap3\n      pop\n      pop\n      pop\n      jump\t// out\n        /* \"#utility.yul\":18129:18356   */\n    tag_215:\n        /* \"#utility.yul\":18269:18303   */\n      0x436f6c6c61746572616c20616d6f756e74206d75737420626520677265617465\n        /* \"#utility.yul\":18265:18266   */\n      0x00\n        /* \"#utility.yul\":18257:18263   */\n      dup3\n        /* \"#utility.yul\":18253:18267   */\n      add\n        /* \"#utility.yul\":18246:18304   */\n      mstore\n        /* \"#utility.yul\":18338:18348   */\n      0x72207468616e2030000000000000000000000000000000000000000000000000\n        /* \"#utility.yul\":18333:18335   */\n      0x20\n        /* \"#utility.yul\":18325:18331   */\n      dup3\n        /* \"#utility.yul\":18321:18336   */\n      add\n        /* \"#utility.yul\":18314:18349   */\n      mstore\n        /* \"#utility.yul\":18129:18356   */\n      pop\n      jump\t// out\n        /* \"#utility.yul\":18362:18728   */\n    tag_216:\n        /* \"#utility.yul\":18504:18507   */\n      0x00\n        /* \"#utility.yul\":18525:18592   */\n      tag_383\n        /* \"#utility.yul\":18589:18591   */\n      0x28\n        /* \"#utility.yul\":18584:18587   */\n      dup4\n        /* \"#utility.yul\":18525:18592   */\n      tag_205\n      jump\t// in\n    tag_383:\n        /* \"#utility.yul\":18518:18592   */\n      swap2\n      pop\n        /* \"#utility.yul\":18601:18694   */\n      tag_384\n        /* \"#utility.yul\":18690:18693   */\n      dup3\n        /* \"#utility.yul\":18601:18694   */\n      tag_215\n      jump\t// in\n    tag_384:\n        /* \"#utility.yul\":18719:18721   */\n      0x40\n        /* \"#utility.yul\":18714:18717   */\n      dup3\n        /* \"#utility.yul\":18710:18722   */\n      add\n        /* \"#utility.yul\":18703:18722   */\n      swap1\n      pop\n        /* \"#utility.yul\":18362:18728   */\n      swap2\n      swap1\n      pop\n      jump\t// out\n        /* \"#utility.yul\":18734:19153   */\n    tag_116:\n        /* \"#utility.yul\":18900:18904   */\n      0x00\n        /* \"#utility.yul\":18938:18940   */\n      0x20\n        /* \"#utility.yul\":18927:18936   */\n      dup3\n        /* \"#utility.yul\":18923:18941   */\n      add\n        /* \"#utility.yul\":18915:18941   */\n      swap1\n      pop\n        /* \"#utility.yul\":18987:18996   */\n      dup2\n        /* \"#utility.yul\":18981:18985   */\n      dup2\n        /* \"#utility.yul\":18977:18997   */\n      sub\n        /* \"#utility.yul\":18973:18974   */\n      0x00\n        /* \"#utility.yul\":18962:18971   */\n      dup4\n        /* \"#utility.yul\":18958:18975   */\n      add\n        /* \"#utility.yul\":18951:18998   */\n      mstore\n        /* \"#utility.yul\":19015:19146   */\n      tag_386\n        /* \"#utility.yul\":19141:19145   */\n      dup2\n        /* \"#utility.yul\":19015:19146   */\n      tag_216\n      jump\t// in\n    tag_386:\n        /* \"#utility.yul\":19007:19146   */\n      swap1\n      pop\n        /* \"#utility.yul\":18734:19153   */\n      swap2\n      swap1\n      pop\n      jump\t// out\n        /* \"#utility.yul\":19159:19380   */\n    tag_217:\n        /* \"#utility.yul\":19299:19333   */\n      0x4c6f616e20616d6f756e74206d7573742062652067726561746572207468616e\n        /* \"#utility.yul\":19295:19296   */\n      0x00\n        /* \"#utility.yul\":19287:19293   */\n      dup3\n        /* \"#utility.yul\":19283:19297   */\n      add\n        /* \"#utility.yul\":19276:19334   */\n      mstore\n        /* \"#utility.yul\":19368:19372   */\n      0x2030000000000000000000000000000000000000000000000000000000000000\n        /* \"#utility.yul\":19363:19365   */\n      0x20\n        /* \"#utility.yul\":19355:19361   */\n      dup3\n        /* \"#utility.yul\":19351:19366   */\n      add\n        /* \"#utility.yul\":19344:19373   */\n      mstore\n        /* \"#utility.yul\":19159:19380   */\n      pop\n      jump\t// out\n        /* \"#utility.yul\":19386:19752   */\n    tag_218:\n        /* \"#utility.yul\":19528:19531   */\n      0x00\n        /* \"#utility.yul\":19549:19616   */\n      tag_389\n        /* \"#utility.yul\":19613:19615   */\n      0x22\n        /* \"#utility.yul\":19608:19611   */\n      dup4\n        /* \"#utility.yul\":19549:19616   */\n      tag_205\n      jump\t// in\n    tag_389:\n        /* \"#utility.yul\":19542:19616   */\n      swap2\n      pop\n        /* \"#utility.yul\":19625:19718   */\n      tag_390\n        /* \"#utility.yul\":19714:19717   */\n      dup3\n        /* \"#utility.yul\":19625:19718   */\n      tag_217\n      jump\t// in\n    tag_390:\n        /* \"#utility.yul\":19743:19745   */\n      0x40\n        /* \"#utility.yul\":19738:19741   */\n      dup3\n        /* \"#utility.yul\":19734:19746   */\n      add\n        /* \"#utility.yul\":19727:19746   */\n      swap1\n      pop\n        /* \"#utility.yul\":19386:19752   */\n      swap2\n      swap1\n      pop\n      jump\t// out\n        /* \"#utility.yul\":19758:20177   */\n    tag_119:\n        /* \"#utility.yul\":19924:19928   */\n      0x00\n        /* \"#utility.yul\":19962:19964   */\n      0x20\n        /* \"#utility.yul\":19951:19960   */\n      dup3\n        /* \"#utility.yul\":19947:19965   */\n      add\n        /* \"#utility.yul\":19939:19965   */\n      swap1\n      pop\n        /* \"#utility.yul\":20011:20020   */\n      dup2\n        /* \"#utility.yul\":20005:20009   */\n      dup2\n        /* \"#utility.yul\":20001:20021   */\n      sub\n        /* \"#utility.yul\":19997:19998   */\n      0x00\n        /* \"#utility.yul\":19986:19995   */\n      dup4\n        /* \"#utility.yul\":19982:19999   */\n      add\n        /* \"#utility.yul\":19975:20022   */\n      mstore\n        /* \"#utility.yul\":20039:20170   */\n      tag_392\n        /* \"#utility.yul\":20165:20169   */\n      dup2\n        /* \"#utility.yul\":20039:20170   */\n      tag_218\n      jump\t// in\n    tag_392:\n        /* \"#utility.yul\":20031:20170   */\n      swap1\n      pop\n        /* \"#utility.yul\":19758:20177   */\n      swap2\n      swap1\n      pop\n      jump\t// out\n        /* \"#utility.yul\":20183:20405   */\n    tag_219:\n        /* \"#utility.yul\":20323:20357   */\n      0x4c6f616e206475726174696f6e2065786365656473206d6178696d756d206c69\n        /* \"#utility.yul\":20319:20320   */\n      0x00\n        /* \"#utility.yul\":20311:20317   */\n      dup3\n        /* \"#utility.yul\":20307:20321   */\n      add\n        /* \"#utility.yul\":20300:20358   */\n      mstore\n        /* \"#utility.yul\":20392:20397   */\n      0x6d69740000000000000000000000000000000000000000000000000000000000\n        /* \"#utility.yul\":20387:20389   */\n      0x20\n        /* \"#utility.yul\":20379:20385   */\n      dup3\n        /* \"#utility.yul\":20375:20390   */\n      add\n        /* \"#utility.yul\":20368:20398   */\n      mstore\n        /* \"#utility.yul\":20183:20405   */\n      pop\n      jump\t// out\n        /* \"#utility.yul\":20411:20777   */\n    tag_220:\n        /* \"#utility.yul\":20553:20556   */\n      0x00\n        /* \"#utility.yul\":20574:20641   */\n      tag_395\n        /* \"#utility.yul\":20638:20640   */\n      0x23\n        /* \"#utility.yul\":20633:20636   */\n      dup4\n        /* \"#utility.yul\":20574:20641   */\n      tag_205\n      jump\t// in\n    tag_395:\n        /* \"#utility.yul\":20567:20641   */\n      swap2\n      pop\n        /* \"#utility.yul\":20650:20743   */\n      tag_396\n        /* \"#utility.yul\":20739:20742   */\n      dup3\n        /* \"#utility.yul\":20650:20743   */\n      tag_219\n      jump\t// in\n    tag_396:\n        /* \"#utility.yul\":20768:20770   */\n      0x40\n        /* \"#utility.yul\":20763:20766   */\n      dup3\n        /* \"#utility.yul\":20759:20771   */\n      add\n        /* \"#utility.yul\":20752:20771   */\n      swap1\n      pop\n        /* \"#utility.yul\":20411:20777   */\n      swap2\n      swap1\n      pop\n      jump\t// out\n        /* \"#utility.yul\":20783:21202   */\n    tag_122:\n        /* \"#utility.yul\":20949:20953   */\n      0x00\n        /* \"#utility.yul\":20987:20989   */\n      0x20\n        /* \"#utility.yul\":20976:20985   */\n      dup3\n        /* \"#utility.yul\":20972:20990   */\n      add\n        /* \"#utility.yul\":20964:20990   */\n      swap1\n      pop\n        /* \"#utility.yul\":21036:21045   */\n      dup2\n        /* \"#utility.yul\":21030:21034   */\n      dup2\n        /* \"#utility.yul\":21026:21046   */\n      sub\n        /* \"#utility.yul\":21022:21023   */\n      0x00\n        /* \"#utility.yul\":21011:21020   */\n      dup4\n        /* \"#utility.yul\":21007:21024   */\n      add\n        /* \"#utility.yul\":21000:21047   */\n      mstore\n        /* \"#utility.yul\":21064:21195   */\n      tag_398\n        /* \"#utility.yul\":21190:21194   */\n      dup2\n        /* \"#utility.yul\":21064:21195   */\n      tag_220\n      jump\t// in\n    tag_398:\n        /* \"#utility.yul\":21056:21195   */\n      swap1\n      pop\n        /* \"#utility.yul\":20783:21202   */\n      swap2\n      swap1\n      pop\n      jump\t// out\n        /* \"#utility.yul\":21208:21389   */\n    tag_221:\n        /* \"#utility.yul\":21348:21381   */\n      0x496e73756666696369656e7420636f6c6c61746572616c2062616c616e636500\n        /* \"#utility.yul\":21344:21345   */\n      0x00\n        /* \"#utility.yul\":21336:21342   */\n      dup3\n        /* \"#utility.yul\":21332:21346   */\n      add\n        /* \"#utility.yul\":21325:21382   */\n      mstore\n        /* \"#utility.yul\":21208:21389   */\n      pop\n      jump\t// out\n        /* \"#utility.yul\":21395:21761   */\n    tag_222:\n        /* \"#utility.yul\":21537:21540   */\n      0x00\n        /* \"#utility.yul\":21558:21625   */\n      tag_401\n        /* \"#utility.yul\":21622:21624   */\n      0x1f\n        /* \"#utility.yul\":21617:21620   */\n      dup4\n        /* \"#utility.yul\":21558:21625   */\n      tag_205\n      jump\t// in\n    tag_401:\n        /* \"#utility.yul\":21551:21625   */\n      swap2\n      pop\n        /* \"#utility.yul\":21634:21727   */\n      tag_402\n        /* \"#utility.yul\":21723:21726   */\n      dup3\n        /* \"#utility.yul\":21634:21727   */\n      tag_221\n      jump\t// in\n    tag_402:\n        /* \"#utility.yul\":21752:21754   */\n      0x20\n        /* \"#utility.yul\":21747:21750   */\n      dup3\n        /* \"#utility.yul\":21743:21755   */\n      add\n        /* \"#utility.yul\":21736:21755   */\n      swap1\n      pop\n        /* \"#utility.yul\":21395:21761   */\n      swap2\n      swap1\n      pop\n      jump\t// out\n        /* \"#utility.yul\":21767:22186   */\n    tag_129:\n        /* \"#utility.yul\":21933:21937   */\n      0x00\n        /* \"#utility.yul\":21971:21973   */\n      0x20\n        /* \"#utility.yul\":21960:21969   */\n      dup3\n        /* \"#utility.yul\":21956:21974   */\n      add\n        /* \"#utility.yul\":21948:21974   */\n      swap1\n      pop\n        /* \"#utility.yul\":22020:22029   */\n      dup2\n        /* \"#utility.yul\":22014:22018   */\n      dup2\n        /* \"#utility.yul\":22010:22030   */\n      sub\n        /* \"#utility.yul\":22006:22007   */\n      0x00\n        /* \"#utility.yul\":21995:22004   */\n      dup4\n        /* \"#utility.yul\":21991:22008   */\n      add\n        /* \"#utility.yul\":21984:22031   */\n      mstore\n        /* \"#utility.yul\":22048:22179   */\n      tag_404\n        /* \"#utility.yul\":22174:22178   */\n      dup2\n        /* \"#utility.yul\":22048:22179   */\n      tag_222\n      jump\t// in\n    tag_404:\n        /* \"#utility.yul\":22040:22179   */\n      swap1\n      pop\n        /* \"#utility.yul\":21767:22186   */\n      swap2\n      swap1\n      pop\n      jump\t// out\n        /* \"#utility.yul\":22192:22412   */\n    tag_223:\n        /* \"#utility.yul\":22332:22366   */\n      0x496e73756666696369656e74206c6f616e20746f6b656e206c69717569646974\n        /* \"#utility.yul\":22328:22329   */\n      0x00\n        /* \"#utility.yul\":22320:22326   */\n      dup3\n        /* \"#utility.yul\":22316:22330   */\n      add\n        /* \"#utility.yul\":22309:22367   */\n      mstore\n        /* \"#utility.yul\":22401:22404   */\n      0x7900000000000000000000000000000000000000000000000000000000000000\n        /* \"#utility.yul\":22396:22398   */\n      0x20\n        /* \"#utility.yul\":22388:22394   */\n      dup3\n        /* \"#utility.yul\":22384:22399   */\n      add\n        /* \"#utility.yul\":22377:22405   */\n      mstore\n        /* \"#utility.yul\":22192:22412   */\n      pop\n      jump\t// out\n        /* \"#utility.yul\":22418:22784   */\n    tag_224:\n        /* \"#utility.yul\":22560:22563   */\n      0x00\n        /* \"#utility.yul\":22581:22648   */\n      tag_407\n        /* \"#utility.yul\":22645:22647   */\n      0x21\n        /* \"#utility.yul\":22640:22643   */\n      dup4\n        /* \"#utility.yul\":22581:22648   */\n      tag_205\n      jump\t// in\n    tag_407:\n        /* \"#utility.yul\":22574:22648   */\n      swap2\n      pop\n        /* \"#utility.yul\":22657:22750   */\n      tag_408\n        /* \"#utility.yul\":22746:22749   */\n      dup3\n        /* \"#utility.yul\":22657:22750   */\n      tag_223\n      jump\t// in\n    tag_408:\n        /* \"#utility.yul\":22775:22777   */\n      0x40\n        /* \"#utility.yul\":22770:22773   */\n      dup3\n        /* \"#utility.yul\":22766:22778   */\n      add\n        /* \"#utility.yul\":22759:22778   */\n      swap1\n      pop\n        /* \"#utility.yul\":22418:22784   */\n      swap2\n      swap1\n      pop\n      jump\t// out\n        /* \"#utility.yul\":22790:23209   */\n    tag_136:\n        /* \"#utility.yul\":22956:22960   */\n      0x00\n        /* \"#utility.yul\":22994:22996   */\n      0x20\n        /* \"#utility.yul\":22983:22992   */\n      dup3\n        /* \"#utility.yul\":22979:22997   */\n      add\n        /* \"#utility.yul\":22971:22997   */\n      swap1\n      pop\n        /* \"#utility.yul\":23043:23052   */\n      dup2\n        /* \"#utility.yul\":23037:23041   */\n      dup2\n        /* \"#utility.yul\":23033:23053   */\n      sub\n        /* \"#utility.yul\":23029:23030   */\n      0x00\n        /* \"#utility.yul\":23018:23027   */\n      dup4\n        /* \"#utility.yul\":23014:23031   */\n      add\n        /* \"#utility.yul\":23007:23054   */\n      mstore\n        /* \"#utility.yul\":23071:23202   */\n      tag_410\n        /* \"#utility.yul\":23197:23201   */\n      dup2\n        /* \"#utility.yul\":23071:23202   */\n      tag_224\n      jump\t// in\n    tag_410:\n        /* \"#utility.yul\":23063:23202   */\n      swap1\n      pop\n        /* \"#utility.yul\":22790:23209   */\n      swap2\n      swap1\n      pop\n      jump\t// out\n        /* \"#utility.yul\":23215:23395   */\n    tag_225:\n        /* \"#utility.yul\":23263:23340   */\n      0x4e487b7100000000000000000000000000000000000000000000000000000000\n        /* \"#utility.yul\":23260:23261   */\n      0x00\n        /* \"#utility.yul\":23253:23341   */\n      mstore\n        /* \"#utility.yul\":23360:23364   */\n      0x11\n        /* \"#utility.yul\":23357:23358   */\n      0x04\n        /* \"#utility.yul\":23350:23365   */\n      mstore\n        /* \"#utility.yul\":23384:23388   */\n      0x24\n        /* \"#utility.yul\":23381:23382   */\n      0x00\n        /* \"#utility.yul\":23374:23389   */\n      revert\n        /* \"#utility.yul\":23401:23592   */\n    tag_146:\n        /* \"#utility.yul\":23441:23444   */\n      0x00\n        /* \"#utility.yul\":23460:23480   */\n      tag_413\n        /* \"#utility.yul\":23478:23479   */\n      dup3\n        /* \"#utility.yul\":23460:23480   */\n      tag_185\n      jump\t// in\n    tag_413:\n        /* \"#utility.yul\":23455:23480   */\n      swap2\n      pop\n        /* \"#utility.yul\":23494:23514   */\n      tag_414\n        /* \"#utility.yul\":23512:23513   */\n      dup4\n        /* \"#utility.yul\":23494:23514   */\n      tag_185\n      jump\t// in\n    tag_414:\n        /* \"#utility.yul\":23489:23514   */\n      swap3\n      pop\n        /* \"#utility.yul\":23537:23538   */\n      dup3\n        /* \"#utility.yul\":23534:23535   */\n      dup3\n        /* \"#utility.yul\":23530:23539   */\n      add\n        /* \"#utility.yul\":23523:23539   */\n      swap1\n      pop\n        /* \"#utility.yul\":23558:23561   */\n      dup1\n        /* \"#utility.yul\":23555:23556   */\n      dup3\n        /* \"#utility.yul\":23552:23562   */\n      gt\n        /* \"#utility.yul\":23549:23585   */\n      iszero\n      tag_415\n      jumpi\n        /* \"#utility.yul\":23565:23583   */\n      tag_416\n      tag_225\n      jump\t// in\n    tag_416:\n        /* \"#utility.yul\":23549:23585   */\n    tag_415:\n        /* \"#utility.yul\":23401:23592   */\n      swap3\n      swap2\n      pop\n      pop\n      jump\t// out\n\n    auxdata: 0xa264697066735822122053cb4a0d4bb9a35325685281bf124629de030b708ef14232d12d62ca0b0b702b64736f6c634300081a0033\n}\n",
				"bytecode": {
					"linkReferences": {},
					"object": "608060405234801561000f575f80fd5b5061001e6100a360201b60201c565b5f73ffffffffffffffffffffffffffffffffffffffff168173ffffffffffffffffffffffffffffffffffffffff160361008e575f6040517f1e4fbdf700000000000000000000000000000000000000000000000000000000815260040161008591906101aa565b60405180910390fd5b61009d816100aa60201b60201c565b506101c3565b5f33905090565b5f805f9054906101000a900473ffffffffffffffffffffffffffffffffffffffff169050815f806101000a81548173ffffffffffffffffffffffffffffffffffffffff021916908373ffffffffffffffffffffffffffffffffffffffff1602179055508173ffffffffffffffffffffffffffffffffffffffff168173ffffffffffffffffffffffffffffffffffffffff167f8be0079c531659141344cd1fd0a4f28419497f9722a3daafe3b4186f6b6457e060405160405180910390a35050565b5f73ffffffffffffffffffffffffffffffffffffffff82169050919050565b5f6101948261016b565b9050919050565b6101a48161018a565b82525050565b5f6020820190506101bd5f83018461019b565b92915050565b612008806101d05f395ff3fe608060405234801561000f575f80fd5b50600436106100a7575f3560e01c8063ab7b1c891161006f578063ab7b1c8914610143578063c377fdab1461015f578063d13d5e561461017b578063d988ef20146101ab578063f2fde38b146101db578063f53c61e0146101f7576100a7565b806306b091f9146100ab5780630d0b2ca6146100c7578063715018a6146100e55780638da5cb5b146100ef57806398c61c371461010d575b5f80fd5b6100c560048036038101906100c0919061158f565b610227565b005b6100cf6102af565b6040516100dc91906115dc565b60405180910390f35b6100ed6102b6565b005b6100f76102c9565b6040516101049190611604565b60405180910390f35b6101276004803603810190610122919061158f565b6102f0565b60405161013a9796959493929190611637565b60405180910390f35b61015d600480360381019061015891906116a4565b6103b1565b005b610179600480360381019061017491906116cf565b61088d565b005b6101956004803603810190610190919061158f565b610e6b565b6040516101a29190611811565b60405180910390f35b6101c560048036038101906101c0919061182a565b611099565b6040516101d29190611989565b60405180910390f35b6101f560048036038101906101f0919061182a565b611268565b005b610211600480360381019061020c919061182a565b6112ec565b60405161021e91906115dc565b60405180910390f35b61022f611335565b8173ffffffffffffffffffffffffffffffffffffffff1663a9059cbb33836040518363ffffffff1660e01b815260040161026a9291906119a9565b6020604051808303815f875af1158015610286573d5f803e3d5ffd5b505050506040513d601f19601f820116820180604052508101906102aa91906119fa565b505050565b62278d0081565b6102be611335565b6102c75f6113bc565b565b5f805f9054906101000a900473ffffffffffffffffffffffffffffffffffffffff16905090565b6001602052815f5260405f208181548110610309575f80fd5b905f5260205f2090600702015f9150915050805f015490806001015490806002015f9054906101000a900473ffffffffffffffffffffffffffffffffffffffff1690806003015f9054906101000a900473ffffffffffffffffffffffffffffffffffffffff1690806004015f9054906101000a900473ffffffffffffffffffffffffffffffffffffffff1690806005015490806006015f9054906101000a900460ff16905087565b60015f3373ffffffffffffffffffffffffffffffffffffffff1673ffffffffffffffffffffffffffffffffffffffff1681526020019081526020015f20805490508110610433576040517f08c379a000000000000000000000000000000000000000000000000000000000815260040161042a90611a7f565b60405180910390fd5b5f60015f3373ffffffffffffffffffffffffffffffffffffffff1673ffffffffffffffffffffffffffffffffffffffff1681526020019081526020015f20828154811061048357610482611a9d565b5b905f5260205f2090600702019050806006015f9054906101000a900460ff16156104e2576040517f08c379a00000000000000000000000000000000000000000000000000000000081526004016104d990611b14565b60405180910390fd5b8060050154421115610529576040517f08c379a000000000000000000000000000000000000000000000000000000000815260040161052090611b7c565b60405180910390fd5b5f816003015f9054906101000a900473ffffffffffffffffffffffffffffffffffffffff1690505f826002015f9054906101000a900473ffffffffffffffffffffffffffffffffffffffff16905082600101548273ffffffffffffffffffffffffffffffffffffffff166370a08231336040518263ffffffff1660e01b81526004016105b59190611604565b602060405180830381865afa1580156105d0573d5f803e3d5ffd5b505050506040513d601f19601f820116820180604052508101906105f49190611bae565b1015610635576040517f08c379a000000000000000000000000000000000000000000000000000000000815260040161062c90611c23565b60405180910390fd5b8173ffffffffffffffffffffffffffffffffffffffff166323b872dd33856004015f9054906101000a900473ffffffffffffffffffffffffffffffffffffffff1686600101546040518463ffffffff1660e01b815260040161069993929190611c41565b6020604051808303815f875af11580156106b5573d5f803e3d5ffd5b505050506040513d601f19601f820116820180604052508101906106d991906119fa565b508073ffffffffffffffffffffffffffffffffffffffff1663a9059cbb33855f01546040518363ffffffff1660e01b81526004016107189291906119a9565b6020604051808303815f875af1158015610734573d5f803e3d5ffd5b505050506040513d601f19601f8201168201806040525081019061075891906119fa565b506001836006015f6101000a81548160ff0219169083151502179055503373ffffffffffffffffffffffffffffffffffffffff167f9608baf6a01f4df6acf0f08534b9db5a0b94d085bc53b58698e5502655fe57c58460010154856003015f9054906101000a900473ffffffffffffffffffffffffffffffffffffffff16866004015f9054906101000a900473ffffffffffffffffffffffffffffffffffffffff1660405161080993929190611c76565b60405180910390a23373ffffffffffffffffffffffffffffffffffffffff167f887eb7234a2c4fa94c5778832c90928b2ce458cfee0053ed170baa8cde476fb5845f0154856002015f9054906101000a900473ffffffffffffffffffffffffffffffffffffffff1660405161087f929190611cab565b60405180910390a250505050565b5f86116108cf576040517f08c379a00000000000000000000000000000000000000000000000000000000081526004016108c690611d42565b60405180910390fd5b5f8411610911576040517f08c379a000000000000000000000000000000000000000000000000000000000815260040161090890611dd0565b60405180910390fd5b62278d00811115610957576040517f08c379a000000000000000000000000000000000000000000000000000000000815260040161094e90611e5e565b60405180910390fd5b5f8590505f849050878273ffffffffffffffffffffffffffffffffffffffff166370a08231336040518263ffffffff1660e01b81526004016109999190611604565b602060405180830381865afa1580156109b4573d5f803e3d5ffd5b505050506040513d601f19601f820116820180604052508101906109d89190611bae565b1015610a19576040517f08c379a0000000000000000000000000000000000000000000000000000000008152600401610a1090611ec6565b60405180910390fd5b858173ffffffffffffffffffffffffffffffffffffffff166370a08231306040518263ffffffff1660e01b8152600401610a539190611604565b602060405180830381865afa158015610a6e573d5f803e3d5ffd5b505050506040513d601f19601f82011682018060405250810190610a929190611bae565b1015610ad3576040517f08c379a0000000000000000000000000000000000000000000000000000000008152600401610aca90611f54565b60405180910390fd5b8173ffffffffffffffffffffffffffffffffffffffff166323b872dd33308b6040518463ffffffff1660e01b8152600401610b1093929190611c41565b6020604051808303815f875af1158015610b2c573d5f803e3d5ffd5b505050506040513d601f19601f82011682018060405250810190610b5091906119fa565b508073ffffffffffffffffffffffffffffffffffffffff1663a9059cbb33886040518363ffffffff1660e01b8152600401610b8c9291906119a9565b6020604051808303815f875af1158015610ba8573d5f803e3d5ffd5b505050506040513d601f19601f82011682018060405250810190610bcc91906119fa565b5060015f3373ffffffffffffffffffffffffffffffffffffffff1673ffffffffffffffffffffffffffffffffffffffff1681526020019081526020015f206040518060e001604052808a81526020018881526020018973ffffffffffffffffffffffffffffffffffffffff1681526020018773ffffffffffffffffffffffffffffffffffffffff1681526020018673ffffffffffffffffffffffffffffffffffffffff1681526020018542610c819190611f9f565b81526020015f1515815250908060018154018082558091505060019003905f5260205f2090600702015f909190919091505f820151815f0155602082015181600101556040820151816002015f6101000a81548173ffffffffffffffffffffffffffffffffffffffff021916908373ffffffffffffffffffffffffffffffffffffffff1602179055506060820151816003015f6101000a81548173ffffffffffffffffffffffffffffffffffffffff021916908373ffffffffffffffffffffffffffffffffffffffff1602179055506080820151816004015f6101000a81548173ffffffffffffffffffffffffffffffffffffffff021916908373ffffffffffffffffffffffffffffffffffffffff16021790555060a0820151816005015560c0820151816006015f6101000a81548160ff02191690831515021790555050503373ffffffffffffffffffffffffffffffffffffffff167f56b60085244fe1afa467f92231debadc8bcb6127e9dbf35dbb58ca8406a423fe8989604051610e09929190611cab565b60405180910390a23373ffffffffffffffffffffffffffffffffffffffff167fe5024716f30be6e51e2a7cc6145e6659cd5bdb7a0c451e22b7e9d39c9b5f03ac8787604051610e59929190611cab565b60405180910390a25050505050505050565b610e73611484565b60015f8473ffffffffffffffffffffffffffffffffffffffff1673ffffffffffffffffffffffffffffffffffffffff1681526020019081526020015f20805490508210610ef5576040517f08c379a0000000000000000000000000000000000000000000000000000000008152600401610eec90611a7f565b60405180910390fd5b60015f8473ffffffffffffffffffffffffffffffffffffffff1673ffffffffffffffffffffffffffffffffffffffff1681526020019081526020015f208281548110610f4457610f43611a9d565b5b905f5260205f2090600702016040518060e00160405290815f820154815260200160018201548152602001600282015f9054906101000a900473ffffffffffffffffffffffffffffffffffffffff1673ffffffffffffffffffffffffffffffffffffffff1673ffffffffffffffffffffffffffffffffffffffff168152602001600382015f9054906101000a900473ffffffffffffffffffffffffffffffffffffffff1673ffffffffffffffffffffffffffffffffffffffff1673ffffffffffffffffffffffffffffffffffffffff168152602001600482015f9054906101000a900473ffffffffffffffffffffffffffffffffffffffff1673ffffffffffffffffffffffffffffffffffffffff1673ffffffffffffffffffffffffffffffffffffffff16815260200160058201548152602001600682015f9054906101000a900460ff161515151581525050905092915050565b606060015f8373ffffffffffffffffffffffffffffffffffffffff1673ffffffffffffffffffffffffffffffffffffffff1681526020019081526020015f20805480602002602001604051908101604052809291908181526020015f905b8282101561125d578382905f5260205f2090600702016040518060e00160405290815f820154815260200160018201548152602001600282015f9054906101000a900473ffffffffffffffffffffffffffffffffffffffff1673ffffffffffffffffffffffffffffffffffffffff1673ffffffffffffffffffffffffffffffffffffffff168152602001600382015f9054906101000a900473ffffffffffffffffffffffffffffffffffffffff1673ffffffffffffffffffffffffffffffffffffffff1673ffffffffffffffffffffffffffffffffffffffff168152602001600482015f9054906101000a900473ffffffffffffffffffffffffffffffffffffffff1673ffffffffffffffffffffffffffffffffffffffff1673ffffffffffffffffffffffffffffffffffffffff16815260200160058201548152602001600682015f9054906101000a900460ff161515151581525050815260200190600101906110f7565b505050509050919050565b611270611335565b5f73ffffffffffffffffffffffffffffffffffffffff168173ffffffffffffffffffffffffffffffffffffffff16036112e0575f6040517f1e4fbdf70000000000000000000000000000000000000000000000000000000081526004016112d79190611604565b60405180910390fd5b6112e9816113bc565b50565b5f60015f8373ffffffffffffffffffffffffffffffffffffffff1673ffffffffffffffffffffffffffffffffffffffff1681526020019081526020015f20805490509050919050565b61133d61147d565b73ffffffffffffffffffffffffffffffffffffffff1661135b6102c9565b73ffffffffffffffffffffffffffffffffffffffff16146113ba5761137e61147d565b6040517f118cdaa70000000000000000000000000000000000000000000000000000000081526004016113b19190611604565b60405180910390fd5b565b5f805f9054906101000a900473ffffffffffffffffffffffffffffffffffffffff169050815f806101000a81548173ffffffffffffffffffffffffffffffffffffffff021916908373ffffffffffffffffffffffffffffffffffffffff1602179055508173ffffffffffffffffffffffffffffffffffffffff168173ffffffffffffffffffffffffffffffffffffffff167f8be0079c531659141344cd1fd0a4f28419497f9722a3daafe3b4186f6b6457e060405160405180910390a35050565b5f33905090565b6040518060e001604052805f81526020015f81526020015f73ffffffffffffffffffffffffffffffffffffffff1681526020015f73ffffffffffffffffffffffffffffffffffffffff1681526020015f73ffffffffffffffffffffffffffffffffffffffff1681526020015f81526020015f151581525090565b5f80fd5b5f73ffffffffffffffffffffffffffffffffffffffff82169050919050565b5f61152b82611502565b9050919050565b61153b81611521565b8114611545575f80fd5b50565b5f8135905061155681611532565b92915050565b5f819050919050565b61156e8161155c565b8114611578575f80fd5b50565b5f8135905061158981611565565b92915050565b5f80604083850312156115a5576115a46114fe565b5b5f6115b285828601611548565b92505060206115c38582860161157b565b9150509250929050565b6115d68161155c565b82525050565b5f6020820190506115ef5f8301846115cd565b92915050565b6115fe81611521565b82525050565b5f6020820190506116175f8301846115f5565b92915050565b5f8115159050919050565b6116318161161d565b82525050565b5f60e08201905061164a5f83018a6115cd565b61165760208301896115cd565b61166460408301886115f5565b61167160608301876115f5565b61167e60808301866115f5565b61168b60a08301856115cd565b61169860c0830184611628565b98975050505050505050565b5f602082840312156116b9576116b86114fe565b5b5f6116c68482850161157b565b91505092915050565b5f805f805f8060c087890312156116e9576116e86114fe565b5b5f6116f689828a0161157b565b965050602061170789828a01611548565b955050604061171889828a0161157b565b945050606061172989828a01611548565b935050608061173a89828a01611548565b92505060a061174b89828a0161157b565b9150509295509295509295565b6117618161155c565b82525050565b61177081611521565b82525050565b61177f8161161d565b82525050565b60e082015f8201516117995f850182611758565b5060208201516117ac6020850182611758565b5060408201516117bf6040850182611767565b5060608201516117d26060850182611767565b5060808201516117e56080850182611767565b5060a08201516117f860a0850182611758565b5060c082015161180b60c0850182611776565b50505050565b5f60e0820190506118245f830184611785565b92915050565b5f6020828403121561183f5761183e6114fe565b5b5f61184c84828501611548565b91505092915050565b5f81519050919050565b5f82825260208201905092915050565b5f819050602082019050919050565b60e082015f8201516118925f850182611758565b5060208201516118a56020850182611758565b5060408201516118b86040850182611767565b5060608201516118cb6060850182611767565b5060808201516118de6080850182611767565b5060a08201516118f160a0850182611758565b5060c082015161190460c0850182611776565b50505050565b5f611915838361187e565b60e08301905092915050565b5f602082019050919050565b5f61193782611855565b611941818561185f565b935061194c8361186f565b805f5b8381101561197c578151611963888261190a565b975061196e83611921565b92505060018101905061194f565b5085935050505092915050565b5f6020820190508181035f8301526119a1818461192d565b905092915050565b5f6040820190506119bc5f8301856115f5565b6119c960208301846115cd565b9392505050565b6119d98161161d565b81146119e3575f80fd5b50565b5f815190506119f4816119d0565b92915050565b5f60208284031215611a0f57611a0e6114fe565b5b5f611a1c848285016119e6565b91505092915050565b5f82825260208201905092915050565b7f496e76616c6964206c6f616e20696e64657800000000000000000000000000005f82015250565b5f611a69601283611a25565b9150611a7482611a35565b602082019050919050565b5f6020820190508181035f830152611a9681611a5d565b9050919050565b7f4e487b71000000000000000000000000000000000000000000000000000000005f52603260045260245ffd5b7f4c6f616e20616c726561647920726570616964000000000000000000000000005f82015250565b5f611afe601383611a25565b9150611b0982611aca565b602082019050919050565b5f6020820190508181035f830152611b2b81611af2565b9050919050565b7f4c6f616e2072657061796d656e7420646561646c696e652070617373656400005f82015250565b5f611b66601e83611a25565b9150611b7182611b32565b602082019050919050565b5f6020820190508181035f830152611b9381611b5a565b9050919050565b5f81519050611ba881611565565b92915050565b5f60208284031215611bc357611bc26114fe565b5b5f611bd084828501611b9a565b91505092915050565b7f496e73756666696369656e74206c6f616e20746f6b656e2062616c616e6365005f82015250565b5f611c0d601f83611a25565b9150611c1882611bd9565b602082019050919050565b5f6020820190508181035f830152611c3a81611c01565b9050919050565b5f606082019050611c545f8301866115f5565b611c6160208301856115f5565b611c6e60408301846115cd565b949350505050565b5f606082019050611c895f8301866115cd565b611c9660208301856115f5565b611ca360408301846115f5565b949350505050565b5f604082019050611cbe5f8301856115cd565b611ccb60208301846115f5565b9392505050565b7f436f6c6c61746572616c20616d6f756e74206d757374206265206772656174655f8201527f72207468616e2030000000000000000000000000000000000000000000000000602082015250565b5f611d2c602883611a25565b9150611d3782611cd2565b604082019050919050565b5f6020820190508181035f830152611d5981611d20565b9050919050565b7f4c6f616e20616d6f756e74206d7573742062652067726561746572207468616e5f8201527f2030000000000000000000000000000000000000000000000000000000000000602082015250565b5f611dba602283611a25565b9150611dc582611d60565b604082019050919050565b5f6020820190508181035f830152611de781611dae565b9050919050565b7f4c6f616e206475726174696f6e2065786365656473206d6178696d756d206c695f8201527f6d69740000000000000000000000000000000000000000000000000000000000602082015250565b5f611e48602383611a25565b9150611e5382611dee565b604082019050919050565b5f6020820190508181035f830152611e7581611e3c565b9050919050565b7f496e73756666696369656e7420636f6c6c61746572616c2062616c616e6365005f82015250565b5f611eb0601f83611a25565b9150611ebb82611e7c565b602082019050919050565b5f6020820190508181035f830152611edd81611ea4565b9050919050565b7f496e73756666696369656e74206c6f616e20746f6b656e206c697175696469745f8201527f7900000000000000000000000000000000000000000000000000000000000000602082015250565b5f611f3e602183611a25565b9150611f4982611ee4565b604082019050919050565b5f6020820190508181035f830152611f6b81611f32565b9050919050565b7f4e487b71000000000000000000000000000000000000000000000000000000005f52601160045260245ffd5b5f611fa98261155c565b9150611fb48361155c565b9250828201905080821115611fcc57611fcb611f72565b5b9291505056fea264697066735822122053cb4a0d4bb9a35325685281bf124629de030b708ef14232d12d62ca0b0b702b64736f6c634300081a0033",
					"opcodes": "PUSH1 0x80 PUSH1 0x40 MSTORE CALLVALUE DUP1 ISZERO PUSH2 0xF JUMPI PUSH0 DUP1 REVERT JUMPDEST POP PUSH2 0x1E PUSH2 0xA3 PUSH1 0x20 SHL PUSH1 0x20 SHR JUMP JUMPDEST PUSH0 PUSH20 0xFFFFFFFFFFFFFFFFFFFFFFFFFFFFFFFFFFFFFFFF AND DUP2 PUSH20 0xFFFFFFFFFFFFFFFFFFFFFFFFFFFFFFFFFFFFFFFF AND SUB PUSH2 0x8E JUMPI PUSH0 PUSH1 0x40 MLOAD PUSH32 0x1E4FBDF700000000000000000000000000000000000000000000000000000000 DUP2 MSTORE PUSH1 0x4 ADD PUSH2 0x85 SWAP2 SWAP1 PUSH2 0x1AA JUMP JUMPDEST PUSH1 0x40 MLOAD DUP1 SWAP2 SUB SWAP1 REVERT JUMPDEST PUSH2 0x9D DUP2 PUSH2 0xAA PUSH1 0x20 SHL PUSH1 0x20 SHR JUMP JUMPDEST POP PUSH2 0x1C3 JUMP JUMPDEST PUSH0 CALLER SWAP1 POP SWAP1 JUMP JUMPDEST PUSH0 DUP1 PUSH0 SWAP1 SLOAD SWAP1 PUSH2 0x100 EXP SWAP1 DIV PUSH20 0xFFFFFFFFFFFFFFFFFFFFFFFFFFFFFFFFFFFFFFFF AND SWAP1 POP DUP2 PUSH0 DUP1 PUSH2 0x100 EXP DUP2 SLOAD DUP2 PUSH20 0xFFFFFFFFFFFFFFFFFFFFFFFFFFFFFFFFFFFFFFFF MUL NOT AND SWAP1 DUP4 PUSH20 0xFFFFFFFFFFFFFFFFFFFFFFFFFFFFFFFFFFFFFFFF AND MUL OR SWAP1 SSTORE POP DUP2 PUSH20 0xFFFFFFFFFFFFFFFFFFFFFFFFFFFFFFFFFFFFFFFF AND DUP2 PUSH20 0xFFFFFFFFFFFFFFFFFFFFFFFFFFFFFFFFFFFFFFFF AND PUSH32 0x8BE0079C531659141344CD1FD0A4F28419497F9722A3DAAFE3B4186F6B6457E0 PUSH1 0x40 MLOAD PUSH1 0x40 MLOAD DUP1 SWAP2 SUB SWAP1 LOG3 POP POP JUMP JUMPDEST PUSH0 PUSH20 0xFFFFFFFFFFFFFFFFFFFFFFFFFFFFFFFFFFFFFFFF DUP3 AND SWAP1 POP SWAP2 SWAP1 POP JUMP JUMPDEST PUSH0 PUSH2 0x194 DUP3 PUSH2 0x16B JUMP JUMPDEST SWAP1 POP SWAP2 SWAP1 POP JUMP JUMPDEST PUSH2 0x1A4 DUP2 PUSH2 0x18A JUMP JUMPDEST DUP3 MSTORE POP POP JUMP JUMPDEST PUSH0 PUSH1 0x20 DUP3 ADD SWAP1 POP PUSH2 0x1BD PUSH0 DUP4 ADD DUP5 PUSH2 0x19B JUMP JUMPDEST SWAP3 SWAP2 POP POP JUMP JUMPDEST PUSH2 0x2008 DUP1 PUSH2 0x1D0 PUSH0 CODECOPY PUSH0 RETURN INVALID PUSH1 0x80 PUSH1 0x40 MSTORE CALLVALUE DUP1 ISZERO PUSH2 0xF JUMPI PUSH0 DUP1 REVERT JUMPDEST POP PUSH1 0x4 CALLDATASIZE LT PUSH2 0xA7 JUMPI PUSH0 CALLDATALOAD PUSH1 0xE0 SHR DUP1 PUSH4 0xAB7B1C89 GT PUSH2 0x6F JUMPI DUP1 PUSH4 0xAB7B1C89 EQ PUSH2 0x143 JUMPI DUP1 PUSH4 0xC377FDAB EQ PUSH2 0x15F JUMPI DUP1 PUSH4 0xD13D5E56 EQ PUSH2 0x17B JUMPI DUP1 PUSH4 0xD988EF20 EQ PUSH2 0x1AB JUMPI DUP1 PUSH4 0xF2FDE38B EQ PUSH2 0x1DB JUMPI DUP1 PUSH4 0xF53C61E0 EQ PUSH2 0x1F7 JUMPI PUSH2 0xA7 JUMP JUMPDEST DUP1 PUSH4 0x6B091F9 EQ PUSH2 0xAB JUMPI DUP1 PUSH4 0xD0B2CA6 EQ PUSH2 0xC7 JUMPI DUP1 PUSH4 0x715018A6 EQ PUSH2 0xE5 JUMPI DUP1 PUSH4 0x8DA5CB5B EQ PUSH2 0xEF JUMPI DUP1 PUSH4 0x98C61C37 EQ PUSH2 0x10D JUMPI JUMPDEST PUSH0 DUP1 REVERT JUMPDEST PUSH2 0xC5 PUSH1 0x4 DUP1 CALLDATASIZE SUB DUP2 ADD SWAP1 PUSH2 0xC0 SWAP2 SWAP1 PUSH2 0x158F JUMP JUMPDEST PUSH2 0x227 JUMP JUMPDEST STOP JUMPDEST PUSH2 0xCF PUSH2 0x2AF JUMP JUMPDEST PUSH1 0x40 MLOAD PUSH2 0xDC SWAP2 SWAP1 PUSH2 0x15DC JUMP JUMPDEST PUSH1 0x40 MLOAD DUP1 SWAP2 SUB SWAP1 RETURN JUMPDEST PUSH2 0xED PUSH2 0x2B6 JUMP JUMPDEST STOP JUMPDEST PUSH2 0xF7 PUSH2 0x2C9 JUMP JUMPDEST PUSH1 0x40 MLOAD PUSH2 0x104 SWAP2 SWAP1 PUSH2 0x1604 JUMP JUMPDEST PUSH1 0x40 MLOAD DUP1 SWAP2 SUB SWAP1 RETURN JUMPDEST PUSH2 0x127 PUSH1 0x4 DUP1 CALLDATASIZE SUB DUP2 ADD SWAP1 PUSH2 0x122 SWAP2 SWAP1 PUSH2 0x158F JUMP JUMPDEST PUSH2 0x2F0 JUMP JUMPDEST PUSH1 0x40 MLOAD PUSH2 0x13A SWAP8 SWAP7 SWAP6 SWAP5 SWAP4 SWAP3 SWAP2 SWAP1 PUSH2 0x1637 JUMP JUMPDEST PUSH1 0x40 MLOAD DUP1 SWAP2 SUB SWAP1 RETURN JUMPDEST PUSH2 0x15D PUSH1 0x4 DUP1 CALLDATASIZE SUB DUP2 ADD SWAP1 PUSH2 0x158 SWAP2 SWAP1 PUSH2 0x16A4 JUMP JUMPDEST PUSH2 0x3B1 JUMP JUMPDEST STOP JUMPDEST PUSH2 0x179 PUSH1 0x4 DUP1 CALLDATASIZE SUB DUP2 ADD SWAP1 PUSH2 0x174 SWAP2 SWAP1 PUSH2 0x16CF JUMP JUMPDEST PUSH2 0x88D JUMP JUMPDEST STOP JUMPDEST PUSH2 0x195 PUSH1 0x4 DUP1 CALLDATASIZE SUB DUP2 ADD SWAP1 PUSH2 0x190 SWAP2 SWAP1 PUSH2 0x158F JUMP JUMPDEST PUSH2 0xE6B JUMP JUMPDEST PUSH1 0x40 MLOAD PUSH2 0x1A2 SWAP2 SWAP1 PUSH2 0x1811 JUMP JUMPDEST PUSH1 0x40 MLOAD DUP1 SWAP2 SUB SWAP1 RETURN JUMPDEST PUSH2 0x1C5 PUSH1 0x4 DUP1 CALLDATASIZE SUB DUP2 ADD SWAP1 PUSH2 0x1C0 SWAP2 SWAP1 PUSH2 0x182A JUMP JUMPDEST PUSH2 0x1099 JUMP JUMPDEST PUSH1 0x40 MLOAD PUSH2 0x1D2 SWAP2 SWAP1 PUSH2 0x1989 JUMP JUMPDEST PUSH1 0x40 MLOAD DUP1 SWAP2 SUB SWAP1 RETURN JUMPDEST PUSH2 0x1F5 PUSH1 0x4 DUP1 CALLDATASIZE SUB DUP2 ADD SWAP1 PUSH2 0x1F0 SWAP2 SWAP1 PUSH2 0x182A JUMP JUMPDEST PUSH2 0x1268 JUMP JUMPDEST STOP JUMPDEST PUSH2 0x211 PUSH1 0x4 DUP1 CALLDATASIZE SUB DUP2 ADD SWAP1 PUSH2 0x20C SWAP2 SWAP1 PUSH2 0x182A JUMP JUMPDEST PUSH2 0x12EC JUMP JUMPDEST PUSH1 0x40 MLOAD PUSH2 0x21E SWAP2 SWAP1 PUSH2 0x15DC JUMP JUMPDEST PUSH1 0x40 MLOAD DUP1 SWAP2 SUB SWAP1 RETURN JUMPDEST PUSH2 0x22F PUSH2 0x1335 JUMP JUMPDEST DUP2 PUSH20 0xFFFFFFFFFFFFFFFFFFFFFFFFFFFFFFFFFFFFFFFF AND PUSH4 0xA9059CBB CALLER DUP4 PUSH1 0x40 MLOAD DUP4 PUSH4 0xFFFFFFFF AND PUSH1 0xE0 SHL DUP2 MSTORE PUSH1 0x4 ADD PUSH2 0x26A SWAP3 SWAP2 SWAP1 PUSH2 0x19A9 JUMP JUMPDEST PUSH1 0x20 PUSH1 0x40 MLOAD DUP1 DUP4 SUB DUP2 PUSH0 DUP8 GAS CALL ISZERO DUP1 ISZERO PUSH2 0x286 JUMPI RETURNDATASIZE PUSH0 DUP1 RETURNDATACOPY RETURNDATASIZE PUSH0 REVERT JUMPDEST POP POP POP POP PUSH1 0x40 MLOAD RETURNDATASIZE PUSH1 0x1F NOT PUSH1 0x1F DUP3 ADD AND DUP3 ADD DUP1 PUSH1 0x40 MSTORE POP DUP2 ADD SWAP1 PUSH2 0x2AA SWAP2 SWAP1 PUSH2 0x19FA JUMP JUMPDEST POP POP POP JUMP JUMPDEST PUSH3 0x278D00 DUP2 JUMP JUMPDEST PUSH2 0x2BE PUSH2 0x1335 JUMP JUMPDEST PUSH2 0x2C7 PUSH0 PUSH2 0x13BC JUMP JUMPDEST JUMP JUMPDEST PUSH0 DUP1 PUSH0 SWAP1 SLOAD SWAP1 PUSH2 0x100 EXP SWAP1 DIV PUSH20 0xFFFFFFFFFFFFFFFFFFFFFFFFFFFFFFFFFFFFFFFF AND SWAP1 POP SWAP1 JUMP JUMPDEST PUSH1 0x1 PUSH1 0x20 MSTORE DUP2 PUSH0 MSTORE PUSH1 0x40 PUSH0 KECCAK256 DUP2 DUP2 SLOAD DUP2 LT PUSH2 0x309 JUMPI PUSH0 DUP1 REVERT JUMPDEST SWAP1 PUSH0 MSTORE PUSH1 0x20 PUSH0 KECCAK256 SWAP1 PUSH1 0x7 MUL ADD PUSH0 SWAP2 POP SWAP2 POP POP DUP1 PUSH0 ADD SLOAD SWAP1 DUP1 PUSH1 0x1 ADD SLOAD SWAP1 DUP1 PUSH1 0x2 ADD PUSH0 SWAP1 SLOAD SWAP1 PUSH2 0x100 EXP SWAP1 DIV PUSH20 0xFFFFFFFFFFFFFFFFFFFFFFFFFFFFFFFFFFFFFFFF AND SWAP1 DUP1 PUSH1 0x3 ADD PUSH0 SWAP1 SLOAD SWAP1 PUSH2 0x100 EXP SWAP1 DIV PUSH20 0xFFFFFFFFFFFFFFFFFFFFFFFFFFFFFFFFFFFFFFFF AND SWAP1 DUP1 PUSH1 0x4 ADD PUSH0 SWAP1 SLOAD SWAP1 PUSH2 0x100 EXP SWAP1 DIV PUSH20 0xFFFFFFFFFFFFFFFFFFFFFFFFFFFFFFFFFFFFFFFF AND SWAP1 DUP1 PUSH1 0x5 ADD SLOAD SWAP1 DUP1 PUSH1 0x6 ADD PUSH0 SWAP1 SLOAD SWAP1 PUSH2 0x100 EXP SWAP1 DIV PUSH1 0xFF AND SWAP1 POP DUP8 JUMP JUMPDEST PUSH1 0x1 PUSH0 CALLER PUSH20 0xFFFFFFFFFFFFFFFFFFFFFFFFFFFFFFFFFFFFFFFF AND PUSH20 0xFFFFFFFFFFFFFFFFFFFFFFFFFFFFFFFFFFFFFFFF AND DUP2 MSTORE PUSH1 0x20 ADD SWAP1 DUP2 MSTORE PUSH1 0x20 ADD PUSH0 KECCAK256 DUP1 SLOAD SWAP1 POP DUP2 LT PUSH2 0x433 JUMPI PUSH1 0x40 MLOAD PUSH32 0x8C379A000000000000000000000000000000000000000000000000000000000 DUP2 MSTORE PUSH1 0x4 ADD PUSH2 0x42A SWAP1 PUSH2 0x1A7F JUMP JUMPDEST PUSH1 0x40 MLOAD DUP1 SWAP2 SUB SWAP1 REVERT JUMPDEST PUSH0 PUSH1 0x1 PUSH0 CALLER PUSH20 0xFFFFFFFFFFFFFFFFFFFFFFFFFFFFFFFFFFFFFFFF AND PUSH20 0xFFFFFFFFFFFFFFFFFFFFFFFFFFFFFFFFFFFFFFFF AND DUP2 MSTORE PUSH1 0x20 ADD SWAP1 DUP2 MSTORE PUSH1 0x20 ADD PUSH0 KECCAK256 DUP3 DUP2 SLOAD DUP2 LT PUSH2 0x483 JUMPI PUSH2 0x482 PUSH2 0x1A9D JUMP JUMPDEST JUMPDEST SWAP1 PUSH0 MSTORE PUSH1 0x20 PUSH0 KECCAK256 SWAP1 PUSH1 0x7 MUL ADD SWAP1 POP DUP1 PUSH1 0x6 ADD PUSH0 SWAP1 SLOAD SWAP1 PUSH2 0x100 EXP SWAP1 DIV PUSH1 0xFF AND ISZERO PUSH2 0x4E2 JUMPI PUSH1 0x40 MLOAD PUSH32 0x8C379A000000000000000000000000000000000000000000000000000000000 DUP2 MSTORE PUSH1 0x4 ADD PUSH2 0x4D9 SWAP1 PUSH2 0x1B14 JUMP JUMPDEST PUSH1 0x40 MLOAD DUP1 SWAP2 SUB SWAP1 REVERT JUMPDEST DUP1 PUSH1 0x5 ADD SLOAD TIMESTAMP GT ISZERO PUSH2 0x529 JUMPI PUSH1 0x40 MLOAD PUSH32 0x8C379A000000000000000000000000000000000000000000000000000000000 DUP2 MSTORE PUSH1 0x4 ADD PUSH2 0x520 SWAP1 PUSH2 0x1B7C JUMP JUMPDEST PUSH1 0x40 MLOAD DUP1 SWAP2 SUB SWAP1 REVERT JUMPDEST PUSH0 DUP2 PUSH1 0x3 ADD PUSH0 SWAP1 SLOAD SWAP1 PUSH2 0x100 EXP SWAP1 DIV PUSH20 0xFFFFFFFFFFFFFFFFFFFFFFFFFFFFFFFFFFFFFFFF AND SWAP1 POP PUSH0 DUP3 PUSH1 0x2 ADD PUSH0 SWAP1 SLOAD SWAP1 PUSH2 0x100 EXP SWAP1 DIV PUSH20 0xFFFFFFFFFFFFFFFFFFFFFFFFFFFFFFFFFFFFFFFF AND SWAP1 POP DUP3 PUSH1 0x1 ADD SLOAD DUP3 PUSH20 0xFFFFFFFFFFFFFFFFFFFFFFFFFFFFFFFFFFFFFFFF AND PUSH4 0x70A08231 CALLER PUSH1 0x40 MLOAD DUP3 PUSH4 0xFFFFFFFF AND PUSH1 0xE0 SHL DUP2 MSTORE PUSH1 0x4 ADD PUSH2 0x5B5 SWAP2 SWAP1 PUSH2 0x1604 JUMP JUMPDEST PUSH1 0x20 PUSH1 0x40 MLOAD DUP1 DUP4 SUB DUP2 DUP7 GAS STATICCALL ISZERO DUP1 ISZERO PUSH2 0x5D0 JUMPI RETURNDATASIZE PUSH0 DUP1 RETURNDATACOPY RETURNDATASIZE PUSH0 REVERT JUMPDEST POP POP POP POP PUSH1 0x40 MLOAD RETURNDATASIZE PUSH1 0x1F NOT PUSH1 0x1F DUP3 ADD AND DUP3 ADD DUP1 PUSH1 0x40 MSTORE POP DUP2 ADD SWAP1 PUSH2 0x5F4 SWAP2 SWAP1 PUSH2 0x1BAE JUMP JUMPDEST LT ISZERO PUSH2 0x635 JUMPI PUSH1 0x40 MLOAD PUSH32 0x8C379A000000000000000000000000000000000000000000000000000000000 DUP2 MSTORE PUSH1 0x4 ADD PUSH2 0x62C SWAP1 PUSH2 0x1C23 JUMP JUMPDEST PUSH1 0x40 MLOAD DUP1 SWAP2 SUB SWAP1 REVERT JUMPDEST DUP2 PUSH20 0xFFFFFFFFFFFFFFFFFFFFFFFFFFFFFFFFFFFFFFFF AND PUSH4 0x23B872DD CALLER DUP6 PUSH1 0x4 ADD PUSH0 SWAP1 SLOAD SWAP1 PUSH2 0x100 EXP SWAP1 DIV PUSH20 0xFFFFFFFFFFFFFFFFFFFFFFFFFFFFFFFFFFFFFFFF AND DUP7 PUSH1 0x1 ADD SLOAD PUSH1 0x40 MLOAD DUP5 PUSH4 0xFFFFFFFF AND PUSH1 0xE0 SHL DUP2 MSTORE PUSH1 0x4 ADD PUSH2 0x699 SWAP4 SWAP3 SWAP2 SWAP1 PUSH2 0x1C41 JUMP JUMPDEST PUSH1 0x20 PUSH1 0x40 MLOAD DUP1 DUP4 SUB DUP2 PUSH0 DUP8 GAS CALL ISZERO DUP1 ISZERO PUSH2 0x6B5 JUMPI RETURNDATASIZE PUSH0 DUP1 RETURNDATACOPY RETURNDATASIZE PUSH0 REVERT JUMPDEST POP POP POP POP PUSH1 0x40 MLOAD RETURNDATASIZE PUSH1 0x1F NOT PUSH1 0x1F DUP3 ADD AND DUP3 ADD DUP1 PUSH1 0x40 MSTORE POP DUP2 ADD SWAP1 PUSH2 0x6D9 SWAP2 SWAP1 PUSH2 0x19FA JUMP JUMPDEST POP DUP1 PUSH20 0xFFFFFFFFFFFFFFFFFFFFFFFFFFFFFFFFFFFFFFFF AND PUSH4 0xA9059CBB CALLER DUP6 PUSH0 ADD SLOAD PUSH1 0x40 MLOAD DUP4 PUSH4 0xFFFFFFFF AND PUSH1 0xE0 SHL DUP2 MSTORE PUSH1 0x4 ADD PUSH2 0x718 SWAP3 SWAP2 SWAP1 PUSH2 0x19A9 JUMP JUMPDEST PUSH1 0x20 PUSH1 0x40 MLOAD DUP1 DUP4 SUB DUP2 PUSH0 DUP8 GAS CALL ISZERO DUP1 ISZERO PUSH2 0x734 JUMPI RETURNDATASIZE PUSH0 DUP1 RETURNDATACOPY RETURNDATASIZE PUSH0 REVERT JUMPDEST POP POP POP POP PUSH1 0x40 MLOAD RETURNDATASIZE PUSH1 0x1F NOT PUSH1 0x1F DUP3 ADD AND DUP3 ADD DUP1 PUSH1 0x40 MSTORE POP DUP2 ADD SWAP1 PUSH2 0x758 SWAP2 SWAP1 PUSH2 0x19FA JUMP JUMPDEST POP PUSH1 0x1 DUP4 PUSH1 0x6 ADD PUSH0 PUSH2 0x100 EXP DUP2 SLOAD DUP2 PUSH1 0xFF MUL NOT AND SWAP1 DUP4 ISZERO ISZERO MUL OR SWAP1 SSTORE POP CALLER PUSH20 0xFFFFFFFFFFFFFFFFFFFFFFFFFFFFFFFFFFFFFFFF AND PUSH32 0x9608BAF6A01F4DF6ACF0F08534B9DB5A0B94D085BC53B58698E5502655FE57C5 DUP5 PUSH1 0x1 ADD SLOAD DUP6 PUSH1 0x3 ADD PUSH0 SWAP1 SLOAD SWAP1 PUSH2 0x100 EXP SWAP1 DIV PUSH20 0xFFFFFFFFFFFFFFFFFFFFFFFFFFFFFFFFFFFFFFFF AND DUP7 PUSH1 0x4 ADD PUSH0 SWAP1 SLOAD SWAP1 PUSH2 0x100 EXP SWAP1 DIV PUSH20 0xFFFFFFFFFFFFFFFFFFFFFFFFFFFFFFFFFFFFFFFF AND PUSH1 0x40 MLOAD PUSH2 0x809 SWAP4 SWAP3 SWAP2 SWAP1 PUSH2 0x1C76 JUMP JUMPDEST PUSH1 0x40 MLOAD DUP1 SWAP2 SUB SWAP1 LOG2 CALLER PUSH20 0xFFFFFFFFFFFFFFFFFFFFFFFFFFFFFFFFFFFFFFFF AND PUSH32 0x887EB7234A2C4FA94C5778832C90928B2CE458CFEE0053ED170BAA8CDE476FB5 DUP5 PUSH0 ADD SLOAD DUP6 PUSH1 0x2 ADD PUSH0 SWAP1 SLOAD SWAP1 PUSH2 0x100 EXP SWAP1 DIV PUSH20 0xFFFFFFFFFFFFFFFFFFFFFFFFFFFFFFFFFFFFFFFF AND PUSH1 0x40 MLOAD PUSH2 0x87F SWAP3 SWAP2 SWAP1 PUSH2 0x1CAB JUMP JUMPDEST PUSH1 0x40 MLOAD DUP1 SWAP2 SUB SWAP1 LOG2 POP POP POP POP JUMP JUMPDEST PUSH0 DUP7 GT PUSH2 0x8CF JUMPI PUSH1 0x40 MLOAD PUSH32 0x8C379A000000000000000000000000000000000000000000000000000000000 DUP2 MSTORE PUSH1 0x4 ADD PUSH2 0x8C6 SWAP1 PUSH2 0x1D42 JUMP JUMPDEST PUSH1 0x40 MLOAD DUP1 SWAP2 SUB SWAP1 REVERT JUMPDEST PUSH0 DUP5 GT PUSH2 0x911 JUMPI PUSH1 0x40 MLOAD PUSH32 0x8C379A000000000000000000000000000000000000000000000000000000000 DUP2 MSTORE PUSH1 0x4 ADD PUSH2 0x908 SWAP1 PUSH2 0x1DD0 JUMP JUMPDEST PUSH1 0x40 MLOAD DUP1 SWAP2 SUB SWAP1 REVERT JUMPDEST PUSH3 0x278D00 DUP2 GT ISZERO PUSH2 0x957 JUMPI PUSH1 0x40 MLOAD PUSH32 0x8C379A000000000000000000000000000000000000000000000000000000000 DUP2 MSTORE PUSH1 0x4 ADD PUSH2 0x94E SWAP1 PUSH2 0x1E5E JUMP JUMPDEST PUSH1 0x40 MLOAD DUP1 SWAP2 SUB SWAP1 REVERT JUMPDEST PUSH0 DUP6 SWAP1 POP PUSH0 DUP5 SWAP1 POP DUP8 DUP3 PUSH20 0xFFFFFFFFFFFFFFFFFFFFFFFFFFFFFFFFFFFFFFFF AND PUSH4 0x70A08231 CALLER PUSH1 0x40 MLOAD DUP3 PUSH4 0xFFFFFFFF AND PUSH1 0xE0 SHL DUP2 MSTORE PUSH1 0x4 ADD PUSH2 0x999 SWAP2 SWAP1 PUSH2 0x1604 JUMP JUMPDEST PUSH1 0x20 PUSH1 0x40 MLOAD DUP1 DUP4 SUB DUP2 DUP7 GAS STATICCALL ISZERO DUP1 ISZERO PUSH2 0x9B4 JUMPI RETURNDATASIZE PUSH0 DUP1 RETURNDATACOPY RETURNDATASIZE PUSH0 REVERT JUMPDEST POP POP POP POP PUSH1 0x40 MLOAD RETURNDATASIZE PUSH1 0x1F NOT PUSH1 0x1F DUP3 ADD AND DUP3 ADD DUP1 PUSH1 0x40 MSTORE POP DUP2 ADD SWAP1 PUSH2 0x9D8 SWAP2 SWAP1 PUSH2 0x1BAE JUMP JUMPDEST LT ISZERO PUSH2 0xA19 JUMPI PUSH1 0x40 MLOAD PUSH32 0x8C379A000000000000000000000000000000000000000000000000000000000 DUP2 MSTORE PUSH1 0x4 ADD PUSH2 0xA10 SWAP1 PUSH2 0x1EC6 JUMP JUMPDEST PUSH1 0x40 MLOAD DUP1 SWAP2 SUB SWAP1 REVERT JUMPDEST DUP6 DUP2 PUSH20 0xFFFFFFFFFFFFFFFFFFFFFFFFFFFFFFFFFFFFFFFF AND PUSH4 0x70A08231 ADDRESS PUSH1 0x40 MLOAD DUP3 PUSH4 0xFFFFFFFF AND PUSH1 0xE0 SHL DUP2 MSTORE PUSH1 0x4 ADD PUSH2 0xA53 SWAP2 SWAP1 PUSH2 0x1604 JUMP JUMPDEST PUSH1 0x20 PUSH1 0x40 MLOAD DUP1 DUP4 SUB DUP2 DUP7 GAS STATICCALL ISZERO DUP1 ISZERO PUSH2 0xA6E JUMPI RETURNDATASIZE PUSH0 DUP1 RETURNDATACOPY RETURNDATASIZE PUSH0 REVERT JUMPDEST POP POP POP POP PUSH1 0x40 MLOAD RETURNDATASIZE PUSH1 0x1F NOT PUSH1 0x1F DUP3 ADD AND DUP3 ADD DUP1 PUSH1 0x40 MSTORE POP DUP2 ADD SWAP1 PUSH2 0xA92 SWAP2 SWAP1 PUSH2 0x1BAE JUMP JUMPDEST LT ISZERO PUSH2 0xAD3 JUMPI PUSH1 0x40 MLOAD PUSH32 0x8C379A000000000000000000000000000000000000000000000000000000000 DUP2 MSTORE PUSH1 0x4 ADD PUSH2 0xACA SWAP1 PUSH2 0x1F54 JUMP JUMPDEST PUSH1 0x40 MLOAD DUP1 SWAP2 SUB SWAP1 REVERT JUMPDEST DUP2 PUSH20 0xFFFFFFFFFFFFFFFFFFFFFFFFFFFFFFFFFFFFFFFF AND PUSH4 0x23B872DD CALLER ADDRESS DUP12 PUSH1 0x40 MLOAD DUP5 PUSH4 0xFFFFFFFF AND PUSH1 0xE0 SHL DUP2 MSTORE PUSH1 0x4 ADD PUSH2 0xB10 SWAP4 SWAP3 SWAP2 SWAP1 PUSH2 0x1C41 JUMP JUMPDEST PUSH1 0x20 PUSH1 0x40 MLOAD DUP1 DUP4 SUB DUP2 PUSH0 DUP8 GAS CALL ISZERO DUP1 ISZERO PUSH2 0xB2C JUMPI RETURNDATASIZE PUSH0 DUP1 RETURNDATACOPY RETURNDATASIZE PUSH0 REVERT JUMPDEST POP POP POP POP PUSH1 0x40 MLOAD RETURNDATASIZE PUSH1 0x1F NOT PUSH1 0x1F DUP3 ADD AND DUP3 ADD DUP1 PUSH1 0x40 MSTORE POP DUP2 ADD SWAP1 PUSH2 0xB50 SWAP2 SWAP1 PUSH2 0x19FA JUMP JUMPDEST POP DUP1 PUSH20 0xFFFFFFFFFFFFFFFFFFFFFFFFFFFFFFFFFFFFFFFF AND PUSH4 0xA9059CBB CALLER DUP9 PUSH1 0x40 MLOAD DUP4 PUSH4 0xFFFFFFFF AND PUSH1 0xE0 SHL DUP2 MSTORE PUSH1 0x4 ADD PUSH2 0xB8C SWAP3 SWAP2 SWAP1 PUSH2 0x19A9 JUMP JUMPDEST PUSH1 0x20 PUSH1 0x40 MLOAD DUP1 DUP4 SUB DUP2 PUSH0 DUP8 GAS CALL ISZERO DUP1 ISZERO PUSH2 0xBA8 JUMPI RETURNDATASIZE PUSH0 DUP1 RETURNDATACOPY RETURNDATASIZE PUSH0 REVERT JUMPDEST POP POP POP POP PUSH1 0x40 MLOAD RETURNDATASIZE PUSH1 0x1F NOT PUSH1 0x1F DUP3 ADD AND DUP3 ADD DUP1 PUSH1 0x40 MSTORE POP DUP2 ADD SWAP1 PUSH2 0xBCC SWAP2 SWAP1 PUSH2 0x19FA JUMP JUMPDEST POP PUSH1 0x1 PUSH0 CALLER PUSH20 0xFFFFFFFFFFFFFFFFFFFFFFFFFFFFFFFFFFFFFFFF AND PUSH20 0xFFFFFFFFFFFFFFFFFFFFFFFFFFFFFFFFFFFFFFFF AND DUP2 MSTORE PUSH1 0x20 ADD SWAP1 DUP2 MSTORE PUSH1 0x20 ADD PUSH0 KECCAK256 PUSH1 0x40 MLOAD DUP1 PUSH1 0xE0 ADD PUSH1 0x40 MSTORE DUP1 DUP11 DUP2 MSTORE PUSH1 0x20 ADD DUP9 DUP2 MSTORE PUSH1 0x20 ADD DUP10 PUSH20 0xFFFFFFFFFFFFFFFFFFFFFFFFFFFFFFFFFFFFFFFF AND DUP2 MSTORE PUSH1 0x20 ADD DUP8 PUSH20 0xFFFFFFFFFFFFFFFFFFFFFFFFFFFFFFFFFFFFFFFF AND DUP2 MSTORE PUSH1 0x20 ADD DUP7 PUSH20 0xFFFFFFFFFFFFFFFFFFFFFFFFFFFFFFFFFFFFFFFF AND DUP2 MSTORE PUSH1 0x20 ADD DUP6 TIMESTAMP PUSH2 0xC81 SWAP2 SWAP1 PUSH2 0x1F9F JUMP JUMPDEST DUP2 MSTORE PUSH1 0x20 ADD PUSH0 ISZERO ISZERO DUP2 MSTORE POP SWAP1 DUP1 PUSH1 0x1 DUP2 SLOAD ADD DUP1 DUP3 SSTORE DUP1 SWAP2 POP POP PUSH1 0x1 SWAP1 SUB SWAP1 PUSH0 MSTORE PUSH1 0x20 PUSH0 KECCAK256 SWAP1 PUSH1 0x7 MUL ADD PUSH0 SWAP1 SWAP2 SWAP1 SWAP2 SWAP1 SWAP2 POP PUSH0 DUP3 ADD MLOAD DUP2 PUSH0 ADD SSTORE PUSH1 0x20 DUP3 ADD MLOAD DUP2 PUSH1 0x1 ADD SSTORE PUSH1 0x40 DUP3 ADD MLOAD DUP2 PUSH1 0x2 ADD PUSH0 PUSH2 0x100 EXP DUP2 SLOAD DUP2 PUSH20 0xFFFFFFFFFFFFFFFFFFFFFFFFFFFFFFFFFFFFFFFF MUL NOT AND SWAP1 DUP4 PUSH20 0xFFFFFFFFFFFFFFFFFFFFFFFFFFFFFFFFFFFFFFFF AND MUL OR SWAP1 SSTORE POP PUSH1 0x60 DUP3 ADD MLOAD DUP2 PUSH1 0x3 ADD PUSH0 PUSH2 0x100 EXP DUP2 SLOAD DUP2 PUSH20 0xFFFFFFFFFFFFFFFFFFFFFFFFFFFFFFFFFFFFFFFF MUL NOT AND SWAP1 DUP4 PUSH20 0xFFFFFFFFFFFFFFFFFFFFFFFFFFFFFFFFFFFFFFFF AND MUL OR SWAP1 SSTORE POP PUSH1 0x80 DUP3 ADD MLOAD DUP2 PUSH1 0x4 ADD PUSH0 PUSH2 0x100 EXP DUP2 SLOAD DUP2 PUSH20 0xFFFFFFFFFFFFFFFFFFFFFFFFFFFFFFFFFFFFFFFF MUL NOT AND SWAP1 DUP4 PUSH20 0xFFFFFFFFFFFFFFFFFFFFFFFFFFFFFFFFFFFFFFFF AND MUL OR SWAP1 SSTORE POP PUSH1 0xA0 DUP3 ADD MLOAD DUP2 PUSH1 0x5 ADD SSTORE PUSH1 0xC0 DUP3 ADD MLOAD DUP2 PUSH1 0x6 ADD PUSH0 PUSH2 0x100 EXP DUP2 SLOAD DUP2 PUSH1 0xFF MUL NOT AND SWAP1 DUP4 ISZERO ISZERO MUL OR SWAP1 SSTORE POP POP POP CALLER PUSH20 0xFFFFFFFFFFFFFFFFFFFFFFFFFFFFFFFFFFFFFFFF AND PUSH32 0x56B60085244FE1AFA467F92231DEBADC8BCB6127E9DBF35DBB58CA8406A423FE DUP10 DUP10 PUSH1 0x40 MLOAD PUSH2 0xE09 SWAP3 SWAP2 SWAP1 PUSH2 0x1CAB JUMP JUMPDEST PUSH1 0x40 MLOAD DUP1 SWAP2 SUB SWAP1 LOG2 CALLER PUSH20 0xFFFFFFFFFFFFFFFFFFFFFFFFFFFFFFFFFFFFFFFF AND PUSH32 0xE5024716F30BE6E51E2A7CC6145E6659CD5BDB7A0C451E22B7E9D39C9B5F03AC DUP8 DUP8 PUSH1 0x40 MLOAD PUSH2 0xE59 SWAP3 SWAP2 SWAP1 PUSH2 0x1CAB JUMP JUMPDEST PUSH1 0x40 MLOAD DUP1 SWAP2 SUB SWAP1 LOG2 POP POP POP POP POP POP POP POP JUMP JUMPDEST PUSH2 0xE73 PUSH2 0x1484 JUMP JUMPDEST PUSH1 0x1 PUSH0 DUP5 PUSH20 0xFFFFFFFFFFFFFFFFFFFFFFFFFFFFFFFFFFFFFFFF AND PUSH20 0xFFFFFFFFFFFFFFFFFFFFFFFFFFFFFFFFFFFFFFFF AND DUP2 MSTORE PUSH1 0x20 ADD SWAP1 DUP2 MSTORE PUSH1 0x20 ADD PUSH0 KECCAK256 DUP1 SLOAD SWAP1 POP DUP3 LT PUSH2 0xEF5 JUMPI PUSH1 0x40 MLOAD PUSH32 0x8C379A000000000000000000000000000000000000000000000000000000000 DUP2 MSTORE PUSH1 0x4 ADD PUSH2 0xEEC SWAP1 PUSH2 0x1A7F JUMP JUMPDEST PUSH1 0x40 MLOAD DUP1 SWAP2 SUB SWAP1 REVERT JUMPDEST PUSH1 0x1 PUSH0 DUP5 PUSH20 0xFFFFFFFFFFFFFFFFFFFFFFFFFFFFFFFFFFFFFFFF AND PUSH20 0xFFFFFFFFFFFFFFFFFFFFFFFFFFFFFFFFFFFFFFFF AND DUP2 MSTORE PUSH1 0x20 ADD SWAP1 DUP2 MSTORE PUSH1 0x20 ADD PUSH0 KECCAK256 DUP3 DUP2 SLOAD DUP2 LT PUSH2 0xF44 JUMPI PUSH2 0xF43 PUSH2 0x1A9D JUMP JUMPDEST JUMPDEST SWAP1 PUSH0 MSTORE PUSH1 0x20 PUSH0 KECCAK256 SWAP1 PUSH1 0x7 MUL ADD PUSH1 0x40 MLOAD DUP1 PUSH1 0xE0 ADD PUSH1 0x40 MSTORE SWAP1 DUP2 PUSH0 DUP3 ADD SLOAD DUP2 MSTORE PUSH1 0x20 ADD PUSH1 0x1 DUP3 ADD SLOAD DUP2 MSTORE PUSH1 0x20 ADD PUSH1 0x2 DUP3 ADD PUSH0 SWAP1 SLOAD SWAP1 PUSH2 0x100 EXP SWAP1 DIV PUSH20 0xFFFFFFFFFFFFFFFFFFFFFFFFFFFFFFFFFFFFFFFF AND PUSH20 0xFFFFFFFFFFFFFFFFFFFFFFFFFFFFFFFFFFFFFFFF AND PUSH20 0xFFFFFFFFFFFFFFFFFFFFFFFFFFFFFFFFFFFFFFFF AND DUP2 MSTORE PUSH1 0x20 ADD PUSH1 0x3 DUP3 ADD PUSH0 SWAP1 SLOAD SWAP1 PUSH2 0x100 EXP SWAP1 DIV PUSH20 0xFFFFFFFFFFFFFFFFFFFFFFFFFFFFFFFFFFFFFFFF AND PUSH20 0xFFFFFFFFFFFFFFFFFFFFFFFFFFFFFFFFFFFFFFFF AND PUSH20 0xFFFFFFFFFFFFFFFFFFFFFFFFFFFFFFFFFFFFFFFF AND DUP2 MSTORE PUSH1 0x20 ADD PUSH1 0x4 DUP3 ADD PUSH0 SWAP1 SLOAD SWAP1 PUSH2 0x100 EXP SWAP1 DIV PUSH20 0xFFFFFFFFFFFFFFFFFFFFFFFFFFFFFFFFFFFFFFFF AND PUSH20 0xFFFFFFFFFFFFFFFFFFFFFFFFFFFFFFFFFFFFFFFF AND PUSH20 0xFFFFFFFFFFFFFFFFFFFFFFFFFFFFFFFFFFFFFFFF AND DUP2 MSTORE PUSH1 0x20 ADD PUSH1 0x5 DUP3 ADD SLOAD DUP2 MSTORE PUSH1 0x20 ADD PUSH1 0x6 DUP3 ADD PUSH0 SWAP1 SLOAD SWAP1 PUSH2 0x100 EXP SWAP1 DIV PUSH1 0xFF AND ISZERO ISZERO ISZERO ISZERO DUP2 MSTORE POP POP SWAP1 POP SWAP3 SWAP2 POP POP JUMP JUMPDEST PUSH1 0x60 PUSH1 0x1 PUSH0 DUP4 PUSH20 0xFFFFFFFFFFFFFFFFFFFFFFFFFFFFFFFFFFFFFFFF AND PUSH20 0xFFFFFFFFFFFFFFFFFFFFFFFFFFFFFFFFFFFFFFFF AND DUP2 MSTORE PUSH1 0x20 ADD SWAP1 DUP2 MSTORE PUSH1 0x20 ADD PUSH0 KECCAK256 DUP1 SLOAD DUP1 PUSH1 0x20 MUL PUSH1 0x20 ADD PUSH1 0x40 MLOAD SWAP1 DUP2 ADD PUSH1 0x40 MSTORE DUP1 SWAP3 SWAP2 SWAP1 DUP2 DUP2 MSTORE PUSH1 0x20 ADD PUSH0 SWAP1 JUMPDEST DUP3 DUP3 LT ISZERO PUSH2 0x125D JUMPI DUP4 DUP3 SWAP1 PUSH0 MSTORE PUSH1 0x20 PUSH0 KECCAK256 SWAP1 PUSH1 0x7 MUL ADD PUSH1 0x40 MLOAD DUP1 PUSH1 0xE0 ADD PUSH1 0x40 MSTORE SWAP1 DUP2 PUSH0 DUP3 ADD SLOAD DUP2 MSTORE PUSH1 0x20 ADD PUSH1 0x1 DUP3 ADD SLOAD DUP2 MSTORE PUSH1 0x20 ADD PUSH1 0x2 DUP3 ADD PUSH0 SWAP1 SLOAD SWAP1 PUSH2 0x100 EXP SWAP1 DIV PUSH20 0xFFFFFFFFFFFFFFFFFFFFFFFFFFFFFFFFFFFFFFFF AND PUSH20 0xFFFFFFFFFFFFFFFFFFFFFFFFFFFFFFFFFFFFFFFF AND PUSH20 0xFFFFFFFFFFFFFFFFFFFFFFFFFFFFFFFFFFFFFFFF AND DUP2 MSTORE PUSH1 0x20 ADD PUSH1 0x3 DUP3 ADD PUSH0 SWAP1 SLOAD SWAP1 PUSH2 0x100 EXP SWAP1 DIV PUSH20 0xFFFFFFFFFFFFFFFFFFFFFFFFFFFFFFFFFFFFFFFF AND PUSH20 0xFFFFFFFFFFFFFFFFFFFFFFFFFFFFFFFFFFFFFFFF AND PUSH20 0xFFFFFFFFFFFFFFFFFFFFFFFFFFFFFFFFFFFFFFFF AND DUP2 MSTORE PUSH1 0x20 ADD PUSH1 0x4 DUP3 ADD PUSH0 SWAP1 SLOAD SWAP1 PUSH2 0x100 EXP SWAP1 DIV PUSH20 0xFFFFFFFFFFFFFFFFFFFFFFFFFFFFFFFFFFFFFFFF AND PUSH20 0xFFFFFFFFFFFFFFFFFFFFFFFFFFFFFFFFFFFFFFFF AND PUSH20 0xFFFFFFFFFFFFFFFFFFFFFFFFFFFFFFFFFFFFFFFF AND DUP2 MSTORE PUSH1 0x20 ADD PUSH1 0x5 DUP3 ADD SLOAD DUP2 MSTORE PUSH1 0x20 ADD PUSH1 0x6 DUP3 ADD PUSH0 SWAP1 SLOAD SWAP1 PUSH2 0x100 EXP SWAP1 DIV PUSH1 0xFF AND ISZERO ISZERO ISZERO ISZERO DUP2 MSTORE POP POP DUP2 MSTORE PUSH1 0x20 ADD SWAP1 PUSH1 0x1 ADD SWAP1 PUSH2 0x10F7 JUMP JUMPDEST POP POP POP POP SWAP1 POP SWAP2 SWAP1 POP JUMP JUMPDEST PUSH2 0x1270 PUSH2 0x1335 JUMP JUMPDEST PUSH0 PUSH20 0xFFFFFFFFFFFFFFFFFFFFFFFFFFFFFFFFFFFFFFFF AND DUP2 PUSH20 0xFFFFFFFFFFFFFFFFFFFFFFFFFFFFFFFFFFFFFFFF AND SUB PUSH2 0x12E0 JUMPI PUSH0 PUSH1 0x40 MLOAD PUSH32 0x1E4FBDF700000000000000000000000000000000000000000000000000000000 DUP2 MSTORE PUSH1 0x4 ADD PUSH2 0x12D7 SWAP2 SWAP1 PUSH2 0x1604 JUMP JUMPDEST PUSH1 0x40 MLOAD DUP1 SWAP2 SUB SWAP1 REVERT JUMPDEST PUSH2 0x12E9 DUP2 PUSH2 0x13BC JUMP JUMPDEST POP JUMP JUMPDEST PUSH0 PUSH1 0x1 PUSH0 DUP4 PUSH20 0xFFFFFFFFFFFFFFFFFFFFFFFFFFFFFFFFFFFFFFFF AND PUSH20 0xFFFFFFFFFFFFFFFFFFFFFFFFFFFFFFFFFFFFFFFF AND DUP2 MSTORE PUSH1 0x20 ADD SWAP1 DUP2 MSTORE PUSH1 0x20 ADD PUSH0 KECCAK256 DUP1 SLOAD SWAP1 POP SWAP1 POP SWAP2 SWAP1 POP JUMP JUMPDEST PUSH2 0x133D PUSH2 0x147D JUMP JUMPDEST PUSH20 0xFFFFFFFFFFFFFFFFFFFFFFFFFFFFFFFFFFFFFFFF AND PUSH2 0x135B PUSH2 0x2C9 JUMP JUMPDEST PUSH20 0xFFFFFFFFFFFFFFFFFFFFFFFFFFFFFFFFFFFFFFFF AND EQ PUSH2 0x13BA JUMPI PUSH2 0x137E PUSH2 0x147D JUMP JUMPDEST PUSH1 0x40 MLOAD PUSH32 0x118CDAA700000000000000000000000000000000000000000000000000000000 DUP2 MSTORE PUSH1 0x4 ADD PUSH2 0x13B1 SWAP2 SWAP1 PUSH2 0x1604 JUMP JUMPDEST PUSH1 0x40 MLOAD DUP1 SWAP2 SUB SWAP1 REVERT JUMPDEST JUMP JUMPDEST PUSH0 DUP1 PUSH0 SWAP1 SLOAD SWAP1 PUSH2 0x100 EXP SWAP1 DIV PUSH20 0xFFFFFFFFFFFFFFFFFFFFFFFFFFFFFFFFFFFFFFFF AND SWAP1 POP DUP2 PUSH0 DUP1 PUSH2 0x100 EXP DUP2 SLOAD DUP2 PUSH20 0xFFFFFFFFFFFFFFFFFFFFFFFFFFFFFFFFFFFFFFFF MUL NOT AND SWAP1 DUP4 PUSH20 0xFFFFFFFFFFFFFFFFFFFFFFFFFFFFFFFFFFFFFFFF AND MUL OR SWAP1 SSTORE POP DUP2 PUSH20 0xFFFFFFFFFFFFFFFFFFFFFFFFFFFFFFFFFFFFFFFF AND DUP2 PUSH20 0xFFFFFFFFFFFFFFFFFFFFFFFFFFFFFFFFFFFFFFFF AND PUSH32 0x8BE0079C531659141344CD1FD0A4F28419497F9722A3DAAFE3B4186F6B6457E0 PUSH1 0x40 MLOAD PUSH1 0x40 MLOAD DUP1 SWAP2 SUB SWAP1 LOG3 POP POP JUMP JUMPDEST PUSH0 CALLER SWAP1 POP SWAP1 JUMP JUMPDEST PUSH1 0x40 MLOAD DUP1 PUSH1 0xE0 ADD PUSH1 0x40 MSTORE DUP1 PUSH0 DUP2 MSTORE PUSH1 0x20 ADD PUSH0 DUP2 MSTORE PUSH1 0x20 ADD PUSH0 PUSH20 0xFFFFFFFFFFFFFFFFFFFFFFFFFFFFFFFFFFFFFFFF AND DUP2 MSTORE PUSH1 0x20 ADD PUSH0 PUSH20 0xFFFFFFFFFFFFFFFFFFFFFFFFFFFFFFFFFFFFFFFF AND DUP2 MSTORE PUSH1 0x20 ADD PUSH0 PUSH20 0xFFFFFFFFFFFFFFFFFFFFFFFFFFFFFFFFFFFFFFFF AND DUP2 MSTORE PUSH1 0x20 ADD PUSH0 DUP2 MSTORE PUSH1 0x20 ADD PUSH0 ISZERO ISZERO DUP2 MSTORE POP SWAP1 JUMP JUMPDEST PUSH0 DUP1 REVERT JUMPDEST PUSH0 PUSH20 0xFFFFFFFFFFFFFFFFFFFFFFFFFFFFFFFFFFFFFFFF DUP3 AND SWAP1 POP SWAP2 SWAP1 POP JUMP JUMPDEST PUSH0 PUSH2 0x152B DUP3 PUSH2 0x1502 JUMP JUMPDEST SWAP1 POP SWAP2 SWAP1 POP JUMP JUMPDEST PUSH2 0x153B DUP2 PUSH2 0x1521 JUMP JUMPDEST DUP2 EQ PUSH2 0x1545 JUMPI PUSH0 DUP1 REVERT JUMPDEST POP JUMP JUMPDEST PUSH0 DUP2 CALLDATALOAD SWAP1 POP PUSH2 0x1556 DUP2 PUSH2 0x1532 JUMP JUMPDEST SWAP3 SWAP2 POP POP JUMP JUMPDEST PUSH0 DUP2 SWAP1 POP SWAP2 SWAP1 POP JUMP JUMPDEST PUSH2 0x156E DUP2 PUSH2 0x155C JUMP JUMPDEST DUP2 EQ PUSH2 0x1578 JUMPI PUSH0 DUP1 REVERT JUMPDEST POP JUMP JUMPDEST PUSH0 DUP2 CALLDATALOAD SWAP1 POP PUSH2 0x1589 DUP2 PUSH2 0x1565 JUMP JUMPDEST SWAP3 SWAP2 POP POP JUMP JUMPDEST PUSH0 DUP1 PUSH1 0x40 DUP4 DUP6 SUB SLT ISZERO PUSH2 0x15A5 JUMPI PUSH2 0x15A4 PUSH2 0x14FE JUMP JUMPDEST JUMPDEST PUSH0 PUSH2 0x15B2 DUP6 DUP3 DUP7 ADD PUSH2 0x1548 JUMP JUMPDEST SWAP3 POP POP PUSH1 0x20 PUSH2 0x15C3 DUP6 DUP3 DUP7 ADD PUSH2 0x157B JUMP JUMPDEST SWAP2 POP POP SWAP3 POP SWAP3 SWAP1 POP JUMP JUMPDEST PUSH2 0x15D6 DUP2 PUSH2 0x155C JUMP JUMPDEST DUP3 MSTORE POP POP JUMP JUMPDEST PUSH0 PUSH1 0x20 DUP3 ADD SWAP1 POP PUSH2 0x15EF PUSH0 DUP4 ADD DUP5 PUSH2 0x15CD JUMP JUMPDEST SWAP3 SWAP2 POP POP JUMP JUMPDEST PUSH2 0x15FE DUP2 PUSH2 0x1521 JUMP JUMPDEST DUP3 MSTORE POP POP JUMP JUMPDEST PUSH0 PUSH1 0x20 DUP3 ADD SWAP1 POP PUSH2 0x1617 PUSH0 DUP4 ADD DUP5 PUSH2 0x15F5 JUMP JUMPDEST SWAP3 SWAP2 POP POP JUMP JUMPDEST PUSH0 DUP2 ISZERO ISZERO SWAP1 POP SWAP2 SWAP1 POP JUMP JUMPDEST PUSH2 0x1631 DUP2 PUSH2 0x161D JUMP JUMPDEST DUP3 MSTORE POP POP JUMP JUMPDEST PUSH0 PUSH1 0xE0 DUP3 ADD SWAP1 POP PUSH2 0x164A PUSH0 DUP4 ADD DUP11 PUSH2 0x15CD JUMP JUMPDEST PUSH2 0x1657 PUSH1 0x20 DUP4 ADD DUP10 PUSH2 0x15CD JUMP JUMPDEST PUSH2 0x1664 PUSH1 0x40 DUP4 ADD DUP9 PUSH2 0x15F5 JUMP JUMPDEST PUSH2 0x1671 PUSH1 0x60 DUP4 ADD DUP8 PUSH2 0x15F5 JUMP JUMPDEST PUSH2 0x167E PUSH1 0x80 DUP4 ADD DUP7 PUSH2 0x15F5 JUMP JUMPDEST PUSH2 0x168B PUSH1 0xA0 DUP4 ADD DUP6 PUSH2 0x15CD JUMP JUMPDEST PUSH2 0x1698 PUSH1 0xC0 DUP4 ADD DUP5 PUSH2 0x1628 JUMP JUMPDEST SWAP9 SWAP8 POP POP POP POP POP POP POP POP JUMP JUMPDEST PUSH0 PUSH1 0x20 DUP3 DUP5 SUB SLT ISZERO PUSH2 0x16B9 JUMPI PUSH2 0x16B8 PUSH2 0x14FE JUMP JUMPDEST JUMPDEST PUSH0 PUSH2 0x16C6 DUP5 DUP3 DUP6 ADD PUSH2 0x157B JUMP JUMPDEST SWAP2 POP POP SWAP3 SWAP2 POP POP JUMP JUMPDEST PUSH0 DUP1 PUSH0 DUP1 PUSH0 DUP1 PUSH1 0xC0 DUP8 DUP10 SUB SLT ISZERO PUSH2 0x16E9 JUMPI PUSH2 0x16E8 PUSH2 0x14FE JUMP JUMPDEST JUMPDEST PUSH0 PUSH2 0x16F6 DUP10 DUP3 DUP11 ADD PUSH2 0x157B JUMP JUMPDEST SWAP7 POP POP PUSH1 0x20 PUSH2 0x1707 DUP10 DUP3 DUP11 ADD PUSH2 0x1548 JUMP JUMPDEST SWAP6 POP POP PUSH1 0x40 PUSH2 0x1718 DUP10 DUP3 DUP11 ADD PUSH2 0x157B JUMP JUMPDEST SWAP5 POP POP PUSH1 0x60 PUSH2 0x1729 DUP10 DUP3 DUP11 ADD PUSH2 0x1548 JUMP JUMPDEST SWAP4 POP POP PUSH1 0x80 PUSH2 0x173A DUP10 DUP3 DUP11 ADD PUSH2 0x1548 JUMP JUMPDEST SWAP3 POP POP PUSH1 0xA0 PUSH2 0x174B DUP10 DUP3 DUP11 ADD PUSH2 0x157B JUMP JUMPDEST SWAP2 POP POP SWAP3 SWAP6 POP SWAP3 SWAP6 POP SWAP3 SWAP6 JUMP JUMPDEST PUSH2 0x1761 DUP2 PUSH2 0x155C JUMP JUMPDEST DUP3 MSTORE POP POP JUMP JUMPDEST PUSH2 0x1770 DUP2 PUSH2 0x1521 JUMP JUMPDEST DUP3 MSTORE POP POP JUMP JUMPDEST PUSH2 0x177F DUP2 PUSH2 0x161D JUMP JUMPDEST DUP3 MSTORE POP POP JUMP JUMPDEST PUSH1 0xE0 DUP3 ADD PUSH0 DUP3 ADD MLOAD PUSH2 0x1799 PUSH0 DUP6 ADD DUP3 PUSH2 0x1758 JUMP JUMPDEST POP PUSH1 0x20 DUP3 ADD MLOAD PUSH2 0x17AC PUSH1 0x20 DUP6 ADD DUP3 PUSH2 0x1758 JUMP JUMPDEST POP PUSH1 0x40 DUP3 ADD MLOAD PUSH2 0x17BF PUSH1 0x40 DUP6 ADD DUP3 PUSH2 0x1767 JUMP JUMPDEST POP PUSH1 0x60 DUP3 ADD MLOAD PUSH2 0x17D2 PUSH1 0x60 DUP6 ADD DUP3 PUSH2 0x1767 JUMP JUMPDEST POP PUSH1 0x80 DUP3 ADD MLOAD PUSH2 0x17E5 PUSH1 0x80 DUP6 ADD DUP3 PUSH2 0x1767 JUMP JUMPDEST POP PUSH1 0xA0 DUP3 ADD MLOAD PUSH2 0x17F8 PUSH1 0xA0 DUP6 ADD DUP3 PUSH2 0x1758 JUMP JUMPDEST POP PUSH1 0xC0 DUP3 ADD MLOAD PUSH2 0x180B PUSH1 0xC0 DUP6 ADD DUP3 PUSH2 0x1776 JUMP JUMPDEST POP POP POP POP JUMP JUMPDEST PUSH0 PUSH1 0xE0 DUP3 ADD SWAP1 POP PUSH2 0x1824 PUSH0 DUP4 ADD DUP5 PUSH2 0x1785 JUMP JUMPDEST SWAP3 SWAP2 POP POP JUMP JUMPDEST PUSH0 PUSH1 0x20 DUP3 DUP5 SUB SLT ISZERO PUSH2 0x183F JUMPI PUSH2 0x183E PUSH2 0x14FE JUMP JUMPDEST JUMPDEST PUSH0 PUSH2 0x184C DUP5 DUP3 DUP6 ADD PUSH2 0x1548 JUMP JUMPDEST SWAP2 POP POP SWAP3 SWAP2 POP POP JUMP JUMPDEST PUSH0 DUP2 MLOAD SWAP1 POP SWAP2 SWAP1 POP JUMP JUMPDEST PUSH0 DUP3 DUP3 MSTORE PUSH1 0x20 DUP3 ADD SWAP1 POP SWAP3 SWAP2 POP POP JUMP JUMPDEST PUSH0 DUP2 SWAP1 POP PUSH1 0x20 DUP3 ADD SWAP1 POP SWAP2 SWAP1 POP JUMP JUMPDEST PUSH1 0xE0 DUP3 ADD PUSH0 DUP3 ADD MLOAD PUSH2 0x1892 PUSH0 DUP6 ADD DUP3 PUSH2 0x1758 JUMP JUMPDEST POP PUSH1 0x20 DUP3 ADD MLOAD PUSH2 0x18A5 PUSH1 0x20 DUP6 ADD DUP3 PUSH2 0x1758 JUMP JUMPDEST POP PUSH1 0x40 DUP3 ADD MLOAD PUSH2 0x18B8 PUSH1 0x40 DUP6 ADD DUP3 PUSH2 0x1767 JUMP JUMPDEST POP PUSH1 0x60 DUP3 ADD MLOAD PUSH2 0x18CB PUSH1 0x60 DUP6 ADD DUP3 PUSH2 0x1767 JUMP JUMPDEST POP PUSH1 0x80 DUP3 ADD MLOAD PUSH2 0x18DE PUSH1 0x80 DUP6 ADD DUP3 PUSH2 0x1767 JUMP JUMPDEST POP PUSH1 0xA0 DUP3 ADD MLOAD PUSH2 0x18F1 PUSH1 0xA0 DUP6 ADD DUP3 PUSH2 0x1758 JUMP JUMPDEST POP PUSH1 0xC0 DUP3 ADD MLOAD PUSH2 0x1904 PUSH1 0xC0 DUP6 ADD DUP3 PUSH2 0x1776 JUMP JUMPDEST POP POP POP POP JUMP JUMPDEST PUSH0 PUSH2 0x1915 DUP4 DUP4 PUSH2 0x187E JUMP JUMPDEST PUSH1 0xE0 DUP4 ADD SWAP1 POP SWAP3 SWAP2 POP POP JUMP JUMPDEST PUSH0 PUSH1 0x20 DUP3 ADD SWAP1 POP SWAP2 SWAP1 POP JUMP JUMPDEST PUSH0 PUSH2 0x1937 DUP3 PUSH2 0x1855 JUMP JUMPDEST PUSH2 0x1941 DUP2 DUP6 PUSH2 0x185F JUMP JUMPDEST SWAP4 POP PUSH2 0x194C DUP4 PUSH2 0x186F JUMP JUMPDEST DUP1 PUSH0 JUMPDEST DUP4 DUP2 LT ISZERO PUSH2 0x197C JUMPI DUP2 MLOAD PUSH2 0x1963 DUP9 DUP3 PUSH2 0x190A JUMP JUMPDEST SWAP8 POP PUSH2 0x196E DUP4 PUSH2 0x1921 JUMP JUMPDEST SWAP3 POP POP PUSH1 0x1 DUP2 ADD SWAP1 POP PUSH2 0x194F JUMP JUMPDEST POP DUP6 SWAP4 POP POP POP POP SWAP3 SWAP2 POP POP JUMP JUMPDEST PUSH0 PUSH1 0x20 DUP3 ADD SWAP1 POP DUP2 DUP2 SUB PUSH0 DUP4 ADD MSTORE PUSH2 0x19A1 DUP2 DUP5 PUSH2 0x192D JUMP JUMPDEST SWAP1 POP SWAP3 SWAP2 POP POP JUMP JUMPDEST PUSH0 PUSH1 0x40 DUP3 ADD SWAP1 POP PUSH2 0x19BC PUSH0 DUP4 ADD DUP6 PUSH2 0x15F5 JUMP JUMPDEST PUSH2 0x19C9 PUSH1 0x20 DUP4 ADD DUP5 PUSH2 0x15CD JUMP JUMPDEST SWAP4 SWAP3 POP POP POP JUMP JUMPDEST PUSH2 0x19D9 DUP2 PUSH2 0x161D JUMP JUMPDEST DUP2 EQ PUSH2 0x19E3 JUMPI PUSH0 DUP1 REVERT JUMPDEST POP JUMP JUMPDEST PUSH0 DUP2 MLOAD SWAP1 POP PUSH2 0x19F4 DUP2 PUSH2 0x19D0 JUMP JUMPDEST SWAP3 SWAP2 POP POP JUMP JUMPDEST PUSH0 PUSH1 0x20 DUP3 DUP5 SUB SLT ISZERO PUSH2 0x1A0F JUMPI PUSH2 0x1A0E PUSH2 0x14FE JUMP JUMPDEST JUMPDEST PUSH0 PUSH2 0x1A1C DUP5 DUP3 DUP6 ADD PUSH2 0x19E6 JUMP JUMPDEST SWAP2 POP POP SWAP3 SWAP2 POP POP JUMP JUMPDEST PUSH0 DUP3 DUP3 MSTORE PUSH1 0x20 DUP3 ADD SWAP1 POP SWAP3 SWAP2 POP POP JUMP JUMPDEST PUSH32 0x496E76616C6964206C6F616E20696E6465780000000000000000000000000000 PUSH0 DUP3 ADD MSTORE POP JUMP JUMPDEST PUSH0 PUSH2 0x1A69 PUSH1 0x12 DUP4 PUSH2 0x1A25 JUMP JUMPDEST SWAP2 POP PUSH2 0x1A74 DUP3 PUSH2 0x1A35 JUMP JUMPDEST PUSH1 0x20 DUP3 ADD SWAP1 POP SWAP2 SWAP1 POP JUMP JUMPDEST PUSH0 PUSH1 0x20 DUP3 ADD SWAP1 POP DUP2 DUP2 SUB PUSH0 DUP4 ADD MSTORE PUSH2 0x1A96 DUP2 PUSH2 0x1A5D JUMP JUMPDEST SWAP1 POP SWAP2 SWAP1 POP JUMP JUMPDEST PUSH32 0x4E487B7100000000000000000000000000000000000000000000000000000000 PUSH0 MSTORE PUSH1 0x32 PUSH1 0x4 MSTORE PUSH1 0x24 PUSH0 REVERT JUMPDEST PUSH32 0x4C6F616E20616C72656164792072657061696400000000000000000000000000 PUSH0 DUP3 ADD MSTORE POP JUMP JUMPDEST PUSH0 PUSH2 0x1AFE PUSH1 0x13 DUP4 PUSH2 0x1A25 JUMP JUMPDEST SWAP2 POP PUSH2 0x1B09 DUP3 PUSH2 0x1ACA JUMP JUMPDEST PUSH1 0x20 DUP3 ADD SWAP1 POP SWAP2 SWAP1 POP JUMP JUMPDEST PUSH0 PUSH1 0x20 DUP3 ADD SWAP1 POP DUP2 DUP2 SUB PUSH0 DUP4 ADD MSTORE PUSH2 0x1B2B DUP2 PUSH2 0x1AF2 JUMP JUMPDEST SWAP1 POP SWAP2 SWAP1 POP JUMP JUMPDEST PUSH32 0x4C6F616E2072657061796D656E7420646561646C696E65207061737365640000 PUSH0 DUP3 ADD MSTORE POP JUMP JUMPDEST PUSH0 PUSH2 0x1B66 PUSH1 0x1E DUP4 PUSH2 0x1A25 JUMP JUMPDEST SWAP2 POP PUSH2 0x1B71 DUP3 PUSH2 0x1B32 JUMP JUMPDEST PUSH1 0x20 DUP3 ADD SWAP1 POP SWAP2 SWAP1 POP JUMP JUMPDEST PUSH0 PUSH1 0x20 DUP3 ADD SWAP1 POP DUP2 DUP2 SUB PUSH0 DUP4 ADD MSTORE PUSH2 0x1B93 DUP2 PUSH2 0x1B5A JUMP JUMPDEST SWAP1 POP SWAP2 SWAP1 POP JUMP JUMPDEST PUSH0 DUP2 MLOAD SWAP1 POP PUSH2 0x1BA8 DUP2 PUSH2 0x1565 JUMP JUMPDEST SWAP3 SWAP2 POP POP JUMP JUMPDEST PUSH0 PUSH1 0x20 DUP3 DUP5 SUB SLT ISZERO PUSH2 0x1BC3 JUMPI PUSH2 0x1BC2 PUSH2 0x14FE JUMP JUMPDEST JUMPDEST PUSH0 PUSH2 0x1BD0 DUP5 DUP3 DUP6 ADD PUSH2 0x1B9A JUMP JUMPDEST SWAP2 POP POP SWAP3 SWAP2 POP POP JUMP JUMPDEST PUSH32 0x496E73756666696369656E74206C6F616E20746F6B656E2062616C616E636500 PUSH0 DUP3 ADD MSTORE POP JUMP JUMPDEST PUSH0 PUSH2 0x1C0D PUSH1 0x1F DUP4 PUSH2 0x1A25 JUMP JUMPDEST SWAP2 POP PUSH2 0x1C18 DUP3 PUSH2 0x1BD9 JUMP JUMPDEST PUSH1 0x20 DUP3 ADD SWAP1 POP SWAP2 SWAP1 POP JUMP JUMPDEST PUSH0 PUSH1 0x20 DUP3 ADD SWAP1 POP DUP2 DUP2 SUB PUSH0 DUP4 ADD MSTORE PUSH2 0x1C3A DUP2 PUSH2 0x1C01 JUMP JUMPDEST SWAP1 POP SWAP2 SWAP1 POP JUMP JUMPDEST PUSH0 PUSH1 0x60 DUP3 ADD SWAP1 POP PUSH2 0x1C54 PUSH0 DUP4 ADD DUP7 PUSH2 0x15F5 JUMP JUMPDEST PUSH2 0x1C61 PUSH1 0x20 DUP4 ADD DUP6 PUSH2 0x15F5 JUMP JUMPDEST PUSH2 0x1C6E PUSH1 0x40 DUP4 ADD DUP5 PUSH2 0x15CD JUMP JUMPDEST SWAP5 SWAP4 POP POP POP POP JUMP JUMPDEST PUSH0 PUSH1 0x60 DUP3 ADD SWAP1 POP PUSH2 0x1C89 PUSH0 DUP4 ADD DUP7 PUSH2 0x15CD JUMP JUMPDEST PUSH2 0x1C96 PUSH1 0x20 DUP4 ADD DUP6 PUSH2 0x15F5 JUMP JUMPDEST PUSH2 0x1CA3 PUSH1 0x40 DUP4 ADD DUP5 PUSH2 0x15F5 JUMP JUMPDEST SWAP5 SWAP4 POP POP POP POP JUMP JUMPDEST PUSH0 PUSH1 0x40 DUP3 ADD SWAP1 POP PUSH2 0x1CBE PUSH0 DUP4 ADD DUP6 PUSH2 0x15CD JUMP JUMPDEST PUSH2 0x1CCB PUSH1 0x20 DUP4 ADD DUP5 PUSH2 0x15F5 JUMP JUMPDEST SWAP4 SWAP3 POP POP POP JUMP JUMPDEST PUSH32 0x436F6C6C61746572616C20616D6F756E74206D75737420626520677265617465 PUSH0 DUP3 ADD MSTORE PUSH32 0x72207468616E2030000000000000000000000000000000000000000000000000 PUSH1 0x20 DUP3 ADD MSTORE POP JUMP JUMPDEST PUSH0 PUSH2 0x1D2C PUSH1 0x28 DUP4 PUSH2 0x1A25 JUMP JUMPDEST SWAP2 POP PUSH2 0x1D37 DUP3 PUSH2 0x1CD2 JUMP JUMPDEST PUSH1 0x40 DUP3 ADD SWAP1 POP SWAP2 SWAP1 POP JUMP JUMPDEST PUSH0 PUSH1 0x20 DUP3 ADD SWAP1 POP DUP2 DUP2 SUB PUSH0 DUP4 ADD MSTORE PUSH2 0x1D59 DUP2 PUSH2 0x1D20 JUMP JUMPDEST SWAP1 POP SWAP2 SWAP1 POP JUMP JUMPDEST PUSH32 0x4C6F616E20616D6F756E74206D7573742062652067726561746572207468616E PUSH0 DUP3 ADD MSTORE PUSH32 0x2030000000000000000000000000000000000000000000000000000000000000 PUSH1 0x20 DUP3 ADD MSTORE POP JUMP JUMPDEST PUSH0 PUSH2 0x1DBA PUSH1 0x22 DUP4 PUSH2 0x1A25 JUMP JUMPDEST SWAP2 POP PUSH2 0x1DC5 DUP3 PUSH2 0x1D60 JUMP JUMPDEST PUSH1 0x40 DUP3 ADD SWAP1 POP SWAP2 SWAP1 POP JUMP JUMPDEST PUSH0 PUSH1 0x20 DUP3 ADD SWAP1 POP DUP2 DUP2 SUB PUSH0 DUP4 ADD MSTORE PUSH2 0x1DE7 DUP2 PUSH2 0x1DAE JUMP JUMPDEST SWAP1 POP SWAP2 SWAP1 POP JUMP JUMPDEST PUSH32 0x4C6F616E206475726174696F6E2065786365656473206D6178696D756D206C69 PUSH0 DUP3 ADD MSTORE PUSH32 0x6D69740000000000000000000000000000000000000000000000000000000000 PUSH1 0x20 DUP3 ADD MSTORE POP JUMP JUMPDEST PUSH0 PUSH2 0x1E48 PUSH1 0x23 DUP4 PUSH2 0x1A25 JUMP JUMPDEST SWAP2 POP PUSH2 0x1E53 DUP3 PUSH2 0x1DEE JUMP JUMPDEST PUSH1 0x40 DUP3 ADD SWAP1 POP SWAP2 SWAP1 POP JUMP JUMPDEST PUSH0 PUSH1 0x20 DUP3 ADD SWAP1 POP DUP2 DUP2 SUB PUSH0 DUP4 ADD MSTORE PUSH2 0x1E75 DUP2 PUSH2 0x1E3C JUMP JUMPDEST SWAP1 POP SWAP2 SWAP1 POP JUMP JUMPDEST PUSH32 0x496E73756666696369656E7420636F6C6C61746572616C2062616C616E636500 PUSH0 DUP3 ADD MSTORE POP JUMP JUMPDEST PUSH0 PUSH2 0x1EB0 PUSH1 0x1F DUP4 PUSH2 0x1A25 JUMP JUMPDEST SWAP2 POP PUSH2 0x1EBB DUP3 PUSH2 0x1E7C JUMP JUMPDEST PUSH1 0x20 DUP3 ADD SWAP1 POP SWAP2 SWAP1 POP JUMP JUMPDEST PUSH0 PUSH1 0x20 DUP3 ADD SWAP1 POP DUP2 DUP2 SUB PUSH0 DUP4 ADD MSTORE PUSH2 0x1EDD DUP2 PUSH2 0x1EA4 JUMP JUMPDEST SWAP1 POP SWAP2 SWAP1 POP JUMP JUMPDEST PUSH32 0x496E73756666696369656E74206C6F616E20746F6B656E206C69717569646974 PUSH0 DUP3 ADD MSTORE PUSH32 0x7900000000000000000000000000000000000000000000000000000000000000 PUSH1 0x20 DUP3 ADD MSTORE POP JUMP JUMPDEST PUSH0 PUSH2 0x1F3E PUSH1 0x21 DUP4 PUSH2 0x1A25 JUMP JUMPDEST SWAP2 POP PUSH2 0x1F49 DUP3 PUSH2 0x1EE4 JUMP JUMPDEST PUSH1 0x40 DUP3 ADD SWAP1 POP SWAP2 SWAP1 POP JUMP JUMPDEST PUSH0 PUSH1 0x20 DUP3 ADD SWAP1 POP DUP2 DUP2 SUB PUSH0 DUP4 ADD MSTORE PUSH2 0x1F6B DUP2 PUSH2 0x1F32 JUMP JUMPDEST SWAP1 POP SWAP2 SWAP1 POP JUMP JUMPDEST PUSH32 0x4E487B7100000000000000000000000000000000000000000000000000000000 PUSH0 MSTORE PUSH1 0x11 PUSH1 0x4 MSTORE PUSH1 0x24 PUSH0 REVERT JUMPDEST PUSH0 PUSH2 0x1FA9 DUP3 PUSH2 0x155C JUMP JUMPDEST SWAP2 POP PUSH2 0x1FB4 DUP4 PUSH2 0x155C JUMP JUMPDEST SWAP3 POP DUP3 DUP3 ADD SWAP1 POP DUP1 DUP3 GT ISZERO PUSH2 0x1FCC JUMPI PUSH2 0x1FCB PUSH2 0x1F72 JUMP JUMPDEST JUMPDEST SWAP3 SWAP2 POP POP JUMP INVALID LOG2 PUSH5 0x6970667358 0x22 SLT KECCAK256 MSTORE8 0xCB BLOBBASEFEE 0xD 0x4B 0xB9 LOG3 MSTORE8 0x25 PUSH9 0x5281BF124629DE030B PUSH17 0x8EF14232D12D62CA0B0B702B64736F6C63 NUMBER STOP ADDMOD BYTE STOP CALLER "
				},
				"gasEstimates": {
					"creation": {
						"codeDepositCost": "1640000",
						"executionCost": "infinite",
						"totalCost": "infinite"
					},
					"external": {
						"MAX_LOAN_DURATION()": "348",
						"getLoanCount(address)": "2947",
						"getLoanDetails(address,uint256)": "infinite",
						"getLoans(address)": "infinite",
						"loans(address,uint256)": "infinite",
						"lockCollateralAndBorrow(uint256,address,uint256,address,address,uint256)": "infinite",
						"owner()": "2582",
						"renounceOwnership()": "infinite",
						"repayLoan(uint256)": "infinite",
						"transferOwnership(address)": "infinite",
						"withdrawTokens(address,uint256)": "infinite"
					}
				},
				"methodIdentifiers": {
					"MAX_LOAN_DURATION()": "0d0b2ca6",
					"getLoanCount(address)": "f53c61e0",
					"getLoanDetails(address,uint256)": "d13d5e56",
					"getLoans(address)": "d988ef20",
					"loans(address,uint256)": "98c61c37",
					"lockCollateralAndBorrow(uint256,address,uint256,address,address,uint256)": "c377fdab",
					"owner()": "8da5cb5b",
					"renounceOwnership()": "715018a6",
					"repayLoan(uint256)": "ab7b1c89",
					"transferOwnership(address)": "f2fde38b",
					"withdrawTokens(address,uint256)": "06b091f9"
				}
			},
			"storageLayout": {
				"storage": [
					{
						"astId": 8,
						"contract": "lender.sol:LendingProtocol",
						"label": "_owner",
						"offset": 0,
						"slot": "0",
						"type": "t_address"
					},
					{
						"astId": 282,
						"contract": "lender.sol:LendingProtocol",
						"label": "loans",
						"offset": 0,
						"slot": "1",
						"type": "t_mapping(t_address,t_array(t_struct(Loan)276_storage)dyn_storage)"
					}
				],
				"types": {
					"t_address": {
						"encoding": "inplace",
						"label": "address",
						"numberOfBytes": "20"
					},
					"t_array(t_struct(Loan)276_storage)dyn_storage": {
						"base": "t_struct(Loan)276_storage",
						"encoding": "dynamic_array",
						"label": "struct LendingProtocol.Loan[]",
						"numberOfBytes": "32"
					},
					"t_bool": {
						"encoding": "inplace",
						"label": "bool",
						"numberOfBytes": "1"
					},
					"t_mapping(t_address,t_array(t_struct(Loan)276_storage)dyn_storage)": {
						"encoding": "mapping",
						"key": "t_address",
						"label": "mapping(address => struct LendingProtocol.Loan[])",
						"numberOfBytes": "32",
						"value": "t_array(t_struct(Loan)276_storage)dyn_storage"
					},
					"t_struct(Loan)276_storage": {
						"encoding": "inplace",
						"label": "struct LendingProtocol.Loan",
						"members": [
							{
								"astId": 263,
								"contract": "lender.sol:LendingProtocol",
								"label": "collateralAmount",
								"offset": 0,
								"slot": "0",
								"type": "t_uint256"
							},
							{
								"astId": 265,
								"contract": "lender.sol:LendingProtocol",
								"label": "loanAmount",
								"offset": 0,
								"slot": "1",
								"type": "t_uint256"
							},
							{
								"astId": 267,
								"contract": "lender.sol:LendingProtocol",
								"label": "collateralToken",
								"offset": 0,
								"slot": "2",
								"type": "t_address"
							},
							{
								"astId": 269,
								"contract": "lender.sol:LendingProtocol",
								"label": "loanToken",
								"offset": 0,
								"slot": "3",
								"type": "t_address"
							},
							{
								"astId": 271,
								"contract": "lender.sol:LendingProtocol",
								"label": "recipient",
								"offset": 0,
								"slot": "4",
								"type": "t_address"
							},
							{
								"astId": 273,
								"contract": "lender.sol:LendingProtocol",
								"label": "deadline",
								"offset": 0,
								"slot": "5",
								"type": "t_uint256"
							},
							{
								"astId": 275,
								"contract": "lender.sol:LendingProtocol",
								"label": "isRepaid",
								"offset": 0,
								"slot": "6",
								"type": "t_bool"
							}
						],
						"numberOfBytes": "224"
					},
					"t_uint256": {
						"encoding": "inplace",
						"label": "uint256",
						"numberOfBytes": "32"
					}
				}
			},
			"userdoc": {
				"kind": "user",
				"methods": {},
				"version": 1
			}
		}
	}
}