{
	"contract.sol": {
		"LendingProtocol": {
			"abi": [
				{
					"inputs": [
						{
							"internalType": "address",
							"name": "owner",
							"type": "address"
						}
					],
					"name": "OwnableInvalidOwner",
					"type": "error"
				},
				{
					"inputs": [
						{
							"internalType": "address",
							"name": "account",
							"type": "address"
						}
					],
					"name": "OwnableUnauthorizedAccount",
					"type": "error"
				},
				{
					"anonymous": false,
					"inputs": [
						{
							"indexed": true,
							"internalType": "address",
							"name": "user",
							"type": "address"
						},
						{
							"indexed": false,
							"internalType": "uint256",
							"name": "amount",
							"type": "uint256"
						},
						{
							"indexed": false,
							"internalType": "address",
							"name": "token",
							"type": "address"
						}
					],
					"name": "CollateralLocked",
					"type": "event"
				},
				{
					"anonymous": false,
					"inputs": [
						{
							"indexed": true,
							"internalType": "address",
							"name": "user",
							"type": "address"
						},
						{
							"indexed": false,
							"internalType": "uint256",
							"name": "amount",
							"type": "uint256"
						},
						{
							"indexed": false,
							"internalType": "address",
							"name": "token",
							"type": "address"
						}
					],
					"name": "CollateralReleased",
					"type": "event"
				},
				{
					"anonymous": false,
					"inputs": [
						{
							"indexed": true,
							"internalType": "address",
							"name": "user",
							"type": "address"
						},
						{
							"indexed": false,
							"internalType": "uint256",
							"name": "amount",
							"type": "uint256"
						},
						{
							"indexed": false,
							"internalType": "address",
							"name": "token",
							"type": "address"
						}
					],
					"name": "LoanIssued",
					"type": "event"
				},
				{
					"anonymous": false,
					"inputs": [
						{
							"indexed": true,
							"internalType": "address",
							"name": "user",
							"type": "address"
						},
						{
							"indexed": false,
							"internalType": "uint256",
							"name": "amount",
							"type": "uint256"
						},
						{
							"indexed": false,
							"internalType": "address",
							"name": "token",
							"type": "address"
						}
					],
					"name": "LoanRepaid",
					"type": "event"
				},
				{
					"anonymous": false,
					"inputs": [
						{
							"indexed": true,
							"internalType": "address",
							"name": "previousOwner",
							"type": "address"
						},
						{
							"indexed": true,
							"internalType": "address",
							"name": "newOwner",
							"type": "address"
						}
					],
					"name": "OwnershipTransferred",
					"type": "event"
				},
				{
					"inputs": [
						{
							"internalType": "address",
							"name": "user",
							"type": "address"
						}
					],
					"name": "getLoans",
					"outputs": [
						{
							"components": [
								{
									"internalType": "uint256",
									"name": "collateralAmount",
									"type": "uint256"
								},
								{
									"internalType": "uint256",
									"name": "loanAmount",
									"type": "uint256"
								},
								{
									"internalType": "address",
									"name": "collateralToken",
									"type": "address"
								},
								{
									"internalType": "address",
									"name": "loanToken",
									"type": "address"
								},
								{
									"internalType": "bool",
									"name": "isRepaid",
									"type": "bool"
								}
							],
							"internalType": "struct LendingProtocol.Loan[]",
							"name": "",
							"type": "tuple[]"
						}
					],
					"stateMutability": "view",
					"type": "function"
				},
				{
					"inputs": [
						{
							"internalType": "address",
							"name": "",
							"type": "address"
						},
						{
							"internalType": "uint256",
							"name": "",
							"type": "uint256"
						}
					],
					"name": "loans",
					"outputs": [
						{
							"internalType": "uint256",
							"name": "collateralAmount",
							"type": "uint256"
						},
						{
							"internalType": "uint256",
							"name": "loanAmount",
							"type": "uint256"
						},
						{
							"internalType": "address",
							"name": "collateralToken",
							"type": "address"
						},
						{
							"internalType": "address",
							"name": "loanToken",
							"type": "address"
						},
						{
							"internalType": "bool",
							"name": "isRepaid",
							"type": "bool"
						}
					],
					"stateMutability": "view",
					"type": "function"
				},
				{
					"inputs": [
						{
							"internalType": "uint256",
							"name": "collateralAmount",
							"type": "uint256"
						},
						{
							"internalType": "address",
							"name": "collateralToken",
							"type": "address"
						},
						{
							"internalType": "uint256",
							"name": "loanAmount",
							"type": "uint256"
						},
						{
							"internalType": "address",
							"name": "loanToken",
							"type": "address"
						}
					],
					"name": "lockCollateralAndBorrow",
					"outputs": [],
					"stateMutability": "nonpayable",
					"type": "function"
				},
				{
					"inputs": [],
					"name": "owner",
					"outputs": [
						{
							"internalType": "address",
							"name": "",
							"type": "address"
						}
					],
					"stateMutability": "view",
					"type": "function"
				},
				{
					"inputs": [],
					"name": "renounceOwnership",
					"outputs": [],
					"stateMutability": "nonpayable",
					"type": "function"
				},
				{
					"inputs": [
						{
							"internalType": "uint256",
							"name": "loanIndex",
							"type": "uint256"
						}
					],
					"name": "repayLoan",
					"outputs": [],
					"stateMutability": "nonpayable",
					"type": "function"
				},
				{
					"inputs": [
						{
							"internalType": "address",
							"name": "newOwner",
							"type": "address"
						}
					],
					"name": "transferOwnership",
					"outputs": [],
					"stateMutability": "nonpayable",
					"type": "function"
				},
				{
					"inputs": [
						{
							"internalType": "address",
							"name": "token",
							"type": "address"
						},
						{
							"internalType": "uint256",
							"name": "amount",
							"type": "uint256"
						}
					],
					"name": "withdrawTokens",
					"outputs": [],
					"stateMutability": "nonpayable",
					"type": "function"
				}
			],
			"devdoc": {
				"errors": {
					"OwnableInvalidOwner(address)": [
						{
							"details": "The owner is not a valid owner account. (eg. `address(0)`)"
						}
					],
					"OwnableUnauthorizedAccount(address)": [
						{
							"details": "The caller account is not authorized to perform an operation."
						}
					]
				},
				"kind": "dev",
				"methods": {
					"getLoans(address)": {
						"params": {
							"user": "Address of the user"
						},
						"returns": {
							"_0": "Array of loans for the user"
						}
					},
					"lockCollateralAndBorrow(uint256,address,uint256,address)": {
						"params": {
							"collateralAmount": "Amount of collateral to lock",
							"collateralToken": "Address of the collateral token",
							"loanAmount": "Amount of loan to issue",
							"loanToken": "Address of the loan token"
						}
					},
					"owner()": {
						"details": "Returns the address of the current owner."
					},
					"renounceOwnership()": {
						"details": "Leaves the contract without owner. It will not be possible to call `onlyOwner` functions. Can only be called by the current owner. NOTE: Renouncing ownership will leave the contract without an owner, thereby disabling any functionality that is only available to the owner."
					},
					"repayLoan(uint256)": {
						"params": {
							"loanIndex": "Index of the loan in the user's loan array"
						}
					},
					"transferOwnership(address)": {
						"details": "Transfers ownership of the contract to a new account (`newOwner`). Can only be called by the current owner."
					},
					"withdrawTokens(address,uint256)": {
						"params": {
							"amount": "Amount to withdraw",
							"token": "Address of the token to withdraw"
						}
					}
				},
				"version": 1
			},
			"evm": {
				"assembly": "    /* \"contract.sol\":168:3502  contract LendingProtocol is Ownable(msg.sender){... */\n  mstore(0x40, 0x80)\n  callvalue\n  dup1\n  iszero\n  tag_1\n  jumpi\n  revert(0x00, 0x00)\ntag_1:\n  pop\n    /* \"contract.sol\":204:214  msg.sender */\n  caller\n    /* \"@openzeppelin/contracts/access/Ownable.sol\":1297:1298  0 */\n  0x00\n    /* \"@openzeppelin/contracts/access/Ownable.sol\":1273:1299  initialOwner == address(0) */\n  0xffffffffffffffffffffffffffffffffffffffff\n  and\n    /* \"@openzeppelin/contracts/access/Ownable.sol\":1273:1285  initialOwner */\n  dup2\n    /* \"@openzeppelin/contracts/access/Ownable.sol\":1273:1299  initialOwner == address(0) */\n  0xffffffffffffffffffffffffffffffffffffffff\n  and\n  sub\n    /* \"@openzeppelin/contracts/access/Ownable.sol\":1269:1364  if (initialOwner == address(0)) {... */\n  tag_4\n  jumpi\n    /* \"@openzeppelin/contracts/access/Ownable.sol\":1350:1351  0 */\n  0x00\n    /* \"@openzeppelin/contracts/access/Ownable.sol\":1322:1353  OwnableInvalidOwner(address(0)) */\n  mload(0x40)\n  0x1e4fbdf700000000000000000000000000000000000000000000000000000000\n  dup2\n  mstore\n  0x04\n  add\n  tag_5\n  swap2\n  swap1\n  tag_6\n  jump\t// in\ntag_5:\n  mload(0x40)\n  dup1\n  swap2\n  sub\n  swap1\n  revert\n    /* \"@openzeppelin/contracts/access/Ownable.sol\":1269:1364  if (initialOwner == address(0)) {... */\ntag_4:\n    /* \"@openzeppelin/contracts/access/Ownable.sol\":1373:1405  _transferOwnership(initialOwner) */\n  tag_7\n    /* \"@openzeppelin/contracts/access/Ownable.sol\":1392:1404  initialOwner */\n  dup2\n    /* \"@openzeppelin/contracts/access/Ownable.sol\":1373:1391  _transferOwnership */\n  shl(0x20, tag_8)\n    /* \"@openzeppelin/contracts/access/Ownable.sol\":1373:1405  _transferOwnership(initialOwner) */\n  0x20\n  shr\n  jump\t// in\ntag_7:\n    /* \"@openzeppelin/contracts/access/Ownable.sol\":1225:1412  constructor(address initialOwner) {... */\n  pop\n    /* \"contract.sol\":168:3502  contract LendingProtocol is Ownable(msg.sender){... */\n  jump(tag_9)\n    /* \"@openzeppelin/contracts/access/Ownable.sol\":2912:3099  function _transferOwnership(address newOwner) internal virtual {... */\ntag_8:\n    /* \"@openzeppelin/contracts/access/Ownable.sol\":2985:3001  address oldOwner */\n  0x00\n    /* \"@openzeppelin/contracts/access/Ownable.sol\":3004:3010  _owner */\n  0x00\n  0x00\n  swap1\n  sload\n  swap1\n  0x0100\n  exp\n  swap1\n  div\n  0xffffffffffffffffffffffffffffffffffffffff\n  and\n    /* \"@openzeppelin/contracts/access/Ownable.sol\":2985:3010  address oldOwner = _owner */\n  swap1\n  pop\n    /* \"@openzeppelin/contracts/access/Ownable.sol\":3029:3037  newOwner */\n  dup2\n    /* \"@openzeppelin/contracts/access/Ownable.sol\":3020:3026  _owner */\n  0x00\n  0x00\n    /* \"@openzeppelin/contracts/access/Ownable.sol\":3020:3037  _owner = newOwner */\n  0x0100\n  exp\n  dup2\n  sload\n  dup2\n  0xffffffffffffffffffffffffffffffffffffffff\n  mul\n  not\n  and\n  swap1\n  dup4\n  0xffffffffffffffffffffffffffffffffffffffff\n  and\n  mul\n  or\n  swap1\n  sstore\n  pop\n    /* \"@openzeppelin/contracts/access/Ownable.sol\":3083:3091  newOwner */\n  dup2\n    /* \"@openzeppelin/contracts/access/Ownable.sol\":3052:3092  OwnershipTransferred(oldOwner, newOwner) */\n  0xffffffffffffffffffffffffffffffffffffffff\n  and\n    /* \"@openzeppelin/contracts/access/Ownable.sol\":3073:3081  oldOwner */\n  dup2\n    /* \"@openzeppelin/contracts/access/Ownable.sol\":3052:3092  OwnershipTransferred(oldOwner, newOwner) */\n  0xffffffffffffffffffffffffffffffffffffffff\n  and\n  0x8be0079c531659141344cd1fd0a4f28419497f9722a3daafe3b4186f6b6457e0\n  mload(0x40)\n  mload(0x40)\n  dup1\n  swap2\n  sub\n  swap1\n  log3\n    /* \"@openzeppelin/contracts/access/Ownable.sol\":2975:3099  {... */\n  pop\n    /* \"@openzeppelin/contracts/access/Ownable.sol\":2912:3099  function _transferOwnership(address newOwner) internal virtual {... */\n  pop\n  jump\t// out\n    /* \"#utility.yul\":7:133   */\ntag_11:\n    /* \"#utility.yul\":44:51   */\n  0x00\n    /* \"#utility.yul\":84:126   */\n  0xffffffffffffffffffffffffffffffffffffffff\n    /* \"#utility.yul\":77:82   */\n  dup3\n    /* \"#utility.yul\":73:127   */\n  and\n    /* \"#utility.yul\":62:127   */\n  swap1\n  pop\n    /* \"#utility.yul\":7:133   */\n  swap2\n  swap1\n  pop\n  jump\t// out\n    /* \"#utility.yul\":139:235   */\ntag_12:\n    /* \"#utility.yul\":176:183   */\n  0x00\n    /* \"#utility.yul\":205:229   */\n  tag_17\n    /* \"#utility.yul\":223:228   */\n  dup3\n    /* \"#utility.yul\":205:229   */\n  tag_11\n  jump\t// in\ntag_17:\n    /* \"#utility.yul\":194:229   */\n  swap1\n  pop\n    /* \"#utility.yul\":139:235   */\n  swap2\n  swap1\n  pop\n  jump\t// out\n    /* \"#utility.yul\":241:359   */\ntag_13:\n    /* \"#utility.yul\":328:352   */\n  tag_19\n    /* \"#utility.yul\":346:351   */\n  dup2\n    /* \"#utility.yul\":328:352   */\n  tag_12\n  jump\t// in\ntag_19:\n    /* \"#utility.yul\":323:326   */\n  dup3\n    /* \"#utility.yul\":316:353   */\n  mstore\n    /* \"#utility.yul\":241:359   */\n  pop\n  pop\n  jump\t// out\n    /* \"#utility.yul\":365:587   */\ntag_6:\n    /* \"#utility.yul\":458:462   */\n  0x00\n    /* \"#utility.yul\":496:498   */\n  0x20\n    /* \"#utility.yul\":485:494   */\n  dup3\n    /* \"#utility.yul\":481:499   */\n  add\n    /* \"#utility.yul\":473:499   */\n  swap1\n  pop\n    /* \"#utility.yul\":509:580   */\n  tag_21\n    /* \"#utility.yul\":577:578   */\n  0x00\n    /* \"#utility.yul\":566:575   */\n  dup4\n    /* \"#utility.yul\":562:579   */\n  add\n    /* \"#utility.yul\":553:559   */\n  dup5\n    /* \"#utility.yul\":509:580   */\n  tag_13\n  jump\t// in\ntag_21:\n    /* \"#utility.yul\":365:587   */\n  swap3\n  swap2\n  pop\n  pop\n  jump\t// out\n    /* \"contract.sol\":168:3502  contract LendingProtocol is Ownable(msg.sender){... */\ntag_9:\n  dataSize(sub_0)\n  dup1\n  dataOffset(sub_0)\n  0x00\n  codecopy\n  0x00\n  return\nstop\n\nsub_0: assembly {\n        /* \"contract.sol\":168:3502  contract LendingProtocol is Ownable(msg.sender){... */\n      mstore(0x40, 0x80)\n      callvalue\n      dup1\n      iszero\n      tag_1\n      jumpi\n      revert(0x00, 0x00)\n    tag_1:\n      pop\n      jumpi(tag_2, lt(calldatasize, 0x04))\n      shr(0xe0, calldataload(0x00))\n      dup1\n      0xab7b1c89\n      gt\n      tag_11\n      jumpi\n      dup1\n      0xab7b1c89\n      eq\n      tag_7\n      jumpi\n      dup1\n      0xd988ef20\n      eq\n      tag_8\n      jumpi\n      dup1\n      0xe7153a7c\n      eq\n      tag_9\n      jumpi\n      dup1\n      0xf2fde38b\n      eq\n      tag_10\n      jumpi\n      jump(tag_2)\n    tag_11:\n      dup1\n      0x06b091f9\n      eq\n      tag_3\n      jumpi\n      dup1\n      0x715018a6\n      eq\n      tag_4\n      jumpi\n      dup1\n      0x8da5cb5b\n      eq\n      tag_5\n      jumpi\n      dup1\n      0x98c61c37\n      eq\n      tag_6\n      jumpi\n    tag_2:\n      revert(0x00, 0x00)\n        /* \"contract.sol\":3367:3500  function withdrawTokens(address token, uint256 amount) external onlyOwner {... */\n    tag_3:\n      tag_12\n      0x04\n      dup1\n      calldatasize\n      sub\n      dup2\n      add\n      swap1\n      tag_13\n      swap2\n      swap1\n      tag_14\n      jump\t// in\n    tag_13:\n      tag_15\n      jump\t// in\n    tag_12:\n      stop\n        /* \"@openzeppelin/contracts/access/Ownable.sol\":2293:2394  function renounceOwnership() public virtual onlyOwner {... */\n    tag_4:\n      tag_16\n      tag_17\n      jump\t// in\n    tag_16:\n      stop\n        /* \"@openzeppelin/contracts/access/Ownable.sol\":1638:1723  function owner() public view virtual returns (address) {... */\n    tag_5:\n      tag_18\n      tag_19\n      jump\t// in\n    tag_18:\n      mload(0x40)\n      tag_20\n      swap2\n      swap1\n      tag_21\n      jump\t// in\n    tag_20:\n      mload(0x40)\n      dup1\n      swap2\n      sub\n      swap1\n      return\n        /* \"contract.sol\":391:430  mapping(address => Loan[]) public loans */\n    tag_6:\n      tag_22\n      0x04\n      dup1\n      calldatasize\n      sub\n      dup2\n      add\n      swap1\n      tag_23\n      swap2\n      swap1\n      tag_14\n      jump\t// in\n    tag_23:\n      tag_24\n      jump\t// in\n    tag_22:\n      mload(0x40)\n      tag_25\n      swap6\n      swap5\n      swap4\n      swap3\n      swap2\n      swap1\n      tag_26\n      jump\t// in\n    tag_25:\n      mload(0x40)\n      dup1\n      swap2\n      sub\n      swap1\n      return\n        /* \"contract.sol\":2170:2932  function repayLoan(uint256 loanIndex) external {... */\n    tag_7:\n      tag_27\n      0x04\n      dup1\n      calldatasize\n      sub\n      dup2\n      add\n      swap1\n      tag_28\n      swap2\n      swap1\n      tag_29\n      jump\t// in\n    tag_28:\n      tag_30\n      jump\t// in\n    tag_27:\n      stop\n        /* \"contract.sol\":3080:3185  function getLoans(address user) external view returns (Loan[] memory) {... */\n    tag_8:\n      tag_31\n      0x04\n      dup1\n      calldatasize\n      sub\n      dup2\n      add\n      swap1\n      tag_32\n      swap2\n      swap1\n      tag_33\n      jump\t// in\n    tag_32:\n      tag_34\n      jump\t// in\n    tag_31:\n      mload(0x40)\n      tag_35\n      swap2\n      swap1\n      tag_36\n      jump\t// in\n    tag_35:\n      mload(0x40)\n      dup1\n      swap2\n      sub\n      swap1\n      return\n        /* \"contract.sol\":1037:2030  function lockCollateralAndBorrow(... */\n    tag_9:\n      tag_37\n      0x04\n      dup1\n      calldatasize\n      sub\n      dup2\n      add\n      swap1\n      tag_38\n      swap2\n      swap1\n      tag_39\n      jump\t// in\n    tag_38:\n      tag_40\n      jump\t// in\n    tag_37:\n      stop\n        /* \"@openzeppelin/contracts/access/Ownable.sol\":2543:2758  function transferOwnership(address newOwner) public virtual onlyOwner {... */\n    tag_10:\n      tag_41\n      0x04\n      dup1\n      calldatasize\n      sub\n      dup2\n      add\n      swap1\n      tag_42\n      swap2\n      swap1\n      tag_33\n      jump\t// in\n    tag_42:\n      tag_43\n      jump\t// in\n    tag_41:\n      stop\n        /* \"contract.sol\":3367:3500  function withdrawTokens(address token, uint256 amount) external onlyOwner {... */\n    tag_15:\n        /* \"@openzeppelin/contracts/access/Ownable.sol\":1531:1544  _checkOwner() */\n      tag_45\n        /* \"@openzeppelin/contracts/access/Ownable.sol\":1531:1542  _checkOwner */\n      tag_46\n        /* \"@openzeppelin/contracts/access/Ownable.sol\":1531:1544  _checkOwner() */\n      jump\t// in\n    tag_45:\n        /* \"contract.sol\":3458:3463  token */\n      dup2\n        /* \"contract.sol\":3451:3473  IERC20(token).transfer */\n      0xffffffffffffffffffffffffffffffffffffffff\n      and\n      0xa9059cbb\n        /* \"contract.sol\":3474:3484  msg.sender */\n      caller\n        /* \"contract.sol\":3486:3492  amount */\n      dup4\n        /* \"contract.sol\":3451:3493  IERC20(token).transfer(msg.sender, amount) */\n      mload(0x40)\n      dup4\n      0xffffffff\n      and\n      0xe0\n      shl\n      dup2\n      mstore\n      0x04\n      add\n      tag_48\n      swap3\n      swap2\n      swap1\n      tag_49\n      jump\t// in\n    tag_48:\n      0x20\n      mload(0x40)\n      dup1\n      dup4\n      sub\n      dup2\n      0x00\n      dup8\n      gas\n      call\n      iszero\n      dup1\n      iszero\n      tag_51\n      jumpi\n      returndatacopy(0x00, 0x00, returndatasize)\n      revert(0x00, returndatasize)\n    tag_51:\n      pop\n      pop\n      pop\n      pop\n      mload(0x40)\n      returndatasize\n      not(0x1f)\n      0x1f\n      dup3\n      add\n      and\n      dup3\n      add\n      dup1\n      0x40\n      mstore\n      pop\n      dup2\n      add\n      swap1\n      tag_52\n      swap2\n      swap1\n      tag_53\n      jump\t// in\n    tag_52:\n      pop\n        /* \"contract.sol\":3367:3500  function withdrawTokens(address token, uint256 amount) external onlyOwner {... */\n      pop\n      pop\n      jump\t// out\n        /* \"@openzeppelin/contracts/access/Ownable.sol\":2293:2394  function renounceOwnership() public virtual onlyOwner {... */\n    tag_17:\n        /* \"@openzeppelin/contracts/access/Ownable.sol\":1531:1544  _checkOwner() */\n      tag_55\n        /* \"@openzeppelin/contracts/access/Ownable.sol\":1531:1542  _checkOwner */\n      tag_46\n        /* \"@openzeppelin/contracts/access/Ownable.sol\":1531:1544  _checkOwner() */\n      jump\t// in\n    tag_55:\n        /* \"@openzeppelin/contracts/access/Ownable.sol\":2357:2387  _transferOwnership(address(0)) */\n      tag_57\n        /* \"@openzeppelin/contracts/access/Ownable.sol\":2384:2385  0 */\n      0x00\n        /* \"@openzeppelin/contracts/access/Ownable.sol\":2357:2375  _transferOwnership */\n      tag_58\n        /* \"@openzeppelin/contracts/access/Ownable.sol\":2357:2387  _transferOwnership(address(0)) */\n      jump\t// in\n    tag_57:\n        /* \"@openzeppelin/contracts/access/Ownable.sol\":2293:2394  function renounceOwnership() public virtual onlyOwner {... */\n      jump\t// out\n        /* \"@openzeppelin/contracts/access/Ownable.sol\":1638:1723  function owner() public view virtual returns (address) {... */\n    tag_19:\n        /* \"@openzeppelin/contracts/access/Ownable.sol\":1684:1691  address */\n      0x00\n        /* \"@openzeppelin/contracts/access/Ownable.sol\":1710:1716  _owner */\n      0x00\n      0x00\n      swap1\n      sload\n      swap1\n      0x0100\n      exp\n      swap1\n      div\n      0xffffffffffffffffffffffffffffffffffffffff\n      and\n        /* \"@openzeppelin/contracts/access/Ownable.sol\":1703:1716  return _owner */\n      swap1\n      pop\n        /* \"@openzeppelin/contracts/access/Ownable.sol\":1638:1723  function owner() public view virtual returns (address) {... */\n      swap1\n      jump\t// out\n        /* \"contract.sol\":391:430  mapping(address => Loan[]) public loans */\n    tag_24:\n      mstore(0x20, 0x01)\n      dup2\n      0x00\n      mstore\n      keccak256(0x00, 0x40)\n      dup2\n      dup2\n      sload\n      dup2\n      lt\n      tag_60\n      jumpi\n      0x00\n      dup1\n      revert\n    tag_60:\n      swap1\n      0x00\n      mstore\n      keccak256(0x00, 0x20)\n      swap1\n      0x04\n      mul\n      add\n      0x00\n      swap2\n      pop\n      swap2\n      pop\n      pop\n      dup1\n      0x00\n      add\n      sload\n      swap1\n      dup1\n      0x01\n      add\n      sload\n      swap1\n      dup1\n      0x02\n      add\n      0x00\n      swap1\n      sload\n      swap1\n      0x0100\n      exp\n      swap1\n      div\n      0xffffffffffffffffffffffffffffffffffffffff\n      and\n      swap1\n      dup1\n      0x03\n      add\n      0x00\n      swap1\n      sload\n      swap1\n      0x0100\n      exp\n      swap1\n      div\n      0xffffffffffffffffffffffffffffffffffffffff\n      and\n      swap1\n      dup1\n      0x03\n      add\n      0x14\n      swap1\n      sload\n      swap1\n      0x0100\n      exp\n      swap1\n      div\n      0xff\n      and\n      swap1\n      pop\n      dup6\n      jump\t// out\n        /* \"contract.sol\":2170:2932  function repayLoan(uint256 loanIndex) external {... */\n    tag_30:\n        /* \"contract.sol\":2247:2252  loans */\n      0x01\n        /* \"contract.sol\":2247:2264  loans[msg.sender] */\n      0x00\n        /* \"contract.sol\":2253:2263  msg.sender */\n      caller\n        /* \"contract.sol\":2247:2264  loans[msg.sender] */\n      0xffffffffffffffffffffffffffffffffffffffff\n      and\n      0xffffffffffffffffffffffffffffffffffffffff\n      and\n      dup2\n      mstore\n      0x20\n      add\n      swap1\n      dup2\n      mstore\n      0x20\n      add\n      0x00\n      keccak256\n        /* \"contract.sol\":2247:2271  loans[msg.sender].length */\n      dup1\n      sload\n      swap1\n      pop\n        /* \"contract.sol\":2235:2244  loanIndex */\n      dup2\n        /* \"contract.sol\":2235:2271  loanIndex < loans[msg.sender].length */\n      lt\n        /* \"contract.sol\":2227:2294  require(loanIndex < loans[msg.sender].length, \"Invalid loan index\") */\n      tag_63\n      jumpi\n      mload(0x40)\n      0x08c379a000000000000000000000000000000000000000000000000000000000\n      dup2\n      mstore\n      0x04\n      add\n      tag_64\n      swap1\n      tag_65\n      jump\t// in\n    tag_64:\n      mload(0x40)\n      dup1\n      swap2\n      sub\n      swap1\n      revert\n    tag_63:\n        /* \"contract.sol\":2304:2325  Loan storage userLoan */\n      0x00\n        /* \"contract.sol\":2328:2333  loans */\n      0x01\n        /* \"contract.sol\":2328:2345  loans[msg.sender] */\n      0x00\n        /* \"contract.sol\":2334:2344  msg.sender */\n      caller\n        /* \"contract.sol\":2328:2345  loans[msg.sender] */\n      0xffffffffffffffffffffffffffffffffffffffff\n      and\n      0xffffffffffffffffffffffffffffffffffffffff\n      and\n      dup2\n      mstore\n      0x20\n      add\n      swap1\n      dup2\n      mstore\n      0x20\n      add\n      0x00\n      keccak256\n        /* \"contract.sol\":2346:2355  loanIndex */\n      dup3\n        /* \"contract.sol\":2328:2356  loans[msg.sender][loanIndex] */\n      dup2\n      sload\n      dup2\n      lt\n      tag_66\n      jumpi\n      tag_67\n      tag_68\n      jump\t// in\n    tag_67:\n    tag_66:\n      swap1\n      0x00\n      mstore\n      keccak256(0x00, 0x20)\n      swap1\n      0x04\n      mul\n      add\n        /* \"contract.sol\":2304:2356  Loan storage userLoan = loans[msg.sender][loanIndex] */\n      swap1\n      pop\n        /* \"contract.sol\":2375:2383  userLoan */\n      dup1\n        /* \"contract.sol\":2375:2392  userLoan.isRepaid */\n      0x03\n      add\n      0x14\n      swap1\n      sload\n      swap1\n      0x0100\n      exp\n      swap1\n      div\n      0xff\n      and\n        /* \"contract.sol\":2374:2392  !userLoan.isRepaid */\n      iszero\n        /* \"contract.sol\":2366:2416  require(!userLoan.isRepaid, \"Loan already repaid\") */\n      tag_70\n      jumpi\n      mload(0x40)\n      0x08c379a000000000000000000000000000000000000000000000000000000000\n      dup2\n      mstore\n      0x04\n      add\n      tag_71\n      swap1\n      tag_72\n      jump\t// in\n    tag_71:\n      mload(0x40)\n      dup1\n      swap2\n      sub\n      swap1\n      revert\n    tag_70:\n        /* \"contract.sol\":2491:2499  userLoan */\n      dup1\n        /* \"contract.sol\":2491:2509  userLoan.loanToken */\n      0x03\n      add\n      0x00\n      swap1\n      sload\n      swap1\n      0x0100\n      exp\n      swap1\n      div\n      0xffffffffffffffffffffffffffffffffffffffff\n      and\n        /* \"contract.sol\":2484:2523  IERC20(userLoan.loanToken).transferFrom */\n      0xffffffffffffffffffffffffffffffffffffffff\n      and\n      0x23b872dd\n        /* \"contract.sol\":2524:2534  msg.sender */\n      caller\n        /* \"contract.sol\":2544:2548  this */\n      address\n        /* \"contract.sol\":2551:2559  userLoan */\n      dup5\n        /* \"contract.sol\":2551:2570  userLoan.loanAmount */\n      0x01\n      add\n      sload\n        /* \"contract.sol\":2484:2571  IERC20(userLoan.loanToken).transferFrom(msg.sender, address(this), userLoan.loanAmount) */\n      mload(0x40)\n      dup5\n      0xffffffff\n      and\n      0xe0\n      shl\n      dup2\n      mstore\n      0x04\n      add\n      tag_73\n      swap4\n      swap3\n      swap2\n      swap1\n      tag_74\n      jump\t// in\n    tag_73:\n      0x20\n      mload(0x40)\n      dup1\n      dup4\n      sub\n      dup2\n      0x00\n      dup8\n      gas\n      call\n      iszero\n      dup1\n      iszero\n      tag_76\n      jumpi\n      returndatacopy(0x00, 0x00, returndatasize)\n      revert(0x00, returndatasize)\n    tag_76:\n      pop\n      pop\n      pop\n      pop\n      mload(0x40)\n      returndatasize\n      not(0x1f)\n      0x1f\n      dup3\n      add\n      and\n      dup3\n      add\n      dup1\n      0x40\n      mstore\n      pop\n      dup2\n      add\n      swap1\n      tag_77\n      swap2\n      swap1\n      tag_53\n      jump\t// in\n    tag_77:\n      pop\n        /* \"contract.sol\":2640:2648  userLoan */\n      dup1\n        /* \"contract.sol\":2640:2664  userLoan.collateralToken */\n      0x02\n      add\n      0x00\n      swap1\n      sload\n      swap1\n      0x0100\n      exp\n      swap1\n      div\n      0xffffffffffffffffffffffffffffffffffffffff\n      and\n        /* \"contract.sol\":2633:2674  IERC20(userLoan.collateralToken).transfer */\n      0xffffffffffffffffffffffffffffffffffffffff\n      and\n      0xa9059cbb\n        /* \"contract.sol\":2675:2685  msg.sender */\n      caller\n        /* \"contract.sol\":2687:2695  userLoan */\n      dup4\n        /* \"contract.sol\":2687:2712  userLoan.collateralAmount */\n      0x00\n      add\n      sload\n        /* \"contract.sol\":2633:2713  IERC20(userLoan.collateralToken).transfer(msg.sender, userLoan.collateralAmount) */\n      mload(0x40)\n      dup4\n      0xffffffff\n      and\n      0xe0\n      shl\n      dup2\n      mstore\n      0x04\n      add\n      tag_78\n      swap3\n      swap2\n      swap1\n      tag_49\n      jump\t// in\n    tag_78:\n      0x20\n      mload(0x40)\n      dup1\n      dup4\n      sub\n      dup2\n      0x00\n      dup8\n      gas\n      call\n      iszero\n      dup1\n      iszero\n      tag_80\n      jumpi\n      returndatacopy(0x00, 0x00, returndatasize)\n      revert(0x00, returndatasize)\n    tag_80:\n      pop\n      pop\n      pop\n      pop\n      mload(0x40)\n      returndatasize\n      not(0x1f)\n      0x1f\n      dup3\n      add\n      and\n      dup3\n      add\n      dup1\n      0x40\n      mstore\n      pop\n      dup2\n      add\n      swap1\n      tag_81\n      swap2\n      swap1\n      tag_53\n      jump\t// in\n    tag_81:\n      pop\n        /* \"contract.sol\":2744:2748  true */\n      0x01\n        /* \"contract.sol\":2724:2732  userLoan */\n      dup2\n        /* \"contract.sol\":2724:2741  userLoan.isRepaid */\n      0x03\n      add\n      0x14\n        /* \"contract.sol\":2724:2748  userLoan.isRepaid = true */\n      0x0100\n      exp\n      dup2\n      sload\n      dup2\n      0xff\n      mul\n      not\n      and\n      swap1\n      dup4\n      iszero\n      iszero\n      mul\n      or\n      swap1\n      sstore\n      pop\n        /* \"contract.sol\":2775:2785  msg.sender */\n      caller\n        /* \"contract.sol\":2764:2827  LoanRepaid(msg.sender, userLoan.loanAmount, userLoan.loanToken) */\n      0xffffffffffffffffffffffffffffffffffffffff\n      and\n      0x0d92e40293701683f5207fc6802754aaddf166e5f5da04d1077d8d55fefb61b0\n        /* \"contract.sol\":2787:2795  userLoan */\n      dup3\n        /* \"contract.sol\":2787:2806  userLoan.loanAmount */\n      0x01\n      add\n      sload\n        /* \"contract.sol\":2808:2816  userLoan */\n      dup4\n        /* \"contract.sol\":2808:2826  userLoan.loanToken */\n      0x03\n      add\n      0x00\n      swap1\n      sload\n      swap1\n      0x0100\n      exp\n      swap1\n      div\n      0xffffffffffffffffffffffffffffffffffffffff\n      and\n        /* \"contract.sol\":2764:2827  LoanRepaid(msg.sender, userLoan.loanAmount, userLoan.loanToken) */\n      mload(0x40)\n      tag_82\n      swap3\n      swap2\n      swap1\n      tag_83\n      jump\t// in\n    tag_82:\n      mload(0x40)\n      dup1\n      swap2\n      sub\n      swap1\n      log2\n        /* \"contract.sol\":2861:2871  msg.sender */\n      caller\n        /* \"contract.sol\":2842:2925  CollateralReleased(msg.sender, userLoan.collateralAmount, userLoan.collateralToken) */\n      0xffffffffffffffffffffffffffffffffffffffff\n      and\n      0x887eb7234a2c4fa94c5778832c90928b2ce458cfee0053ed170baa8cde476fb5\n        /* \"contract.sol\":2873:2881  userLoan */\n      dup3\n        /* \"contract.sol\":2873:2898  userLoan.collateralAmount */\n      0x00\n      add\n      sload\n        /* \"contract.sol\":2900:2908  userLoan */\n      dup4\n        /* \"contract.sol\":2900:2924  userLoan.collateralToken */\n      0x02\n      add\n      0x00\n      swap1\n      sload\n      swap1\n      0x0100\n      exp\n      swap1\n      div\n      0xffffffffffffffffffffffffffffffffffffffff\n      and\n        /* \"contract.sol\":2842:2925  CollateralReleased(msg.sender, userLoan.collateralAmount, userLoan.collateralToken) */\n      mload(0x40)\n      tag_84\n      swap3\n      swap2\n      swap1\n      tag_83\n      jump\t// in\n    tag_84:\n      mload(0x40)\n      dup1\n      swap2\n      sub\n      swap1\n      log2\n        /* \"contract.sol\":2217:2932  {... */\n      pop\n        /* \"contract.sol\":2170:2932  function repayLoan(uint256 loanIndex) external {... */\n      pop\n      jump\t// out\n        /* \"contract.sol\":3080:3185  function getLoans(address user) external view returns (Loan[] memory) {... */\n    tag_34:\n        /* \"contract.sol\":3135:3148  Loan[] memory */\n      0x60\n        /* \"contract.sol\":3167:3172  loans */\n      0x01\n        /* \"contract.sol\":3167:3178  loans[user] */\n      0x00\n        /* \"contract.sol\":3173:3177  user */\n      dup4\n        /* \"contract.sol\":3167:3178  loans[user] */\n      0xffffffffffffffffffffffffffffffffffffffff\n      and\n      0xffffffffffffffffffffffffffffffffffffffff\n      and\n      dup2\n      mstore\n      0x20\n      add\n      swap1\n      dup2\n      mstore\n      0x20\n      add\n      0x00\n      keccak256\n        /* \"contract.sol\":3160:3178  return loans[user] */\n      dup1\n      sload\n      dup1\n      0x20\n      mul\n      0x20\n      add\n      mload(0x40)\n      swap1\n      dup2\n      add\n      0x40\n      mstore\n      dup1\n      swap3\n      swap2\n      swap1\n      dup2\n      dup2\n      mstore\n      0x20\n      add\n      0x00\n      swap1\n    tag_86:\n      dup3\n      dup3\n      lt\n      iszero\n      tag_87\n      jumpi\n      dup4\n      dup3\n      swap1\n      0x00\n      mstore\n      keccak256(0x00, 0x20)\n      swap1\n      0x04\n      mul\n      add\n      mload(0x40)\n      dup1\n      0xa0\n      add\n      0x40\n      mstore\n      swap1\n      dup2\n      0x00\n      dup3\n      add\n      sload\n      dup2\n      mstore\n      0x20\n      add\n      0x01\n      dup3\n      add\n      sload\n      dup2\n      mstore\n      0x20\n      add\n      0x02\n      dup3\n      add\n      0x00\n      swap1\n      sload\n      swap1\n      0x0100\n      exp\n      swap1\n      div\n      0xffffffffffffffffffffffffffffffffffffffff\n      and\n      0xffffffffffffffffffffffffffffffffffffffff\n      and\n      0xffffffffffffffffffffffffffffffffffffffff\n      and\n      dup2\n      mstore\n      0x20\n      add\n      0x03\n      dup3\n      add\n      0x00\n      swap1\n      sload\n      swap1\n      0x0100\n      exp\n      swap1\n      div\n      0xffffffffffffffffffffffffffffffffffffffff\n      and\n      0xffffffffffffffffffffffffffffffffffffffff\n      and\n      0xffffffffffffffffffffffffffffffffffffffff\n      and\n      dup2\n      mstore\n      0x20\n      add\n      0x03\n      dup3\n      add\n      0x14\n      swap1\n      sload\n      swap1\n      0x0100\n      exp\n      swap1\n      div\n      0xff\n      and\n      iszero\n      iszero\n      iszero\n      iszero\n      dup2\n      mstore\n      pop\n      pop\n      dup2\n      mstore\n      0x20\n      add\n      swap1\n      0x01\n      add\n      swap1\n      jump(tag_86)\n    tag_87:\n      pop\n      pop\n      pop\n      pop\n      swap1\n      pop\n        /* \"contract.sol\":3080:3185  function getLoans(address user) external view returns (Loan[] memory) {... */\n      swap2\n      swap1\n      pop\n      jump\t// out\n        /* \"contract.sol\":1037:2030  function lockCollateralAndBorrow(... */\n    tag_40:\n        /* \"contract.sol\":1244:1245  0 */\n      0x00\n        /* \"contract.sol\":1225:1241  collateralAmount */\n      dup5\n        /* \"contract.sol\":1225:1245  collateralAmount > 0 */\n      gt\n        /* \"contract.sol\":1217:1290  require(collateralAmount > 0, \"Collateral amount must be greater than 0\") */\n      tag_90\n      jumpi\n      mload(0x40)\n      0x08c379a000000000000000000000000000000000000000000000000000000000\n      dup2\n      mstore\n      0x04\n      add\n      tag_91\n      swap1\n      tag_92\n      jump\t// in\n    tag_91:\n      mload(0x40)\n      dup1\n      swap2\n      sub\n      swap1\n      revert\n    tag_90:\n        /* \"contract.sol\":1321:1322  0 */\n      0x00\n        /* \"contract.sol\":1308:1318  loanAmount */\n      dup3\n        /* \"contract.sol\":1308:1322  loanAmount > 0 */\n      gt\n        /* \"contract.sol\":1300:1361  require(loanAmount > 0, \"Loan amount must be greater than 0\") */\n      tag_93\n      jumpi\n      mload(0x40)\n      0x08c379a000000000000000000000000000000000000000000000000000000000\n      dup2\n      mstore\n      0x04\n      add\n      tag_94\n      swap1\n      tag_95\n      jump\t// in\n    tag_94:\n      mload(0x40)\n      dup1\n      swap2\n      sub\n      swap1\n      revert\n    tag_93:\n        /* \"contract.sol\":1432:1447  collateralToken */\n      dup3\n        /* \"contract.sol\":1425:1461  IERC20(collateralToken).transferFrom */\n      0xffffffffffffffffffffffffffffffffffffffff\n      and\n      0x23b872dd\n        /* \"contract.sol\":1462:1472  msg.sender */\n      caller\n        /* \"contract.sol\":1482:1486  this */\n      address\n        /* \"contract.sol\":1489:1505  collateralAmount */\n      dup8\n        /* \"contract.sol\":1425:1506  IERC20(collateralToken).transferFrom(msg.sender, address(this), collateralAmount) */\n      mload(0x40)\n      dup5\n      0xffffffff\n      and\n      0xe0\n      shl\n      dup2\n      mstore\n      0x04\n      add\n      tag_96\n      swap4\n      swap3\n      swap2\n      swap1\n      tag_74\n      jump\t// in\n    tag_96:\n      0x20\n      mload(0x40)\n      dup1\n      dup4\n      sub\n      dup2\n      0x00\n      dup8\n      gas\n      call\n      iszero\n      dup1\n      iszero\n      tag_98\n      jumpi\n      returndatacopy(0x00, 0x00, returndatasize)\n      revert(0x00, returndatasize)\n    tag_98:\n      pop\n      pop\n      pop\n      pop\n      mload(0x40)\n      returndatasize\n      not(0x1f)\n      0x1f\n      dup3\n      add\n      and\n      dup3\n      add\n      dup1\n      0x40\n      mstore\n      pop\n      dup2\n      add\n      swap1\n      tag_99\n      swap2\n      swap1\n      tag_53\n      jump\t// in\n    tag_99:\n      pop\n        /* \"contract.sol\":1562:1571  loanToken */\n      dup1\n        /* \"contract.sol\":1555:1581  IERC20(loanToken).transfer */\n      0xffffffffffffffffffffffffffffffffffffffff\n      and\n      0xa9059cbb\n        /* \"contract.sol\":1582:1592  msg.sender */\n      caller\n        /* \"contract.sol\":1594:1604  loanAmount */\n      dup5\n        /* \"contract.sol\":1555:1605  IERC20(loanToken).transfer(msg.sender, loanAmount) */\n      mload(0x40)\n      dup4\n      0xffffffff\n      and\n      0xe0\n      shl\n      dup2\n      mstore\n      0x04\n      add\n      tag_100\n      swap3\n      swap2\n      swap1\n      tag_49\n      jump\t// in\n    tag_100:\n      0x20\n      mload(0x40)\n      dup1\n      dup4\n      sub\n      dup2\n      0x00\n      dup8\n      gas\n      call\n      iszero\n      dup1\n      iszero\n      tag_102\n      jumpi\n      returndatacopy(0x00, 0x00, returndatasize)\n      revert(0x00, returndatasize)\n    tag_102:\n      pop\n      pop\n      pop\n      pop\n      mload(0x40)\n      returndatasize\n      not(0x1f)\n      0x1f\n      dup3\n      add\n      and\n      dup3\n      add\n      dup1\n      0x40\n      mstore\n      pop\n      dup2\n      add\n      swap1\n      tag_103\n      swap2\n      swap1\n      tag_53\n      jump\t// in\n    tag_103:\n      pop\n        /* \"contract.sol\":1651:1656  loans */\n      0x01\n        /* \"contract.sol\":1651:1668  loans[msg.sender] */\n      0x00\n        /* \"contract.sol\":1657:1667  msg.sender */\n      caller\n        /* \"contract.sol\":1651:1668  loans[msg.sender] */\n      0xffffffffffffffffffffffffffffffffffffffff\n      and\n      0xffffffffffffffffffffffffffffffffffffffff\n      and\n      dup2\n      mstore\n      0x20\n      add\n      swap1\n      dup2\n      mstore\n      0x20\n      add\n      0x00\n      keccak256\n        /* \"contract.sol\":1674:1883  Loan({... */\n      mload(0x40)\n      dup1\n      0xa0\n      add\n      0x40\n      mstore\n      dup1\n        /* \"contract.sol\":1711:1727  collateralAmount */\n      dup7\n        /* \"contract.sol\":1674:1883  Loan({... */\n      dup2\n      mstore\n      0x20\n      add\n        /* \"contract.sol\":1753:1763  loanAmount */\n      dup5\n        /* \"contract.sol\":1674:1883  Loan({... */\n      dup2\n      mstore\n      0x20\n      add\n        /* \"contract.sol\":1794:1809  collateralToken */\n      dup6\n        /* \"contract.sol\":1674:1883  Loan({... */\n      0xffffffffffffffffffffffffffffffffffffffff\n      and\n      dup2\n      mstore\n      0x20\n      add\n        /* \"contract.sol\":1834:1843  loanToken */\n      dup4\n        /* \"contract.sol\":1674:1883  Loan({... */\n      0xffffffffffffffffffffffffffffffffffffffff\n      and\n      dup2\n      mstore\n      0x20\n      add\n        /* \"contract.sol\":1867:1872  false */\n      0x00\n        /* \"contract.sol\":1674:1883  Loan({... */\n      iszero\n      iszero\n      dup2\n      mstore\n      pop\n        /* \"contract.sol\":1651:1884  loans[msg.sender].push(Loan({... */\n      swap1\n      dup1\n      0x01\n      dup2\n      sload\n      add\n      dup1\n      dup3\n      sstore\n      dup1\n      swap2\n      pop\n      pop\n      0x01\n      swap1\n      sub\n      swap1\n      0x00\n      mstore\n      keccak256(0x00, 0x20)\n      swap1\n      0x04\n      mul\n      add\n      0x00\n      swap1\n      swap2\n      swap1\n      swap2\n      swap1\n      swap2\n      pop\n      0x00\n      dup3\n      add\n      mload\n      dup2\n      0x00\n      add\n      sstore\n      0x20\n      dup3\n      add\n      mload\n      dup2\n      0x01\n      add\n      sstore\n      0x40\n      dup3\n      add\n      mload\n      dup2\n      0x02\n      add\n      exp(0x0100, 0x00)\n      dup2\n      sload\n      dup2\n      0xffffffffffffffffffffffffffffffffffffffff\n      mul\n      not\n      and\n      swap1\n      dup4\n      0xffffffffffffffffffffffffffffffffffffffff\n      and\n      mul\n      or\n      swap1\n      sstore\n      pop\n      0x60\n      dup3\n      add\n      mload\n      dup2\n      0x03\n      add\n      exp(0x0100, 0x00)\n      dup2\n      sload\n      dup2\n      0xffffffffffffffffffffffffffffffffffffffff\n      mul\n      not\n      and\n      swap1\n      dup4\n      0xffffffffffffffffffffffffffffffffffffffff\n      and\n      mul\n      or\n      swap1\n      sstore\n      pop\n      0x80\n      dup3\n      add\n      mload\n      dup2\n      0x03\n      add\n      exp(0x0100, 0x14)\n      dup2\n      sload\n      dup2\n      0xff\n      mul\n      not\n      and\n      swap1\n      dup4\n      iszero\n      iszero\n      mul\n      or\n      swap1\n      sstore\n      pop\n      pop\n      pop\n        /* \"contract.sol\":1917:1927  msg.sender */\n      caller\n        /* \"contract.sol\":1900:1963  CollateralLocked(msg.sender, collateralAmount, collateralToken) */\n      0xffffffffffffffffffffffffffffffffffffffff\n      and\n      0x56b60085244fe1afa467f92231debadc8bcb6127e9dbf35dbb58ca8406a423fe\n        /* \"contract.sol\":1929:1945  collateralAmount */\n      dup6\n        /* \"contract.sol\":1947:1962  collateralToken */\n      dup6\n        /* \"contract.sol\":1900:1963  CollateralLocked(msg.sender, collateralAmount, collateralToken) */\n      mload(0x40)\n      tag_105\n      swap3\n      swap2\n      swap1\n      tag_83\n      jump\t// in\n    tag_105:\n      mload(0x40)\n      dup1\n      swap2\n      sub\n      swap1\n      log2\n        /* \"contract.sol\":1989:1999  msg.sender */\n      caller\n        /* \"contract.sol\":1978:2023  LoanIssued(msg.sender, loanAmount, loanToken) */\n      0xffffffffffffffffffffffffffffffffffffffff\n      and\n      0xe5024716f30be6e51e2a7cc6145e6659cd5bdb7a0c451e22b7e9d39c9b5f03ac\n        /* \"contract.sol\":2001:2011  loanAmount */\n      dup4\n        /* \"contract.sol\":2013:2022  loanToken */\n      dup4\n        /* \"contract.sol\":1978:2023  LoanIssued(msg.sender, loanAmount, loanToken) */\n      mload(0x40)\n      tag_106\n      swap3\n      swap2\n      swap1\n      tag_83\n      jump\t// in\n    tag_106:\n      mload(0x40)\n      dup1\n      swap2\n      sub\n      swap1\n      log2\n        /* \"contract.sol\":1037:2030  function lockCollateralAndBorrow(... */\n      pop\n      pop\n      pop\n      pop\n      jump\t// out\n        /* \"@openzeppelin/contracts/access/Ownable.sol\":2543:2758  function transferOwnership(address newOwner) public virtual onlyOwner {... */\n    tag_43:\n        /* \"@openzeppelin/contracts/access/Ownable.sol\":1531:1544  _checkOwner() */\n      tag_108\n        /* \"@openzeppelin/contracts/access/Ownable.sol\":1531:1542  _checkOwner */\n      tag_46\n        /* \"@openzeppelin/contracts/access/Ownable.sol\":1531:1544  _checkOwner() */\n      jump\t// in\n    tag_108:\n        /* \"@openzeppelin/contracts/access/Ownable.sol\":2647:2648  0 */\n      0x00\n        /* \"@openzeppelin/contracts/access/Ownable.sol\":2627:2649  newOwner == address(0) */\n      0xffffffffffffffffffffffffffffffffffffffff\n      and\n        /* \"@openzeppelin/contracts/access/Ownable.sol\":2627:2635  newOwner */\n      dup2\n        /* \"@openzeppelin/contracts/access/Ownable.sol\":2627:2649  newOwner == address(0) */\n      0xffffffffffffffffffffffffffffffffffffffff\n      and\n      sub\n        /* \"@openzeppelin/contracts/access/Ownable.sol\":2623:2714  if (newOwner == address(0)) {... */\n      tag_110\n      jumpi\n        /* \"@openzeppelin/contracts/access/Ownable.sol\":2700:2701  0 */\n      0x00\n        /* \"@openzeppelin/contracts/access/Ownable.sol\":2672:2703  OwnableInvalidOwner(address(0)) */\n      mload(0x40)\n      0x1e4fbdf700000000000000000000000000000000000000000000000000000000\n      dup2\n      mstore\n      0x04\n      add\n      tag_111\n      swap2\n      swap1\n      tag_21\n      jump\t// in\n    tag_111:\n      mload(0x40)\n      dup1\n      swap2\n      sub\n      swap1\n      revert\n        /* \"@openzeppelin/contracts/access/Ownable.sol\":2623:2714  if (newOwner == address(0)) {... */\n    tag_110:\n        /* \"@openzeppelin/contracts/access/Ownable.sol\":2723:2751  _transferOwnership(newOwner) */\n      tag_112\n        /* \"@openzeppelin/contracts/access/Ownable.sol\":2742:2750  newOwner */\n      dup2\n        /* \"@openzeppelin/contracts/access/Ownable.sol\":2723:2741  _transferOwnership */\n      tag_58\n        /* \"@openzeppelin/contracts/access/Ownable.sol\":2723:2751  _transferOwnership(newOwner) */\n      jump\t// in\n    tag_112:\n        /* \"@openzeppelin/contracts/access/Ownable.sol\":2543:2758  function transferOwnership(address newOwner) public virtual onlyOwner {... */\n      pop\n      jump\t// out\n        /* \"@openzeppelin/contracts/access/Ownable.sol\":1796:1958  function _checkOwner() internal view virtual {... */\n    tag_46:\n        /* \"@openzeppelin/contracts/access/Ownable.sol\":1866:1878  _msgSender() */\n      tag_114\n        /* \"@openzeppelin/contracts/access/Ownable.sol\":1866:1876  _msgSender */\n      tag_115\n        /* \"@openzeppelin/contracts/access/Ownable.sol\":1866:1878  _msgSender() */\n      jump\t// in\n    tag_114:\n        /* \"@openzeppelin/contracts/access/Ownable.sol\":1855:1878  owner() != _msgSender() */\n      0xffffffffffffffffffffffffffffffffffffffff\n      and\n        /* \"@openzeppelin/contracts/access/Ownable.sol\":1855:1862  owner() */\n      tag_116\n        /* \"@openzeppelin/contracts/access/Ownable.sol\":1855:1860  owner */\n      tag_19\n        /* \"@openzeppelin/contracts/access/Ownable.sol\":1855:1862  owner() */\n      jump\t// in\n    tag_116:\n        /* \"@openzeppelin/contracts/access/Ownable.sol\":1855:1878  owner() != _msgSender() */\n      0xffffffffffffffffffffffffffffffffffffffff\n      and\n      eq\n        /* \"@openzeppelin/contracts/access/Ownable.sol\":1851:1952  if (owner() != _msgSender()) {... */\n      tag_117\n      jumpi\n        /* \"@openzeppelin/contracts/access/Ownable.sol\":1928:1940  _msgSender() */\n      tag_118\n        /* \"@openzeppelin/contracts/access/Ownable.sol\":1928:1938  _msgSender */\n      tag_115\n        /* \"@openzeppelin/contracts/access/Ownable.sol\":1928:1940  _msgSender() */\n      jump\t// in\n    tag_118:\n        /* \"@openzeppelin/contracts/access/Ownable.sol\":1901:1941  OwnableUnauthorizedAccount(_msgSender()) */\n      mload(0x40)\n      0x118cdaa700000000000000000000000000000000000000000000000000000000\n      dup2\n      mstore\n      0x04\n      add\n      tag_119\n      swap2\n      swap1\n      tag_21\n      jump\t// in\n    tag_119:\n      mload(0x40)\n      dup1\n      swap2\n      sub\n      swap1\n      revert\n        /* \"@openzeppelin/contracts/access/Ownable.sol\":1851:1952  if (owner() != _msgSender()) {... */\n    tag_117:\n        /* \"@openzeppelin/contracts/access/Ownable.sol\":1796:1958  function _checkOwner() internal view virtual {... */\n      jump\t// out\n        /* \"@openzeppelin/contracts/access/Ownable.sol\":2912:3099  function _transferOwnership(address newOwner) internal virtual {... */\n    tag_58:\n        /* \"@openzeppelin/contracts/access/Ownable.sol\":2985:3001  address oldOwner */\n      0x00\n        /* \"@openzeppelin/contracts/access/Ownable.sol\":3004:3010  _owner */\n      0x00\n      0x00\n      swap1\n      sload\n      swap1\n      0x0100\n      exp\n      swap1\n      div\n      0xffffffffffffffffffffffffffffffffffffffff\n      and\n        /* \"@openzeppelin/contracts/access/Ownable.sol\":2985:3010  address oldOwner = _owner */\n      swap1\n      pop\n        /* \"@openzeppelin/contracts/access/Ownable.sol\":3029:3037  newOwner */\n      dup2\n        /* \"@openzeppelin/contracts/access/Ownable.sol\":3020:3026  _owner */\n      0x00\n      0x00\n        /* \"@openzeppelin/contracts/access/Ownable.sol\":3020:3037  _owner = newOwner */\n      0x0100\n      exp\n      dup2\n      sload\n      dup2\n      0xffffffffffffffffffffffffffffffffffffffff\n      mul\n      not\n      and\n      swap1\n      dup4\n      0xffffffffffffffffffffffffffffffffffffffff\n      and\n      mul\n      or\n      swap1\n      sstore\n      pop\n        /* \"@openzeppelin/contracts/access/Ownable.sol\":3083:3091  newOwner */\n      dup2\n        /* \"@openzeppelin/contracts/access/Ownable.sol\":3052:3092  OwnershipTransferred(oldOwner, newOwner) */\n      0xffffffffffffffffffffffffffffffffffffffff\n      and\n        /* \"@openzeppelin/contracts/access/Ownable.sol\":3073:3081  oldOwner */\n      dup2\n        /* \"@openzeppelin/contracts/access/Ownable.sol\":3052:3092  OwnershipTransferred(oldOwner, newOwner) */\n      0xffffffffffffffffffffffffffffffffffffffff\n      and\n      0x8be0079c531659141344cd1fd0a4f28419497f9722a3daafe3b4186f6b6457e0\n      mload(0x40)\n      mload(0x40)\n      dup1\n      swap2\n      sub\n      swap1\n      log3\n        /* \"@openzeppelin/contracts/access/Ownable.sol\":2975:3099  {... */\n      pop\n        /* \"@openzeppelin/contracts/access/Ownable.sol\":2912:3099  function _transferOwnership(address newOwner) internal virtual {... */\n      pop\n      jump\t// out\n        /* \"@openzeppelin/contracts/utils/Context.sol\":656:752  function _msgSender() internal view virtual returns (address) {... */\n    tag_115:\n        /* \"@openzeppelin/contracts/utils/Context.sol\":709:716  address */\n      0x00\n        /* \"@openzeppelin/contracts/utils/Context.sol\":735:745  msg.sender */\n      caller\n        /* \"@openzeppelin/contracts/utils/Context.sol\":728:745  return msg.sender */\n      swap1\n      pop\n        /* \"@openzeppelin/contracts/utils/Context.sol\":656:752  function _msgSender() internal view virtual returns (address) {... */\n      swap1\n      jump\t// out\n        /* \"#utility.yul\":88:205   */\n    tag_123:\n        /* \"#utility.yul\":197:198   */\n      0x00\n        /* \"#utility.yul\":194:195   */\n      0x00\n        /* \"#utility.yul\":187:199   */\n      revert\n        /* \"#utility.yul\":334:460   */\n    tag_125:\n        /* \"#utility.yul\":371:378   */\n      0x00\n        /* \"#utility.yul\":411:453   */\n      0xffffffffffffffffffffffffffffffffffffffff\n        /* \"#utility.yul\":404:409   */\n      dup3\n        /* \"#utility.yul\":400:454   */\n      and\n        /* \"#utility.yul\":389:454   */\n      swap1\n      pop\n        /* \"#utility.yul\":334:460   */\n      swap2\n      swap1\n      pop\n      jump\t// out\n        /* \"#utility.yul\":466:562   */\n    tag_126:\n        /* \"#utility.yul\":503:510   */\n      0x00\n        /* \"#utility.yul\":532:556   */\n      tag_163\n        /* \"#utility.yul\":550:555   */\n      dup3\n        /* \"#utility.yul\":532:556   */\n      tag_125\n      jump\t// in\n    tag_163:\n        /* \"#utility.yul\":521:556   */\n      swap1\n      pop\n        /* \"#utility.yul\":466:562   */\n      swap2\n      swap1\n      pop\n      jump\t// out\n        /* \"#utility.yul\":568:690   */\n    tag_127:\n        /* \"#utility.yul\":641:665   */\n      tag_165\n        /* \"#utility.yul\":659:664   */\n      dup2\n        /* \"#utility.yul\":641:665   */\n      tag_126\n      jump\t// in\n    tag_165:\n        /* \"#utility.yul\":634:639   */\n      dup2\n        /* \"#utility.yul\":631:666   */\n      eq\n        /* \"#utility.yul\":621:684   */\n      tag_166\n      jumpi\n        /* \"#utility.yul\":680:681   */\n      0x00\n        /* \"#utility.yul\":677:678   */\n      0x00\n        /* \"#utility.yul\":670:682   */\n      revert\n        /* \"#utility.yul\":621:684   */\n    tag_166:\n        /* \"#utility.yul\":568:690   */\n      pop\n      jump\t// out\n        /* \"#utility.yul\":696:835   */\n    tag_128:\n        /* \"#utility.yul\":742:747   */\n      0x00\n        /* \"#utility.yul\":780:786   */\n      dup2\n        /* \"#utility.yul\":767:787   */\n      calldataload\n        /* \"#utility.yul\":758:787   */\n      swap1\n      pop\n        /* \"#utility.yul\":796:829   */\n      tag_168\n        /* \"#utility.yul\":823:828   */\n      dup2\n        /* \"#utility.yul\":796:829   */\n      tag_127\n      jump\t// in\n    tag_168:\n        /* \"#utility.yul\":696:835   */\n      swap3\n      swap2\n      pop\n      pop\n      jump\t// out\n        /* \"#utility.yul\":841:918   */\n    tag_129:\n        /* \"#utility.yul\":878:885   */\n      0x00\n        /* \"#utility.yul\":907:912   */\n      dup2\n        /* \"#utility.yul\":896:912   */\n      swap1\n      pop\n        /* \"#utility.yul\":841:918   */\n      swap2\n      swap1\n      pop\n      jump\t// out\n        /* \"#utility.yul\":924:1046   */\n    tag_130:\n        /* \"#utility.yul\":997:1021   */\n      tag_171\n        /* \"#utility.yul\":1015:1020   */\n      dup2\n        /* \"#utility.yul\":997:1021   */\n      tag_129\n      jump\t// in\n    tag_171:\n        /* \"#utility.yul\":990:995   */\n      dup2\n        /* \"#utility.yul\":987:1022   */\n      eq\n        /* \"#utility.yul\":977:1040   */\n      tag_172\n      jumpi\n        /* \"#utility.yul\":1036:1037   */\n      0x00\n        /* \"#utility.yul\":1033:1034   */\n      0x00\n        /* \"#utility.yul\":1026:1038   */\n      revert\n        /* \"#utility.yul\":977:1040   */\n    tag_172:\n        /* \"#utility.yul\":924:1046   */\n      pop\n      jump\t// out\n        /* \"#utility.yul\":1052:1191   */\n    tag_131:\n        /* \"#utility.yul\":1098:1103   */\n      0x00\n        /* \"#utility.yul\":1136:1142   */\n      dup2\n        /* \"#utility.yul\":1123:1143   */\n      calldataload\n        /* \"#utility.yul\":1114:1143   */\n      swap1\n      pop\n        /* \"#utility.yul\":1152:1185   */\n      tag_174\n        /* \"#utility.yul\":1179:1184   */\n      dup2\n        /* \"#utility.yul\":1152:1185   */\n      tag_130\n      jump\t// in\n    tag_174:\n        /* \"#utility.yul\":1052:1191   */\n      swap3\n      swap2\n      pop\n      pop\n      jump\t// out\n        /* \"#utility.yul\":1197:1671   */\n    tag_14:\n        /* \"#utility.yul\":1265:1271   */\n      0x00\n        /* \"#utility.yul\":1273:1279   */\n      0x00\n        /* \"#utility.yul\":1322:1324   */\n      0x40\n        /* \"#utility.yul\":1310:1319   */\n      dup4\n        /* \"#utility.yul\":1301:1308   */\n      dup6\n        /* \"#utility.yul\":1297:1320   */\n      sub\n        /* \"#utility.yul\":1293:1325   */\n      slt\n        /* \"#utility.yul\":1290:1409   */\n      iszero\n      tag_176\n      jumpi\n        /* \"#utility.yul\":1328:1407   */\n      tag_177\n      tag_123\n      jump\t// in\n    tag_177:\n        /* \"#utility.yul\":1290:1409   */\n    tag_176:\n        /* \"#utility.yul\":1448:1449   */\n      0x00\n        /* \"#utility.yul\":1473:1526   */\n      tag_178\n        /* \"#utility.yul\":1518:1525   */\n      dup6\n        /* \"#utility.yul\":1509:1515   */\n      dup3\n        /* \"#utility.yul\":1498:1507   */\n      dup7\n        /* \"#utility.yul\":1494:1516   */\n      add\n        /* \"#utility.yul\":1473:1526   */\n      tag_128\n      jump\t// in\n    tag_178:\n        /* \"#utility.yul\":1463:1526   */\n      swap3\n      pop\n        /* \"#utility.yul\":1419:1536   */\n      pop\n        /* \"#utility.yul\":1575:1577   */\n      0x20\n        /* \"#utility.yul\":1601:1654   */\n      tag_179\n        /* \"#utility.yul\":1646:1653   */\n      dup6\n        /* \"#utility.yul\":1637:1643   */\n      dup3\n        /* \"#utility.yul\":1626:1635   */\n      dup7\n        /* \"#utility.yul\":1622:1644   */\n      add\n        /* \"#utility.yul\":1601:1654   */\n      tag_131\n      jump\t// in\n    tag_179:\n        /* \"#utility.yul\":1591:1654   */\n      swap2\n      pop\n        /* \"#utility.yul\":1546:1664   */\n      pop\n        /* \"#utility.yul\":1197:1671   */\n      swap3\n      pop\n      swap3\n      swap1\n      pop\n      jump\t// out\n        /* \"#utility.yul\":1677:1795   */\n    tag_132:\n        /* \"#utility.yul\":1764:1788   */\n      tag_181\n        /* \"#utility.yul\":1782:1787   */\n      dup2\n        /* \"#utility.yul\":1764:1788   */\n      tag_126\n      jump\t// in\n    tag_181:\n        /* \"#utility.yul\":1759:1762   */\n      dup3\n        /* \"#utility.yul\":1752:1789   */\n      mstore\n        /* \"#utility.yul\":1677:1795   */\n      pop\n      pop\n      jump\t// out\n        /* \"#utility.yul\":1801:2023   */\n    tag_21:\n        /* \"#utility.yul\":1894:1898   */\n      0x00\n        /* \"#utility.yul\":1932:1934   */\n      0x20\n        /* \"#utility.yul\":1921:1930   */\n      dup3\n        /* \"#utility.yul\":1917:1935   */\n      add\n        /* \"#utility.yul\":1909:1935   */\n      swap1\n      pop\n        /* \"#utility.yul\":1945:2016   */\n      tag_183\n        /* \"#utility.yul\":2013:2014   */\n      0x00\n        /* \"#utility.yul\":2002:2011   */\n      dup4\n        /* \"#utility.yul\":1998:2015   */\n      add\n        /* \"#utility.yul\":1989:1995   */\n      dup5\n        /* \"#utility.yul\":1945:2016   */\n      tag_132\n      jump\t// in\n    tag_183:\n        /* \"#utility.yul\":1801:2023   */\n      swap3\n      swap2\n      pop\n      pop\n      jump\t// out\n        /* \"#utility.yul\":2029:2147   */\n    tag_133:\n        /* \"#utility.yul\":2116:2140   */\n      tag_185\n        /* \"#utility.yul\":2134:2139   */\n      dup2\n        /* \"#utility.yul\":2116:2140   */\n      tag_129\n      jump\t// in\n    tag_185:\n        /* \"#utility.yul\":2111:2114   */\n      dup3\n        /* \"#utility.yul\":2104:2141   */\n      mstore\n        /* \"#utility.yul\":2029:2147   */\n      pop\n      pop\n      jump\t// out\n        /* \"#utility.yul\":2153:2243   */\n    tag_134:\n        /* \"#utility.yul\":2187:2194   */\n      0x00\n        /* \"#utility.yul\":2230:2235   */\n      dup2\n        /* \"#utility.yul\":2223:2236   */\n      iszero\n        /* \"#utility.yul\":2216:2237   */\n      iszero\n        /* \"#utility.yul\":2205:2237   */\n      swap1\n      pop\n        /* \"#utility.yul\":2153:2243   */\n      swap2\n      swap1\n      pop\n      jump\t// out\n        /* \"#utility.yul\":2249:2358   */\n    tag_135:\n        /* \"#utility.yul\":2330:2351   */\n      tag_188\n        /* \"#utility.yul\":2345:2350   */\n      dup2\n        /* \"#utility.yul\":2330:2351   */\n      tag_134\n      jump\t// in\n    tag_188:\n        /* \"#utility.yul\":2325:2328   */\n      dup3\n        /* \"#utility.yul\":2318:2352   */\n      mstore\n        /* \"#utility.yul\":2249:2358   */\n      pop\n      pop\n      jump\t// out\n        /* \"#utility.yul\":2364:3016   */\n    tag_26:\n        /* \"#utility.yul\":2563:2567   */\n      0x00\n        /* \"#utility.yul\":2601:2604   */\n      0xa0\n        /* \"#utility.yul\":2590:2599   */\n      dup3\n        /* \"#utility.yul\":2586:2605   */\n      add\n        /* \"#utility.yul\":2578:2605   */\n      swap1\n      pop\n        /* \"#utility.yul\":2615:2686   */\n      tag_190\n        /* \"#utility.yul\":2683:2684   */\n      0x00\n        /* \"#utility.yul\":2672:2681   */\n      dup4\n        /* \"#utility.yul\":2668:2685   */\n      add\n        /* \"#utility.yul\":2659:2665   */\n      dup9\n        /* \"#utility.yul\":2615:2686   */\n      tag_133\n      jump\t// in\n    tag_190:\n        /* \"#utility.yul\":2696:2768   */\n      tag_191\n        /* \"#utility.yul\":2764:2766   */\n      0x20\n        /* \"#utility.yul\":2753:2762   */\n      dup4\n        /* \"#utility.yul\":2749:2767   */\n      add\n        /* \"#utility.yul\":2740:2746   */\n      dup8\n        /* \"#utility.yul\":2696:2768   */\n      tag_133\n      jump\t// in\n    tag_191:\n        /* \"#utility.yul\":2778:2850   */\n      tag_192\n        /* \"#utility.yul\":2846:2848   */\n      0x40\n        /* \"#utility.yul\":2835:2844   */\n      dup4\n        /* \"#utility.yul\":2831:2849   */\n      add\n        /* \"#utility.yul\":2822:2828   */\n      dup7\n        /* \"#utility.yul\":2778:2850   */\n      tag_132\n      jump\t// in\n    tag_192:\n        /* \"#utility.yul\":2860:2932   */\n      tag_193\n        /* \"#utility.yul\":2928:2930   */\n      0x60\n        /* \"#utility.yul\":2917:2926   */\n      dup4\n        /* \"#utility.yul\":2913:2931   */\n      add\n        /* \"#utility.yul\":2904:2910   */\n      dup6\n        /* \"#utility.yul\":2860:2932   */\n      tag_132\n      jump\t// in\n    tag_193:\n        /* \"#utility.yul\":2942:3009   */\n      tag_194\n        /* \"#utility.yul\":3004:3007   */\n      0x80\n        /* \"#utility.yul\":2993:3002   */\n      dup4\n        /* \"#utility.yul\":2989:3008   */\n      add\n        /* \"#utility.yul\":2980:2986   */\n      dup5\n        /* \"#utility.yul\":2942:3009   */\n      tag_135\n      jump\t// in\n    tag_194:\n        /* \"#utility.yul\":2364:3016   */\n      swap7\n      swap6\n      pop\n      pop\n      pop\n      pop\n      pop\n      pop\n      jump\t// out\n        /* \"#utility.yul\":3022:3351   */\n    tag_29:\n        /* \"#utility.yul\":3081:3087   */\n      0x00\n        /* \"#utility.yul\":3130:3132   */\n      0x20\n        /* \"#utility.yul\":3118:3127   */\n      dup3\n        /* \"#utility.yul\":3109:3116   */\n      dup5\n        /* \"#utility.yul\":3105:3128   */\n      sub\n        /* \"#utility.yul\":3101:3133   */\n      slt\n        /* \"#utility.yul\":3098:3217   */\n      iszero\n      tag_196\n      jumpi\n        /* \"#utility.yul\":3136:3215   */\n      tag_197\n      tag_123\n      jump\t// in\n    tag_197:\n        /* \"#utility.yul\":3098:3217   */\n    tag_196:\n        /* \"#utility.yul\":3256:3257   */\n      0x00\n        /* \"#utility.yul\":3281:3334   */\n      tag_198\n        /* \"#utility.yul\":3326:3333   */\n      dup5\n        /* \"#utility.yul\":3317:3323   */\n      dup3\n        /* \"#utility.yul\":3306:3315   */\n      dup6\n        /* \"#utility.yul\":3302:3324   */\n      add\n        /* \"#utility.yul\":3281:3334   */\n      tag_131\n      jump\t// in\n    tag_198:\n        /* \"#utility.yul\":3271:3334   */\n      swap2\n      pop\n        /* \"#utility.yul\":3227:3344   */\n      pop\n        /* \"#utility.yul\":3022:3351   */\n      swap3\n      swap2\n      pop\n      pop\n      jump\t// out\n        /* \"#utility.yul\":3357:3686   */\n    tag_33:\n        /* \"#utility.yul\":3416:3422   */\n      0x00\n        /* \"#utility.yul\":3465:3467   */\n      0x20\n        /* \"#utility.yul\":3453:3462   */\n      dup3\n        /* \"#utility.yul\":3444:3451   */\n      dup5\n        /* \"#utility.yul\":3440:3463   */\n      sub\n        /* \"#utility.yul\":3436:3468   */\n      slt\n        /* \"#utility.yul\":3433:3552   */\n      iszero\n      tag_200\n      jumpi\n        /* \"#utility.yul\":3471:3550   */\n      tag_201\n      tag_123\n      jump\t// in\n    tag_201:\n        /* \"#utility.yul\":3433:3552   */\n    tag_200:\n        /* \"#utility.yul\":3591:3592   */\n      0x00\n        /* \"#utility.yul\":3616:3669   */\n      tag_202\n        /* \"#utility.yul\":3661:3668   */\n      dup5\n        /* \"#utility.yul\":3652:3658   */\n      dup3\n        /* \"#utility.yul\":3641:3650   */\n      dup6\n        /* \"#utility.yul\":3637:3659   */\n      add\n        /* \"#utility.yul\":3616:3669   */\n      tag_128\n      jump\t// in\n    tag_202:\n        /* \"#utility.yul\":3606:3669   */\n      swap2\n      pop\n        /* \"#utility.yul\":3562:3679   */\n      pop\n        /* \"#utility.yul\":3357:3686   */\n      swap3\n      swap2\n      pop\n      pop\n      jump\t// out\n        /* \"#utility.yul\":3692:3827   */\n    tag_136:\n        /* \"#utility.yul\":3780:3786   */\n      0x00\n        /* \"#utility.yul\":3814:3819   */\n      dup2\n        /* \"#utility.yul\":3808:3820   */\n      mload\n        /* \"#utility.yul\":3798:3820   */\n      swap1\n      pop\n        /* \"#utility.yul\":3692:3827   */\n      swap2\n      swap1\n      pop\n      jump\t// out\n        /* \"#utility.yul\":3833:4038   */\n    tag_137:\n        /* \"#utility.yul\":3953:3964   */\n      0x00\n        /* \"#utility.yul\":3987:3993   */\n      dup3\n        /* \"#utility.yul\":3982:3985   */\n      dup3\n        /* \"#utility.yul\":3975:3994   */\n      mstore\n        /* \"#utility.yul\":4027:4031   */\n      0x20\n        /* \"#utility.yul\":4022:4025   */\n      dup3\n        /* \"#utility.yul\":4018:4032   */\n      add\n        /* \"#utility.yul\":4003:4032   */\n      swap1\n      pop\n        /* \"#utility.yul\":3833:4038   */\n      swap3\n      swap2\n      pop\n      pop\n      jump\t// out\n        /* \"#utility.yul\":4044:4197   */\n    tag_138:\n        /* \"#utility.yul\":4132:4136   */\n      0x00\n        /* \"#utility.yul\":4155:4158   */\n      dup2\n        /* \"#utility.yul\":4147:4158   */\n      swap1\n      pop\n        /* \"#utility.yul\":4185:4189   */\n      0x20\n        /* \"#utility.yul\":4180:4183   */\n      dup3\n        /* \"#utility.yul\":4176:4190   */\n      add\n        /* \"#utility.yul\":4168:4190   */\n      swap1\n      pop\n        /* \"#utility.yul\":4044:4197   */\n      swap2\n      swap1\n      pop\n      jump\t// out\n        /* \"#utility.yul\":4203:4311   */\n    tag_139:\n        /* \"#utility.yul\":4280:4304   */\n      tag_207\n        /* \"#utility.yul\":4298:4303   */\n      dup2\n        /* \"#utility.yul\":4280:4304   */\n      tag_129\n      jump\t// in\n    tag_207:\n        /* \"#utility.yul\":4275:4278   */\n      dup3\n        /* \"#utility.yul\":4268:4305   */\n      mstore\n        /* \"#utility.yul\":4203:4311   */\n      pop\n      pop\n      jump\t// out\n        /* \"#utility.yul\":4317:4425   */\n    tag_140:\n        /* \"#utility.yul\":4394:4418   */\n      tag_209\n        /* \"#utility.yul\":4412:4417   */\n      dup2\n        /* \"#utility.yul\":4394:4418   */\n      tag_126\n      jump\t// in\n    tag_209:\n        /* \"#utility.yul\":4389:4392   */\n      dup3\n        /* \"#utility.yul\":4382:4419   */\n      mstore\n        /* \"#utility.yul\":4317:4425   */\n      pop\n      pop\n      jump\t// out\n        /* \"#utility.yul\":4431:4530   */\n    tag_141:\n        /* \"#utility.yul\":4502:4523   */\n      tag_211\n        /* \"#utility.yul\":4517:4522   */\n      dup2\n        /* \"#utility.yul\":4502:4523   */\n      tag_134\n      jump\t// in\n    tag_211:\n        /* \"#utility.yul\":4497:4500   */\n      dup3\n        /* \"#utility.yul\":4490:4524   */\n      mstore\n        /* \"#utility.yul\":4431:4530   */\n      pop\n      pop\n      jump\t// out\n        /* \"#utility.yul\":4602:5645   */\n    tag_142:\n        /* \"#utility.yul\":4731:4735   */\n      0xa0\n        /* \"#utility.yul\":4726:4729   */\n      dup3\n        /* \"#utility.yul\":4722:4736   */\n      add\n        /* \"#utility.yul\":4830:4834   */\n      0x00\n        /* \"#utility.yul\":4823:4828   */\n      dup3\n        /* \"#utility.yul\":4819:4835   */\n      add\n        /* \"#utility.yul\":4813:4836   */\n      mload\n        /* \"#utility.yul\":4849:4912   */\n      tag_213\n        /* \"#utility.yul\":4906:4910   */\n      0x00\n        /* \"#utility.yul\":4901:4904   */\n      dup6\n        /* \"#utility.yul\":4897:4911   */\n      add\n        /* \"#utility.yul\":4883:4895   */\n      dup3\n        /* \"#utility.yul\":4849:4912   */\n      tag_139\n      jump\t// in\n    tag_213:\n        /* \"#utility.yul\":4746:4922   */\n      pop\n        /* \"#utility.yul\":5010:5014   */\n      0x20\n        /* \"#utility.yul\":5003:5008   */\n      dup3\n        /* \"#utility.yul\":4999:5015   */\n      add\n        /* \"#utility.yul\":4993:5016   */\n      mload\n        /* \"#utility.yul\":5029:5092   */\n      tag_214\n        /* \"#utility.yul\":5086:5090   */\n      0x20\n        /* \"#utility.yul\":5081:5084   */\n      dup6\n        /* \"#utility.yul\":5077:5091   */\n      add\n        /* \"#utility.yul\":5063:5075   */\n      dup3\n        /* \"#utility.yul\":5029:5092   */\n      tag_139\n      jump\t// in\n    tag_214:\n        /* \"#utility.yul\":4932:5102   */\n      pop\n        /* \"#utility.yul\":5195:5199   */\n      0x40\n        /* \"#utility.yul\":5188:5193   */\n      dup3\n        /* \"#utility.yul\":5184:5200   */\n      add\n        /* \"#utility.yul\":5178:5201   */\n      mload\n        /* \"#utility.yul\":5214:5277   */\n      tag_215\n        /* \"#utility.yul\":5271:5275   */\n      0x40\n        /* \"#utility.yul\":5266:5269   */\n      dup6\n        /* \"#utility.yul\":5262:5276   */\n      add\n        /* \"#utility.yul\":5248:5260   */\n      dup3\n        /* \"#utility.yul\":5214:5277   */\n      tag_140\n      jump\t// in\n    tag_215:\n        /* \"#utility.yul\":5112:5287   */\n      pop\n        /* \"#utility.yul\":5374:5378   */\n      0x60\n        /* \"#utility.yul\":5367:5372   */\n      dup3\n        /* \"#utility.yul\":5363:5379   */\n      add\n        /* \"#utility.yul\":5357:5380   */\n      mload\n        /* \"#utility.yul\":5393:5456   */\n      tag_216\n        /* \"#utility.yul\":5450:5454   */\n      0x60\n        /* \"#utility.yul\":5445:5448   */\n      dup6\n        /* \"#utility.yul\":5441:5455   */\n      add\n        /* \"#utility.yul\":5427:5439   */\n      dup3\n        /* \"#utility.yul\":5393:5456   */\n      tag_140\n      jump\t// in\n    tag_216:\n        /* \"#utility.yul\":5297:5466   */\n      pop\n        /* \"#utility.yul\":5552:5556   */\n      0x80\n        /* \"#utility.yul\":5545:5550   */\n      dup3\n        /* \"#utility.yul\":5541:5557   */\n      add\n        /* \"#utility.yul\":5535:5558   */\n      mload\n        /* \"#utility.yul\":5571:5628   */\n      tag_217\n        /* \"#utility.yul\":5622:5626   */\n      0x80\n        /* \"#utility.yul\":5617:5620   */\n      dup6\n        /* \"#utility.yul\":5613:5627   */\n      add\n        /* \"#utility.yul\":5599:5611   */\n      dup3\n        /* \"#utility.yul\":5571:5628   */\n      tag_141\n      jump\t// in\n    tag_217:\n        /* \"#utility.yul\":5476:5638   */\n      pop\n        /* \"#utility.yul\":4700:5645   */\n      pop\n        /* \"#utility.yul\":4602:5645   */\n      pop\n      pop\n      jump\t// out\n        /* \"#utility.yul\":5651:5914   */\n    tag_143:\n        /* \"#utility.yul\":5762:5772   */\n      0x00\n        /* \"#utility.yul\":5783:5871   */\n      tag_219\n        /* \"#utility.yul\":5867:5870   */\n      dup4\n        /* \"#utility.yul\":5859:5865   */\n      dup4\n        /* \"#utility.yul\":5783:5871   */\n      tag_142\n      jump\t// in\n    tag_219:\n        /* \"#utility.yul\":5903:5907   */\n      0xa0\n        /* \"#utility.yul\":5898:5901   */\n      dup4\n        /* \"#utility.yul\":5894:5908   */\n      add\n        /* \"#utility.yul\":5880:5908   */\n      swap1\n      pop\n        /* \"#utility.yul\":5651:5914   */\n      swap3\n      swap2\n      pop\n      pop\n      jump\t// out\n        /* \"#utility.yul\":5920:6054   */\n    tag_144:\n        /* \"#utility.yul\":6011:6015   */\n      0x00\n        /* \"#utility.yul\":6043:6047   */\n      0x20\n        /* \"#utility.yul\":6038:6041   */\n      dup3\n        /* \"#utility.yul\":6034:6048   */\n      add\n        /* \"#utility.yul\":6026:6048   */\n      swap1\n      pop\n        /* \"#utility.yul\":5920:6054   */\n      swap2\n      swap1\n      pop\n      jump\t// out\n        /* \"#utility.yul\":6130:7030   */\n    tag_145:\n        /* \"#utility.yul\":6291:6294   */\n      0x00\n        /* \"#utility.yul\":6320:6395   */\n      tag_222\n        /* \"#utility.yul\":6389:6394   */\n      dup3\n        /* \"#utility.yul\":6320:6395   */\n      tag_136\n      jump\t// in\n    tag_222:\n        /* \"#utility.yul\":6411:6518   */\n      tag_223\n        /* \"#utility.yul\":6511:6517   */\n      dup2\n        /* \"#utility.yul\":6506:6509   */\n      dup6\n        /* \"#utility.yul\":6411:6518   */\n      tag_137\n      jump\t// in\n    tag_223:\n        /* \"#utility.yul\":6404:6518   */\n      swap4\n      pop\n        /* \"#utility.yul\":6542:6619   */\n      tag_224\n        /* \"#utility.yul\":6613:6618   */\n      dup4\n        /* \"#utility.yul\":6542:6619   */\n      tag_138\n      jump\t// in\n    tag_224:\n        /* \"#utility.yul\":6642:6649   */\n      dup1\n        /* \"#utility.yul\":6673:6674   */\n      0x00\n        /* \"#utility.yul\":6658:7005   */\n    tag_225:\n        /* \"#utility.yul\":6683:6689   */\n      dup4\n        /* \"#utility.yul\":6680:6681   */\n      dup2\n        /* \"#utility.yul\":6677:6690   */\n      lt\n        /* \"#utility.yul\":6658:7005   */\n      iszero\n      tag_227\n      jumpi\n        /* \"#utility.yul\":6759:6765   */\n      dup2\n        /* \"#utility.yul\":6753:6766   */\n      mload\n        /* \"#utility.yul\":6786:6891   */\n      tag_228\n        /* \"#utility.yul\":6887:6890   */\n      dup9\n        /* \"#utility.yul\":6872:6885   */\n      dup3\n        /* \"#utility.yul\":6786:6891   */\n      tag_143\n      jump\t// in\n    tag_228:\n        /* \"#utility.yul\":6779:6891   */\n      swap8\n      pop\n        /* \"#utility.yul\":6914:6995   */\n      tag_229\n        /* \"#utility.yul\":6988:6994   */\n      dup4\n        /* \"#utility.yul\":6914:6995   */\n      tag_144\n      jump\t// in\n    tag_229:\n        /* \"#utility.yul\":6904:6995   */\n      swap3\n      pop\n        /* \"#utility.yul\":6718:7005   */\n      pop\n        /* \"#utility.yul\":6705:6706   */\n      0x01\n        /* \"#utility.yul\":6702:6703   */\n      dup2\n        /* \"#utility.yul\":6698:6707   */\n      add\n        /* \"#utility.yul\":6693:6707   */\n      swap1\n      pop\n        /* \"#utility.yul\":6658:7005   */\n      jump(tag_225)\n    tag_227:\n        /* \"#utility.yul\":6662:6676   */\n      pop\n        /* \"#utility.yul\":7021:7024   */\n      dup6\n        /* \"#utility.yul\":7014:7024   */\n      swap4\n      pop\n        /* \"#utility.yul\":6296:7030   */\n      pop\n      pop\n      pop\n        /* \"#utility.yul\":6130:7030   */\n      swap3\n      swap2\n      pop\n      pop\n      jump\t// out\n        /* \"#utility.yul\":7036:7493   */\n    tag_36:\n        /* \"#utility.yul\":7221:7225   */\n      0x00\n        /* \"#utility.yul\":7259:7261   */\n      0x20\n        /* \"#utility.yul\":7248:7257   */\n      dup3\n        /* \"#utility.yul\":7244:7262   */\n      add\n        /* \"#utility.yul\":7236:7262   */\n      swap1\n      pop\n        /* \"#utility.yul\":7308:7317   */\n      dup2\n        /* \"#utility.yul\":7302:7306   */\n      dup2\n        /* \"#utility.yul\":7298:7318   */\n      sub\n        /* \"#utility.yul\":7294:7295   */\n      0x00\n        /* \"#utility.yul\":7283:7292   */\n      dup4\n        /* \"#utility.yul\":7279:7296   */\n      add\n        /* \"#utility.yul\":7272:7319   */\n      mstore\n        /* \"#utility.yul\":7336:7486   */\n      tag_231\n        /* \"#utility.yul\":7481:7485   */\n      dup2\n        /* \"#utility.yul\":7472:7478   */\n      dup5\n        /* \"#utility.yul\":7336:7486   */\n      tag_145\n      jump\t// in\n    tag_231:\n        /* \"#utility.yul\":7328:7486   */\n      swap1\n      pop\n        /* \"#utility.yul\":7036:7493   */\n      swap3\n      swap2\n      pop\n      pop\n      jump\t// out\n        /* \"#utility.yul\":7499:8264   */\n    tag_39:\n        /* \"#utility.yul\":7585:7591   */\n      0x00\n        /* \"#utility.yul\":7593:7599   */\n      0x00\n        /* \"#utility.yul\":7601:7607   */\n      0x00\n        /* \"#utility.yul\":7609:7615   */\n      0x00\n        /* \"#utility.yul\":7658:7661   */\n      0x80\n        /* \"#utility.yul\":7646:7655   */\n      dup6\n        /* \"#utility.yul\":7637:7644   */\n      dup8\n        /* \"#utility.yul\":7633:7656   */\n      sub\n        /* \"#utility.yul\":7629:7662   */\n      slt\n        /* \"#utility.yul\":7626:7746   */\n      iszero\n      tag_233\n      jumpi\n        /* \"#utility.yul\":7665:7744   */\n      tag_234\n      tag_123\n      jump\t// in\n    tag_234:\n        /* \"#utility.yul\":7626:7746   */\n    tag_233:\n        /* \"#utility.yul\":7785:7786   */\n      0x00\n        /* \"#utility.yul\":7810:7863   */\n      tag_235\n        /* \"#utility.yul\":7855:7862   */\n      dup8\n        /* \"#utility.yul\":7846:7852   */\n      dup3\n        /* \"#utility.yul\":7835:7844   */\n      dup9\n        /* \"#utility.yul\":7831:7853   */\n      add\n        /* \"#utility.yul\":7810:7863   */\n      tag_131\n      jump\t// in\n    tag_235:\n        /* \"#utility.yul\":7800:7863   */\n      swap5\n      pop\n        /* \"#utility.yul\":7756:7873   */\n      pop\n        /* \"#utility.yul\":7912:7914   */\n      0x20\n        /* \"#utility.yul\":7938:7991   */\n      tag_236\n        /* \"#utility.yul\":7983:7990   */\n      dup8\n        /* \"#utility.yul\":7974:7980   */\n      dup3\n        /* \"#utility.yul\":7963:7972   */\n      dup9\n        /* \"#utility.yul\":7959:7981   */\n      add\n        /* \"#utility.yul\":7938:7991   */\n      tag_128\n      jump\t// in\n    tag_236:\n        /* \"#utility.yul\":7928:7991   */\n      swap4\n      pop\n        /* \"#utility.yul\":7883:8001   */\n      pop\n        /* \"#utility.yul\":8040:8042   */\n      0x40\n        /* \"#utility.yul\":8066:8119   */\n      tag_237\n        /* \"#utility.yul\":8111:8118   */\n      dup8\n        /* \"#utility.yul\":8102:8108   */\n      dup3\n        /* \"#utility.yul\":8091:8100   */\n      dup9\n        /* \"#utility.yul\":8087:8109   */\n      add\n        /* \"#utility.yul\":8066:8119   */\n      tag_131\n      jump\t// in\n    tag_237:\n        /* \"#utility.yul\":8056:8119   */\n      swap3\n      pop\n        /* \"#utility.yul\":8011:8129   */\n      pop\n        /* \"#utility.yul\":8168:8170   */\n      0x60\n        /* \"#utility.yul\":8194:8247   */\n      tag_238\n        /* \"#utility.yul\":8239:8246   */\n      dup8\n        /* \"#utility.yul\":8230:8236   */\n      dup3\n        /* \"#utility.yul\":8219:8228   */\n      dup9\n        /* \"#utility.yul\":8215:8237   */\n      add\n        /* \"#utility.yul\":8194:8247   */\n      tag_128\n      jump\t// in\n    tag_238:\n        /* \"#utility.yul\":8184:8247   */\n      swap2\n      pop\n        /* \"#utility.yul\":8139:8257   */\n      pop\n        /* \"#utility.yul\":7499:8264   */\n      swap3\n      swap6\n      swap2\n      swap5\n      pop\n      swap3\n      pop\n      jump\t// out\n        /* \"#utility.yul\":8270:8602   */\n    tag_49:\n        /* \"#utility.yul\":8391:8395   */\n      0x00\n        /* \"#utility.yul\":8429:8431   */\n      0x40\n        /* \"#utility.yul\":8418:8427   */\n      dup3\n        /* \"#utility.yul\":8414:8432   */\n      add\n        /* \"#utility.yul\":8406:8432   */\n      swap1\n      pop\n        /* \"#utility.yul\":8442:8513   */\n      tag_240\n        /* \"#utility.yul\":8510:8511   */\n      0x00\n        /* \"#utility.yul\":8499:8508   */\n      dup4\n        /* \"#utility.yul\":8495:8512   */\n      add\n        /* \"#utility.yul\":8486:8492   */\n      dup6\n        /* \"#utility.yul\":8442:8513   */\n      tag_132\n      jump\t// in\n    tag_240:\n        /* \"#utility.yul\":8523:8595   */\n      tag_241\n        /* \"#utility.yul\":8591:8593   */\n      0x20\n        /* \"#utility.yul\":8580:8589   */\n      dup4\n        /* \"#utility.yul\":8576:8594   */\n      add\n        /* \"#utility.yul\":8567:8573   */\n      dup5\n        /* \"#utility.yul\":8523:8595   */\n      tag_133\n      jump\t// in\n    tag_241:\n        /* \"#utility.yul\":8270:8602   */\n      swap4\n      swap3\n      pop\n      pop\n      pop\n      jump\t// out\n        /* \"#utility.yul\":8608:8724   */\n    tag_146:\n        /* \"#utility.yul\":8678:8699   */\n      tag_243\n        /* \"#utility.yul\":8693:8698   */\n      dup2\n        /* \"#utility.yul\":8678:8699   */\n      tag_134\n      jump\t// in\n    tag_243:\n        /* \"#utility.yul\":8671:8676   */\n      dup2\n        /* \"#utility.yul\":8668:8700   */\n      eq\n        /* \"#utility.yul\":8658:8718   */\n      tag_244\n      jumpi\n        /* \"#utility.yul\":8714:8715   */\n      0x00\n        /* \"#utility.yul\":8711:8712   */\n      0x00\n        /* \"#utility.yul\":8704:8716   */\n      revert\n        /* \"#utility.yul\":8658:8718   */\n    tag_244:\n        /* \"#utility.yul\":8608:8724   */\n      pop\n      jump\t// out\n        /* \"#utility.yul\":8730:8867   */\n    tag_147:\n        /* \"#utility.yul\":8784:8789   */\n      0x00\n        /* \"#utility.yul\":8815:8821   */\n      dup2\n        /* \"#utility.yul\":8809:8822   */\n      mload\n        /* \"#utility.yul\":8800:8822   */\n      swap1\n      pop\n        /* \"#utility.yul\":8831:8861   */\n      tag_246\n        /* \"#utility.yul\":8855:8860   */\n      dup2\n        /* \"#utility.yul\":8831:8861   */\n      tag_146\n      jump\t// in\n    tag_246:\n        /* \"#utility.yul\":8730:8867   */\n      swap3\n      swap2\n      pop\n      pop\n      jump\t// out\n        /* \"#utility.yul\":8873:9218   */\n    tag_53:\n        /* \"#utility.yul\":8940:8946   */\n      0x00\n        /* \"#utility.yul\":8989:8991   */\n      0x20\n        /* \"#utility.yul\":8977:8986   */\n      dup3\n        /* \"#utility.yul\":8968:8975   */\n      dup5\n        /* \"#utility.yul\":8964:8987   */\n      sub\n        /* \"#utility.yul\":8960:8992   */\n      slt\n        /* \"#utility.yul\":8957:9076   */\n      iszero\n      tag_248\n      jumpi\n        /* \"#utility.yul\":8995:9074   */\n      tag_249\n      tag_123\n      jump\t// in\n    tag_249:\n        /* \"#utility.yul\":8957:9076   */\n    tag_248:\n        /* \"#utility.yul\":9115:9116   */\n      0x00\n        /* \"#utility.yul\":9140:9201   */\n      tag_250\n        /* \"#utility.yul\":9193:9200   */\n      dup5\n        /* \"#utility.yul\":9184:9190   */\n      dup3\n        /* \"#utility.yul\":9173:9182   */\n      dup6\n        /* \"#utility.yul\":9169:9191   */\n      add\n        /* \"#utility.yul\":9140:9201   */\n      tag_147\n      jump\t// in\n    tag_250:\n        /* \"#utility.yul\":9130:9201   */\n      swap2\n      pop\n        /* \"#utility.yul\":9086:9211   */\n      pop\n        /* \"#utility.yul\":8873:9218   */\n      swap3\n      swap2\n      pop\n      pop\n      jump\t// out\n        /* \"#utility.yul\":9224:9393   */\n    tag_148:\n        /* \"#utility.yul\":9308:9319   */\n      0x00\n        /* \"#utility.yul\":9342:9348   */\n      dup3\n        /* \"#utility.yul\":9337:9340   */\n      dup3\n        /* \"#utility.yul\":9330:9349   */\n      mstore\n        /* \"#utility.yul\":9382:9386   */\n      0x20\n        /* \"#utility.yul\":9377:9380   */\n      dup3\n        /* \"#utility.yul\":9373:9387   */\n      add\n        /* \"#utility.yul\":9358:9387   */\n      swap1\n      pop\n        /* \"#utility.yul\":9224:9393   */\n      swap3\n      swap2\n      pop\n      pop\n      jump\t// out\n        /* \"#utility.yul\":9399:9567   */\n    tag_149:\n        /* \"#utility.yul\":9539:9559   */\n      0x496e76616c6964206c6f616e20696e6465780000000000000000000000000000\n        /* \"#utility.yul\":9535:9536   */\n      0x00\n        /* \"#utility.yul\":9527:9533   */\n      dup3\n        /* \"#utility.yul\":9523:9537   */\n      add\n        /* \"#utility.yul\":9516:9560   */\n      mstore\n        /* \"#utility.yul\":9399:9567   */\n      pop\n      jump\t// out\n        /* \"#utility.yul\":9573:9939   */\n    tag_150:\n        /* \"#utility.yul\":9715:9718   */\n      0x00\n        /* \"#utility.yul\":9736:9803   */\n      tag_254\n        /* \"#utility.yul\":9800:9802   */\n      0x12\n        /* \"#utility.yul\":9795:9798   */\n      dup4\n        /* \"#utility.yul\":9736:9803   */\n      tag_148\n      jump\t// in\n    tag_254:\n        /* \"#utility.yul\":9729:9803   */\n      swap2\n      pop\n        /* \"#utility.yul\":9812:9905   */\n      tag_255\n        /* \"#utility.yul\":9901:9904   */\n      dup3\n        /* \"#utility.yul\":9812:9905   */\n      tag_149\n      jump\t// in\n    tag_255:\n        /* \"#utility.yul\":9930:9932   */\n      0x20\n        /* \"#utility.yul\":9925:9928   */\n      dup3\n        /* \"#utility.yul\":9921:9933   */\n      add\n        /* \"#utility.yul\":9914:9933   */\n      swap1\n      pop\n        /* \"#utility.yul\":9573:9939   */\n      swap2\n      swap1\n      pop\n      jump\t// out\n        /* \"#utility.yul\":9945:10364   */\n    tag_65:\n        /* \"#utility.yul\":10111:10115   */\n      0x00\n        /* \"#utility.yul\":10149:10151   */\n      0x20\n        /* \"#utility.yul\":10138:10147   */\n      dup3\n        /* \"#utility.yul\":10134:10152   */\n      add\n        /* \"#utility.yul\":10126:10152   */\n      swap1\n      pop\n        /* \"#utility.yul\":10198:10207   */\n      dup2\n        /* \"#utility.yul\":10192:10196   */\n      dup2\n        /* \"#utility.yul\":10188:10208   */\n      sub\n        /* \"#utility.yul\":10184:10185   */\n      0x00\n        /* \"#utility.yul\":10173:10182   */\n      dup4\n        /* \"#utility.yul\":10169:10186   */\n      add\n        /* \"#utility.yul\":10162:10209   */\n      mstore\n        /* \"#utility.yul\":10226:10357   */\n      tag_257\n        /* \"#utility.yul\":10352:10356   */\n      dup2\n        /* \"#utility.yul\":10226:10357   */\n      tag_150\n      jump\t// in\n    tag_257:\n        /* \"#utility.yul\":10218:10357   */\n      swap1\n      pop\n        /* \"#utility.yul\":9945:10364   */\n      swap2\n      swap1\n      pop\n      jump\t// out\n        /* \"#utility.yul\":10370:10550   */\n    tag_68:\n        /* \"#utility.yul\":10418:10495   */\n      0x4e487b7100000000000000000000000000000000000000000000000000000000\n        /* \"#utility.yul\":10415:10416   */\n      0x00\n        /* \"#utility.yul\":10408:10496   */\n      mstore\n        /* \"#utility.yul\":10515:10519   */\n      0x32\n        /* \"#utility.yul\":10512:10513   */\n      0x04\n        /* \"#utility.yul\":10505:10520   */\n      mstore\n        /* \"#utility.yul\":10539:10543   */\n      0x24\n        /* \"#utility.yul\":10536:10537   */\n      0x00\n        /* \"#utility.yul\":10529:10544   */\n      revert\n        /* \"#utility.yul\":10556:10725   */\n    tag_151:\n        /* \"#utility.yul\":10696:10717   */\n      0x4c6f616e20616c72656164792072657061696400000000000000000000000000\n        /* \"#utility.yul\":10692:10693   */\n      0x00\n        /* \"#utility.yul\":10684:10690   */\n      dup3\n        /* \"#utility.yul\":10680:10694   */\n      add\n        /* \"#utility.yul\":10673:10718   */\n      mstore\n        /* \"#utility.yul\":10556:10725   */\n      pop\n      jump\t// out\n        /* \"#utility.yul\":10731:11097   */\n    tag_152:\n        /* \"#utility.yul\":10873:10876   */\n      0x00\n        /* \"#utility.yul\":10894:10961   */\n      tag_261\n        /* \"#utility.yul\":10958:10960   */\n      0x13\n        /* \"#utility.yul\":10953:10956   */\n      dup4\n        /* \"#utility.yul\":10894:10961   */\n      tag_148\n      jump\t// in\n    tag_261:\n        /* \"#utility.yul\":10887:10961   */\n      swap2\n      pop\n        /* \"#utility.yul\":10970:11063   */\n      tag_262\n        /* \"#utility.yul\":11059:11062   */\n      dup3\n        /* \"#utility.yul\":10970:11063   */\n      tag_151\n      jump\t// in\n    tag_262:\n        /* \"#utility.yul\":11088:11090   */\n      0x20\n        /* \"#utility.yul\":11083:11086   */\n      dup3\n        /* \"#utility.yul\":11079:11091   */\n      add\n        /* \"#utility.yul\":11072:11091   */\n      swap1\n      pop\n        /* \"#utility.yul\":10731:11097   */\n      swap2\n      swap1\n      pop\n      jump\t// out\n        /* \"#utility.yul\":11103:11522   */\n    tag_72:\n        /* \"#utility.yul\":11269:11273   */\n      0x00\n        /* \"#utility.yul\":11307:11309   */\n      0x20\n        /* \"#utility.yul\":11296:11305   */\n      dup3\n        /* \"#utility.yul\":11292:11310   */\n      add\n        /* \"#utility.yul\":11284:11310   */\n      swap1\n      pop\n        /* \"#utility.yul\":11356:11365   */\n      dup2\n        /* \"#utility.yul\":11350:11354   */\n      dup2\n        /* \"#utility.yul\":11346:11366   */\n      sub\n        /* \"#utility.yul\":11342:11343   */\n      0x00\n        /* \"#utility.yul\":11331:11340   */\n      dup4\n        /* \"#utility.yul\":11327:11344   */\n      add\n        /* \"#utility.yul\":11320:11367   */\n      mstore\n        /* \"#utility.yul\":11384:11515   */\n      tag_264\n        /* \"#utility.yul\":11510:11514   */\n      dup2\n        /* \"#utility.yul\":11384:11515   */\n      tag_152\n      jump\t// in\n    tag_264:\n        /* \"#utility.yul\":11376:11515   */\n      swap1\n      pop\n        /* \"#utility.yul\":11103:11522   */\n      swap2\n      swap1\n      pop\n      jump\t// out\n        /* \"#utility.yul\":11528:11970   */\n    tag_74:\n        /* \"#utility.yul\":11677:11681   */\n      0x00\n        /* \"#utility.yul\":11715:11717   */\n      0x60\n        /* \"#utility.yul\":11704:11713   */\n      dup3\n        /* \"#utility.yul\":11700:11718   */\n      add\n        /* \"#utility.yul\":11692:11718   */\n      swap1\n      pop\n        /* \"#utility.yul\":11728:11799   */\n      tag_266\n        /* \"#utility.yul\":11796:11797   */\n      0x00\n        /* \"#utility.yul\":11785:11794   */\n      dup4\n        /* \"#utility.yul\":11781:11798   */\n      add\n        /* \"#utility.yul\":11772:11778   */\n      dup7\n        /* \"#utility.yul\":11728:11799   */\n      tag_132\n      jump\t// in\n    tag_266:\n        /* \"#utility.yul\":11809:11881   */\n      tag_267\n        /* \"#utility.yul\":11877:11879   */\n      0x20\n        /* \"#utility.yul\":11866:11875   */\n      dup4\n        /* \"#utility.yul\":11862:11880   */\n      add\n        /* \"#utility.yul\":11853:11859   */\n      dup6\n        /* \"#utility.yul\":11809:11881   */\n      tag_132\n      jump\t// in\n    tag_267:\n        /* \"#utility.yul\":11891:11963   */\n      tag_268\n        /* \"#utility.yul\":11959:11961   */\n      0x40\n        /* \"#utility.yul\":11948:11957   */\n      dup4\n        /* \"#utility.yul\":11944:11962   */\n      add\n        /* \"#utility.yul\":11935:11941   */\n      dup5\n        /* \"#utility.yul\":11891:11963   */\n      tag_133\n      jump\t// in\n    tag_268:\n        /* \"#utility.yul\":11528:11970   */\n      swap5\n      swap4\n      pop\n      pop\n      pop\n      pop\n      jump\t// out\n        /* \"#utility.yul\":11976:12308   */\n    tag_83:\n        /* \"#utility.yul\":12097:12101   */\n      0x00\n        /* \"#utility.yul\":12135:12137   */\n      0x40\n        /* \"#utility.yul\":12124:12133   */\n      dup3\n        /* \"#utility.yul\":12120:12138   */\n      add\n        /* \"#utility.yul\":12112:12138   */\n      swap1\n      pop\n        /* \"#utility.yul\":12148:12219   */\n      tag_270\n        /* \"#utility.yul\":12216:12217   */\n      0x00\n        /* \"#utility.yul\":12205:12214   */\n      dup4\n        /* \"#utility.yul\":12201:12218   */\n      add\n        /* \"#utility.yul\":12192:12198   */\n      dup6\n        /* \"#utility.yul\":12148:12219   */\n      tag_133\n      jump\t// in\n    tag_270:\n        /* \"#utility.yul\":12229:12301   */\n      tag_271\n        /* \"#utility.yul\":12297:12299   */\n      0x20\n        /* \"#utility.yul\":12286:12295   */\n      dup4\n        /* \"#utility.yul\":12282:12300   */\n      add\n        /* \"#utility.yul\":12273:12279   */\n      dup5\n        /* \"#utility.yul\":12229:12301   */\n      tag_132\n      jump\t// in\n    tag_271:\n        /* \"#utility.yul\":11976:12308   */\n      swap4\n      swap3\n      pop\n      pop\n      pop\n      jump\t// out\n        /* \"#utility.yul\":12314:12541   */\n    tag_153:\n        /* \"#utility.yul\":12454:12488   */\n      0x436f6c6c61746572616c20616d6f756e74206d75737420626520677265617465\n        /* \"#utility.yul\":12450:12451   */\n      0x00\n        /* \"#utility.yul\":12442:12448   */\n      dup3\n        /* \"#utility.yul\":12438:12452   */\n      add\n        /* \"#utility.yul\":12431:12489   */\n      mstore\n        /* \"#utility.yul\":12523:12533   */\n      0x72207468616e2030000000000000000000000000000000000000000000000000\n        /* \"#utility.yul\":12518:12520   */\n      0x20\n        /* \"#utility.yul\":12510:12516   */\n      dup3\n        /* \"#utility.yul\":12506:12521   */\n      add\n        /* \"#utility.yul\":12499:12534   */\n      mstore\n        /* \"#utility.yul\":12314:12541   */\n      pop\n      jump\t// out\n        /* \"#utility.yul\":12547:12913   */\n    tag_154:\n        /* \"#utility.yul\":12689:12692   */\n      0x00\n        /* \"#utility.yul\":12710:12777   */\n      tag_274\n        /* \"#utility.yul\":12774:12776   */\n      0x28\n        /* \"#utility.yul\":12769:12772   */\n      dup4\n        /* \"#utility.yul\":12710:12777   */\n      tag_148\n      jump\t// in\n    tag_274:\n        /* \"#utility.yul\":12703:12777   */\n      swap2\n      pop\n        /* \"#utility.yul\":12786:12879   */\n      tag_275\n        /* \"#utility.yul\":12875:12878   */\n      dup3\n        /* \"#utility.yul\":12786:12879   */\n      tag_153\n      jump\t// in\n    tag_275:\n        /* \"#utility.yul\":12904:12906   */\n      0x40\n        /* \"#utility.yul\":12899:12902   */\n      dup3\n        /* \"#utility.yul\":12895:12907   */\n      add\n        /* \"#utility.yul\":12888:12907   */\n      swap1\n      pop\n        /* \"#utility.yul\":12547:12913   */\n      swap2\n      swap1\n      pop\n      jump\t// out\n        /* \"#utility.yul\":12919:13338   */\n    tag_92:\n        /* \"#utility.yul\":13085:13089   */\n      0x00\n        /* \"#utility.yul\":13123:13125   */\n      0x20\n        /* \"#utility.yul\":13112:13121   */\n      dup3\n        /* \"#utility.yul\":13108:13126   */\n      add\n        /* \"#utility.yul\":13100:13126   */\n      swap1\n      pop\n        /* \"#utility.yul\":13172:13181   */\n      dup2\n        /* \"#utility.yul\":13166:13170   */\n      dup2\n        /* \"#utility.yul\":13162:13182   */\n      sub\n        /* \"#utility.yul\":13158:13159   */\n      0x00\n        /* \"#utility.yul\":13147:13156   */\n      dup4\n        /* \"#utility.yul\":13143:13160   */\n      add\n        /* \"#utility.yul\":13136:13183   */\n      mstore\n        /* \"#utility.yul\":13200:13331   */\n      tag_277\n        /* \"#utility.yul\":13326:13330   */\n      dup2\n        /* \"#utility.yul\":13200:13331   */\n      tag_154\n      jump\t// in\n    tag_277:\n        /* \"#utility.yul\":13192:13331   */\n      swap1\n      pop\n        /* \"#utility.yul\":12919:13338   */\n      swap2\n      swap1\n      pop\n      jump\t// out\n        /* \"#utility.yul\":13344:13565   */\n    tag_155:\n        /* \"#utility.yul\":13484:13518   */\n      0x4c6f616e20616d6f756e74206d7573742062652067726561746572207468616e\n        /* \"#utility.yul\":13480:13481   */\n      0x00\n        /* \"#utility.yul\":13472:13478   */\n      dup3\n        /* \"#utility.yul\":13468:13482   */\n      add\n        /* \"#utility.yul\":13461:13519   */\n      mstore\n        /* \"#utility.yul\":13553:13557   */\n      0x2030000000000000000000000000000000000000000000000000000000000000\n        /* \"#utility.yul\":13548:13550   */\n      0x20\n        /* \"#utility.yul\":13540:13546   */\n      dup3\n        /* \"#utility.yul\":13536:13551   */\n      add\n        /* \"#utility.yul\":13529:13558   */\n      mstore\n        /* \"#utility.yul\":13344:13565   */\n      pop\n      jump\t// out\n        /* \"#utility.yul\":13571:13937   */\n    tag_156:\n        /* \"#utility.yul\":13713:13716   */\n      0x00\n        /* \"#utility.yul\":13734:13801   */\n      tag_280\n        /* \"#utility.yul\":13798:13800   */\n      0x22\n        /* \"#utility.yul\":13793:13796   */\n      dup4\n        /* \"#utility.yul\":13734:13801   */\n      tag_148\n      jump\t// in\n    tag_280:\n        /* \"#utility.yul\":13727:13801   */\n      swap2\n      pop\n        /* \"#utility.yul\":13810:13903   */\n      tag_281\n        /* \"#utility.yul\":13899:13902   */\n      dup3\n        /* \"#utility.yul\":13810:13903   */\n      tag_155\n      jump\t// in\n    tag_281:\n        /* \"#utility.yul\":13928:13930   */\n      0x40\n        /* \"#utility.yul\":13923:13926   */\n      dup3\n        /* \"#utility.yul\":13919:13931   */\n      add\n        /* \"#utility.yul\":13912:13931   */\n      swap1\n      pop\n        /* \"#utility.yul\":13571:13937   */\n      swap2\n      swap1\n      pop\n      jump\t// out\n        /* \"#utility.yul\":13943:14362   */\n    tag_95:\n        /* \"#utility.yul\":14109:14113   */\n      0x00\n        /* \"#utility.yul\":14147:14149   */\n      0x20\n        /* \"#utility.yul\":14136:14145   */\n      dup3\n        /* \"#utility.yul\":14132:14150   */\n      add\n        /* \"#utility.yul\":14124:14150   */\n      swap1\n      pop\n        /* \"#utility.yul\":14196:14205   */\n      dup2\n        /* \"#utility.yul\":14190:14194   */\n      dup2\n        /* \"#utility.yul\":14186:14206   */\n      sub\n        /* \"#utility.yul\":14182:14183   */\n      0x00\n        /* \"#utility.yul\":14171:14180   */\n      dup4\n        /* \"#utility.yul\":14167:14184   */\n      add\n        /* \"#utility.yul\":14160:14207   */\n      mstore\n        /* \"#utility.yul\":14224:14355   */\n      tag_283\n        /* \"#utility.yul\":14350:14354   */\n      dup2\n        /* \"#utility.yul\":14224:14355   */\n      tag_156\n      jump\t// in\n    tag_283:\n        /* \"#utility.yul\":14216:14355   */\n      swap1\n      pop\n        /* \"#utility.yul\":13943:14362   */\n      swap2\n      swap1\n      pop\n      jump\t// out\n\n    auxdata: 0xa2646970667358221220c8dc4ddfab39100a78d99e593e95bd6d0b3049e445aaa7195185f13970c472d664736f6c634300081c0033\n}\n",
				"bytecode": {
					"linkReferences": {},
					"object": "608060405234801561000f575f5ffd5b50335f73ffffffffffffffffffffffffffffffffffffffff168173ffffffffffffffffffffffffffffffffffffffff1603610081575f6040517f1e4fbdf70000000000000000000000000000000000000000000000000000000081526004016100789190610196565b60405180910390fd5b6100908161009660201b60201c565b506101af565b5f5f5f9054906101000a900473ffffffffffffffffffffffffffffffffffffffff169050815f5f6101000a81548173ffffffffffffffffffffffffffffffffffffffff021916908373ffffffffffffffffffffffffffffffffffffffff1602179055508173ffffffffffffffffffffffffffffffffffffffff168173ffffffffffffffffffffffffffffffffffffffff167f8be0079c531659141344cd1fd0a4f28419497f9722a3daafe3b4186f6b6457e060405160405180910390a35050565b5f73ffffffffffffffffffffffffffffffffffffffff82169050919050565b5f61018082610157565b9050919050565b61019081610176565b82525050565b5f6020820190506101a95f830184610187565b92915050565b611403806101bc5f395ff3fe608060405234801561000f575f5ffd5b5060043610610086575f3560e01c8063ab7b1c8911610059578063ab7b1c8914610102578063d988ef201461011e578063e7153a7c1461014e578063f2fde38b1461016a57610086565b806306b091f91461008a578063715018a6146100a65780638da5cb5b146100b057806398c61c37146100ce575b5f5ffd5b6100a4600480360381019061009f9190610dd7565b610186565b005b6100ae61020e565b005b6100b8610221565b6040516100c59190610e24565b60405180910390f35b6100e860048036038101906100e39190610dd7565b610248565b6040516100f9959493929190610e66565b60405180910390f35b61011c60048036038101906101179190610eb7565b6102df565b005b61013860048036038101906101339190610ee2565b610666565b6040516101459190611048565b60405180910390f35b61016860048036038101906101639190611068565b6107d7565b005b610184600480360381019061017f9190610ee2565b610b73565b005b61018e610bf7565b8173ffffffffffffffffffffffffffffffffffffffff1663a9059cbb33836040518363ffffffff1660e01b81526004016101c99291906110cc565b6020604051808303815f875af11580156101e5573d5f5f3e3d5ffd5b505050506040513d601f19601f82011682018060405250810190610209919061111d565b505050565b610216610bf7565b61021f5f610c7e565b565b5f5f5f9054906101000a900473ffffffffffffffffffffffffffffffffffffffff16905090565b6001602052815f5260405f208181548110610261575f80fd5b905f5260205f2090600402015f9150915050805f015490806001015490806002015f9054906101000a900473ffffffffffffffffffffffffffffffffffffffff1690806003015f9054906101000a900473ffffffffffffffffffffffffffffffffffffffff16908060030160149054906101000a900460ff16905085565b60015f3373ffffffffffffffffffffffffffffffffffffffff1673ffffffffffffffffffffffffffffffffffffffff1681526020019081526020015f20805490508110610361576040517f08c379a0000000000000000000000000000000000000000000000000000000008152600401610358906111a2565b60405180910390fd5b5f60015f3373ffffffffffffffffffffffffffffffffffffffff1673ffffffffffffffffffffffffffffffffffffffff1681526020019081526020015f2082815481106103b1576103b06111c0565b5b905f5260205f20906004020190508060030160149054906101000a900460ff1615610411576040517f08c379a000000000000000000000000000000000000000000000000000000000815260040161040890611237565b60405180910390fd5b806003015f9054906101000a900473ffffffffffffffffffffffffffffffffffffffff1673ffffffffffffffffffffffffffffffffffffffff166323b872dd333084600101546040518463ffffffff1660e01b815260040161047593929190611255565b6020604051808303815f875af1158015610491573d5f5f3e3d5ffd5b505050506040513d601f19601f820116820180604052508101906104b5919061111d565b50806002015f9054906101000a900473ffffffffffffffffffffffffffffffffffffffff1673ffffffffffffffffffffffffffffffffffffffff1663a9059cbb33835f01546040518363ffffffff1660e01b81526004016105179291906110cc565b6020604051808303815f875af1158015610533573d5f5f3e3d5ffd5b505050506040513d601f19601f82011682018060405250810190610557919061111d565b5060018160030160146101000a81548160ff0219169083151502179055503373ffffffffffffffffffffffffffffffffffffffff167f0d92e40293701683f5207fc6802754aaddf166e5f5da04d1077d8d55fefb61b08260010154836003015f9054906101000a900473ffffffffffffffffffffffffffffffffffffffff166040516105e492919061128a565b60405180910390a23373ffffffffffffffffffffffffffffffffffffffff167f887eb7234a2c4fa94c5778832c90928b2ce458cfee0053ed170baa8cde476fb5825f0154836002015f9054906101000a900473ffffffffffffffffffffffffffffffffffffffff1660405161065a92919061128a565b60405180910390a25050565b606060015f8373ffffffffffffffffffffffffffffffffffffffff1673ffffffffffffffffffffffffffffffffffffffff1681526020019081526020015f20805480602002602001604051908101604052809291908181526020015f905b828210156107cc578382905f5260205f2090600402016040518060a00160405290815f820154815260200160018201548152602001600282015f9054906101000a900473ffffffffffffffffffffffffffffffffffffffff1673ffffffffffffffffffffffffffffffffffffffff1673ffffffffffffffffffffffffffffffffffffffff168152602001600382015f9054906101000a900473ffffffffffffffffffffffffffffffffffffffff1673ffffffffffffffffffffffffffffffffffffffff1673ffffffffffffffffffffffffffffffffffffffff1681526020016003820160149054906101000a900460ff161515151581525050815260200190600101906106c4565b505050509050919050565b5f8411610819576040517f08c379a000000000000000000000000000000000000000000000000000000000815260040161081090611321565b60405180910390fd5b5f821161085b576040517f08c379a0000000000000000000000000000000000000000000000000000000008152600401610852906113af565b60405180910390fd5b8273ffffffffffffffffffffffffffffffffffffffff166323b872dd3330876040518463ffffffff1660e01b815260040161089893929190611255565b6020604051808303815f875af11580156108b4573d5f5f3e3d5ffd5b505050506040513d601f19601f820116820180604052508101906108d8919061111d565b508073ffffffffffffffffffffffffffffffffffffffff1663a9059cbb33846040518363ffffffff1660e01b81526004016109149291906110cc565b6020604051808303815f875af1158015610930573d5f5f3e3d5ffd5b505050506040513d601f19601f82011682018060405250810190610954919061111d565b5060015f3373ffffffffffffffffffffffffffffffffffffffff1673ffffffffffffffffffffffffffffffffffffffff1681526020019081526020015f206040518060a001604052808681526020018481526020018573ffffffffffffffffffffffffffffffffffffffff1681526020018373ffffffffffffffffffffffffffffffffffffffff1681526020015f1515815250908060018154018082558091505060019003905f5260205f2090600402015f909190919091505f820151815f0155602082015181600101556040820151816002015f6101000a81548173ffffffffffffffffffffffffffffffffffffffff021916908373ffffffffffffffffffffffffffffffffffffffff1602179055506060820151816003015f6101000a81548173ffffffffffffffffffffffffffffffffffffffff021916908373ffffffffffffffffffffffffffffffffffffffff16021790555060808201518160030160146101000a81548160ff02191690831515021790555050503373ffffffffffffffffffffffffffffffffffffffff167f56b60085244fe1afa467f92231debadc8bcb6127e9dbf35dbb58ca8406a423fe8585604051610b1592919061128a565b60405180910390a23373ffffffffffffffffffffffffffffffffffffffff167fe5024716f30be6e51e2a7cc6145e6659cd5bdb7a0c451e22b7e9d39c9b5f03ac8383604051610b6592919061128a565b60405180910390a250505050565b610b7b610bf7565b5f73ffffffffffffffffffffffffffffffffffffffff168173ffffffffffffffffffffffffffffffffffffffff1603610beb575f6040517f1e4fbdf7000000000000000000000000000000000000000000000000000000008152600401610be29190610e24565b60405180910390fd5b610bf481610c7e565b50565b610bff610d3f565b73ffffffffffffffffffffffffffffffffffffffff16610c1d610221565b73ffffffffffffffffffffffffffffffffffffffff1614610c7c57610c40610d3f565b6040517f118cdaa7000000000000000000000000000000000000000000000000000000008152600401610c739190610e24565b60405180910390fd5b565b5f5f5f9054906101000a900473ffffffffffffffffffffffffffffffffffffffff169050815f5f6101000a81548173ffffffffffffffffffffffffffffffffffffffff021916908373ffffffffffffffffffffffffffffffffffffffff1602179055508173ffffffffffffffffffffffffffffffffffffffff168173ffffffffffffffffffffffffffffffffffffffff167f8be0079c531659141344cd1fd0a4f28419497f9722a3daafe3b4186f6b6457e060405160405180910390a35050565b5f33905090565b5f5ffd5b5f73ffffffffffffffffffffffffffffffffffffffff82169050919050565b5f610d7382610d4a565b9050919050565b610d8381610d69565b8114610d8d575f5ffd5b50565b5f81359050610d9e81610d7a565b92915050565b5f819050919050565b610db681610da4565b8114610dc0575f5ffd5b50565b5f81359050610dd181610dad565b92915050565b5f5f60408385031215610ded57610dec610d46565b5b5f610dfa85828601610d90565b9250506020610e0b85828601610dc3565b9150509250929050565b610e1e81610d69565b82525050565b5f602082019050610e375f830184610e15565b92915050565b610e4681610da4565b82525050565b5f8115159050919050565b610e6081610e4c565b82525050565b5f60a082019050610e795f830188610e3d565b610e866020830187610e3d565b610e936040830186610e15565b610ea06060830185610e15565b610ead6080830184610e57565b9695505050505050565b5f60208284031215610ecc57610ecb610d46565b5b5f610ed984828501610dc3565b91505092915050565b5f60208284031215610ef757610ef6610d46565b5b5f610f0484828501610d90565b91505092915050565b5f81519050919050565b5f82825260208201905092915050565b5f819050602082019050919050565b610f3f81610da4565b82525050565b610f4e81610d69565b82525050565b610f5d81610e4c565b82525050565b60a082015f820151610f775f850182610f36565b506020820151610f8a6020850182610f36565b506040820151610f9d6040850182610f45565b506060820151610fb06060850182610f45565b506080820151610fc36080850182610f54565b50505050565b5f610fd48383610f63565b60a08301905092915050565b5f602082019050919050565b5f610ff682610f0d565b6110008185610f17565b935061100b83610f27565b805f5b8381101561103b5781516110228882610fc9565b975061102d83610fe0565b92505060018101905061100e565b5085935050505092915050565b5f6020820190508181035f8301526110608184610fec565b905092915050565b5f5f5f5f608085870312156110805761107f610d46565b5b5f61108d87828801610dc3565b945050602061109e87828801610d90565b93505060406110af87828801610dc3565b92505060606110c087828801610d90565b91505092959194509250565b5f6040820190506110df5f830185610e15565b6110ec6020830184610e3d565b9392505050565b6110fc81610e4c565b8114611106575f5ffd5b50565b5f81519050611117816110f3565b92915050565b5f6020828403121561113257611131610d46565b5b5f61113f84828501611109565b91505092915050565b5f82825260208201905092915050565b7f496e76616c6964206c6f616e20696e64657800000000000000000000000000005f82015250565b5f61118c601283611148565b915061119782611158565b602082019050919050565b5f6020820190508181035f8301526111b981611180565b9050919050565b7f4e487b71000000000000000000000000000000000000000000000000000000005f52603260045260245ffd5b7f4c6f616e20616c726561647920726570616964000000000000000000000000005f82015250565b5f611221601383611148565b915061122c826111ed565b602082019050919050565b5f6020820190508181035f83015261124e81611215565b9050919050565b5f6060820190506112685f830186610e15565b6112756020830185610e15565b6112826040830184610e3d565b949350505050565b5f60408201905061129d5f830185610e3d565b6112aa6020830184610e15565b9392505050565b7f436f6c6c61746572616c20616d6f756e74206d757374206265206772656174655f8201527f72207468616e2030000000000000000000000000000000000000000000000000602082015250565b5f61130b602883611148565b9150611316826112b1565b604082019050919050565b5f6020820190508181035f830152611338816112ff565b9050919050565b7f4c6f616e20616d6f756e74206d7573742062652067726561746572207468616e5f8201527f2030000000000000000000000000000000000000000000000000000000000000602082015250565b5f611399602283611148565b91506113a48261133f565b604082019050919050565b5f6020820190508181035f8301526113c68161138d565b905091905056fea2646970667358221220c8dc4ddfab39100a78d99e593e95bd6d0b3049e445aaa7195185f13970c472d664736f6c634300081c0033",
					"opcodes": "PUSH1 0x80 PUSH1 0x40 MSTORE CALLVALUE DUP1 ISZERO PUSH2 0xF JUMPI PUSH0 PUSH0 REVERT JUMPDEST POP CALLER PUSH0 PUSH20 0xFFFFFFFFFFFFFFFFFFFFFFFFFFFFFFFFFFFFFFFF AND DUP2 PUSH20 0xFFFFFFFFFFFFFFFFFFFFFFFFFFFFFFFFFFFFFFFF AND SUB PUSH2 0x81 JUMPI PUSH0 PUSH1 0x40 MLOAD PUSH32 0x1E4FBDF700000000000000000000000000000000000000000000000000000000 DUP2 MSTORE PUSH1 0x4 ADD PUSH2 0x78 SWAP2 SWAP1 PUSH2 0x196 JUMP JUMPDEST PUSH1 0x40 MLOAD DUP1 SWAP2 SUB SWAP1 REVERT JUMPDEST PUSH2 0x90 DUP2 PUSH2 0x96 PUSH1 0x20 SHL PUSH1 0x20 SHR JUMP JUMPDEST POP PUSH2 0x1AF JUMP JUMPDEST PUSH0 PUSH0 PUSH0 SWAP1 SLOAD SWAP1 PUSH2 0x100 EXP SWAP1 DIV PUSH20 0xFFFFFFFFFFFFFFFFFFFFFFFFFFFFFFFFFFFFFFFF AND SWAP1 POP DUP2 PUSH0 PUSH0 PUSH2 0x100 EXP DUP2 SLOAD DUP2 PUSH20 0xFFFFFFFFFFFFFFFFFFFFFFFFFFFFFFFFFFFFFFFF MUL NOT AND SWAP1 DUP4 PUSH20 0xFFFFFFFFFFFFFFFFFFFFFFFFFFFFFFFFFFFFFFFF AND MUL OR SWAP1 SSTORE POP DUP2 PUSH20 0xFFFFFFFFFFFFFFFFFFFFFFFFFFFFFFFFFFFFFFFF AND DUP2 PUSH20 0xFFFFFFFFFFFFFFFFFFFFFFFFFFFFFFFFFFFFFFFF AND PUSH32 0x8BE0079C531659141344CD1FD0A4F28419497F9722A3DAAFE3B4186F6B6457E0 PUSH1 0x40 MLOAD PUSH1 0x40 MLOAD DUP1 SWAP2 SUB SWAP1 LOG3 POP POP JUMP JUMPDEST PUSH0 PUSH20 0xFFFFFFFFFFFFFFFFFFFFFFFFFFFFFFFFFFFFFFFF DUP3 AND SWAP1 POP SWAP2 SWAP1 POP JUMP JUMPDEST PUSH0 PUSH2 0x180 DUP3 PUSH2 0x157 JUMP JUMPDEST SWAP1 POP SWAP2 SWAP1 POP JUMP JUMPDEST PUSH2 0x190 DUP2 PUSH2 0x176 JUMP JUMPDEST DUP3 MSTORE POP POP JUMP JUMPDEST PUSH0 PUSH1 0x20 DUP3 ADD SWAP1 POP PUSH2 0x1A9 PUSH0 DUP4 ADD DUP5 PUSH2 0x187 JUMP JUMPDEST SWAP3 SWAP2 POP POP JUMP JUMPDEST PUSH2 0x1403 DUP1 PUSH2 0x1BC PUSH0 CODECOPY PUSH0 RETURN INVALID PUSH1 0x80 PUSH1 0x40 MSTORE CALLVALUE DUP1 ISZERO PUSH2 0xF JUMPI PUSH0 PUSH0 REVERT JUMPDEST POP PUSH1 0x4 CALLDATASIZE LT PUSH2 0x86 JUMPI PUSH0 CALLDATALOAD PUSH1 0xE0 SHR DUP1 PUSH4 0xAB7B1C89 GT PUSH2 0x59 JUMPI DUP1 PUSH4 0xAB7B1C89 EQ PUSH2 0x102 JUMPI DUP1 PUSH4 0xD988EF20 EQ PUSH2 0x11E JUMPI DUP1 PUSH4 0xE7153A7C EQ PUSH2 0x14E JUMPI DUP1 PUSH4 0xF2FDE38B EQ PUSH2 0x16A JUMPI PUSH2 0x86 JUMP JUMPDEST DUP1 PUSH4 0x6B091F9 EQ PUSH2 0x8A JUMPI DUP1 PUSH4 0x715018A6 EQ PUSH2 0xA6 JUMPI DUP1 PUSH4 0x8DA5CB5B EQ PUSH2 0xB0 JUMPI DUP1 PUSH4 0x98C61C37 EQ PUSH2 0xCE JUMPI JUMPDEST PUSH0 PUSH0 REVERT JUMPDEST PUSH2 0xA4 PUSH1 0x4 DUP1 CALLDATASIZE SUB DUP2 ADD SWAP1 PUSH2 0x9F SWAP2 SWAP1 PUSH2 0xDD7 JUMP JUMPDEST PUSH2 0x186 JUMP JUMPDEST STOP JUMPDEST PUSH2 0xAE PUSH2 0x20E JUMP JUMPDEST STOP JUMPDEST PUSH2 0xB8 PUSH2 0x221 JUMP JUMPDEST PUSH1 0x40 MLOAD PUSH2 0xC5 SWAP2 SWAP1 PUSH2 0xE24 JUMP JUMPDEST PUSH1 0x40 MLOAD DUP1 SWAP2 SUB SWAP1 RETURN JUMPDEST PUSH2 0xE8 PUSH1 0x4 DUP1 CALLDATASIZE SUB DUP2 ADD SWAP1 PUSH2 0xE3 SWAP2 SWAP1 PUSH2 0xDD7 JUMP JUMPDEST PUSH2 0x248 JUMP JUMPDEST PUSH1 0x40 MLOAD PUSH2 0xF9 SWAP6 SWAP5 SWAP4 SWAP3 SWAP2 SWAP1 PUSH2 0xE66 JUMP JUMPDEST PUSH1 0x40 MLOAD DUP1 SWAP2 SUB SWAP1 RETURN JUMPDEST PUSH2 0x11C PUSH1 0x4 DUP1 CALLDATASIZE SUB DUP2 ADD SWAP1 PUSH2 0x117 SWAP2 SWAP1 PUSH2 0xEB7 JUMP JUMPDEST PUSH2 0x2DF JUMP JUMPDEST STOP JUMPDEST PUSH2 0x138 PUSH1 0x4 DUP1 CALLDATASIZE SUB DUP2 ADD SWAP1 PUSH2 0x133 SWAP2 SWAP1 PUSH2 0xEE2 JUMP JUMPDEST PUSH2 0x666 JUMP JUMPDEST PUSH1 0x40 MLOAD PUSH2 0x145 SWAP2 SWAP1 PUSH2 0x1048 JUMP JUMPDEST PUSH1 0x40 MLOAD DUP1 SWAP2 SUB SWAP1 RETURN JUMPDEST PUSH2 0x168 PUSH1 0x4 DUP1 CALLDATASIZE SUB DUP2 ADD SWAP1 PUSH2 0x163 SWAP2 SWAP1 PUSH2 0x1068 JUMP JUMPDEST PUSH2 0x7D7 JUMP JUMPDEST STOP JUMPDEST PUSH2 0x184 PUSH1 0x4 DUP1 CALLDATASIZE SUB DUP2 ADD SWAP1 PUSH2 0x17F SWAP2 SWAP1 PUSH2 0xEE2 JUMP JUMPDEST PUSH2 0xB73 JUMP JUMPDEST STOP JUMPDEST PUSH2 0x18E PUSH2 0xBF7 JUMP JUMPDEST DUP2 PUSH20 0xFFFFFFFFFFFFFFFFFFFFFFFFFFFFFFFFFFFFFFFF AND PUSH4 0xA9059CBB CALLER DUP4 PUSH1 0x40 MLOAD DUP4 PUSH4 0xFFFFFFFF AND PUSH1 0xE0 SHL DUP2 MSTORE PUSH1 0x4 ADD PUSH2 0x1C9 SWAP3 SWAP2 SWAP1 PUSH2 0x10CC JUMP JUMPDEST PUSH1 0x20 PUSH1 0x40 MLOAD DUP1 DUP4 SUB DUP2 PUSH0 DUP8 GAS CALL ISZERO DUP1 ISZERO PUSH2 0x1E5 JUMPI RETURNDATASIZE PUSH0 PUSH0 RETURNDATACOPY RETURNDATASIZE PUSH0 REVERT JUMPDEST POP POP POP POP PUSH1 0x40 MLOAD RETURNDATASIZE PUSH1 0x1F NOT PUSH1 0x1F DUP3 ADD AND DUP3 ADD DUP1 PUSH1 0x40 MSTORE POP DUP2 ADD SWAP1 PUSH2 0x209 SWAP2 SWAP1 PUSH2 0x111D JUMP JUMPDEST POP POP POP JUMP JUMPDEST PUSH2 0x216 PUSH2 0xBF7 JUMP JUMPDEST PUSH2 0x21F PUSH0 PUSH2 0xC7E JUMP JUMPDEST JUMP JUMPDEST PUSH0 PUSH0 PUSH0 SWAP1 SLOAD SWAP1 PUSH2 0x100 EXP SWAP1 DIV PUSH20 0xFFFFFFFFFFFFFFFFFFFFFFFFFFFFFFFFFFFFFFFF AND SWAP1 POP SWAP1 JUMP JUMPDEST PUSH1 0x1 PUSH1 0x20 MSTORE DUP2 PUSH0 MSTORE PUSH1 0x40 PUSH0 KECCAK256 DUP2 DUP2 SLOAD DUP2 LT PUSH2 0x261 JUMPI PUSH0 DUP1 REVERT JUMPDEST SWAP1 PUSH0 MSTORE PUSH1 0x20 PUSH0 KECCAK256 SWAP1 PUSH1 0x4 MUL ADD PUSH0 SWAP2 POP SWAP2 POP POP DUP1 PUSH0 ADD SLOAD SWAP1 DUP1 PUSH1 0x1 ADD SLOAD SWAP1 DUP1 PUSH1 0x2 ADD PUSH0 SWAP1 SLOAD SWAP1 PUSH2 0x100 EXP SWAP1 DIV PUSH20 0xFFFFFFFFFFFFFFFFFFFFFFFFFFFFFFFFFFFFFFFF AND SWAP1 DUP1 PUSH1 0x3 ADD PUSH0 SWAP1 SLOAD SWAP1 PUSH2 0x100 EXP SWAP1 DIV PUSH20 0xFFFFFFFFFFFFFFFFFFFFFFFFFFFFFFFFFFFFFFFF AND SWAP1 DUP1 PUSH1 0x3 ADD PUSH1 0x14 SWAP1 SLOAD SWAP1 PUSH2 0x100 EXP SWAP1 DIV PUSH1 0xFF AND SWAP1 POP DUP6 JUMP JUMPDEST PUSH1 0x1 PUSH0 CALLER PUSH20 0xFFFFFFFFFFFFFFFFFFFFFFFFFFFFFFFFFFFFFFFF AND PUSH20 0xFFFFFFFFFFFFFFFFFFFFFFFFFFFFFFFFFFFFFFFF AND DUP2 MSTORE PUSH1 0x20 ADD SWAP1 DUP2 MSTORE PUSH1 0x20 ADD PUSH0 KECCAK256 DUP1 SLOAD SWAP1 POP DUP2 LT PUSH2 0x361 JUMPI PUSH1 0x40 MLOAD PUSH32 0x8C379A000000000000000000000000000000000000000000000000000000000 DUP2 MSTORE PUSH1 0x4 ADD PUSH2 0x358 SWAP1 PUSH2 0x11A2 JUMP JUMPDEST PUSH1 0x40 MLOAD DUP1 SWAP2 SUB SWAP1 REVERT JUMPDEST PUSH0 PUSH1 0x1 PUSH0 CALLER PUSH20 0xFFFFFFFFFFFFFFFFFFFFFFFFFFFFFFFFFFFFFFFF AND PUSH20 0xFFFFFFFFFFFFFFFFFFFFFFFFFFFFFFFFFFFFFFFF AND DUP2 MSTORE PUSH1 0x20 ADD SWAP1 DUP2 MSTORE PUSH1 0x20 ADD PUSH0 KECCAK256 DUP3 DUP2 SLOAD DUP2 LT PUSH2 0x3B1 JUMPI PUSH2 0x3B0 PUSH2 0x11C0 JUMP JUMPDEST JUMPDEST SWAP1 PUSH0 MSTORE PUSH1 0x20 PUSH0 KECCAK256 SWAP1 PUSH1 0x4 MUL ADD SWAP1 POP DUP1 PUSH1 0x3 ADD PUSH1 0x14 SWAP1 SLOAD SWAP1 PUSH2 0x100 EXP SWAP1 DIV PUSH1 0xFF AND ISZERO PUSH2 0x411 JUMPI PUSH1 0x40 MLOAD PUSH32 0x8C379A000000000000000000000000000000000000000000000000000000000 DUP2 MSTORE PUSH1 0x4 ADD PUSH2 0x408 SWAP1 PUSH2 0x1237 JUMP JUMPDEST PUSH1 0x40 MLOAD DUP1 SWAP2 SUB SWAP1 REVERT JUMPDEST DUP1 PUSH1 0x3 ADD PUSH0 SWAP1 SLOAD SWAP1 PUSH2 0x100 EXP SWAP1 DIV PUSH20 0xFFFFFFFFFFFFFFFFFFFFFFFFFFFFFFFFFFFFFFFF AND PUSH20 0xFFFFFFFFFFFFFFFFFFFFFFFFFFFFFFFFFFFFFFFF AND PUSH4 0x23B872DD CALLER ADDRESS DUP5 PUSH1 0x1 ADD SLOAD PUSH1 0x40 MLOAD DUP5 PUSH4 0xFFFFFFFF AND PUSH1 0xE0 SHL DUP2 MSTORE PUSH1 0x4 ADD PUSH2 0x475 SWAP4 SWAP3 SWAP2 SWAP1 PUSH2 0x1255 JUMP JUMPDEST PUSH1 0x20 PUSH1 0x40 MLOAD DUP1 DUP4 SUB DUP2 PUSH0 DUP8 GAS CALL ISZERO DUP1 ISZERO PUSH2 0x491 JUMPI RETURNDATASIZE PUSH0 PUSH0 RETURNDATACOPY RETURNDATASIZE PUSH0 REVERT JUMPDEST POP POP POP POP PUSH1 0x40 MLOAD RETURNDATASIZE PUSH1 0x1F NOT PUSH1 0x1F DUP3 ADD AND DUP3 ADD DUP1 PUSH1 0x40 MSTORE POP DUP2 ADD SWAP1 PUSH2 0x4B5 SWAP2 SWAP1 PUSH2 0x111D JUMP JUMPDEST POP DUP1 PUSH1 0x2 ADD PUSH0 SWAP1 SLOAD SWAP1 PUSH2 0x100 EXP SWAP1 DIV PUSH20 0xFFFFFFFFFFFFFFFFFFFFFFFFFFFFFFFFFFFFFFFF AND PUSH20 0xFFFFFFFFFFFFFFFFFFFFFFFFFFFFFFFFFFFFFFFF AND PUSH4 0xA9059CBB CALLER DUP4 PUSH0 ADD SLOAD PUSH1 0x40 MLOAD DUP4 PUSH4 0xFFFFFFFF AND PUSH1 0xE0 SHL DUP2 MSTORE PUSH1 0x4 ADD PUSH2 0x517 SWAP3 SWAP2 SWAP1 PUSH2 0x10CC JUMP JUMPDEST PUSH1 0x20 PUSH1 0x40 MLOAD DUP1 DUP4 SUB DUP2 PUSH0 DUP8 GAS CALL ISZERO DUP1 ISZERO PUSH2 0x533 JUMPI RETURNDATASIZE PUSH0 PUSH0 RETURNDATACOPY RETURNDATASIZE PUSH0 REVERT JUMPDEST POP POP POP POP PUSH1 0x40 MLOAD RETURNDATASIZE PUSH1 0x1F NOT PUSH1 0x1F DUP3 ADD AND DUP3 ADD DUP1 PUSH1 0x40 MSTORE POP DUP2 ADD SWAP1 PUSH2 0x557 SWAP2 SWAP1 PUSH2 0x111D JUMP JUMPDEST POP PUSH1 0x1 DUP2 PUSH1 0x3 ADD PUSH1 0x14 PUSH2 0x100 EXP DUP2 SLOAD DUP2 PUSH1 0xFF MUL NOT AND SWAP1 DUP4 ISZERO ISZERO MUL OR SWAP1 SSTORE POP CALLER PUSH20 0xFFFFFFFFFFFFFFFFFFFFFFFFFFFFFFFFFFFFFFFF AND PUSH32 0xD92E40293701683F5207FC6802754AADDF166E5F5DA04D1077D8D55FEFB61B0 DUP3 PUSH1 0x1 ADD SLOAD DUP4 PUSH1 0x3 ADD PUSH0 SWAP1 SLOAD SWAP1 PUSH2 0x100 EXP SWAP1 DIV PUSH20 0xFFFFFFFFFFFFFFFFFFFFFFFFFFFFFFFFFFFFFFFF AND PUSH1 0x40 MLOAD PUSH2 0x5E4 SWAP3 SWAP2 SWAP1 PUSH2 0x128A JUMP JUMPDEST PUSH1 0x40 MLOAD DUP1 SWAP2 SUB SWAP1 LOG2 CALLER PUSH20 0xFFFFFFFFFFFFFFFFFFFFFFFFFFFFFFFFFFFFFFFF AND PUSH32 0x887EB7234A2C4FA94C5778832C90928B2CE458CFEE0053ED170BAA8CDE476FB5 DUP3 PUSH0 ADD SLOAD DUP4 PUSH1 0x2 ADD PUSH0 SWAP1 SLOAD SWAP1 PUSH2 0x100 EXP SWAP1 DIV PUSH20 0xFFFFFFFFFFFFFFFFFFFFFFFFFFFFFFFFFFFFFFFF AND PUSH1 0x40 MLOAD PUSH2 0x65A SWAP3 SWAP2 SWAP1 PUSH2 0x128A JUMP JUMPDEST PUSH1 0x40 MLOAD DUP1 SWAP2 SUB SWAP1 LOG2 POP POP JUMP JUMPDEST PUSH1 0x60 PUSH1 0x1 PUSH0 DUP4 PUSH20 0xFFFFFFFFFFFFFFFFFFFFFFFFFFFFFFFFFFFFFFFF AND PUSH20 0xFFFFFFFFFFFFFFFFFFFFFFFFFFFFFFFFFFFFFFFF AND DUP2 MSTORE PUSH1 0x20 ADD SWAP1 DUP2 MSTORE PUSH1 0x20 ADD PUSH0 KECCAK256 DUP1 SLOAD DUP1 PUSH1 0x20 MUL PUSH1 0x20 ADD PUSH1 0x40 MLOAD SWAP1 DUP2 ADD PUSH1 0x40 MSTORE DUP1 SWAP3 SWAP2 SWAP1 DUP2 DUP2 MSTORE PUSH1 0x20 ADD PUSH0 SWAP1 JUMPDEST DUP3 DUP3 LT ISZERO PUSH2 0x7CC JUMPI DUP4 DUP3 SWAP1 PUSH0 MSTORE PUSH1 0x20 PUSH0 KECCAK256 SWAP1 PUSH1 0x4 MUL ADD PUSH1 0x40 MLOAD DUP1 PUSH1 0xA0 ADD PUSH1 0x40 MSTORE SWAP1 DUP2 PUSH0 DUP3 ADD SLOAD DUP2 MSTORE PUSH1 0x20 ADD PUSH1 0x1 DUP3 ADD SLOAD DUP2 MSTORE PUSH1 0x20 ADD PUSH1 0x2 DUP3 ADD PUSH0 SWAP1 SLOAD SWAP1 PUSH2 0x100 EXP SWAP1 DIV PUSH20 0xFFFFFFFFFFFFFFFFFFFFFFFFFFFFFFFFFFFFFFFF AND PUSH20 0xFFFFFFFFFFFFFFFFFFFFFFFFFFFFFFFFFFFFFFFF AND PUSH20 0xFFFFFFFFFFFFFFFFFFFFFFFFFFFFFFFFFFFFFFFF AND DUP2 MSTORE PUSH1 0x20 ADD PUSH1 0x3 DUP3 ADD PUSH0 SWAP1 SLOAD SWAP1 PUSH2 0x100 EXP SWAP1 DIV PUSH20 0xFFFFFFFFFFFFFFFFFFFFFFFFFFFFFFFFFFFFFFFF AND PUSH20 0xFFFFFFFFFFFFFFFFFFFFFFFFFFFFFFFFFFFFFFFF AND PUSH20 0xFFFFFFFFFFFFFFFFFFFFFFFFFFFFFFFFFFFFFFFF AND DUP2 MSTORE PUSH1 0x20 ADD PUSH1 0x3 DUP3 ADD PUSH1 0x14 SWAP1 SLOAD SWAP1 PUSH2 0x100 EXP SWAP1 DIV PUSH1 0xFF AND ISZERO ISZERO ISZERO ISZERO DUP2 MSTORE POP POP DUP2 MSTORE PUSH1 0x20 ADD SWAP1 PUSH1 0x1 ADD SWAP1 PUSH2 0x6C4 JUMP JUMPDEST POP POP POP POP SWAP1 POP SWAP2 SWAP1 POP JUMP JUMPDEST PUSH0 DUP5 GT PUSH2 0x819 JUMPI PUSH1 0x40 MLOAD PUSH32 0x8C379A000000000000000000000000000000000000000000000000000000000 DUP2 MSTORE PUSH1 0x4 ADD PUSH2 0x810 SWAP1 PUSH2 0x1321 JUMP JUMPDEST PUSH1 0x40 MLOAD DUP1 SWAP2 SUB SWAP1 REVERT JUMPDEST PUSH0 DUP3 GT PUSH2 0x85B JUMPI PUSH1 0x40 MLOAD PUSH32 0x8C379A000000000000000000000000000000000000000000000000000000000 DUP2 MSTORE PUSH1 0x4 ADD PUSH2 0x852 SWAP1 PUSH2 0x13AF JUMP JUMPDEST PUSH1 0x40 MLOAD DUP1 SWAP2 SUB SWAP1 REVERT JUMPDEST DUP3 PUSH20 0xFFFFFFFFFFFFFFFFFFFFFFFFFFFFFFFFFFFFFFFF AND PUSH4 0x23B872DD CALLER ADDRESS DUP8 PUSH1 0x40 MLOAD DUP5 PUSH4 0xFFFFFFFF AND PUSH1 0xE0 SHL DUP2 MSTORE PUSH1 0x4 ADD PUSH2 0x898 SWAP4 SWAP3 SWAP2 SWAP1 PUSH2 0x1255 JUMP JUMPDEST PUSH1 0x20 PUSH1 0x40 MLOAD DUP1 DUP4 SUB DUP2 PUSH0 DUP8 GAS CALL ISZERO DUP1 ISZERO PUSH2 0x8B4 JUMPI RETURNDATASIZE PUSH0 PUSH0 RETURNDATACOPY RETURNDATASIZE PUSH0 REVERT JUMPDEST POP POP POP POP PUSH1 0x40 MLOAD RETURNDATASIZE PUSH1 0x1F NOT PUSH1 0x1F DUP3 ADD AND DUP3 ADD DUP1 PUSH1 0x40 MSTORE POP DUP2 ADD SWAP1 PUSH2 0x8D8 SWAP2 SWAP1 PUSH2 0x111D JUMP JUMPDEST POP DUP1 PUSH20 0xFFFFFFFFFFFFFFFFFFFFFFFFFFFFFFFFFFFFFFFF AND PUSH4 0xA9059CBB CALLER DUP5 PUSH1 0x40 MLOAD DUP4 PUSH4 0xFFFFFFFF AND PUSH1 0xE0 SHL DUP2 MSTORE PUSH1 0x4 ADD PUSH2 0x914 SWAP3 SWAP2 SWAP1 PUSH2 0x10CC JUMP JUMPDEST PUSH1 0x20 PUSH1 0x40 MLOAD DUP1 DUP4 SUB DUP2 PUSH0 DUP8 GAS CALL ISZERO DUP1 ISZERO PUSH2 0x930 JUMPI RETURNDATASIZE PUSH0 PUSH0 RETURNDATACOPY RETURNDATASIZE PUSH0 REVERT JUMPDEST POP POP POP POP PUSH1 0x40 MLOAD RETURNDATASIZE PUSH1 0x1F NOT PUSH1 0x1F DUP3 ADD AND DUP3 ADD DUP1 PUSH1 0x40 MSTORE POP DUP2 ADD SWAP1 PUSH2 0x954 SWAP2 SWAP1 PUSH2 0x111D JUMP JUMPDEST POP PUSH1 0x1 PUSH0 CALLER PUSH20 0xFFFFFFFFFFFFFFFFFFFFFFFFFFFFFFFFFFFFFFFF AND PUSH20 0xFFFFFFFFFFFFFFFFFFFFFFFFFFFFFFFFFFFFFFFF AND DUP2 MSTORE PUSH1 0x20 ADD SWAP1 DUP2 MSTORE PUSH1 0x20 ADD PUSH0 KECCAK256 PUSH1 0x40 MLOAD DUP1 PUSH1 0xA0 ADD PUSH1 0x40 MSTORE DUP1 DUP7 DUP2 MSTORE PUSH1 0x20 ADD DUP5 DUP2 MSTORE PUSH1 0x20 ADD DUP6 PUSH20 0xFFFFFFFFFFFFFFFFFFFFFFFFFFFFFFFFFFFFFFFF AND DUP2 MSTORE PUSH1 0x20 ADD DUP4 PUSH20 0xFFFFFFFFFFFFFFFFFFFFFFFFFFFFFFFFFFFFFFFF AND DUP2 MSTORE PUSH1 0x20 ADD PUSH0 ISZERO ISZERO DUP2 MSTORE POP SWAP1 DUP1 PUSH1 0x1 DUP2 SLOAD ADD DUP1 DUP3 SSTORE DUP1 SWAP2 POP POP PUSH1 0x1 SWAP1 SUB SWAP1 PUSH0 MSTORE PUSH1 0x20 PUSH0 KECCAK256 SWAP1 PUSH1 0x4 MUL ADD PUSH0 SWAP1 SWAP2 SWAP1 SWAP2 SWAP1 SWAP2 POP PUSH0 DUP3 ADD MLOAD DUP2 PUSH0 ADD SSTORE PUSH1 0x20 DUP3 ADD MLOAD DUP2 PUSH1 0x1 ADD SSTORE PUSH1 0x40 DUP3 ADD MLOAD DUP2 PUSH1 0x2 ADD PUSH0 PUSH2 0x100 EXP DUP2 SLOAD DUP2 PUSH20 0xFFFFFFFFFFFFFFFFFFFFFFFFFFFFFFFFFFFFFFFF MUL NOT AND SWAP1 DUP4 PUSH20 0xFFFFFFFFFFFFFFFFFFFFFFFFFFFFFFFFFFFFFFFF AND MUL OR SWAP1 SSTORE POP PUSH1 0x60 DUP3 ADD MLOAD DUP2 PUSH1 0x3 ADD PUSH0 PUSH2 0x100 EXP DUP2 SLOAD DUP2 PUSH20 0xFFFFFFFFFFFFFFFFFFFFFFFFFFFFFFFFFFFFFFFF MUL NOT AND SWAP1 DUP4 PUSH20 0xFFFFFFFFFFFFFFFFFFFFFFFFFFFFFFFFFFFFFFFF AND MUL OR SWAP1 SSTORE POP PUSH1 0x80 DUP3 ADD MLOAD DUP2 PUSH1 0x3 ADD PUSH1 0x14 PUSH2 0x100 EXP DUP2 SLOAD DUP2 PUSH1 0xFF MUL NOT AND SWAP1 DUP4 ISZERO ISZERO MUL OR SWAP1 SSTORE POP POP POP CALLER PUSH20 0xFFFFFFFFFFFFFFFFFFFFFFFFFFFFFFFFFFFFFFFF AND PUSH32 0x56B60085244FE1AFA467F92231DEBADC8BCB6127E9DBF35DBB58CA8406A423FE DUP6 DUP6 PUSH1 0x40 MLOAD PUSH2 0xB15 SWAP3 SWAP2 SWAP1 PUSH2 0x128A JUMP JUMPDEST PUSH1 0x40 MLOAD DUP1 SWAP2 SUB SWAP1 LOG2 CALLER PUSH20 0xFFFFFFFFFFFFFFFFFFFFFFFFFFFFFFFFFFFFFFFF AND PUSH32 0xE5024716F30BE6E51E2A7CC6145E6659CD5BDB7A0C451E22B7E9D39C9B5F03AC DUP4 DUP4 PUSH1 0x40 MLOAD PUSH2 0xB65 SWAP3 SWAP2 SWAP1 PUSH2 0x128A JUMP JUMPDEST PUSH1 0x40 MLOAD DUP1 SWAP2 SUB SWAP1 LOG2 POP POP POP POP JUMP JUMPDEST PUSH2 0xB7B PUSH2 0xBF7 JUMP JUMPDEST PUSH0 PUSH20 0xFFFFFFFFFFFFFFFFFFFFFFFFFFFFFFFFFFFFFFFF AND DUP2 PUSH20 0xFFFFFFFFFFFFFFFFFFFFFFFFFFFFFFFFFFFFFFFF AND SUB PUSH2 0xBEB JUMPI PUSH0 PUSH1 0x40 MLOAD PUSH32 0x1E4FBDF700000000000000000000000000000000000000000000000000000000 DUP2 MSTORE PUSH1 0x4 ADD PUSH2 0xBE2 SWAP2 SWAP1 PUSH2 0xE24 JUMP JUMPDEST PUSH1 0x40 MLOAD DUP1 SWAP2 SUB SWAP1 REVERT JUMPDEST PUSH2 0xBF4 DUP2 PUSH2 0xC7E JUMP JUMPDEST POP JUMP JUMPDEST PUSH2 0xBFF PUSH2 0xD3F JUMP JUMPDEST PUSH20 0xFFFFFFFFFFFFFFFFFFFFFFFFFFFFFFFFFFFFFFFF AND PUSH2 0xC1D PUSH2 0x221 JUMP JUMPDEST PUSH20 0xFFFFFFFFFFFFFFFFFFFFFFFFFFFFFFFFFFFFFFFF AND EQ PUSH2 0xC7C JUMPI PUSH2 0xC40 PUSH2 0xD3F JUMP JUMPDEST PUSH1 0x40 MLOAD PUSH32 0x118CDAA700000000000000000000000000000000000000000000000000000000 DUP2 MSTORE PUSH1 0x4 ADD PUSH2 0xC73 SWAP2 SWAP1 PUSH2 0xE24 JUMP JUMPDEST PUSH1 0x40 MLOAD DUP1 SWAP2 SUB SWAP1 REVERT JUMPDEST JUMP JUMPDEST PUSH0 PUSH0 PUSH0 SWAP1 SLOAD SWAP1 PUSH2 0x100 EXP SWAP1 DIV PUSH20 0xFFFFFFFFFFFFFFFFFFFFFFFFFFFFFFFFFFFFFFFF AND SWAP1 POP DUP2 PUSH0 PUSH0 PUSH2 0x100 EXP DUP2 SLOAD DUP2 PUSH20 0xFFFFFFFFFFFFFFFFFFFFFFFFFFFFFFFFFFFFFFFF MUL NOT AND SWAP1 DUP4 PUSH20 0xFFFFFFFFFFFFFFFFFFFFFFFFFFFFFFFFFFFFFFFF AND MUL OR SWAP1 SSTORE POP DUP2 PUSH20 0xFFFFFFFFFFFFFFFFFFFFFFFFFFFFFFFFFFFFFFFF AND DUP2 PUSH20 0xFFFFFFFFFFFFFFFFFFFFFFFFFFFFFFFFFFFFFFFF AND PUSH32 0x8BE0079C531659141344CD1FD0A4F28419497F9722A3DAAFE3B4186F6B6457E0 PUSH1 0x40 MLOAD PUSH1 0x40 MLOAD DUP1 SWAP2 SUB SWAP1 LOG3 POP POP JUMP JUMPDEST PUSH0 CALLER SWAP1 POP SWAP1 JUMP JUMPDEST PUSH0 PUSH0 REVERT JUMPDEST PUSH0 PUSH20 0xFFFFFFFFFFFFFFFFFFFFFFFFFFFFFFFFFFFFFFFF DUP3 AND SWAP1 POP SWAP2 SWAP1 POP JUMP JUMPDEST PUSH0 PUSH2 0xD73 DUP3 PUSH2 0xD4A JUMP JUMPDEST SWAP1 POP SWAP2 SWAP1 POP JUMP JUMPDEST PUSH2 0xD83 DUP2 PUSH2 0xD69 JUMP JUMPDEST DUP2 EQ PUSH2 0xD8D JUMPI PUSH0 PUSH0 REVERT JUMPDEST POP JUMP JUMPDEST PUSH0 DUP2 CALLDATALOAD SWAP1 POP PUSH2 0xD9E DUP2 PUSH2 0xD7A JUMP JUMPDEST SWAP3 SWAP2 POP POP JUMP JUMPDEST PUSH0 DUP2 SWAP1 POP SWAP2 SWAP1 POP JUMP JUMPDEST PUSH2 0xDB6 DUP2 PUSH2 0xDA4 JUMP JUMPDEST DUP2 EQ PUSH2 0xDC0 JUMPI PUSH0 PUSH0 REVERT JUMPDEST POP JUMP JUMPDEST PUSH0 DUP2 CALLDATALOAD SWAP1 POP PUSH2 0xDD1 DUP2 PUSH2 0xDAD JUMP JUMPDEST SWAP3 SWAP2 POP POP JUMP JUMPDEST PUSH0 PUSH0 PUSH1 0x40 DUP4 DUP6 SUB SLT ISZERO PUSH2 0xDED JUMPI PUSH2 0xDEC PUSH2 0xD46 JUMP JUMPDEST JUMPDEST PUSH0 PUSH2 0xDFA DUP6 DUP3 DUP7 ADD PUSH2 0xD90 JUMP JUMPDEST SWAP3 POP POP PUSH1 0x20 PUSH2 0xE0B DUP6 DUP3 DUP7 ADD PUSH2 0xDC3 JUMP JUMPDEST SWAP2 POP POP SWAP3 POP SWAP3 SWAP1 POP JUMP JUMPDEST PUSH2 0xE1E DUP2 PUSH2 0xD69 JUMP JUMPDEST DUP3 MSTORE POP POP JUMP JUMPDEST PUSH0 PUSH1 0x20 DUP3 ADD SWAP1 POP PUSH2 0xE37 PUSH0 DUP4 ADD DUP5 PUSH2 0xE15 JUMP JUMPDEST SWAP3 SWAP2 POP POP JUMP JUMPDEST PUSH2 0xE46 DUP2 PUSH2 0xDA4 JUMP JUMPDEST DUP3 MSTORE POP POP JUMP JUMPDEST PUSH0 DUP2 ISZERO ISZERO SWAP1 POP SWAP2 SWAP1 POP JUMP JUMPDEST PUSH2 0xE60 DUP2 PUSH2 0xE4C JUMP JUMPDEST DUP3 MSTORE POP POP JUMP JUMPDEST PUSH0 PUSH1 0xA0 DUP3 ADD SWAP1 POP PUSH2 0xE79 PUSH0 DUP4 ADD DUP9 PUSH2 0xE3D JUMP JUMPDEST PUSH2 0xE86 PUSH1 0x20 DUP4 ADD DUP8 PUSH2 0xE3D JUMP JUMPDEST PUSH2 0xE93 PUSH1 0x40 DUP4 ADD DUP7 PUSH2 0xE15 JUMP JUMPDEST PUSH2 0xEA0 PUSH1 0x60 DUP4 ADD DUP6 PUSH2 0xE15 JUMP JUMPDEST PUSH2 0xEAD PUSH1 0x80 DUP4 ADD DUP5 PUSH2 0xE57 JUMP JUMPDEST SWAP7 SWAP6 POP POP POP POP POP POP JUMP JUMPDEST PUSH0 PUSH1 0x20 DUP3 DUP5 SUB SLT ISZERO PUSH2 0xECC JUMPI PUSH2 0xECB PUSH2 0xD46 JUMP JUMPDEST JUMPDEST PUSH0 PUSH2 0xED9 DUP5 DUP3 DUP6 ADD PUSH2 0xDC3 JUMP JUMPDEST SWAP2 POP POP SWAP3 SWAP2 POP POP JUMP JUMPDEST PUSH0 PUSH1 0x20 DUP3 DUP5 SUB SLT ISZERO PUSH2 0xEF7 JUMPI PUSH2 0xEF6 PUSH2 0xD46 JUMP JUMPDEST JUMPDEST PUSH0 PUSH2 0xF04 DUP5 DUP3 DUP6 ADD PUSH2 0xD90 JUMP JUMPDEST SWAP2 POP POP SWAP3 SWAP2 POP POP JUMP JUMPDEST PUSH0 DUP2 MLOAD SWAP1 POP SWAP2 SWAP1 POP JUMP JUMPDEST PUSH0 DUP3 DUP3 MSTORE PUSH1 0x20 DUP3 ADD SWAP1 POP SWAP3 SWAP2 POP POP JUMP JUMPDEST PUSH0 DUP2 SWAP1 POP PUSH1 0x20 DUP3 ADD SWAP1 POP SWAP2 SWAP1 POP JUMP JUMPDEST PUSH2 0xF3F DUP2 PUSH2 0xDA4 JUMP JUMPDEST DUP3 MSTORE POP POP JUMP JUMPDEST PUSH2 0xF4E DUP2 PUSH2 0xD69 JUMP JUMPDEST DUP3 MSTORE POP POP JUMP JUMPDEST PUSH2 0xF5D DUP2 PUSH2 0xE4C JUMP JUMPDEST DUP3 MSTORE POP POP JUMP JUMPDEST PUSH1 0xA0 DUP3 ADD PUSH0 DUP3 ADD MLOAD PUSH2 0xF77 PUSH0 DUP6 ADD DUP3 PUSH2 0xF36 JUMP JUMPDEST POP PUSH1 0x20 DUP3 ADD MLOAD PUSH2 0xF8A PUSH1 0x20 DUP6 ADD DUP3 PUSH2 0xF36 JUMP JUMPDEST POP PUSH1 0x40 DUP3 ADD MLOAD PUSH2 0xF9D PUSH1 0x40 DUP6 ADD DUP3 PUSH2 0xF45 JUMP JUMPDEST POP PUSH1 0x60 DUP3 ADD MLOAD PUSH2 0xFB0 PUSH1 0x60 DUP6 ADD DUP3 PUSH2 0xF45 JUMP JUMPDEST POP PUSH1 0x80 DUP3 ADD MLOAD PUSH2 0xFC3 PUSH1 0x80 DUP6 ADD DUP3 PUSH2 0xF54 JUMP JUMPDEST POP POP POP POP JUMP JUMPDEST PUSH0 PUSH2 0xFD4 DUP4 DUP4 PUSH2 0xF63 JUMP JUMPDEST PUSH1 0xA0 DUP4 ADD SWAP1 POP SWAP3 SWAP2 POP POP JUMP JUMPDEST PUSH0 PUSH1 0x20 DUP3 ADD SWAP1 POP SWAP2 SWAP1 POP JUMP JUMPDEST PUSH0 PUSH2 0xFF6 DUP3 PUSH2 0xF0D JUMP JUMPDEST PUSH2 0x1000 DUP2 DUP6 PUSH2 0xF17 JUMP JUMPDEST SWAP4 POP PUSH2 0x100B DUP4 PUSH2 0xF27 JUMP JUMPDEST DUP1 PUSH0 JUMPDEST DUP4 DUP2 LT ISZERO PUSH2 0x103B JUMPI DUP2 MLOAD PUSH2 0x1022 DUP9 DUP3 PUSH2 0xFC9 JUMP JUMPDEST SWAP8 POP PUSH2 0x102D DUP4 PUSH2 0xFE0 JUMP JUMPDEST SWAP3 POP POP PUSH1 0x1 DUP2 ADD SWAP1 POP PUSH2 0x100E JUMP JUMPDEST POP DUP6 SWAP4 POP POP POP POP SWAP3 SWAP2 POP POP JUMP JUMPDEST PUSH0 PUSH1 0x20 DUP3 ADD SWAP1 POP DUP2 DUP2 SUB PUSH0 DUP4 ADD MSTORE PUSH2 0x1060 DUP2 DUP5 PUSH2 0xFEC JUMP JUMPDEST SWAP1 POP SWAP3 SWAP2 POP POP JUMP JUMPDEST PUSH0 PUSH0 PUSH0 PUSH0 PUSH1 0x80 DUP6 DUP8 SUB SLT ISZERO PUSH2 0x1080 JUMPI PUSH2 0x107F PUSH2 0xD46 JUMP JUMPDEST JUMPDEST PUSH0 PUSH2 0x108D DUP8 DUP3 DUP9 ADD PUSH2 0xDC3 JUMP JUMPDEST SWAP5 POP POP PUSH1 0x20 PUSH2 0x109E DUP8 DUP3 DUP9 ADD PUSH2 0xD90 JUMP JUMPDEST SWAP4 POP POP PUSH1 0x40 PUSH2 0x10AF DUP8 DUP3 DUP9 ADD PUSH2 0xDC3 JUMP JUMPDEST SWAP3 POP POP PUSH1 0x60 PUSH2 0x10C0 DUP8 DUP3 DUP9 ADD PUSH2 0xD90 JUMP JUMPDEST SWAP2 POP POP SWAP3 SWAP6 SWAP2 SWAP5 POP SWAP3 POP JUMP JUMPDEST PUSH0 PUSH1 0x40 DUP3 ADD SWAP1 POP PUSH2 0x10DF PUSH0 DUP4 ADD DUP6 PUSH2 0xE15 JUMP JUMPDEST PUSH2 0x10EC PUSH1 0x20 DUP4 ADD DUP5 PUSH2 0xE3D JUMP JUMPDEST SWAP4 SWAP3 POP POP POP JUMP JUMPDEST PUSH2 0x10FC DUP2 PUSH2 0xE4C JUMP JUMPDEST DUP2 EQ PUSH2 0x1106 JUMPI PUSH0 PUSH0 REVERT JUMPDEST POP JUMP JUMPDEST PUSH0 DUP2 MLOAD SWAP1 POP PUSH2 0x1117 DUP2 PUSH2 0x10F3 JUMP JUMPDEST SWAP3 SWAP2 POP POP JUMP JUMPDEST PUSH0 PUSH1 0x20 DUP3 DUP5 SUB SLT ISZERO PUSH2 0x1132 JUMPI PUSH2 0x1131 PUSH2 0xD46 JUMP JUMPDEST JUMPDEST PUSH0 PUSH2 0x113F DUP5 DUP3 DUP6 ADD PUSH2 0x1109 JUMP JUMPDEST SWAP2 POP POP SWAP3 SWAP2 POP POP JUMP JUMPDEST PUSH0 DUP3 DUP3 MSTORE PUSH1 0x20 DUP3 ADD SWAP1 POP SWAP3 SWAP2 POP POP JUMP JUMPDEST PUSH32 0x496E76616C6964206C6F616E20696E6465780000000000000000000000000000 PUSH0 DUP3 ADD MSTORE POP JUMP JUMPDEST PUSH0 PUSH2 0x118C PUSH1 0x12 DUP4 PUSH2 0x1148 JUMP JUMPDEST SWAP2 POP PUSH2 0x1197 DUP3 PUSH2 0x1158 JUMP JUMPDEST PUSH1 0x20 DUP3 ADD SWAP1 POP SWAP2 SWAP1 POP JUMP JUMPDEST PUSH0 PUSH1 0x20 DUP3 ADD SWAP1 POP DUP2 DUP2 SUB PUSH0 DUP4 ADD MSTORE PUSH2 0x11B9 DUP2 PUSH2 0x1180 JUMP JUMPDEST SWAP1 POP SWAP2 SWAP1 POP JUMP JUMPDEST PUSH32 0x4E487B7100000000000000000000000000000000000000000000000000000000 PUSH0 MSTORE PUSH1 0x32 PUSH1 0x4 MSTORE PUSH1 0x24 PUSH0 REVERT JUMPDEST PUSH32 0x4C6F616E20616C72656164792072657061696400000000000000000000000000 PUSH0 DUP3 ADD MSTORE POP JUMP JUMPDEST PUSH0 PUSH2 0x1221 PUSH1 0x13 DUP4 PUSH2 0x1148 JUMP JUMPDEST SWAP2 POP PUSH2 0x122C DUP3 PUSH2 0x11ED JUMP JUMPDEST PUSH1 0x20 DUP3 ADD SWAP1 POP SWAP2 SWAP1 POP JUMP JUMPDEST PUSH0 PUSH1 0x20 DUP3 ADD SWAP1 POP DUP2 DUP2 SUB PUSH0 DUP4 ADD MSTORE PUSH2 0x124E DUP2 PUSH2 0x1215 JUMP JUMPDEST SWAP1 POP SWAP2 SWAP1 POP JUMP JUMPDEST PUSH0 PUSH1 0x60 DUP3 ADD SWAP1 POP PUSH2 0x1268 PUSH0 DUP4 ADD DUP7 PUSH2 0xE15 JUMP JUMPDEST PUSH2 0x1275 PUSH1 0x20 DUP4 ADD DUP6 PUSH2 0xE15 JUMP JUMPDEST PUSH2 0x1282 PUSH1 0x40 DUP4 ADD DUP5 PUSH2 0xE3D JUMP JUMPDEST SWAP5 SWAP4 POP POP POP POP JUMP JUMPDEST PUSH0 PUSH1 0x40 DUP3 ADD SWAP1 POP PUSH2 0x129D PUSH0 DUP4 ADD DUP6 PUSH2 0xE3D JUMP JUMPDEST PUSH2 0x12AA PUSH1 0x20 DUP4 ADD DUP5 PUSH2 0xE15 JUMP JUMPDEST SWAP4 SWAP3 POP POP POP JUMP JUMPDEST PUSH32 0x436F6C6C61746572616C20616D6F756E74206D75737420626520677265617465 PUSH0 DUP3 ADD MSTORE PUSH32 0x72207468616E2030000000000000000000000000000000000000000000000000 PUSH1 0x20 DUP3 ADD MSTORE POP JUMP JUMPDEST PUSH0 PUSH2 0x130B PUSH1 0x28 DUP4 PUSH2 0x1148 JUMP JUMPDEST SWAP2 POP PUSH2 0x1316 DUP3 PUSH2 0x12B1 JUMP JUMPDEST PUSH1 0x40 DUP3 ADD SWAP1 POP SWAP2 SWAP1 POP JUMP JUMPDEST PUSH0 PUSH1 0x20 DUP3 ADD SWAP1 POP DUP2 DUP2 SUB PUSH0 DUP4 ADD MSTORE PUSH2 0x1338 DUP2 PUSH2 0x12FF JUMP JUMPDEST SWAP1 POP SWAP2 SWAP1 POP JUMP JUMPDEST PUSH32 0x4C6F616E20616D6F756E74206D7573742062652067726561746572207468616E PUSH0 DUP3 ADD MSTORE PUSH32 0x2030000000000000000000000000000000000000000000000000000000000000 PUSH1 0x20 DUP3 ADD MSTORE POP JUMP JUMPDEST PUSH0 PUSH2 0x1399 PUSH1 0x22 DUP4 PUSH2 0x1148 JUMP JUMPDEST SWAP2 POP PUSH2 0x13A4 DUP3 PUSH2 0x133F JUMP JUMPDEST PUSH1 0x40 DUP3 ADD SWAP1 POP SWAP2 SWAP1 POP JUMP JUMPDEST PUSH0 PUSH1 0x20 DUP3 ADD SWAP1 POP DUP2 DUP2 SUB PUSH0 DUP4 ADD MSTORE PUSH2 0x13C6 DUP2 PUSH2 0x138D JUMP JUMPDEST SWAP1 POP SWAP2 SWAP1 POP JUMP INVALID LOG2 PUSH5 0x6970667358 0x22 SLT KECCAK256 0xC8 0xDC 0x4D 0xDF 0xAB CODECOPY LT EXP PUSH25 0xD99E593E95BD6D0B3049E445AAA7195185F13970C472D66473 PUSH16 0x6C634300081C00330000000000000000 "
				},
				"gasEstimates": {
					"creation": {
						"codeDepositCost": "1024600",
						"executionCost": "infinite",
						"totalCost": "infinite"
					},
					"external": {
						"getLoans(address)": "infinite",
						"loans(address,uint256)": "infinite",
						"lockCollateralAndBorrow(uint256,address,uint256,address)": "infinite",
						"owner()": "2559",
						"renounceOwnership()": "infinite",
						"repayLoan(uint256)": "infinite",
						"transferOwnership(address)": "infinite",
						"withdrawTokens(address,uint256)": "infinite"
					}
				},
				"methodIdentifiers": {
					"getLoans(address)": "d988ef20",
					"loans(address,uint256)": "98c61c37",
					"lockCollateralAndBorrow(uint256,address,uint256,address)": "e7153a7c",
					"owner()": "8da5cb5b",
					"renounceOwnership()": "715018a6",
					"repayLoan(uint256)": "ab7b1c89",
					"transferOwnership(address)": "f2fde38b",
					"withdrawTokens(address,uint256)": "06b091f9"
				}
			},
			"storageLayout": {
				"storage": [
					{
						"astId": 8,
						"contract": "contract.sol:LendingProtocol",
						"label": "_owner",
						"offset": 0,
						"slot": "0",
						"type": "t_address"
					},
					{
						"astId": 280,
						"contract": "contract.sol:LendingProtocol",
						"label": "loans",
						"offset": 0,
						"slot": "1",
						"type": "t_mapping(t_address,t_array(t_struct(Loan)274_storage)dyn_storage)"
					}
				],
				"types": {
					"t_address": {
						"encoding": "inplace",
						"label": "address",
						"numberOfBytes": "20"
					},
					"t_array(t_struct(Loan)274_storage)dyn_storage": {
						"base": "t_struct(Loan)274_storage",
						"encoding": "dynamic_array",
						"label": "struct LendingProtocol.Loan[]",
						"numberOfBytes": "32"
					},
					"t_bool": {
						"encoding": "inplace",
						"label": "bool",
						"numberOfBytes": "1"
					},
					"t_mapping(t_address,t_array(t_struct(Loan)274_storage)dyn_storage)": {
						"encoding": "mapping",
						"key": "t_address",
						"label": "mapping(address => struct LendingProtocol.Loan[])",
						"numberOfBytes": "32",
						"value": "t_array(t_struct(Loan)274_storage)dyn_storage"
					},
					"t_struct(Loan)274_storage": {
						"encoding": "inplace",
						"label": "struct LendingProtocol.Loan",
						"members": [
							{
								"astId": 265,
								"contract": "contract.sol:LendingProtocol",
								"label": "collateralAmount",
								"offset": 0,
								"slot": "0",
								"type": "t_uint256"
							},
							{
								"astId": 267,
								"contract": "contract.sol:LendingProtocol",
								"label": "loanAmount",
								"offset": 0,
								"slot": "1",
								"type": "t_uint256"
							},
							{
								"astId": 269,
								"contract": "contract.sol:LendingProtocol",
								"label": "collateralToken",
								"offset": 0,
								"slot": "2",
								"type": "t_address"
							},
							{
								"astId": 271,
								"contract": "contract.sol:LendingProtocol",
								"label": "loanToken",
								"offset": 0,
								"slot": "3",
								"type": "t_address"
							},
							{
								"astId": 273,
								"contract": "contract.sol:LendingProtocol",
								"label": "isRepaid",
								"offset": 20,
								"slot": "3",
								"type": "t_bool"
							}
						],
						"numberOfBytes": "128"
					},
					"t_uint256": {
						"encoding": "inplace",
						"label": "uint256",
						"numberOfBytes": "32"
					}
				}
			},
			"userdoc": {
				"kind": "user",
				"methods": {
					"getLoans(address)": {
						"notice": "View active loans for a user"
					},
					"lockCollateralAndBorrow(uint256,address,uint256,address)": {
						"notice": "Lock collateral and issue a loan"
					},
					"repayLoan(uint256)": {
						"notice": "Repay a loan and release collateral"
					},
					"withdrawTokens(address,uint256)": {
						"notice": "Admin function to withdraw tokens from the contract"
					}
				},
				"version": 1
			}
		}
	}
}