{
	"smarrt.sol": {
		"LendingProtocol": {
			"abi": [
				{
					"inputs": [],
					"stateMutability": "nonpayable",
					"type": "constructor"
				},
				{
					"inputs": [
						{
							"internalType": "address",
							"name": "owner",
							"type": "address"
						}
					],
					"name": "OwnableInvalidOwner",
					"type": "error"
				},
				{
					"inputs": [
						{
							"internalType": "address",
							"name": "account",
							"type": "address"
						}
					],
					"name": "OwnableUnauthorizedAccount",
					"type": "error"
				},
				{
					"anonymous": false,
					"inputs": [
						{
							"indexed": true,
							"internalType": "address",
							"name": "user",
							"type": "address"
						},
						{
							"indexed": false,
							"internalType": "uint256",
							"name": "amount",
							"type": "uint256"
						},
						{
							"indexed": false,
							"internalType": "address",
							"name": "token",
							"type": "address"
						}
					],
					"name": "CollateralLocked",
					"type": "event"
				},
				{
					"anonymous": false,
					"inputs": [
						{
							"indexed": true,
							"internalType": "address",
							"name": "user",
							"type": "address"
						},
						{
							"indexed": false,
							"internalType": "uint256",
							"name": "amount",
							"type": "uint256"
						},
						{
							"indexed": false,
							"internalType": "address",
							"name": "token",
							"type": "address"
						}
					],
					"name": "CollateralReleased",
					"type": "event"
				},
				{
					"anonymous": false,
					"inputs": [
						{
							"indexed": true,
							"internalType": "address",
							"name": "user",
							"type": "address"
						},
						{
							"indexed": false,
							"internalType": "uint256",
							"name": "amount",
							"type": "uint256"
						},
						{
							"indexed": false,
							"internalType": "address",
							"name": "token",
							"type": "address"
						}
					],
					"name": "LoanIssued",
					"type": "event"
				},
				{
					"anonymous": false,
					"inputs": [
						{
							"indexed": true,
							"internalType": "address",
							"name": "user",
							"type": "address"
						},
						{
							"indexed": false,
							"internalType": "uint256",
							"name": "amount",
							"type": "uint256"
						},
						{
							"indexed": false,
							"internalType": "address",
							"name": "token",
							"type": "address"
						}
					],
					"name": "LoanRepaid",
					"type": "event"
				},
				{
					"anonymous": false,
					"inputs": [
						{
							"indexed": true,
							"internalType": "address",
							"name": "previousOwner",
							"type": "address"
						},
						{
							"indexed": true,
							"internalType": "address",
							"name": "newOwner",
							"type": "address"
						}
					],
					"name": "OwnershipTransferred",
					"type": "event"
				},
				{
					"inputs": [
						{
							"internalType": "address",
							"name": "user",
							"type": "address"
						}
					],
					"name": "getLoanCount",
					"outputs": [
						{
							"internalType": "uint256",
							"name": "",
							"type": "uint256"
						}
					],
					"stateMutability": "view",
					"type": "function"
				},
				{
					"inputs": [
						{
							"internalType": "address",
							"name": "user",
							"type": "address"
						},
						{
							"internalType": "uint256",
							"name": "loanIndex",
							"type": "uint256"
						}
					],
					"name": "getLoanDetails",
					"outputs": [
						{
							"components": [
								{
									"internalType": "uint256",
									"name": "collateralAmount",
									"type": "uint256"
								},
								{
									"internalType": "uint256",
									"name": "loanAmount",
									"type": "uint256"
								},
								{
									"internalType": "address",
									"name": "collateralToken",
									"type": "address"
								},
								{
									"internalType": "address",
									"name": "loanToken",
									"type": "address"
								},
								{
									"internalType": "bool",
									"name": "isRepaid",
									"type": "bool"
								}
							],
							"internalType": "struct LendingProtocol.Loan",
							"name": "",
							"type": "tuple"
						}
					],
					"stateMutability": "view",
					"type": "function"
				},
				{
					"inputs": [
						{
							"internalType": "address",
							"name": "user",
							"type": "address"
						}
					],
					"name": "getLoans",
					"outputs": [
						{
							"components": [
								{
									"internalType": "uint256",
									"name": "collateralAmount",
									"type": "uint256"
								},
								{
									"internalType": "uint256",
									"name": "loanAmount",
									"type": "uint256"
								},
								{
									"internalType": "address",
									"name": "collateralToken",
									"type": "address"
								},
								{
									"internalType": "address",
									"name": "loanToken",
									"type": "address"
								},
								{
									"internalType": "bool",
									"name": "isRepaid",
									"type": "bool"
								}
							],
							"internalType": "struct LendingProtocol.Loan[]",
							"name": "",
							"type": "tuple[]"
						}
					],
					"stateMutability": "view",
					"type": "function"
				},
				{
					"inputs": [
						{
							"internalType": "address",
							"name": "",
							"type": "address"
						},
						{
							"internalType": "uint256",
							"name": "",
							"type": "uint256"
						}
					],
					"name": "loans",
					"outputs": [
						{
							"internalType": "uint256",
							"name": "collateralAmount",
							"type": "uint256"
						},
						{
							"internalType": "uint256",
							"name": "loanAmount",
							"type": "uint256"
						},
						{
							"internalType": "address",
							"name": "collateralToken",
							"type": "address"
						},
						{
							"internalType": "address",
							"name": "loanToken",
							"type": "address"
						},
						{
							"internalType": "bool",
							"name": "isRepaid",
							"type": "bool"
						}
					],
					"stateMutability": "view",
					"type": "function"
				},
				{
					"inputs": [
						{
							"internalType": "uint256",
							"name": "collateralAmount",
							"type": "uint256"
						},
						{
							"internalType": "address",
							"name": "collateralToken",
							"type": "address"
						},
						{
							"internalType": "uint256",
							"name": "loanAmount",
							"type": "uint256"
						},
						{
							"internalType": "address",
							"name": "loanToken",
							"type": "address"
						}
					],
					"name": "lockCollateralAndBorrow",
					"outputs": [],
					"stateMutability": "nonpayable",
					"type": "function"
				},
				{
					"inputs": [],
					"name": "owner",
					"outputs": [
						{
							"internalType": "address",
							"name": "",
							"type": "address"
						}
					],
					"stateMutability": "view",
					"type": "function"
				},
				{
					"inputs": [],
					"name": "renounceOwnership",
					"outputs": [],
					"stateMutability": "nonpayable",
					"type": "function"
				},
				{
					"inputs": [
						{
							"internalType": "uint256",
							"name": "loanIndex",
							"type": "uint256"
						}
					],
					"name": "repayLoan",
					"outputs": [],
					"stateMutability": "nonpayable",
					"type": "function"
				},
				{
					"inputs": [
						{
							"internalType": "address",
							"name": "newOwner",
							"type": "address"
						}
					],
					"name": "transferOwnership",
					"outputs": [],
					"stateMutability": "nonpayable",
					"type": "function"
				},
				{
					"inputs": [
						{
							"internalType": "address",
							"name": "token",
							"type": "address"
						},
						{
							"internalType": "uint256",
							"name": "amount",
							"type": "uint256"
						}
					],
					"name": "withdrawTokens",
					"outputs": [],
					"stateMutability": "nonpayable",
					"type": "function"
				}
			],
			"devdoc": {
				"errors": {
					"OwnableInvalidOwner(address)": [
						{
							"details": "The owner is not a valid owner account. (eg. `address(0)`)"
						}
					],
					"OwnableUnauthorizedAccount(address)": [
						{
							"details": "The caller account is not authorized to perform an operation."
						}
					]
				},
				"kind": "dev",
				"methods": {
					"owner()": {
						"details": "Returns the address of the current owner."
					},
					"renounceOwnership()": {
						"details": "Leaves the contract without owner. It will not be possible to call `onlyOwner` functions. Can only be called by the current owner. NOTE: Renouncing ownership will leave the contract without an owner, thereby disabling any functionality that is only available to the owner."
					},
					"transferOwnership(address)": {
						"details": "Transfers ownership of the contract to a new account (`newOwner`). Can only be called by the current owner."
					}
				},
				"version": 1
			},
			"evm": {
				"assembly": "    /* \"smarrt.sol\":168:3442  contract LendingProtocol is Ownable {... */\n  mstore(0x40, 0x80)\n    /* \"smarrt.sol\":741:777  constructor() Ownable(msg.sender) {} */\n  callvalue\n  dup1\n  iszero\n  tag_1\n  jumpi\n  0x00\n  dup1\n  revert\ntag_1:\n  pop\n    /* \"smarrt.sol\":763:773  msg.sender */\n  caller\n    /* \"@openzeppelin/contracts/access/Ownable.sol\":1297:1298  0 */\n  0x00\n    /* \"@openzeppelin/contracts/access/Ownable.sol\":1273:1299  initialOwner == address(0) */\n  0xffffffffffffffffffffffffffffffffffffffff\n  and\n    /* \"@openzeppelin/contracts/access/Ownable.sol\":1273:1285  initialOwner */\n  dup2\n    /* \"@openzeppelin/contracts/access/Ownable.sol\":1273:1299  initialOwner == address(0) */\n  0xffffffffffffffffffffffffffffffffffffffff\n  and\n  sub\n    /* \"@openzeppelin/contracts/access/Ownable.sol\":1269:1364  if (initialOwner == address(0)) {... */\n  tag_5\n  jumpi\n    /* \"@openzeppelin/contracts/access/Ownable.sol\":1350:1351  0 */\n  0x00\n    /* \"@openzeppelin/contracts/access/Ownable.sol\":1322:1353  OwnableInvalidOwner(address(0)) */\n  mload(0x40)\n  0x1e4fbdf700000000000000000000000000000000000000000000000000000000\n  dup2\n  mstore\n  0x04\n  add\n  tag_6\n  swap2\n  swap1\n  tag_7\n  jump\t// in\ntag_6:\n  mload(0x40)\n  dup1\n  swap2\n  sub\n  swap1\n  revert\n    /* \"@openzeppelin/contracts/access/Ownable.sol\":1269:1364  if (initialOwner == address(0)) {... */\ntag_5:\n    /* \"@openzeppelin/contracts/access/Ownable.sol\":1373:1405  _transferOwnership(initialOwner) */\n  tag_8\n    /* \"@openzeppelin/contracts/access/Ownable.sol\":1392:1404  initialOwner */\n  dup2\n    /* \"@openzeppelin/contracts/access/Ownable.sol\":1373:1391  _transferOwnership */\n  shl(0x20, tag_9)\n    /* \"@openzeppelin/contracts/access/Ownable.sol\":1373:1405  _transferOwnership(initialOwner) */\n  0x20\n  shr\n  jump\t// in\ntag_8:\n    /* \"@openzeppelin/contracts/access/Ownable.sol\":1225:1412  constructor(address initialOwner) {... */\n  pop\n    /* \"smarrt.sol\":168:3442  contract LendingProtocol is Ownable {... */\n  jump(tag_11)\n    /* \"@openzeppelin/contracts/access/Ownable.sol\":2912:3099  function _transferOwnership(address newOwner) internal virtual {... */\ntag_9:\n    /* \"@openzeppelin/contracts/access/Ownable.sol\":2985:3001  address oldOwner */\n  0x00\n    /* \"@openzeppelin/contracts/access/Ownable.sol\":3004:3010  _owner */\n  dup1\n  0x00\n  swap1\n  sload\n  swap1\n  0x0100\n  exp\n  swap1\n  div\n  0xffffffffffffffffffffffffffffffffffffffff\n  and\n    /* \"@openzeppelin/contracts/access/Ownable.sol\":2985:3010  address oldOwner = _owner */\n  swap1\n  pop\n    /* \"@openzeppelin/contracts/access/Ownable.sol\":3029:3037  newOwner */\n  dup2\n    /* \"@openzeppelin/contracts/access/Ownable.sol\":3020:3026  _owner */\n  0x00\n  dup1\n    /* \"@openzeppelin/contracts/access/Ownable.sol\":3020:3037  _owner = newOwner */\n  0x0100\n  exp\n  dup2\n  sload\n  dup2\n  0xffffffffffffffffffffffffffffffffffffffff\n  mul\n  not\n  and\n  swap1\n  dup4\n  0xffffffffffffffffffffffffffffffffffffffff\n  and\n  mul\n  or\n  swap1\n  sstore\n  pop\n    /* \"@openzeppelin/contracts/access/Ownable.sol\":3083:3091  newOwner */\n  dup2\n    /* \"@openzeppelin/contracts/access/Ownable.sol\":3052:3092  OwnershipTransferred(oldOwner, newOwner) */\n  0xffffffffffffffffffffffffffffffffffffffff\n  and\n    /* \"@openzeppelin/contracts/access/Ownable.sol\":3073:3081  oldOwner */\n  dup2\n    /* \"@openzeppelin/contracts/access/Ownable.sol\":3052:3092  OwnershipTransferred(oldOwner, newOwner) */\n  0xffffffffffffffffffffffffffffffffffffffff\n  and\n  0x8be0079c531659141344cd1fd0a4f28419497f9722a3daafe3b4186f6b6457e0\n  mload(0x40)\n  mload(0x40)\n  dup1\n  swap2\n  sub\n  swap1\n  log3\n    /* \"@openzeppelin/contracts/access/Ownable.sol\":2975:3099  {... */\n  pop\n    /* \"@openzeppelin/contracts/access/Ownable.sol\":2912:3099  function _transferOwnership(address newOwner) internal virtual {... */\n  pop\n  jump\t// out\n    /* \"#utility.yul\":7:133   */\ntag_13:\n    /* \"#utility.yul\":44:51   */\n  0x00\n    /* \"#utility.yul\":84:126   */\n  0xffffffffffffffffffffffffffffffffffffffff\n    /* \"#utility.yul\":77:82   */\n  dup3\n    /* \"#utility.yul\":73:127   */\n  and\n    /* \"#utility.yul\":62:127   */\n  swap1\n  pop\n    /* \"#utility.yul\":7:133   */\n  swap2\n  swap1\n  pop\n  jump\t// out\n    /* \"#utility.yul\":139:235   */\ntag_14:\n    /* \"#utility.yul\":176:183   */\n  0x00\n    /* \"#utility.yul\":205:229   */\n  tag_19\n    /* \"#utility.yul\":223:228   */\n  dup3\n    /* \"#utility.yul\":205:229   */\n  tag_13\n  jump\t// in\ntag_19:\n    /* \"#utility.yul\":194:229   */\n  swap1\n  pop\n    /* \"#utility.yul\":139:235   */\n  swap2\n  swap1\n  pop\n  jump\t// out\n    /* \"#utility.yul\":241:359   */\ntag_15:\n    /* \"#utility.yul\":328:352   */\n  tag_21\n    /* \"#utility.yul\":346:351   */\n  dup2\n    /* \"#utility.yul\":328:352   */\n  tag_14\n  jump\t// in\ntag_21:\n    /* \"#utility.yul\":323:326   */\n  dup3\n    /* \"#utility.yul\":316:353   */\n  mstore\n    /* \"#utility.yul\":241:359   */\n  pop\n  pop\n  jump\t// out\n    /* \"#utility.yul\":365:587   */\ntag_7:\n    /* \"#utility.yul\":458:462   */\n  0x00\n    /* \"#utility.yul\":496:498   */\n  0x20\n    /* \"#utility.yul\":485:494   */\n  dup3\n    /* \"#utility.yul\":481:499   */\n  add\n    /* \"#utility.yul\":473:499   */\n  swap1\n  pop\n    /* \"#utility.yul\":509:580   */\n  tag_23\n    /* \"#utility.yul\":577:578   */\n  0x00\n    /* \"#utility.yul\":566:575   */\n  dup4\n    /* \"#utility.yul\":562:579   */\n  add\n    /* \"#utility.yul\":553:559   */\n  dup5\n    /* \"#utility.yul\":509:580   */\n  tag_15\n  jump\t// in\ntag_23:\n    /* \"#utility.yul\":365:587   */\n  swap3\n  swap2\n  pop\n  pop\n  jump\t// out\n    /* \"smarrt.sol\":168:3442  contract LendingProtocol is Ownable {... */\ntag_11:\n  dataSize(sub_0)\n  dup1\n  dataOffset(sub_0)\n  0x00\n  codecopy\n  0x00\n  return\nstop\n\nsub_0: assembly {\n        /* \"smarrt.sol\":168:3442  contract LendingProtocol is Ownable {... */\n      mstore(0x40, 0x80)\n      callvalue\n      dup1\n      iszero\n      tag_1\n      jumpi\n      0x00\n      dup1\n      revert\n    tag_1:\n      pop\n      jumpi(tag_2, lt(calldatasize, 0x04))\n      shr(0xe0, calldataload(0x00))\n      dup1\n      0xd13d5e56\n      gt\n      tag_13\n      jumpi\n      dup1\n      0xd13d5e56\n      eq\n      tag_8\n      jumpi\n      dup1\n      0xd988ef20\n      eq\n      tag_9\n      jumpi\n      dup1\n      0xe7153a7c\n      eq\n      tag_10\n      jumpi\n      dup1\n      0xf2fde38b\n      eq\n      tag_11\n      jumpi\n      dup1\n      0xf53c61e0\n      eq\n      tag_12\n      jumpi\n      jump(tag_2)\n    tag_13:\n      dup1\n      0x06b091f9\n      eq\n      tag_3\n      jumpi\n      dup1\n      0x715018a6\n      eq\n      tag_4\n      jumpi\n      dup1\n      0x8da5cb5b\n      eq\n      tag_5\n      jumpi\n      dup1\n      0x98c61c37\n      eq\n      tag_6\n      jumpi\n      dup1\n      0xab7b1c89\n      eq\n      tag_7\n      jumpi\n    tag_2:\n      0x00\n      dup1\n      revert\n        /* \"smarrt.sol\":3307:3440  function withdrawTokens(address token, uint256 amount) external onlyOwner {... */\n    tag_3:\n      tag_14\n      0x04\n      dup1\n      calldatasize\n      sub\n      dup2\n      add\n      swap1\n      tag_15\n      swap2\n      swap1\n      tag_16\n      jump\t// in\n    tag_15:\n      tag_17\n      jump\t// in\n    tag_14:\n      stop\n        /* \"@openzeppelin/contracts/access/Ownable.sol\":2293:2394  function renounceOwnership() public virtual onlyOwner {... */\n    tag_4:\n      tag_18\n      tag_19\n      jump\t// in\n    tag_18:\n      stop\n        /* \"@openzeppelin/contracts/access/Ownable.sol\":1638:1723  function owner() public view virtual returns (address) {... */\n    tag_5:\n      tag_20\n      tag_21\n      jump\t// in\n    tag_20:\n      mload(0x40)\n      tag_22\n      swap2\n      swap1\n      tag_23\n      jump\t// in\n    tag_22:\n      mload(0x40)\n      dup1\n      swap2\n      sub\n      swap1\n      return\n        /* \"smarrt.sol\":380:419  mapping(address => Loan[]) public loans */\n    tag_6:\n      tag_24\n      0x04\n      dup1\n      calldatasize\n      sub\n      dup2\n      add\n      swap1\n      tag_25\n      swap2\n      swap1\n      tag_16\n      jump\t// in\n    tag_25:\n      tag_26\n      jump\t// in\n    tag_24:\n      mload(0x40)\n      tag_27\n      swap6\n      swap5\n      swap4\n      swap3\n      swap2\n      swap1\n      tag_28\n      jump\t// in\n    tag_27:\n      mload(0x40)\n      dup1\n      swap2\n      sub\n      swap1\n      return\n        /* \"smarrt.sol\":1998:2858  function repayLoan(uint256 loanIndex) external {... */\n    tag_7:\n      tag_29\n      0x04\n      dup1\n      calldatasize\n      sub\n      dup2\n      add\n      swap1\n      tag_30\n      swap2\n      swap1\n      tag_31\n      jump\t// in\n    tag_30:\n      tag_32\n      jump\t// in\n    tag_29:\n      stop\n        /* \"smarrt.sol\":2975:3185  function getLoanDetails(address user, uint256 loanIndex) external view returns (Loan memory) {... */\n    tag_8:\n      tag_33\n      0x04\n      dup1\n      calldatasize\n      sub\n      dup2\n      add\n      swap1\n      tag_34\n      swap2\n      swap1\n      tag_16\n      jump\t// in\n    tag_34:\n      tag_35\n      jump\t// in\n    tag_33:\n      mload(0x40)\n      tag_36\n      swap2\n      swap1\n      tag_37\n      jump\t// in\n    tag_36:\n      mload(0x40)\n      dup1\n      swap2\n      sub\n      swap1\n      return\n        /* \"smarrt.sol\":2864:2969  function getLoans(address user) external view returns (Loan[] memory) {... */\n    tag_9:\n      tag_38\n      0x04\n      dup1\n      calldatasize\n      sub\n      dup2\n      add\n      swap1\n      tag_39\n      swap2\n      swap1\n      tag_40\n      jump\t// in\n    tag_39:\n      tag_41\n      jump\t// in\n    tag_38:\n      mload(0x40)\n      tag_42\n      swap2\n      swap1\n      tag_43\n      jump\t// in\n    tag_42:\n      mload(0x40)\n      dup1\n      swap2\n      sub\n      swap1\n      return\n        /* \"smarrt.sol\":783:1992  function lockCollateralAndBorrow(... */\n    tag_10:\n      tag_44\n      0x04\n      dup1\n      calldatasize\n      sub\n      dup2\n      add\n      swap1\n      tag_45\n      swap2\n      swap1\n      tag_46\n      jump\t// in\n    tag_45:\n      tag_47\n      jump\t// in\n    tag_44:\n      stop\n        /* \"@openzeppelin/contracts/access/Ownable.sol\":2543:2758  function transferOwnership(address newOwner) public virtual onlyOwner {... */\n    tag_11:\n      tag_48\n      0x04\n      dup1\n      calldatasize\n      sub\n      dup2\n      add\n      swap1\n      tag_49\n      swap2\n      swap1\n      tag_40\n      jump\t// in\n    tag_49:\n      tag_50\n      jump\t// in\n    tag_48:\n      stop\n        /* \"smarrt.sol\":3191:3301  function getLoanCount(address user) external view returns (uint256) {... */\n    tag_12:\n      tag_51\n      0x04\n      dup1\n      calldatasize\n      sub\n      dup2\n      add\n      swap1\n      tag_52\n      swap2\n      swap1\n      tag_40\n      jump\t// in\n    tag_52:\n      tag_53\n      jump\t// in\n    tag_51:\n      mload(0x40)\n      tag_54\n      swap2\n      swap1\n      tag_55\n      jump\t// in\n    tag_54:\n      mload(0x40)\n      dup1\n      swap2\n      sub\n      swap1\n      return\n        /* \"smarrt.sol\":3307:3440  function withdrawTokens(address token, uint256 amount) external onlyOwner {... */\n    tag_17:\n        /* \"@openzeppelin/contracts/access/Ownable.sol\":1531:1544  _checkOwner() */\n      tag_57\n        /* \"@openzeppelin/contracts/access/Ownable.sol\":1531:1542  _checkOwner */\n      tag_58\n        /* \"@openzeppelin/contracts/access/Ownable.sol\":1531:1544  _checkOwner() */\n      jump\t// in\n    tag_57:\n        /* \"smarrt.sol\":3398:3403  token */\n      dup2\n        /* \"smarrt.sol\":3391:3413  IERC20(token).transfer */\n      0xffffffffffffffffffffffffffffffffffffffff\n      and\n      0xa9059cbb\n        /* \"smarrt.sol\":3414:3424  msg.sender */\n      caller\n        /* \"smarrt.sol\":3426:3432  amount */\n      dup4\n        /* \"smarrt.sol\":3391:3433  IERC20(token).transfer(msg.sender, amount) */\n      mload(0x40)\n      dup4\n      0xffffffff\n      and\n      0xe0\n      shl\n      dup2\n      mstore\n      0x04\n      add\n      tag_60\n      swap3\n      swap2\n      swap1\n      tag_61\n      jump\t// in\n    tag_60:\n      0x20\n      mload(0x40)\n      dup1\n      dup4\n      sub\n      dup2\n      0x00\n      dup8\n      gas\n      call\n      iszero\n      dup1\n      iszero\n      tag_63\n      jumpi\n      returndatasize\n      0x00\n      dup1\n      returndatacopy\n      revert(0x00, returndatasize)\n    tag_63:\n      pop\n      pop\n      pop\n      pop\n      mload(0x40)\n      returndatasize\n      not(0x1f)\n      0x1f\n      dup3\n      add\n      and\n      dup3\n      add\n      dup1\n      0x40\n      mstore\n      pop\n      dup2\n      add\n      swap1\n      tag_64\n      swap2\n      swap1\n      tag_65\n      jump\t// in\n    tag_64:\n      pop\n        /* \"smarrt.sol\":3307:3440  function withdrawTokens(address token, uint256 amount) external onlyOwner {... */\n      pop\n      pop\n      jump\t// out\n        /* \"@openzeppelin/contracts/access/Ownable.sol\":2293:2394  function renounceOwnership() public virtual onlyOwner {... */\n    tag_19:\n        /* \"@openzeppelin/contracts/access/Ownable.sol\":1531:1544  _checkOwner() */\n      tag_67\n        /* \"@openzeppelin/contracts/access/Ownable.sol\":1531:1542  _checkOwner */\n      tag_58\n        /* \"@openzeppelin/contracts/access/Ownable.sol\":1531:1544  _checkOwner() */\n      jump\t// in\n    tag_67:\n        /* \"@openzeppelin/contracts/access/Ownable.sol\":2357:2387  _transferOwnership(address(0)) */\n      tag_69\n        /* \"@openzeppelin/contracts/access/Ownable.sol\":2384:2385  0 */\n      0x00\n        /* \"@openzeppelin/contracts/access/Ownable.sol\":2357:2375  _transferOwnership */\n      tag_70\n        /* \"@openzeppelin/contracts/access/Ownable.sol\":2357:2387  _transferOwnership(address(0)) */\n      jump\t// in\n    tag_69:\n        /* \"@openzeppelin/contracts/access/Ownable.sol\":2293:2394  function renounceOwnership() public virtual onlyOwner {... */\n      jump\t// out\n        /* \"@openzeppelin/contracts/access/Ownable.sol\":1638:1723  function owner() public view virtual returns (address) {... */\n    tag_21:\n        /* \"@openzeppelin/contracts/access/Ownable.sol\":1684:1691  address */\n      0x00\n        /* \"@openzeppelin/contracts/access/Ownable.sol\":1710:1716  _owner */\n      dup1\n      0x00\n      swap1\n      sload\n      swap1\n      0x0100\n      exp\n      swap1\n      div\n      0xffffffffffffffffffffffffffffffffffffffff\n      and\n        /* \"@openzeppelin/contracts/access/Ownable.sol\":1703:1716  return _owner */\n      swap1\n      pop\n        /* \"@openzeppelin/contracts/access/Ownable.sol\":1638:1723  function owner() public view virtual returns (address) {... */\n      swap1\n      jump\t// out\n        /* \"smarrt.sol\":380:419  mapping(address => Loan[]) public loans */\n    tag_26:\n      mstore(0x20, 0x01)\n      dup2\n      0x00\n      mstore\n      keccak256(0x00, 0x40)\n      dup2\n      dup2\n      sload\n      dup2\n      lt\n      tag_72\n      jumpi\n      0x00\n      dup1\n      revert\n    tag_72:\n      swap1\n      0x00\n      mstore\n      keccak256(0x00, 0x20)\n      swap1\n      0x04\n      mul\n      add\n      0x00\n      swap2\n      pop\n      swap2\n      pop\n      pop\n      dup1\n      0x00\n      add\n      sload\n      swap1\n      dup1\n      0x01\n      add\n      sload\n      swap1\n      dup1\n      0x02\n      add\n      0x00\n      swap1\n      sload\n      swap1\n      0x0100\n      exp\n      swap1\n      div\n      0xffffffffffffffffffffffffffffffffffffffff\n      and\n      swap1\n      dup1\n      0x03\n      add\n      0x00\n      swap1\n      sload\n      swap1\n      0x0100\n      exp\n      swap1\n      div\n      0xffffffffffffffffffffffffffffffffffffffff\n      and\n      swap1\n      dup1\n      0x03\n      add\n      0x14\n      swap1\n      sload\n      swap1\n      0x0100\n      exp\n      swap1\n      div\n      0xff\n      and\n      swap1\n      pop\n      dup6\n      jump\t// out\n        /* \"smarrt.sol\":1998:2858  function repayLoan(uint256 loanIndex) external {... */\n    tag_32:\n        /* \"smarrt.sol\":2075:2080  loans */\n      0x01\n        /* \"smarrt.sol\":2075:2092  loans[msg.sender] */\n      0x00\n        /* \"smarrt.sol\":2081:2091  msg.sender */\n      caller\n        /* \"smarrt.sol\":2075:2092  loans[msg.sender] */\n      0xffffffffffffffffffffffffffffffffffffffff\n      and\n      0xffffffffffffffffffffffffffffffffffffffff\n      and\n      dup2\n      mstore\n      0x20\n      add\n      swap1\n      dup2\n      mstore\n      0x20\n      add\n      0x00\n      keccak256\n        /* \"smarrt.sol\":2075:2099  loans[msg.sender].length */\n      dup1\n      sload\n      swap1\n      pop\n        /* \"smarrt.sol\":2063:2072  loanIndex */\n      dup2\n        /* \"smarrt.sol\":2063:2099  loanIndex < loans[msg.sender].length */\n      lt\n        /* \"smarrt.sol\":2055:2122  require(loanIndex < loans[msg.sender].length, \"Invalid loan index\") */\n      tag_75\n      jumpi\n      mload(0x40)\n      0x08c379a000000000000000000000000000000000000000000000000000000000\n      dup2\n      mstore\n      0x04\n      add\n      tag_76\n      swap1\n      tag_77\n      jump\t// in\n    tag_76:\n      mload(0x40)\n      dup1\n      swap2\n      sub\n      swap1\n      revert\n    tag_75:\n        /* \"smarrt.sol\":2132:2153  Loan storage userLoan */\n      0x00\n        /* \"smarrt.sol\":2156:2161  loans */\n      0x01\n        /* \"smarrt.sol\":2156:2173  loans[msg.sender] */\n      0x00\n        /* \"smarrt.sol\":2162:2172  msg.sender */\n      caller\n        /* \"smarrt.sol\":2156:2173  loans[msg.sender] */\n      0xffffffffffffffffffffffffffffffffffffffff\n      and\n      0xffffffffffffffffffffffffffffffffffffffff\n      and\n      dup2\n      mstore\n      0x20\n      add\n      swap1\n      dup2\n      mstore\n      0x20\n      add\n      0x00\n      keccak256\n        /* \"smarrt.sol\":2174:2183  loanIndex */\n      dup3\n        /* \"smarrt.sol\":2156:2184  loans[msg.sender][loanIndex] */\n      dup2\n      sload\n      dup2\n      lt\n      tag_78\n      jumpi\n      tag_79\n      tag_80\n      jump\t// in\n    tag_79:\n    tag_78:\n      swap1\n      0x00\n      mstore\n      keccak256(0x00, 0x20)\n      swap1\n      0x04\n      mul\n      add\n        /* \"smarrt.sol\":2132:2184  Loan storage userLoan = loans[msg.sender][loanIndex] */\n      swap1\n      pop\n        /* \"smarrt.sol\":2203:2211  userLoan */\n      dup1\n        /* \"smarrt.sol\":2203:2220  userLoan.isRepaid */\n      0x03\n      add\n      0x14\n      swap1\n      sload\n      swap1\n      0x0100\n      exp\n      swap1\n      div\n      0xff\n      and\n        /* \"smarrt.sol\":2202:2220  !userLoan.isRepaid */\n      iszero\n        /* \"smarrt.sol\":2194:2244  require(!userLoan.isRepaid, \"Loan already repaid\") */\n      tag_82\n      jumpi\n      mload(0x40)\n      0x08c379a000000000000000000000000000000000000000000000000000000000\n      dup2\n      mstore\n      0x04\n      add\n      tag_83\n      swap1\n      tag_84\n      jump\t// in\n    tag_83:\n      mload(0x40)\n      dup1\n      swap2\n      sub\n      swap1\n      revert\n    tag_82:\n        /* \"smarrt.sol\":2255:2266  IERC20 loan */\n      0x00\n        /* \"smarrt.sol\":2276:2284  userLoan */\n      dup2\n        /* \"smarrt.sol\":2276:2294  userLoan.loanToken */\n      0x03\n      add\n      0x00\n      swap1\n      sload\n      swap1\n      0x0100\n      exp\n      swap1\n      div\n      0xffffffffffffffffffffffffffffffffffffffff\n      and\n        /* \"smarrt.sol\":2255:2295  IERC20 loan = IERC20(userLoan.loanToken) */\n      swap1\n      pop\n        /* \"smarrt.sol\":2305:2322  IERC20 collateral */\n      0x00\n        /* \"smarrt.sol\":2332:2340  userLoan */\n      dup3\n        /* \"smarrt.sol\":2332:2356  userLoan.collateralToken */\n      0x02\n      add\n      0x00\n      swap1\n      sload\n      swap1\n      0x0100\n      exp\n      swap1\n      div\n      0xffffffffffffffffffffffffffffffffffffffff\n      and\n        /* \"smarrt.sol\":2305:2357  IERC20 collateral = IERC20(userLoan.collateralToken) */\n      swap1\n      pop\n        /* \"smarrt.sol\":2419:2427  userLoan */\n      dup3\n        /* \"smarrt.sol\":2419:2438  userLoan.loanAmount */\n      0x01\n      add\n      sload\n        /* \"smarrt.sol\":2389:2393  loan */\n      dup3\n        /* \"smarrt.sol\":2389:2403  loan.balanceOf */\n      0xffffffffffffffffffffffffffffffffffffffff\n      and\n      0x70a08231\n        /* \"smarrt.sol\":2404:2414  msg.sender */\n      caller\n        /* \"smarrt.sol\":2389:2415  loan.balanceOf(msg.sender) */\n      mload(0x40)\n      dup3\n      0xffffffff\n      and\n      0xe0\n      shl\n      dup2\n      mstore\n      0x04\n      add\n      tag_85\n      swap2\n      swap1\n      tag_23\n      jump\t// in\n    tag_85:\n      0x20\n      mload(0x40)\n      dup1\n      dup4\n      sub\n      dup2\n      dup7\n      gas\n      staticcall\n      iszero\n      dup1\n      iszero\n      tag_87\n      jumpi\n      returndatasize\n      0x00\n      dup1\n      returndatacopy\n      revert(0x00, returndatasize)\n    tag_87:\n      pop\n      pop\n      pop\n      pop\n      mload(0x40)\n      returndatasize\n      not(0x1f)\n      0x1f\n      dup3\n      add\n      and\n      dup3\n      add\n      dup1\n      0x40\n      mstore\n      pop\n      dup2\n      add\n      swap1\n      tag_88\n      swap2\n      swap1\n      tag_89\n      jump\t// in\n    tag_88:\n        /* \"smarrt.sol\":2389:2438  loan.balanceOf(msg.sender) >= userLoan.loanAmount */\n      lt\n      iszero\n        /* \"smarrt.sol\":2368:2495  require(... */\n      tag_90\n      jumpi\n      mload(0x40)\n      0x08c379a000000000000000000000000000000000000000000000000000000000\n      dup2\n      mstore\n      0x04\n      add\n      tag_91\n      swap1\n      tag_92\n      jump\t// in\n    tag_91:\n      mload(0x40)\n      dup1\n      swap2\n      sub\n      swap1\n      revert\n    tag_90:\n        /* \"smarrt.sol\":2506:2510  loan */\n      dup2\n        /* \"smarrt.sol\":2506:2523  loan.transferFrom */\n      0xffffffffffffffffffffffffffffffffffffffff\n      and\n      0x23b872dd\n        /* \"smarrt.sol\":2524:2534  msg.sender */\n      caller\n        /* \"smarrt.sol\":2544:2548  this */\n      address\n        /* \"smarrt.sol\":2551:2559  userLoan */\n      dup7\n        /* \"smarrt.sol\":2551:2570  userLoan.loanAmount */\n      0x01\n      add\n      sload\n        /* \"smarrt.sol\":2506:2571  loan.transferFrom(msg.sender, address(this), userLoan.loanAmount) */\n      mload(0x40)\n      dup5\n      0xffffffff\n      and\n      0xe0\n      shl\n      dup2\n      mstore\n      0x04\n      add\n      tag_93\n      swap4\n      swap3\n      swap2\n      swap1\n      tag_94\n      jump\t// in\n    tag_93:\n      0x20\n      mload(0x40)\n      dup1\n      dup4\n      sub\n      dup2\n      0x00\n      dup8\n      gas\n      call\n      iszero\n      dup1\n      iszero\n      tag_96\n      jumpi\n      returndatasize\n      0x00\n      dup1\n      returndatacopy\n      revert(0x00, returndatasize)\n    tag_96:\n      pop\n      pop\n      pop\n      pop\n      mload(0x40)\n      returndatasize\n      not(0x1f)\n      0x1f\n      dup3\n      add\n      and\n      dup3\n      add\n      dup1\n      0x40\n      mstore\n      pop\n      dup2\n      add\n      swap1\n      tag_97\n      swap2\n      swap1\n      tag_65\n      jump\t// in\n    tag_97:\n      pop\n        /* \"smarrt.sol\":2581:2591  collateral */\n      dup1\n        /* \"smarrt.sol\":2581:2600  collateral.transfer */\n      0xffffffffffffffffffffffffffffffffffffffff\n      and\n      0xa9059cbb\n        /* \"smarrt.sol\":2601:2611  msg.sender */\n      caller\n        /* \"smarrt.sol\":2613:2621  userLoan */\n      dup6\n        /* \"smarrt.sol\":2613:2638  userLoan.collateralAmount */\n      0x00\n      add\n      sload\n        /* \"smarrt.sol\":2581:2639  collateral.transfer(msg.sender, userLoan.collateralAmount) */\n      mload(0x40)\n      dup4\n      0xffffffff\n      and\n      0xe0\n      shl\n      dup2\n      mstore\n      0x04\n      add\n      tag_98\n      swap3\n      swap2\n      swap1\n      tag_61\n      jump\t// in\n    tag_98:\n      0x20\n      mload(0x40)\n      dup1\n      dup4\n      sub\n      dup2\n      0x00\n      dup8\n      gas\n      call\n      iszero\n      dup1\n      iszero\n      tag_100\n      jumpi\n      returndatasize\n      0x00\n      dup1\n      returndatacopy\n      revert(0x00, returndatasize)\n    tag_100:\n      pop\n      pop\n      pop\n      pop\n      mload(0x40)\n      returndatasize\n      not(0x1f)\n      0x1f\n      dup3\n      add\n      and\n      dup3\n      add\n      dup1\n      0x40\n      mstore\n      pop\n      dup2\n      add\n      swap1\n      tag_101\n      swap2\n      swap1\n      tag_65\n      jump\t// in\n    tag_101:\n      pop\n        /* \"smarrt.sol\":2670:2674  true */\n      0x01\n        /* \"smarrt.sol\":2650:2658  userLoan */\n      dup4\n        /* \"smarrt.sol\":2650:2667  userLoan.isRepaid */\n      0x03\n      add\n      0x14\n        /* \"smarrt.sol\":2650:2674  userLoan.isRepaid = true */\n      0x0100\n      exp\n      dup2\n      sload\n      dup2\n      0xff\n      mul\n      not\n      and\n      swap1\n      dup4\n      iszero\n      iszero\n      mul\n      or\n      swap1\n      sstore\n      pop\n        /* \"smarrt.sol\":2701:2711  msg.sender */\n      caller\n        /* \"smarrt.sol\":2690:2753  LoanRepaid(msg.sender, userLoan.loanAmount, userLoan.loanToken) */\n      0xffffffffffffffffffffffffffffffffffffffff\n      and\n      0x0d92e40293701683f5207fc6802754aaddf166e5f5da04d1077d8d55fefb61b0\n        /* \"smarrt.sol\":2713:2721  userLoan */\n      dup5\n        /* \"smarrt.sol\":2713:2732  userLoan.loanAmount */\n      0x01\n      add\n      sload\n        /* \"smarrt.sol\":2734:2742  userLoan */\n      dup6\n        /* \"smarrt.sol\":2734:2752  userLoan.loanToken */\n      0x03\n      add\n      0x00\n      swap1\n      sload\n      swap1\n      0x0100\n      exp\n      swap1\n      div\n      0xffffffffffffffffffffffffffffffffffffffff\n      and\n        /* \"smarrt.sol\":2690:2753  LoanRepaid(msg.sender, userLoan.loanAmount, userLoan.loanToken) */\n      mload(0x40)\n      tag_102\n      swap3\n      swap2\n      swap1\n      tag_103\n      jump\t// in\n    tag_102:\n      mload(0x40)\n      dup1\n      swap2\n      sub\n      swap1\n      log2\n        /* \"smarrt.sol\":2787:2797  msg.sender */\n      caller\n        /* \"smarrt.sol\":2768:2851  CollateralReleased(msg.sender, userLoan.collateralAmount, userLoan.collateralToken) */\n      0xffffffffffffffffffffffffffffffffffffffff\n      and\n      0x887eb7234a2c4fa94c5778832c90928b2ce458cfee0053ed170baa8cde476fb5\n        /* \"smarrt.sol\":2799:2807  userLoan */\n      dup5\n        /* \"smarrt.sol\":2799:2824  userLoan.collateralAmount */\n      0x00\n      add\n      sload\n        /* \"smarrt.sol\":2826:2834  userLoan */\n      dup6\n        /* \"smarrt.sol\":2826:2850  userLoan.collateralToken */\n      0x02\n      add\n      0x00\n      swap1\n      sload\n      swap1\n      0x0100\n      exp\n      swap1\n      div\n      0xffffffffffffffffffffffffffffffffffffffff\n      and\n        /* \"smarrt.sol\":2768:2851  CollateralReleased(msg.sender, userLoan.collateralAmount, userLoan.collateralToken) */\n      mload(0x40)\n      tag_104\n      swap3\n      swap2\n      swap1\n      tag_103\n      jump\t// in\n    tag_104:\n      mload(0x40)\n      dup1\n      swap2\n      sub\n      swap1\n      log2\n        /* \"smarrt.sol\":2045:2858  {... */\n      pop\n      pop\n      pop\n        /* \"smarrt.sol\":1998:2858  function repayLoan(uint256 loanIndex) external {... */\n      pop\n      jump\t// out\n        /* \"smarrt.sol\":2975:3185  function getLoanDetails(address user, uint256 loanIndex) external view returns (Loan memory) {... */\n    tag_35:\n        /* \"smarrt.sol\":3055:3066  Loan memory */\n      tag_105\n      tag_106\n      jump\t// in\n    tag_105:\n        /* \"smarrt.sol\":3098:3103  loans */\n      0x01\n        /* \"smarrt.sol\":3098:3109  loans[user] */\n      0x00\n        /* \"smarrt.sol\":3104:3108  user */\n      dup5\n        /* \"smarrt.sol\":3098:3109  loans[user] */\n      0xffffffffffffffffffffffffffffffffffffffff\n      and\n      0xffffffffffffffffffffffffffffffffffffffff\n      and\n      dup2\n      mstore\n      0x20\n      add\n      swap1\n      dup2\n      mstore\n      0x20\n      add\n      0x00\n      keccak256\n        /* \"smarrt.sol\":3098:3116  loans[user].length */\n      dup1\n      sload\n      swap1\n      pop\n        /* \"smarrt.sol\":3086:3095  loanIndex */\n      dup3\n        /* \"smarrt.sol\":3086:3116  loanIndex < loans[user].length */\n      lt\n        /* \"smarrt.sol\":3078:3139  require(loanIndex < loans[user].length, \"Invalid loan index\") */\n      tag_108\n      jumpi\n      mload(0x40)\n      0x08c379a000000000000000000000000000000000000000000000000000000000\n      dup2\n      mstore\n      0x04\n      add\n      tag_109\n      swap1\n      tag_77\n      jump\t// in\n    tag_109:\n      mload(0x40)\n      dup1\n      swap2\n      sub\n      swap1\n      revert\n    tag_108:\n        /* \"smarrt.sol\":3156:3161  loans */\n      0x01\n        /* \"smarrt.sol\":3156:3167  loans[user] */\n      0x00\n        /* \"smarrt.sol\":3162:3166  user */\n      dup5\n        /* \"smarrt.sol\":3156:3167  loans[user] */\n      0xffffffffffffffffffffffffffffffffffffffff\n      and\n      0xffffffffffffffffffffffffffffffffffffffff\n      and\n      dup2\n      mstore\n      0x20\n      add\n      swap1\n      dup2\n      mstore\n      0x20\n      add\n      0x00\n      keccak256\n        /* \"smarrt.sol\":3168:3177  loanIndex */\n      dup3\n        /* \"smarrt.sol\":3156:3178  loans[user][loanIndex] */\n      dup2\n      sload\n      dup2\n      lt\n      tag_110\n      jumpi\n      tag_111\n      tag_80\n      jump\t// in\n    tag_111:\n    tag_110:\n      swap1\n      0x00\n      mstore\n      keccak256(0x00, 0x20)\n      swap1\n      0x04\n      mul\n      add\n        /* \"smarrt.sol\":3149:3178  return loans[user][loanIndex] */\n      mload(0x40)\n      dup1\n      0xa0\n      add\n      0x40\n      mstore\n      swap1\n      dup2\n      0x00\n      dup3\n      add\n      sload\n      dup2\n      mstore\n      0x20\n      add\n      0x01\n      dup3\n      add\n      sload\n      dup2\n      mstore\n      0x20\n      add\n      0x02\n      dup3\n      add\n      0x00\n      swap1\n      sload\n      swap1\n      0x0100\n      exp\n      swap1\n      div\n      0xffffffffffffffffffffffffffffffffffffffff\n      and\n      0xffffffffffffffffffffffffffffffffffffffff\n      and\n      0xffffffffffffffffffffffffffffffffffffffff\n      and\n      dup2\n      mstore\n      0x20\n      add\n      0x03\n      dup3\n      add\n      0x00\n      swap1\n      sload\n      swap1\n      0x0100\n      exp\n      swap1\n      div\n      0xffffffffffffffffffffffffffffffffffffffff\n      and\n      0xffffffffffffffffffffffffffffffffffffffff\n      and\n      0xffffffffffffffffffffffffffffffffffffffff\n      and\n      dup2\n      mstore\n      0x20\n      add\n      0x03\n      dup3\n      add\n      0x14\n      swap1\n      sload\n      swap1\n      0x0100\n      exp\n      swap1\n      div\n      0xff\n      and\n      iszero\n      iszero\n      iszero\n      iszero\n      dup2\n      mstore\n      pop\n      pop\n      swap1\n      pop\n        /* \"smarrt.sol\":2975:3185  function getLoanDetails(address user, uint256 loanIndex) external view returns (Loan memory) {... */\n      swap3\n      swap2\n      pop\n      pop\n      jump\t// out\n        /* \"smarrt.sol\":2864:2969  function getLoans(address user) external view returns (Loan[] memory) {... */\n    tag_41:\n        /* \"smarrt.sol\":2919:2932  Loan[] memory */\n      0x60\n        /* \"smarrt.sol\":2951:2956  loans */\n      0x01\n        /* \"smarrt.sol\":2951:2962  loans[user] */\n      0x00\n        /* \"smarrt.sol\":2957:2961  user */\n      dup4\n        /* \"smarrt.sol\":2951:2962  loans[user] */\n      0xffffffffffffffffffffffffffffffffffffffff\n      and\n      0xffffffffffffffffffffffffffffffffffffffff\n      and\n      dup2\n      mstore\n      0x20\n      add\n      swap1\n      dup2\n      mstore\n      0x20\n      add\n      0x00\n      keccak256\n        /* \"smarrt.sol\":2944:2962  return loans[user] */\n      dup1\n      sload\n      dup1\n      0x20\n      mul\n      0x20\n      add\n      mload(0x40)\n      swap1\n      dup2\n      add\n      0x40\n      mstore\n      dup1\n      swap3\n      swap2\n      swap1\n      dup2\n      dup2\n      mstore\n      0x20\n      add\n      0x00\n      swap1\n    tag_114:\n      dup3\n      dup3\n      lt\n      iszero\n      tag_115\n      jumpi\n      dup4\n      dup3\n      swap1\n      0x00\n      mstore\n      keccak256(0x00, 0x20)\n      swap1\n      0x04\n      mul\n      add\n      mload(0x40)\n      dup1\n      0xa0\n      add\n      0x40\n      mstore\n      swap1\n      dup2\n      0x00\n      dup3\n      add\n      sload\n      dup2\n      mstore\n      0x20\n      add\n      0x01\n      dup3\n      add\n      sload\n      dup2\n      mstore\n      0x20\n      add\n      0x02\n      dup3\n      add\n      0x00\n      swap1\n      sload\n      swap1\n      0x0100\n      exp\n      swap1\n      div\n      0xffffffffffffffffffffffffffffffffffffffff\n      and\n      0xffffffffffffffffffffffffffffffffffffffff\n      and\n      0xffffffffffffffffffffffffffffffffffffffff\n      and\n      dup2\n      mstore\n      0x20\n      add\n      0x03\n      dup3\n      add\n      0x00\n      swap1\n      sload\n      swap1\n      0x0100\n      exp\n      swap1\n      div\n      0xffffffffffffffffffffffffffffffffffffffff\n      and\n      0xffffffffffffffffffffffffffffffffffffffff\n      and\n      0xffffffffffffffffffffffffffffffffffffffff\n      and\n      dup2\n      mstore\n      0x20\n      add\n      0x03\n      dup3\n      add\n      0x14\n      swap1\n      sload\n      swap1\n      0x0100\n      exp\n      swap1\n      div\n      0xff\n      and\n      iszero\n      iszero\n      iszero\n      iszero\n      dup2\n      mstore\n      pop\n      pop\n      dup2\n      mstore\n      0x20\n      add\n      swap1\n      0x01\n      add\n      swap1\n      jump(tag_114)\n    tag_115:\n      pop\n      pop\n      pop\n      pop\n      swap1\n      pop\n        /* \"smarrt.sol\":2864:2969  function getLoans(address user) external view returns (Loan[] memory) {... */\n      swap2\n      swap1\n      pop\n      jump\t// out\n        /* \"smarrt.sol\":783:1992  function lockCollateralAndBorrow(... */\n    tag_47:\n        /* \"smarrt.sol\":990:991  0 */\n      0x00\n        /* \"smarrt.sol\":971:987  collateralAmount */\n      dup5\n        /* \"smarrt.sol\":971:991  collateralAmount > 0 */\n      gt\n        /* \"smarrt.sol\":963:1036  require(collateralAmount > 0, \"Collateral amount must be greater than 0\") */\n      tag_118\n      jumpi\n      mload(0x40)\n      0x08c379a000000000000000000000000000000000000000000000000000000000\n      dup2\n      mstore\n      0x04\n      add\n      tag_119\n      swap1\n      tag_120\n      jump\t// in\n    tag_119:\n      mload(0x40)\n      dup1\n      swap2\n      sub\n      swap1\n      revert\n    tag_118:\n        /* \"smarrt.sol\":1067:1068  0 */\n      0x00\n        /* \"smarrt.sol\":1054:1064  loanAmount */\n      dup3\n        /* \"smarrt.sol\":1054:1068  loanAmount > 0 */\n      gt\n        /* \"smarrt.sol\":1046:1107  require(loanAmount > 0, \"Loan amount must be greater than 0\") */\n      tag_121\n      jumpi\n      mload(0x40)\n      0x08c379a000000000000000000000000000000000000000000000000000000000\n      dup2\n      mstore\n      0x04\n      add\n      tag_122\n      swap1\n      tag_123\n      jump\t// in\n    tag_122:\n      mload(0x40)\n      dup1\n      swap2\n      sub\n      swap1\n      revert\n    tag_121:\n        /* \"smarrt.sol\":1118:1135  IERC20 collateral */\n      0x00\n        /* \"smarrt.sol\":1145:1160  collateralToken */\n      dup4\n        /* \"smarrt.sol\":1118:1161  IERC20 collateral = IERC20(collateralToken) */\n      swap1\n      pop\n        /* \"smarrt.sol\":1171:1182  IERC20 loan */\n      0x00\n        /* \"smarrt.sol\":1192:1201  loanToken */\n      dup3\n        /* \"smarrt.sol\":1171:1202  IERC20 loan = IERC20(loanToken) */\n      swap1\n      pop\n        /* \"smarrt.sol\":1270:1286  collateralAmount */\n      dup6\n        /* \"smarrt.sol\":1234:1244  collateral */\n      dup3\n        /* \"smarrt.sol\":1234:1254  collateral.balanceOf */\n      0xffffffffffffffffffffffffffffffffffffffff\n      and\n      0x70a08231\n        /* \"smarrt.sol\":1255:1265  msg.sender */\n      caller\n        /* \"smarrt.sol\":1234:1266  collateral.balanceOf(msg.sender) */\n      mload(0x40)\n      dup3\n      0xffffffff\n      and\n      0xe0\n      shl\n      dup2\n      mstore\n      0x04\n      add\n      tag_124\n      swap2\n      swap1\n      tag_23\n      jump\t// in\n    tag_124:\n      0x20\n      mload(0x40)\n      dup1\n      dup4\n      sub\n      dup2\n      dup7\n      gas\n      staticcall\n      iszero\n      dup1\n      iszero\n      tag_126\n      jumpi\n      returndatasize\n      0x00\n      dup1\n      returndatacopy\n      revert(0x00, returndatasize)\n    tag_126:\n      pop\n      pop\n      pop\n      pop\n      mload(0x40)\n      returndatasize\n      not(0x1f)\n      0x1f\n      dup3\n      add\n      and\n      dup3\n      add\n      dup1\n      0x40\n      mstore\n      pop\n      dup2\n      add\n      swap1\n      tag_127\n      swap2\n      swap1\n      tag_89\n      jump\t// in\n    tag_127:\n        /* \"smarrt.sol\":1234:1286  collateral.balanceOf(msg.sender) >= collateralAmount */\n      lt\n      iszero\n        /* \"smarrt.sol\":1213:1343  require(... */\n      tag_128\n      jumpi\n      mload(0x40)\n      0x08c379a000000000000000000000000000000000000000000000000000000000\n      dup2\n      mstore\n      0x04\n      add\n      tag_129\n      swap1\n      tag_130\n      jump\t// in\n    tag_129:\n      mload(0x40)\n      dup1\n      swap2\n      sub\n      swap1\n      revert\n    tag_128:\n        /* \"smarrt.sol\":1407:1417  loanAmount */\n      dup4\n        /* \"smarrt.sol\":1374:1378  loan */\n      dup2\n        /* \"smarrt.sol\":1374:1388  loan.balanceOf */\n      0xffffffffffffffffffffffffffffffffffffffff\n      and\n      0x70a08231\n        /* \"smarrt.sol\":1397:1401  this */\n      address\n        /* \"smarrt.sol\":1374:1403  loan.balanceOf(address(this)) */\n      mload(0x40)\n      dup3\n      0xffffffff\n      and\n      0xe0\n      shl\n      dup2\n      mstore\n      0x04\n      add\n      tag_131\n      swap2\n      swap1\n      tag_23\n      jump\t// in\n    tag_131:\n      0x20\n      mload(0x40)\n      dup1\n      dup4\n      sub\n      dup2\n      dup7\n      gas\n      staticcall\n      iszero\n      dup1\n      iszero\n      tag_133\n      jumpi\n      returndatasize\n      0x00\n      dup1\n      returndatacopy\n      revert(0x00, returndatasize)\n    tag_133:\n      pop\n      pop\n      pop\n      pop\n      mload(0x40)\n      returndatasize\n      not(0x1f)\n      0x1f\n      dup3\n      add\n      and\n      dup3\n      add\n      dup1\n      0x40\n      mstore\n      pop\n      dup2\n      add\n      swap1\n      tag_134\n      swap2\n      swap1\n      tag_89\n      jump\t// in\n    tag_134:\n        /* \"smarrt.sol\":1374:1417  loan.balanceOf(address(this)) >= loanAmount */\n      lt\n      iszero\n        /* \"smarrt.sol\":1353:1476  require(... */\n      tag_135\n      jumpi\n      mload(0x40)\n      0x08c379a000000000000000000000000000000000000000000000000000000000\n      dup2\n      mstore\n      0x04\n      add\n      tag_136\n      swap1\n      tag_137\n      jump\t// in\n    tag_136:\n      mload(0x40)\n      dup1\n      swap2\n      sub\n      swap1\n      revert\n    tag_135:\n        /* \"smarrt.sol\":1487:1497  collateral */\n      dup2\n        /* \"smarrt.sol\":1487:1510  collateral.transferFrom */\n      0xffffffffffffffffffffffffffffffffffffffff\n      and\n      0x23b872dd\n        /* \"smarrt.sol\":1511:1521  msg.sender */\n      caller\n        /* \"smarrt.sol\":1531:1535  this */\n      address\n        /* \"smarrt.sol\":1538:1554  collateralAmount */\n      dup10\n        /* \"smarrt.sol\":1487:1555  collateral.transferFrom(msg.sender, address(this), collateralAmount) */\n      mload(0x40)\n      dup5\n      0xffffffff\n      and\n      0xe0\n      shl\n      dup2\n      mstore\n      0x04\n      add\n      tag_138\n      swap4\n      swap3\n      swap2\n      swap1\n      tag_94\n      jump\t// in\n    tag_138:\n      0x20\n      mload(0x40)\n      dup1\n      dup4\n      sub\n      dup2\n      0x00\n      dup8\n      gas\n      call\n      iszero\n      dup1\n      iszero\n      tag_140\n      jumpi\n      returndatasize\n      0x00\n      dup1\n      returndatacopy\n      revert(0x00, returndatasize)\n    tag_140:\n      pop\n      pop\n      pop\n      pop\n      mload(0x40)\n      returndatasize\n      not(0x1f)\n      0x1f\n      dup3\n      add\n      and\n      dup3\n      add\n      dup1\n      0x40\n      mstore\n      pop\n      dup2\n      add\n      swap1\n      tag_141\n      swap2\n      swap1\n      tag_65\n      jump\t// in\n    tag_141:\n      pop\n        /* \"smarrt.sol\":1565:1569  loan */\n      dup1\n        /* \"smarrt.sol\":1565:1578  loan.transfer */\n      0xffffffffffffffffffffffffffffffffffffffff\n      and\n      0xa9059cbb\n        /* \"smarrt.sol\":1579:1589  msg.sender */\n      caller\n        /* \"smarrt.sol\":1591:1601  loanAmount */\n      dup7\n        /* \"smarrt.sol\":1565:1602  loan.transfer(msg.sender, loanAmount) */\n      mload(0x40)\n      dup4\n      0xffffffff\n      and\n      0xe0\n      shl\n      dup2\n      mstore\n      0x04\n      add\n      tag_142\n      swap3\n      swap2\n      swap1\n      tag_61\n      jump\t// in\n    tag_142:\n      0x20\n      mload(0x40)\n      dup1\n      dup4\n      sub\n      dup2\n      0x00\n      dup8\n      gas\n      call\n      iszero\n      dup1\n      iszero\n      tag_144\n      jumpi\n      returndatasize\n      0x00\n      dup1\n      returndatacopy\n      revert(0x00, returndatasize)\n    tag_144:\n      pop\n      pop\n      pop\n      pop\n      mload(0x40)\n      returndatasize\n      not(0x1f)\n      0x1f\n      dup3\n      add\n      and\n      dup3\n      add\n      dup1\n      0x40\n      mstore\n      pop\n      dup2\n      add\n      swap1\n      tag_145\n      swap2\n      swap1\n      tag_65\n      jump\t// in\n    tag_145:\n      pop\n        /* \"smarrt.sol\":1613:1618  loans */\n      0x01\n        /* \"smarrt.sol\":1613:1630  loans[msg.sender] */\n      0x00\n        /* \"smarrt.sol\":1619:1629  msg.sender */\n      caller\n        /* \"smarrt.sol\":1613:1630  loans[msg.sender] */\n      0xffffffffffffffffffffffffffffffffffffffff\n      and\n      0xffffffffffffffffffffffffffffffffffffffff\n      and\n      dup2\n      mstore\n      0x20\n      add\n      swap1\n      dup2\n      mstore\n      0x20\n      add\n      0x00\n      keccak256\n        /* \"smarrt.sol\":1636:1845  Loan({... */\n      mload(0x40)\n      dup1\n      0xa0\n      add\n      0x40\n      mstore\n      dup1\n        /* \"smarrt.sol\":1673:1689  collateralAmount */\n      dup9\n        /* \"smarrt.sol\":1636:1845  Loan({... */\n      dup2\n      mstore\n      0x20\n      add\n        /* \"smarrt.sol\":1715:1725  loanAmount */\n      dup7\n        /* \"smarrt.sol\":1636:1845  Loan({... */\n      dup2\n      mstore\n      0x20\n      add\n        /* \"smarrt.sol\":1756:1771  collateralToken */\n      dup8\n        /* \"smarrt.sol\":1636:1845  Loan({... */\n      0xffffffffffffffffffffffffffffffffffffffff\n      and\n      dup2\n      mstore\n      0x20\n      add\n        /* \"smarrt.sol\":1796:1805  loanToken */\n      dup6\n        /* \"smarrt.sol\":1636:1845  Loan({... */\n      0xffffffffffffffffffffffffffffffffffffffff\n      and\n      dup2\n      mstore\n      0x20\n      add\n        /* \"smarrt.sol\":1829:1834  false */\n      0x00\n        /* \"smarrt.sol\":1636:1845  Loan({... */\n      iszero\n      iszero\n      dup2\n      mstore\n      pop\n        /* \"smarrt.sol\":1613:1846  loans[msg.sender].push(Loan({... */\n      swap1\n      dup1\n      0x01\n      dup2\n      sload\n      add\n      dup1\n      dup3\n      sstore\n      dup1\n      swap2\n      pop\n      pop\n      0x01\n      swap1\n      sub\n      swap1\n      0x00\n      mstore\n      keccak256(0x00, 0x20)\n      swap1\n      0x04\n      mul\n      add\n      0x00\n      swap1\n      swap2\n      swap1\n      swap2\n      swap1\n      swap2\n      pop\n      0x00\n      dup3\n      add\n      mload\n      dup2\n      0x00\n      add\n      sstore\n      0x20\n      dup3\n      add\n      mload\n      dup2\n      0x01\n      add\n      sstore\n      0x40\n      dup3\n      add\n      mload\n      dup2\n      0x02\n      add\n      exp(0x0100, 0x00)\n      dup2\n      sload\n      dup2\n      0xffffffffffffffffffffffffffffffffffffffff\n      mul\n      not\n      and\n      swap1\n      dup4\n      0xffffffffffffffffffffffffffffffffffffffff\n      and\n      mul\n      or\n      swap1\n      sstore\n      pop\n      0x60\n      dup3\n      add\n      mload\n      dup2\n      0x03\n      add\n      exp(0x0100, 0x00)\n      dup2\n      sload\n      dup2\n      0xffffffffffffffffffffffffffffffffffffffff\n      mul\n      not\n      and\n      swap1\n      dup4\n      0xffffffffffffffffffffffffffffffffffffffff\n      and\n      mul\n      or\n      swap1\n      sstore\n      pop\n      0x80\n      dup3\n      add\n      mload\n      dup2\n      0x03\n      add\n      exp(0x0100, 0x14)\n      dup2\n      sload\n      dup2\n      0xff\n      mul\n      not\n      and\n      swap1\n      dup4\n      iszero\n      iszero\n      mul\n      or\n      swap1\n      sstore\n      pop\n      pop\n      pop\n        /* \"smarrt.sol\":1879:1889  msg.sender */\n      caller\n        /* \"smarrt.sol\":1862:1925  CollateralLocked(msg.sender, collateralAmount, collateralToken) */\n      0xffffffffffffffffffffffffffffffffffffffff\n      and\n      0x56b60085244fe1afa467f92231debadc8bcb6127e9dbf35dbb58ca8406a423fe\n        /* \"smarrt.sol\":1891:1907  collateralAmount */\n      dup8\n        /* \"smarrt.sol\":1909:1924  collateralToken */\n      dup8\n        /* \"smarrt.sol\":1862:1925  CollateralLocked(msg.sender, collateralAmount, collateralToken) */\n      mload(0x40)\n      tag_147\n      swap3\n      swap2\n      swap1\n      tag_103\n      jump\t// in\n    tag_147:\n      mload(0x40)\n      dup1\n      swap2\n      sub\n      swap1\n      log2\n        /* \"smarrt.sol\":1951:1961  msg.sender */\n      caller\n        /* \"smarrt.sol\":1940:1985  LoanIssued(msg.sender, loanAmount, loanToken) */\n      0xffffffffffffffffffffffffffffffffffffffff\n      and\n      0xe5024716f30be6e51e2a7cc6145e6659cd5bdb7a0c451e22b7e9d39c9b5f03ac\n        /* \"smarrt.sol\":1963:1973  loanAmount */\n      dup6\n        /* \"smarrt.sol\":1975:1984  loanToken */\n      dup6\n        /* \"smarrt.sol\":1940:1985  LoanIssued(msg.sender, loanAmount, loanToken) */\n      mload(0x40)\n      tag_148\n      swap3\n      swap2\n      swap1\n      tag_103\n      jump\t// in\n    tag_148:\n      mload(0x40)\n      dup1\n      swap2\n      sub\n      swap1\n      log2\n        /* \"smarrt.sol\":953:1992  {... */\n      pop\n      pop\n        /* \"smarrt.sol\":783:1992  function lockCollateralAndBorrow(... */\n      pop\n      pop\n      pop\n      pop\n      jump\t// out\n        /* \"@openzeppelin/contracts/access/Ownable.sol\":2543:2758  function transferOwnership(address newOwner) public virtual onlyOwner {... */\n    tag_50:\n        /* \"@openzeppelin/contracts/access/Ownable.sol\":1531:1544  _checkOwner() */\n      tag_150\n        /* \"@openzeppelin/contracts/access/Ownable.sol\":1531:1542  _checkOwner */\n      tag_58\n        /* \"@openzeppelin/contracts/access/Ownable.sol\":1531:1544  _checkOwner() */\n      jump\t// in\n    tag_150:\n        /* \"@openzeppelin/contracts/access/Ownable.sol\":2647:2648  0 */\n      0x00\n        /* \"@openzeppelin/contracts/access/Ownable.sol\":2627:2649  newOwner == address(0) */\n      0xffffffffffffffffffffffffffffffffffffffff\n      and\n        /* \"@openzeppelin/contracts/access/Ownable.sol\":2627:2635  newOwner */\n      dup2\n        /* \"@openzeppelin/contracts/access/Ownable.sol\":2627:2649  newOwner == address(0) */\n      0xffffffffffffffffffffffffffffffffffffffff\n      and\n      sub\n        /* \"@openzeppelin/contracts/access/Ownable.sol\":2623:2714  if (newOwner == address(0)) {... */\n      tag_152\n      jumpi\n        /* \"@openzeppelin/contracts/access/Ownable.sol\":2700:2701  0 */\n      0x00\n        /* \"@openzeppelin/contracts/access/Ownable.sol\":2672:2703  OwnableInvalidOwner(address(0)) */\n      mload(0x40)\n      0x1e4fbdf700000000000000000000000000000000000000000000000000000000\n      dup2\n      mstore\n      0x04\n      add\n      tag_153\n      swap2\n      swap1\n      tag_23\n      jump\t// in\n    tag_153:\n      mload(0x40)\n      dup1\n      swap2\n      sub\n      swap1\n      revert\n        /* \"@openzeppelin/contracts/access/Ownable.sol\":2623:2714  if (newOwner == address(0)) {... */\n    tag_152:\n        /* \"@openzeppelin/contracts/access/Ownable.sol\":2723:2751  _transferOwnership(newOwner) */\n      tag_154\n        /* \"@openzeppelin/contracts/access/Ownable.sol\":2742:2750  newOwner */\n      dup2\n        /* \"@openzeppelin/contracts/access/Ownable.sol\":2723:2741  _transferOwnership */\n      tag_70\n        /* \"@openzeppelin/contracts/access/Ownable.sol\":2723:2751  _transferOwnership(newOwner) */\n      jump\t// in\n    tag_154:\n        /* \"@openzeppelin/contracts/access/Ownable.sol\":2543:2758  function transferOwnership(address newOwner) public virtual onlyOwner {... */\n      pop\n      jump\t// out\n        /* \"smarrt.sol\":3191:3301  function getLoanCount(address user) external view returns (uint256) {... */\n    tag_53:\n        /* \"smarrt.sol\":3250:3257  uint256 */\n      0x00\n        /* \"smarrt.sol\":3276:3281  loans */\n      0x01\n        /* \"smarrt.sol\":3276:3287  loans[user] */\n      0x00\n        /* \"smarrt.sol\":3282:3286  user */\n      dup4\n        /* \"smarrt.sol\":3276:3287  loans[user] */\n      0xffffffffffffffffffffffffffffffffffffffff\n      and\n      0xffffffffffffffffffffffffffffffffffffffff\n      and\n      dup2\n      mstore\n      0x20\n      add\n      swap1\n      dup2\n      mstore\n      0x20\n      add\n      0x00\n      keccak256\n        /* \"smarrt.sol\":3276:3294  loans[user].length */\n      dup1\n      sload\n      swap1\n      pop\n        /* \"smarrt.sol\":3269:3294  return loans[user].length */\n      swap1\n      pop\n        /* \"smarrt.sol\":3191:3301  function getLoanCount(address user) external view returns (uint256) {... */\n      swap2\n      swap1\n      pop\n      jump\t// out\n        /* \"@openzeppelin/contracts/access/Ownable.sol\":1796:1958  function _checkOwner() internal view virtual {... */\n    tag_58:\n        /* \"@openzeppelin/contracts/access/Ownable.sol\":1866:1878  _msgSender() */\n      tag_157\n        /* \"@openzeppelin/contracts/access/Ownable.sol\":1866:1876  _msgSender */\n      tag_158\n        /* \"@openzeppelin/contracts/access/Ownable.sol\":1866:1878  _msgSender() */\n      jump\t// in\n    tag_157:\n        /* \"@openzeppelin/contracts/access/Ownable.sol\":1855:1878  owner() != _msgSender() */\n      0xffffffffffffffffffffffffffffffffffffffff\n      and\n        /* \"@openzeppelin/contracts/access/Ownable.sol\":1855:1862  owner() */\n      tag_159\n        /* \"@openzeppelin/contracts/access/Ownable.sol\":1855:1860  owner */\n      tag_21\n        /* \"@openzeppelin/contracts/access/Ownable.sol\":1855:1862  owner() */\n      jump\t// in\n    tag_159:\n        /* \"@openzeppelin/contracts/access/Ownable.sol\":1855:1878  owner() != _msgSender() */\n      0xffffffffffffffffffffffffffffffffffffffff\n      and\n      eq\n        /* \"@openzeppelin/contracts/access/Ownable.sol\":1851:1952  if (owner() != _msgSender()) {... */\n      tag_160\n      jumpi\n        /* \"@openzeppelin/contracts/access/Ownable.sol\":1928:1940  _msgSender() */\n      tag_161\n        /* \"@openzeppelin/contracts/access/Ownable.sol\":1928:1938  _msgSender */\n      tag_158\n        /* \"@openzeppelin/contracts/access/Ownable.sol\":1928:1940  _msgSender() */\n      jump\t// in\n    tag_161:\n        /* \"@openzeppelin/contracts/access/Ownable.sol\":1901:1941  OwnableUnauthorizedAccount(_msgSender()) */\n      mload(0x40)\n      0x118cdaa700000000000000000000000000000000000000000000000000000000\n      dup2\n      mstore\n      0x04\n      add\n      tag_162\n      swap2\n      swap1\n      tag_23\n      jump\t// in\n    tag_162:\n      mload(0x40)\n      dup1\n      swap2\n      sub\n      swap1\n      revert\n        /* \"@openzeppelin/contracts/access/Ownable.sol\":1851:1952  if (owner() != _msgSender()) {... */\n    tag_160:\n        /* \"@openzeppelin/contracts/access/Ownable.sol\":1796:1958  function _checkOwner() internal view virtual {... */\n      jump\t// out\n        /* \"@openzeppelin/contracts/access/Ownable.sol\":2912:3099  function _transferOwnership(address newOwner) internal virtual {... */\n    tag_70:\n        /* \"@openzeppelin/contracts/access/Ownable.sol\":2985:3001  address oldOwner */\n      0x00\n        /* \"@openzeppelin/contracts/access/Ownable.sol\":3004:3010  _owner */\n      dup1\n      0x00\n      swap1\n      sload\n      swap1\n      0x0100\n      exp\n      swap1\n      div\n      0xffffffffffffffffffffffffffffffffffffffff\n      and\n        /* \"@openzeppelin/contracts/access/Ownable.sol\":2985:3010  address oldOwner = _owner */\n      swap1\n      pop\n        /* \"@openzeppelin/contracts/access/Ownable.sol\":3029:3037  newOwner */\n      dup2\n        /* \"@openzeppelin/contracts/access/Ownable.sol\":3020:3026  _owner */\n      0x00\n      dup1\n        /* \"@openzeppelin/contracts/access/Ownable.sol\":3020:3037  _owner = newOwner */\n      0x0100\n      exp\n      dup2\n      sload\n      dup2\n      0xffffffffffffffffffffffffffffffffffffffff\n      mul\n      not\n      and\n      swap1\n      dup4\n      0xffffffffffffffffffffffffffffffffffffffff\n      and\n      mul\n      or\n      swap1\n      sstore\n      pop\n        /* \"@openzeppelin/contracts/access/Ownable.sol\":3083:3091  newOwner */\n      dup2\n        /* \"@openzeppelin/contracts/access/Ownable.sol\":3052:3092  OwnershipTransferred(oldOwner, newOwner) */\n      0xffffffffffffffffffffffffffffffffffffffff\n      and\n        /* \"@openzeppelin/contracts/access/Ownable.sol\":3073:3081  oldOwner */\n      dup2\n        /* \"@openzeppelin/contracts/access/Ownable.sol\":3052:3092  OwnershipTransferred(oldOwner, newOwner) */\n      0xffffffffffffffffffffffffffffffffffffffff\n      and\n      0x8be0079c531659141344cd1fd0a4f28419497f9722a3daafe3b4186f6b6457e0\n      mload(0x40)\n      mload(0x40)\n      dup1\n      swap2\n      sub\n      swap1\n      log3\n        /* \"@openzeppelin/contracts/access/Ownable.sol\":2975:3099  {... */\n      pop\n        /* \"@openzeppelin/contracts/access/Ownable.sol\":2912:3099  function _transferOwnership(address newOwner) internal virtual {... */\n      pop\n      jump\t// out\n        /* \"@openzeppelin/contracts/utils/Context.sol\":656:752  function _msgSender() internal view virtual returns (address) {... */\n    tag_158:\n        /* \"@openzeppelin/contracts/utils/Context.sol\":709:716  address */\n      0x00\n        /* \"@openzeppelin/contracts/utils/Context.sol\":735:745  msg.sender */\n      caller\n        /* \"@openzeppelin/contracts/utils/Context.sol\":728:745  return msg.sender */\n      swap1\n      pop\n        /* \"@openzeppelin/contracts/utils/Context.sol\":656:752  function _msgSender() internal view virtual returns (address) {... */\n      swap1\n      jump\t// out\n    tag_106:\n      mload(0x40)\n      dup1\n      0xa0\n      add\n      0x40\n      mstore\n      dup1\n      0x00\n      dup2\n      mstore\n      0x20\n      add\n      0x00\n      dup2\n      mstore\n      0x20\n      add\n      and(0xffffffffffffffffffffffffffffffffffffffff, 0x00)\n      dup2\n      mstore\n      0x20\n      add\n      and(0xffffffffffffffffffffffffffffffffffffffff, 0x00)\n      dup2\n      mstore\n      0x20\n      add\n      iszero(iszero(0x00))\n      dup2\n      mstore\n      pop\n      swap1\n      jump\t// out\n        /* \"#utility.yul\":88:205   */\n    tag_166:\n        /* \"#utility.yul\":197:198   */\n      0x00\n        /* \"#utility.yul\":194:195   */\n      dup1\n        /* \"#utility.yul\":187:199   */\n      revert\n        /* \"#utility.yul\":334:460   */\n    tag_168:\n        /* \"#utility.yul\":371:378   */\n      0x00\n        /* \"#utility.yul\":411:453   */\n      0xffffffffffffffffffffffffffffffffffffffff\n        /* \"#utility.yul\":404:409   */\n      dup3\n        /* \"#utility.yul\":400:454   */\n      and\n        /* \"#utility.yul\":389:454   */\n      swap1\n      pop\n        /* \"#utility.yul\":334:460   */\n      swap2\n      swap1\n      pop\n      jump\t// out\n        /* \"#utility.yul\":466:562   */\n    tag_169:\n        /* \"#utility.yul\":503:510   */\n      0x00\n        /* \"#utility.yul\":532:556   */\n      tag_214\n        /* \"#utility.yul\":550:555   */\n      dup3\n        /* \"#utility.yul\":532:556   */\n      tag_168\n      jump\t// in\n    tag_214:\n        /* \"#utility.yul\":521:556   */\n      swap1\n      pop\n        /* \"#utility.yul\":466:562   */\n      swap2\n      swap1\n      pop\n      jump\t// out\n        /* \"#utility.yul\":568:690   */\n    tag_170:\n        /* \"#utility.yul\":641:665   */\n      tag_216\n        /* \"#utility.yul\":659:664   */\n      dup2\n        /* \"#utility.yul\":641:665   */\n      tag_169\n      jump\t// in\n    tag_216:\n        /* \"#utility.yul\":634:639   */\n      dup2\n        /* \"#utility.yul\":631:666   */\n      eq\n        /* \"#utility.yul\":621:684   */\n      tag_217\n      jumpi\n        /* \"#utility.yul\":680:681   */\n      0x00\n        /* \"#utility.yul\":677:678   */\n      dup1\n        /* \"#utility.yul\":670:682   */\n      revert\n        /* \"#utility.yul\":621:684   */\n    tag_217:\n        /* \"#utility.yul\":568:690   */\n      pop\n      jump\t// out\n        /* \"#utility.yul\":696:835   */\n    tag_171:\n        /* \"#utility.yul\":742:747   */\n      0x00\n        /* \"#utility.yul\":780:786   */\n      dup2\n        /* \"#utility.yul\":767:787   */\n      calldataload\n        /* \"#utility.yul\":758:787   */\n      swap1\n      pop\n        /* \"#utility.yul\":796:829   */\n      tag_219\n        /* \"#utility.yul\":823:828   */\n      dup2\n        /* \"#utility.yul\":796:829   */\n      tag_170\n      jump\t// in\n    tag_219:\n        /* \"#utility.yul\":696:835   */\n      swap3\n      swap2\n      pop\n      pop\n      jump\t// out\n        /* \"#utility.yul\":841:918   */\n    tag_172:\n        /* \"#utility.yul\":878:885   */\n      0x00\n        /* \"#utility.yul\":907:912   */\n      dup2\n        /* \"#utility.yul\":896:912   */\n      swap1\n      pop\n        /* \"#utility.yul\":841:918   */\n      swap2\n      swap1\n      pop\n      jump\t// out\n        /* \"#utility.yul\":924:1046   */\n    tag_173:\n        /* \"#utility.yul\":997:1021   */\n      tag_222\n        /* \"#utility.yul\":1015:1020   */\n      dup2\n        /* \"#utility.yul\":997:1021   */\n      tag_172\n      jump\t// in\n    tag_222:\n        /* \"#utility.yul\":990:995   */\n      dup2\n        /* \"#utility.yul\":987:1022   */\n      eq\n        /* \"#utility.yul\":977:1040   */\n      tag_223\n      jumpi\n        /* \"#utility.yul\":1036:1037   */\n      0x00\n        /* \"#utility.yul\":1033:1034   */\n      dup1\n        /* \"#utility.yul\":1026:1038   */\n      revert\n        /* \"#utility.yul\":977:1040   */\n    tag_223:\n        /* \"#utility.yul\":924:1046   */\n      pop\n      jump\t// out\n        /* \"#utility.yul\":1052:1191   */\n    tag_174:\n        /* \"#utility.yul\":1098:1103   */\n      0x00\n        /* \"#utility.yul\":1136:1142   */\n      dup2\n        /* \"#utility.yul\":1123:1143   */\n      calldataload\n        /* \"#utility.yul\":1114:1143   */\n      swap1\n      pop\n        /* \"#utility.yul\":1152:1185   */\n      tag_225\n        /* \"#utility.yul\":1179:1184   */\n      dup2\n        /* \"#utility.yul\":1152:1185   */\n      tag_173\n      jump\t// in\n    tag_225:\n        /* \"#utility.yul\":1052:1191   */\n      swap3\n      swap2\n      pop\n      pop\n      jump\t// out\n        /* \"#utility.yul\":1197:1671   */\n    tag_16:\n        /* \"#utility.yul\":1265:1271   */\n      0x00\n        /* \"#utility.yul\":1273:1279   */\n      dup1\n        /* \"#utility.yul\":1322:1324   */\n      0x40\n        /* \"#utility.yul\":1310:1319   */\n      dup4\n        /* \"#utility.yul\":1301:1308   */\n      dup6\n        /* \"#utility.yul\":1297:1320   */\n      sub\n        /* \"#utility.yul\":1293:1325   */\n      slt\n        /* \"#utility.yul\":1290:1409   */\n      iszero\n      tag_227\n      jumpi\n        /* \"#utility.yul\":1328:1407   */\n      tag_228\n      tag_166\n      jump\t// in\n    tag_228:\n        /* \"#utility.yul\":1290:1409   */\n    tag_227:\n        /* \"#utility.yul\":1448:1449   */\n      0x00\n        /* \"#utility.yul\":1473:1526   */\n      tag_229\n        /* \"#utility.yul\":1518:1525   */\n      dup6\n        /* \"#utility.yul\":1509:1515   */\n      dup3\n        /* \"#utility.yul\":1498:1507   */\n      dup7\n        /* \"#utility.yul\":1494:1516   */\n      add\n        /* \"#utility.yul\":1473:1526   */\n      tag_171\n      jump\t// in\n    tag_229:\n        /* \"#utility.yul\":1463:1526   */\n      swap3\n      pop\n        /* \"#utility.yul\":1419:1536   */\n      pop\n        /* \"#utility.yul\":1575:1577   */\n      0x20\n        /* \"#utility.yul\":1601:1654   */\n      tag_230\n        /* \"#utility.yul\":1646:1653   */\n      dup6\n        /* \"#utility.yul\":1637:1643   */\n      dup3\n        /* \"#utility.yul\":1626:1635   */\n      dup7\n        /* \"#utility.yul\":1622:1644   */\n      add\n        /* \"#utility.yul\":1601:1654   */\n      tag_174\n      jump\t// in\n    tag_230:\n        /* \"#utility.yul\":1591:1654   */\n      swap2\n      pop\n        /* \"#utility.yul\":1546:1664   */\n      pop\n        /* \"#utility.yul\":1197:1671   */\n      swap3\n      pop\n      swap3\n      swap1\n      pop\n      jump\t// out\n        /* \"#utility.yul\":1677:1795   */\n    tag_175:\n        /* \"#utility.yul\":1764:1788   */\n      tag_232\n        /* \"#utility.yul\":1782:1787   */\n      dup2\n        /* \"#utility.yul\":1764:1788   */\n      tag_169\n      jump\t// in\n    tag_232:\n        /* \"#utility.yul\":1759:1762   */\n      dup3\n        /* \"#utility.yul\":1752:1789   */\n      mstore\n        /* \"#utility.yul\":1677:1795   */\n      pop\n      pop\n      jump\t// out\n        /* \"#utility.yul\":1801:2023   */\n    tag_23:\n        /* \"#utility.yul\":1894:1898   */\n      0x00\n        /* \"#utility.yul\":1932:1934   */\n      0x20\n        /* \"#utility.yul\":1921:1930   */\n      dup3\n        /* \"#utility.yul\":1917:1935   */\n      add\n        /* \"#utility.yul\":1909:1935   */\n      swap1\n      pop\n        /* \"#utility.yul\":1945:2016   */\n      tag_234\n        /* \"#utility.yul\":2013:2014   */\n      0x00\n        /* \"#utility.yul\":2002:2011   */\n      dup4\n        /* \"#utility.yul\":1998:2015   */\n      add\n        /* \"#utility.yul\":1989:1995   */\n      dup5\n        /* \"#utility.yul\":1945:2016   */\n      tag_175\n      jump\t// in\n    tag_234:\n        /* \"#utility.yul\":1801:2023   */\n      swap3\n      swap2\n      pop\n      pop\n      jump\t// out\n        /* \"#utility.yul\":2029:2147   */\n    tag_176:\n        /* \"#utility.yul\":2116:2140   */\n      tag_236\n        /* \"#utility.yul\":2134:2139   */\n      dup2\n        /* \"#utility.yul\":2116:2140   */\n      tag_172\n      jump\t// in\n    tag_236:\n        /* \"#utility.yul\":2111:2114   */\n      dup3\n        /* \"#utility.yul\":2104:2141   */\n      mstore\n        /* \"#utility.yul\":2029:2147   */\n      pop\n      pop\n      jump\t// out\n        /* \"#utility.yul\":2153:2243   */\n    tag_177:\n        /* \"#utility.yul\":2187:2194   */\n      0x00\n        /* \"#utility.yul\":2230:2235   */\n      dup2\n        /* \"#utility.yul\":2223:2236   */\n      iszero\n        /* \"#utility.yul\":2216:2237   */\n      iszero\n        /* \"#utility.yul\":2205:2237   */\n      swap1\n      pop\n        /* \"#utility.yul\":2153:2243   */\n      swap2\n      swap1\n      pop\n      jump\t// out\n        /* \"#utility.yul\":2249:2358   */\n    tag_178:\n        /* \"#utility.yul\":2330:2351   */\n      tag_239\n        /* \"#utility.yul\":2345:2350   */\n      dup2\n        /* \"#utility.yul\":2330:2351   */\n      tag_177\n      jump\t// in\n    tag_239:\n        /* \"#utility.yul\":2325:2328   */\n      dup3\n        /* \"#utility.yul\":2318:2352   */\n      mstore\n        /* \"#utility.yul\":2249:2358   */\n      pop\n      pop\n      jump\t// out\n        /* \"#utility.yul\":2364:3016   */\n    tag_28:\n        /* \"#utility.yul\":2563:2567   */\n      0x00\n        /* \"#utility.yul\":2601:2604   */\n      0xa0\n        /* \"#utility.yul\":2590:2599   */\n      dup3\n        /* \"#utility.yul\":2586:2605   */\n      add\n        /* \"#utility.yul\":2578:2605   */\n      swap1\n      pop\n        /* \"#utility.yul\":2615:2686   */\n      tag_241\n        /* \"#utility.yul\":2683:2684   */\n      0x00\n        /* \"#utility.yul\":2672:2681   */\n      dup4\n        /* \"#utility.yul\":2668:2685   */\n      add\n        /* \"#utility.yul\":2659:2665   */\n      dup9\n        /* \"#utility.yul\":2615:2686   */\n      tag_176\n      jump\t// in\n    tag_241:\n        /* \"#utility.yul\":2696:2768   */\n      tag_242\n        /* \"#utility.yul\":2764:2766   */\n      0x20\n        /* \"#utility.yul\":2753:2762   */\n      dup4\n        /* \"#utility.yul\":2749:2767   */\n      add\n        /* \"#utility.yul\":2740:2746   */\n      dup8\n        /* \"#utility.yul\":2696:2768   */\n      tag_176\n      jump\t// in\n    tag_242:\n        /* \"#utility.yul\":2778:2850   */\n      tag_243\n        /* \"#utility.yul\":2846:2848   */\n      0x40\n        /* \"#utility.yul\":2835:2844   */\n      dup4\n        /* \"#utility.yul\":2831:2849   */\n      add\n        /* \"#utility.yul\":2822:2828   */\n      dup7\n        /* \"#utility.yul\":2778:2850   */\n      tag_175\n      jump\t// in\n    tag_243:\n        /* \"#utility.yul\":2860:2932   */\n      tag_244\n        /* \"#utility.yul\":2928:2930   */\n      0x60\n        /* \"#utility.yul\":2917:2926   */\n      dup4\n        /* \"#utility.yul\":2913:2931   */\n      add\n        /* \"#utility.yul\":2904:2910   */\n      dup6\n        /* \"#utility.yul\":2860:2932   */\n      tag_175\n      jump\t// in\n    tag_244:\n        /* \"#utility.yul\":2942:3009   */\n      tag_245\n        /* \"#utility.yul\":3004:3007   */\n      0x80\n        /* \"#utility.yul\":2993:3002   */\n      dup4\n        /* \"#utility.yul\":2989:3008   */\n      add\n        /* \"#utility.yul\":2980:2986   */\n      dup5\n        /* \"#utility.yul\":2942:3009   */\n      tag_178\n      jump\t// in\n    tag_245:\n        /* \"#utility.yul\":2364:3016   */\n      swap7\n      swap6\n      pop\n      pop\n      pop\n      pop\n      pop\n      pop\n      jump\t// out\n        /* \"#utility.yul\":3022:3351   */\n    tag_31:\n        /* \"#utility.yul\":3081:3087   */\n      0x00\n        /* \"#utility.yul\":3130:3132   */\n      0x20\n        /* \"#utility.yul\":3118:3127   */\n      dup3\n        /* \"#utility.yul\":3109:3116   */\n      dup5\n        /* \"#utility.yul\":3105:3128   */\n      sub\n        /* \"#utility.yul\":3101:3133   */\n      slt\n        /* \"#utility.yul\":3098:3217   */\n      iszero\n      tag_247\n      jumpi\n        /* \"#utility.yul\":3136:3215   */\n      tag_248\n      tag_166\n      jump\t// in\n    tag_248:\n        /* \"#utility.yul\":3098:3217   */\n    tag_247:\n        /* \"#utility.yul\":3256:3257   */\n      0x00\n        /* \"#utility.yul\":3281:3334   */\n      tag_249\n        /* \"#utility.yul\":3326:3333   */\n      dup5\n        /* \"#utility.yul\":3317:3323   */\n      dup3\n        /* \"#utility.yul\":3306:3315   */\n      dup6\n        /* \"#utility.yul\":3302:3324   */\n      add\n        /* \"#utility.yul\":3281:3334   */\n      tag_174\n      jump\t// in\n    tag_249:\n        /* \"#utility.yul\":3271:3334   */\n      swap2\n      pop\n        /* \"#utility.yul\":3227:3344   */\n      pop\n        /* \"#utility.yul\":3022:3351   */\n      swap3\n      swap2\n      pop\n      pop\n      jump\t// out\n        /* \"#utility.yul\":3357:3465   */\n    tag_179:\n        /* \"#utility.yul\":3434:3458   */\n      tag_251\n        /* \"#utility.yul\":3452:3457   */\n      dup2\n        /* \"#utility.yul\":3434:3458   */\n      tag_172\n      jump\t// in\n    tag_251:\n        /* \"#utility.yul\":3429:3432   */\n      dup3\n        /* \"#utility.yul\":3422:3459   */\n      mstore\n        /* \"#utility.yul\":3357:3465   */\n      pop\n      pop\n      jump\t// out\n        /* \"#utility.yul\":3471:3579   */\n    tag_180:\n        /* \"#utility.yul\":3548:3572   */\n      tag_253\n        /* \"#utility.yul\":3566:3571   */\n      dup2\n        /* \"#utility.yul\":3548:3572   */\n      tag_169\n      jump\t// in\n    tag_253:\n        /* \"#utility.yul\":3543:3546   */\n      dup3\n        /* \"#utility.yul\":3536:3573   */\n      mstore\n        /* \"#utility.yul\":3471:3579   */\n      pop\n      pop\n      jump\t// out\n        /* \"#utility.yul\":3585:3684   */\n    tag_181:\n        /* \"#utility.yul\":3656:3677   */\n      tag_255\n        /* \"#utility.yul\":3671:3676   */\n      dup2\n        /* \"#utility.yul\":3656:3677   */\n      tag_177\n      jump\t// in\n    tag_255:\n        /* \"#utility.yul\":3651:3654   */\n      dup3\n        /* \"#utility.yul\":3644:3678   */\n      mstore\n        /* \"#utility.yul\":3585:3684   */\n      pop\n      pop\n      jump\t// out\n        /* \"#utility.yul\":3756:4809   */\n    tag_182:\n        /* \"#utility.yul\":3895:3899   */\n      0xa0\n        /* \"#utility.yul\":3890:3893   */\n      dup3\n        /* \"#utility.yul\":3886:3900   */\n      add\n        /* \"#utility.yul\":3994:3998   */\n      0x00\n        /* \"#utility.yul\":3987:3992   */\n      dup3\n        /* \"#utility.yul\":3983:3999   */\n      add\n        /* \"#utility.yul\":3977:4000   */\n      mload\n        /* \"#utility.yul\":4013:4076   */\n      tag_257\n        /* \"#utility.yul\":4070:4074   */\n      0x00\n        /* \"#utility.yul\":4065:4068   */\n      dup6\n        /* \"#utility.yul\":4061:4075   */\n      add\n        /* \"#utility.yul\":4047:4059   */\n      dup3\n        /* \"#utility.yul\":4013:4076   */\n      tag_179\n      jump\t// in\n    tag_257:\n        /* \"#utility.yul\":3910:4086   */\n      pop\n        /* \"#utility.yul\":4174:4178   */\n      0x20\n        /* \"#utility.yul\":4167:4172   */\n      dup3\n        /* \"#utility.yul\":4163:4179   */\n      add\n        /* \"#utility.yul\":4157:4180   */\n      mload\n        /* \"#utility.yul\":4193:4256   */\n      tag_258\n        /* \"#utility.yul\":4250:4254   */\n      0x20\n        /* \"#utility.yul\":4245:4248   */\n      dup6\n        /* \"#utility.yul\":4241:4255   */\n      add\n        /* \"#utility.yul\":4227:4239   */\n      dup3\n        /* \"#utility.yul\":4193:4256   */\n      tag_179\n      jump\t// in\n    tag_258:\n        /* \"#utility.yul\":4096:4266   */\n      pop\n        /* \"#utility.yul\":4359:4363   */\n      0x40\n        /* \"#utility.yul\":4352:4357   */\n      dup3\n        /* \"#utility.yul\":4348:4364   */\n      add\n        /* \"#utility.yul\":4342:4365   */\n      mload\n        /* \"#utility.yul\":4378:4441   */\n      tag_259\n        /* \"#utility.yul\":4435:4439   */\n      0x40\n        /* \"#utility.yul\":4430:4433   */\n      dup6\n        /* \"#utility.yul\":4426:4440   */\n      add\n        /* \"#utility.yul\":4412:4424   */\n      dup3\n        /* \"#utility.yul\":4378:4441   */\n      tag_180\n      jump\t// in\n    tag_259:\n        /* \"#utility.yul\":4276:4451   */\n      pop\n        /* \"#utility.yul\":4538:4542   */\n      0x60\n        /* \"#utility.yul\":4531:4536   */\n      dup3\n        /* \"#utility.yul\":4527:4543   */\n      add\n        /* \"#utility.yul\":4521:4544   */\n      mload\n        /* \"#utility.yul\":4557:4620   */\n      tag_260\n        /* \"#utility.yul\":4614:4618   */\n      0x60\n        /* \"#utility.yul\":4609:4612   */\n      dup6\n        /* \"#utility.yul\":4605:4619   */\n      add\n        /* \"#utility.yul\":4591:4603   */\n      dup3\n        /* \"#utility.yul\":4557:4620   */\n      tag_180\n      jump\t// in\n    tag_260:\n        /* \"#utility.yul\":4461:4630   */\n      pop\n        /* \"#utility.yul\":4716:4720   */\n      0x80\n        /* \"#utility.yul\":4709:4714   */\n      dup3\n        /* \"#utility.yul\":4705:4721   */\n      add\n        /* \"#utility.yul\":4699:4722   */\n      mload\n        /* \"#utility.yul\":4735:4792   */\n      tag_261\n        /* \"#utility.yul\":4786:4790   */\n      0x80\n        /* \"#utility.yul\":4781:4784   */\n      dup6\n        /* \"#utility.yul\":4777:4791   */\n      add\n        /* \"#utility.yul\":4763:4775   */\n      dup3\n        /* \"#utility.yul\":4735:4792   */\n      tag_181\n      jump\t// in\n    tag_261:\n        /* \"#utility.yul\":4640:4802   */\n      pop\n        /* \"#utility.yul\":3864:4809   */\n      pop\n        /* \"#utility.yul\":3756:4809   */\n      pop\n      pop\n      jump\t// out\n        /* \"#utility.yul\":4815:5122   */\n    tag_37:\n        /* \"#utility.yul\":4950:4954   */\n      0x00\n        /* \"#utility.yul\":4988:4991   */\n      0xa0\n        /* \"#utility.yul\":4977:4986   */\n      dup3\n        /* \"#utility.yul\":4973:4992   */\n      add\n        /* \"#utility.yul\":4965:4992   */\n      swap1\n      pop\n        /* \"#utility.yul\":5002:5115   */\n      tag_263\n        /* \"#utility.yul\":5112:5113   */\n      0x00\n        /* \"#utility.yul\":5101:5110   */\n      dup4\n        /* \"#utility.yul\":5097:5114   */\n      add\n        /* \"#utility.yul\":5088:5094   */\n      dup5\n        /* \"#utility.yul\":5002:5115   */\n      tag_182\n      jump\t// in\n    tag_263:\n        /* \"#utility.yul\":4815:5122   */\n      swap3\n      swap2\n      pop\n      pop\n      jump\t// out\n        /* \"#utility.yul\":5128:5457   */\n    tag_40:\n        /* \"#utility.yul\":5187:5193   */\n      0x00\n        /* \"#utility.yul\":5236:5238   */\n      0x20\n        /* \"#utility.yul\":5224:5233   */\n      dup3\n        /* \"#utility.yul\":5215:5222   */\n      dup5\n        /* \"#utility.yul\":5211:5234   */\n      sub\n        /* \"#utility.yul\":5207:5239   */\n      slt\n        /* \"#utility.yul\":5204:5323   */\n      iszero\n      tag_265\n      jumpi\n        /* \"#utility.yul\":5242:5321   */\n      tag_266\n      tag_166\n      jump\t// in\n    tag_266:\n        /* \"#utility.yul\":5204:5323   */\n    tag_265:\n        /* \"#utility.yul\":5362:5363   */\n      0x00\n        /* \"#utility.yul\":5387:5440   */\n      tag_267\n        /* \"#utility.yul\":5432:5439   */\n      dup5\n        /* \"#utility.yul\":5423:5429   */\n      dup3\n        /* \"#utility.yul\":5412:5421   */\n      dup6\n        /* \"#utility.yul\":5408:5430   */\n      add\n        /* \"#utility.yul\":5387:5440   */\n      tag_171\n      jump\t// in\n    tag_267:\n        /* \"#utility.yul\":5377:5440   */\n      swap2\n      pop\n        /* \"#utility.yul\":5333:5450   */\n      pop\n        /* \"#utility.yul\":5128:5457   */\n      swap3\n      swap2\n      pop\n      pop\n      jump\t// out\n        /* \"#utility.yul\":5463:5598   */\n    tag_183:\n        /* \"#utility.yul\":5551:5557   */\n      0x00\n        /* \"#utility.yul\":5585:5590   */\n      dup2\n        /* \"#utility.yul\":5579:5591   */\n      mload\n        /* \"#utility.yul\":5569:5591   */\n      swap1\n      pop\n        /* \"#utility.yul\":5463:5598   */\n      swap2\n      swap1\n      pop\n      jump\t// out\n        /* \"#utility.yul\":5604:5809   */\n    tag_184:\n        /* \"#utility.yul\":5724:5735   */\n      0x00\n        /* \"#utility.yul\":5758:5764   */\n      dup3\n        /* \"#utility.yul\":5753:5756   */\n      dup3\n        /* \"#utility.yul\":5746:5765   */\n      mstore\n        /* \"#utility.yul\":5798:5802   */\n      0x20\n        /* \"#utility.yul\":5793:5796   */\n      dup3\n        /* \"#utility.yul\":5789:5803   */\n      add\n        /* \"#utility.yul\":5774:5803   */\n      swap1\n      pop\n        /* \"#utility.yul\":5604:5809   */\n      swap3\n      swap2\n      pop\n      pop\n      jump\t// out\n        /* \"#utility.yul\":5815:5968   */\n    tag_185:\n        /* \"#utility.yul\":5903:5907   */\n      0x00\n        /* \"#utility.yul\":5926:5929   */\n      dup2\n        /* \"#utility.yul\":5918:5929   */\n      swap1\n      pop\n        /* \"#utility.yul\":5956:5960   */\n      0x20\n        /* \"#utility.yul\":5951:5954   */\n      dup3\n        /* \"#utility.yul\":5947:5961   */\n      add\n        /* \"#utility.yul\":5939:5961   */\n      swap1\n      pop\n        /* \"#utility.yul\":5815:5968   */\n      swap2\n      swap1\n      pop\n      jump\t// out\n        /* \"#utility.yul\":6040:7083   */\n    tag_186:\n        /* \"#utility.yul\":6169:6173   */\n      0xa0\n        /* \"#utility.yul\":6164:6167   */\n      dup3\n        /* \"#utility.yul\":6160:6174   */\n      add\n        /* \"#utility.yul\":6268:6272   */\n      0x00\n        /* \"#utility.yul\":6261:6266   */\n      dup3\n        /* \"#utility.yul\":6257:6273   */\n      add\n        /* \"#utility.yul\":6251:6274   */\n      mload\n        /* \"#utility.yul\":6287:6350   */\n      tag_272\n        /* \"#utility.yul\":6344:6348   */\n      0x00\n        /* \"#utility.yul\":6339:6342   */\n      dup6\n        /* \"#utility.yul\":6335:6349   */\n      add\n        /* \"#utility.yul\":6321:6333   */\n      dup3\n        /* \"#utility.yul\":6287:6350   */\n      tag_179\n      jump\t// in\n    tag_272:\n        /* \"#utility.yul\":6184:6360   */\n      pop\n        /* \"#utility.yul\":6448:6452   */\n      0x20\n        /* \"#utility.yul\":6441:6446   */\n      dup3\n        /* \"#utility.yul\":6437:6453   */\n      add\n        /* \"#utility.yul\":6431:6454   */\n      mload\n        /* \"#utility.yul\":6467:6530   */\n      tag_273\n        /* \"#utility.yul\":6524:6528   */\n      0x20\n        /* \"#utility.yul\":6519:6522   */\n      dup6\n        /* \"#utility.yul\":6515:6529   */\n      add\n        /* \"#utility.yul\":6501:6513   */\n      dup3\n        /* \"#utility.yul\":6467:6530   */\n      tag_179\n      jump\t// in\n    tag_273:\n        /* \"#utility.yul\":6370:6540   */\n      pop\n        /* \"#utility.yul\":6633:6637   */\n      0x40\n        /* \"#utility.yul\":6626:6631   */\n      dup3\n        /* \"#utility.yul\":6622:6638   */\n      add\n        /* \"#utility.yul\":6616:6639   */\n      mload\n        /* \"#utility.yul\":6652:6715   */\n      tag_274\n        /* \"#utility.yul\":6709:6713   */\n      0x40\n        /* \"#utility.yul\":6704:6707   */\n      dup6\n        /* \"#utility.yul\":6700:6714   */\n      add\n        /* \"#utility.yul\":6686:6698   */\n      dup3\n        /* \"#utility.yul\":6652:6715   */\n      tag_180\n      jump\t// in\n    tag_274:\n        /* \"#utility.yul\":6550:6725   */\n      pop\n        /* \"#utility.yul\":6812:6816   */\n      0x60\n        /* \"#utility.yul\":6805:6810   */\n      dup3\n        /* \"#utility.yul\":6801:6817   */\n      add\n        /* \"#utility.yul\":6795:6818   */\n      mload\n        /* \"#utility.yul\":6831:6894   */\n      tag_275\n        /* \"#utility.yul\":6888:6892   */\n      0x60\n        /* \"#utility.yul\":6883:6886   */\n      dup6\n        /* \"#utility.yul\":6879:6893   */\n      add\n        /* \"#utility.yul\":6865:6877   */\n      dup3\n        /* \"#utility.yul\":6831:6894   */\n      tag_180\n      jump\t// in\n    tag_275:\n        /* \"#utility.yul\":6735:6904   */\n      pop\n        /* \"#utility.yul\":6990:6994   */\n      0x80\n        /* \"#utility.yul\":6983:6988   */\n      dup3\n        /* \"#utility.yul\":6979:6995   */\n      add\n        /* \"#utility.yul\":6973:6996   */\n      mload\n        /* \"#utility.yul\":7009:7066   */\n      tag_276\n        /* \"#utility.yul\":7060:7064   */\n      0x80\n        /* \"#utility.yul\":7055:7058   */\n      dup6\n        /* \"#utility.yul\":7051:7065   */\n      add\n        /* \"#utility.yul\":7037:7049   */\n      dup3\n        /* \"#utility.yul\":7009:7066   */\n      tag_181\n      jump\t// in\n    tag_276:\n        /* \"#utility.yul\":6914:7076   */\n      pop\n        /* \"#utility.yul\":6138:7083   */\n      pop\n        /* \"#utility.yul\":6040:7083   */\n      pop\n      pop\n      jump\t// out\n        /* \"#utility.yul\":7089:7352   */\n    tag_187:\n        /* \"#utility.yul\":7200:7210   */\n      0x00\n        /* \"#utility.yul\":7221:7309   */\n      tag_278\n        /* \"#utility.yul\":7305:7308   */\n      dup4\n        /* \"#utility.yul\":7297:7303   */\n      dup4\n        /* \"#utility.yul\":7221:7309   */\n      tag_186\n      jump\t// in\n    tag_278:\n        /* \"#utility.yul\":7341:7345   */\n      0xa0\n        /* \"#utility.yul\":7336:7339   */\n      dup4\n        /* \"#utility.yul\":7332:7346   */\n      add\n        /* \"#utility.yul\":7318:7346   */\n      swap1\n      pop\n        /* \"#utility.yul\":7089:7352   */\n      swap3\n      swap2\n      pop\n      pop\n      jump\t// out\n        /* \"#utility.yul\":7358:7492   */\n    tag_188:\n        /* \"#utility.yul\":7449:7453   */\n      0x00\n        /* \"#utility.yul\":7481:7485   */\n      0x20\n        /* \"#utility.yul\":7476:7479   */\n      dup3\n        /* \"#utility.yul\":7472:7486   */\n      add\n        /* \"#utility.yul\":7464:7486   */\n      swap1\n      pop\n        /* \"#utility.yul\":7358:7492   */\n      swap2\n      swap1\n      pop\n      jump\t// out\n        /* \"#utility.yul\":7568:8468   */\n    tag_189:\n        /* \"#utility.yul\":7729:7732   */\n      0x00\n        /* \"#utility.yul\":7758:7833   */\n      tag_281\n        /* \"#utility.yul\":7827:7832   */\n      dup3\n        /* \"#utility.yul\":7758:7833   */\n      tag_183\n      jump\t// in\n    tag_281:\n        /* \"#utility.yul\":7849:7956   */\n      tag_282\n        /* \"#utility.yul\":7949:7955   */\n      dup2\n        /* \"#utility.yul\":7944:7947   */\n      dup6\n        /* \"#utility.yul\":7849:7956   */\n      tag_184\n      jump\t// in\n    tag_282:\n        /* \"#utility.yul\":7842:7956   */\n      swap4\n      pop\n        /* \"#utility.yul\":7980:8057   */\n      tag_283\n        /* \"#utility.yul\":8051:8056   */\n      dup4\n        /* \"#utility.yul\":7980:8057   */\n      tag_185\n      jump\t// in\n    tag_283:\n        /* \"#utility.yul\":8080:8087   */\n      dup1\n        /* \"#utility.yul\":8111:8112   */\n      0x00\n        /* \"#utility.yul\":8096:8443   */\n    tag_284:\n        /* \"#utility.yul\":8121:8127   */\n      dup4\n        /* \"#utility.yul\":8118:8119   */\n      dup2\n        /* \"#utility.yul\":8115:8128   */\n      lt\n        /* \"#utility.yul\":8096:8443   */\n      iszero\n      tag_286\n      jumpi\n        /* \"#utility.yul\":8197:8203   */\n      dup2\n        /* \"#utility.yul\":8191:8204   */\n      mload\n        /* \"#utility.yul\":8224:8329   */\n      tag_287\n        /* \"#utility.yul\":8325:8328   */\n      dup9\n        /* \"#utility.yul\":8310:8323   */\n      dup3\n        /* \"#utility.yul\":8224:8329   */\n      tag_187\n      jump\t// in\n    tag_287:\n        /* \"#utility.yul\":8217:8329   */\n      swap8\n      pop\n        /* \"#utility.yul\":8352:8433   */\n      tag_288\n        /* \"#utility.yul\":8426:8432   */\n      dup4\n        /* \"#utility.yul\":8352:8433   */\n      tag_188\n      jump\t// in\n    tag_288:\n        /* \"#utility.yul\":8342:8433   */\n      swap3\n      pop\n        /* \"#utility.yul\":8156:8443   */\n      pop\n        /* \"#utility.yul\":8143:8144   */\n      0x01\n        /* \"#utility.yul\":8140:8141   */\n      dup2\n        /* \"#utility.yul\":8136:8145   */\n      add\n        /* \"#utility.yul\":8131:8145   */\n      swap1\n      pop\n        /* \"#utility.yul\":8096:8443   */\n      jump(tag_284)\n    tag_286:\n        /* \"#utility.yul\":8100:8114   */\n      pop\n        /* \"#utility.yul\":8459:8462   */\n      dup6\n        /* \"#utility.yul\":8452:8462   */\n      swap4\n      pop\n        /* \"#utility.yul\":7734:8468   */\n      pop\n      pop\n      pop\n        /* \"#utility.yul\":7568:8468   */\n      swap3\n      swap2\n      pop\n      pop\n      jump\t// out\n        /* \"#utility.yul\":8474:8931   */\n    tag_43:\n        /* \"#utility.yul\":8659:8663   */\n      0x00\n        /* \"#utility.yul\":8697:8699   */\n      0x20\n        /* \"#utility.yul\":8686:8695   */\n      dup3\n        /* \"#utility.yul\":8682:8700   */\n      add\n        /* \"#utility.yul\":8674:8700   */\n      swap1\n      pop\n        /* \"#utility.yul\":8746:8755   */\n      dup2\n        /* \"#utility.yul\":8740:8744   */\n      dup2\n        /* \"#utility.yul\":8736:8756   */\n      sub\n        /* \"#utility.yul\":8732:8733   */\n      0x00\n        /* \"#utility.yul\":8721:8730   */\n      dup4\n        /* \"#utility.yul\":8717:8734   */\n      add\n        /* \"#utility.yul\":8710:8757   */\n      mstore\n        /* \"#utility.yul\":8774:8924   */\n      tag_290\n        /* \"#utility.yul\":8919:8923   */\n      dup2\n        /* \"#utility.yul\":8910:8916   */\n      dup5\n        /* \"#utility.yul\":8774:8924   */\n      tag_189\n      jump\t// in\n    tag_290:\n        /* \"#utility.yul\":8766:8924   */\n      swap1\n      pop\n        /* \"#utility.yul\":8474:8931   */\n      swap3\n      swap2\n      pop\n      pop\n      jump\t// out\n        /* \"#utility.yul\":8937:9702   */\n    tag_46:\n        /* \"#utility.yul\":9023:9029   */\n      0x00\n        /* \"#utility.yul\":9031:9037   */\n      dup1\n        /* \"#utility.yul\":9039:9045   */\n      0x00\n        /* \"#utility.yul\":9047:9053   */\n      dup1\n        /* \"#utility.yul\":9096:9099   */\n      0x80\n        /* \"#utility.yul\":9084:9093   */\n      dup6\n        /* \"#utility.yul\":9075:9082   */\n      dup8\n        /* \"#utility.yul\":9071:9094   */\n      sub\n        /* \"#utility.yul\":9067:9100   */\n      slt\n        /* \"#utility.yul\":9064:9184   */\n      iszero\n      tag_292\n      jumpi\n        /* \"#utility.yul\":9103:9182   */\n      tag_293\n      tag_166\n      jump\t// in\n    tag_293:\n        /* \"#utility.yul\":9064:9184   */\n    tag_292:\n        /* \"#utility.yul\":9223:9224   */\n      0x00\n        /* \"#utility.yul\":9248:9301   */\n      tag_294\n        /* \"#utility.yul\":9293:9300   */\n      dup8\n        /* \"#utility.yul\":9284:9290   */\n      dup3\n        /* \"#utility.yul\":9273:9282   */\n      dup9\n        /* \"#utility.yul\":9269:9291   */\n      add\n        /* \"#utility.yul\":9248:9301   */\n      tag_174\n      jump\t// in\n    tag_294:\n        /* \"#utility.yul\":9238:9301   */\n      swap5\n      pop\n        /* \"#utility.yul\":9194:9311   */\n      pop\n        /* \"#utility.yul\":9350:9352   */\n      0x20\n        /* \"#utility.yul\":9376:9429   */\n      tag_295\n        /* \"#utility.yul\":9421:9428   */\n      dup8\n        /* \"#utility.yul\":9412:9418   */\n      dup3\n        /* \"#utility.yul\":9401:9410   */\n      dup9\n        /* \"#utility.yul\":9397:9419   */\n      add\n        /* \"#utility.yul\":9376:9429   */\n      tag_171\n      jump\t// in\n    tag_295:\n        /* \"#utility.yul\":9366:9429   */\n      swap4\n      pop\n        /* \"#utility.yul\":9321:9439   */\n      pop\n        /* \"#utility.yul\":9478:9480   */\n      0x40\n        /* \"#utility.yul\":9504:9557   */\n      tag_296\n        /* \"#utility.yul\":9549:9556   */\n      dup8\n        /* \"#utility.yul\":9540:9546   */\n      dup3\n        /* \"#utility.yul\":9529:9538   */\n      dup9\n        /* \"#utility.yul\":9525:9547   */\n      add\n        /* \"#utility.yul\":9504:9557   */\n      tag_174\n      jump\t// in\n    tag_296:\n        /* \"#utility.yul\":9494:9557   */\n      swap3\n      pop\n        /* \"#utility.yul\":9449:9567   */\n      pop\n        /* \"#utility.yul\":9606:9608   */\n      0x60\n        /* \"#utility.yul\":9632:9685   */\n      tag_297\n        /* \"#utility.yul\":9677:9684   */\n      dup8\n        /* \"#utility.yul\":9668:9674   */\n      dup3\n        /* \"#utility.yul\":9657:9666   */\n      dup9\n        /* \"#utility.yul\":9653:9675   */\n      add\n        /* \"#utility.yul\":9632:9685   */\n      tag_171\n      jump\t// in\n    tag_297:\n        /* \"#utility.yul\":9622:9685   */\n      swap2\n      pop\n        /* \"#utility.yul\":9577:9695   */\n      pop\n        /* \"#utility.yul\":8937:9702   */\n      swap3\n      swap6\n      swap2\n      swap5\n      pop\n      swap3\n      pop\n      jump\t// out\n        /* \"#utility.yul\":9708:9930   */\n    tag_55:\n        /* \"#utility.yul\":9801:9805   */\n      0x00\n        /* \"#utility.yul\":9839:9841   */\n      0x20\n        /* \"#utility.yul\":9828:9837   */\n      dup3\n        /* \"#utility.yul\":9824:9842   */\n      add\n        /* \"#utility.yul\":9816:9842   */\n      swap1\n      pop\n        /* \"#utility.yul\":9852:9923   */\n      tag_299\n        /* \"#utility.yul\":9920:9921   */\n      0x00\n        /* \"#utility.yul\":9909:9918   */\n      dup4\n        /* \"#utility.yul\":9905:9922   */\n      add\n        /* \"#utility.yul\":9896:9902   */\n      dup5\n        /* \"#utility.yul\":9852:9923   */\n      tag_176\n      jump\t// in\n    tag_299:\n        /* \"#utility.yul\":9708:9930   */\n      swap3\n      swap2\n      pop\n      pop\n      jump\t// out\n        /* \"#utility.yul\":9936:10268   */\n    tag_61:\n        /* \"#utility.yul\":10057:10061   */\n      0x00\n        /* \"#utility.yul\":10095:10097   */\n      0x40\n        /* \"#utility.yul\":10084:10093   */\n      dup3\n        /* \"#utility.yul\":10080:10098   */\n      add\n        /* \"#utility.yul\":10072:10098   */\n      swap1\n      pop\n        /* \"#utility.yul\":10108:10179   */\n      tag_301\n        /* \"#utility.yul\":10176:10177   */\n      0x00\n        /* \"#utility.yul\":10165:10174   */\n      dup4\n        /* \"#utility.yul\":10161:10178   */\n      add\n        /* \"#utility.yul\":10152:10158   */\n      dup6\n        /* \"#utility.yul\":10108:10179   */\n      tag_175\n      jump\t// in\n    tag_301:\n        /* \"#utility.yul\":10189:10261   */\n      tag_302\n        /* \"#utility.yul\":10257:10259   */\n      0x20\n        /* \"#utility.yul\":10246:10255   */\n      dup4\n        /* \"#utility.yul\":10242:10260   */\n      add\n        /* \"#utility.yul\":10233:10239   */\n      dup5\n        /* \"#utility.yul\":10189:10261   */\n      tag_176\n      jump\t// in\n    tag_302:\n        /* \"#utility.yul\":9936:10268   */\n      swap4\n      swap3\n      pop\n      pop\n      pop\n      jump\t// out\n        /* \"#utility.yul\":10274:10390   */\n    tag_190:\n        /* \"#utility.yul\":10344:10365   */\n      tag_304\n        /* \"#utility.yul\":10359:10364   */\n      dup2\n        /* \"#utility.yul\":10344:10365   */\n      tag_177\n      jump\t// in\n    tag_304:\n        /* \"#utility.yul\":10337:10342   */\n      dup2\n        /* \"#utility.yul\":10334:10366   */\n      eq\n        /* \"#utility.yul\":10324:10384   */\n      tag_305\n      jumpi\n        /* \"#utility.yul\":10380:10381   */\n      0x00\n        /* \"#utility.yul\":10377:10378   */\n      dup1\n        /* \"#utility.yul\":10370:10382   */\n      revert\n        /* \"#utility.yul\":10324:10384   */\n    tag_305:\n        /* \"#utility.yul\":10274:10390   */\n      pop\n      jump\t// out\n        /* \"#utility.yul\":10396:10533   */\n    tag_191:\n        /* \"#utility.yul\":10450:10455   */\n      0x00\n        /* \"#utility.yul\":10481:10487   */\n      dup2\n        /* \"#utility.yul\":10475:10488   */\n      mload\n        /* \"#utility.yul\":10466:10488   */\n      swap1\n      pop\n        /* \"#utility.yul\":10497:10527   */\n      tag_307\n        /* \"#utility.yul\":10521:10526   */\n      dup2\n        /* \"#utility.yul\":10497:10527   */\n      tag_190\n      jump\t// in\n    tag_307:\n        /* \"#utility.yul\":10396:10533   */\n      swap3\n      swap2\n      pop\n      pop\n      jump\t// out\n        /* \"#utility.yul\":10539:10884   */\n    tag_65:\n        /* \"#utility.yul\":10606:10612   */\n      0x00\n        /* \"#utility.yul\":10655:10657   */\n      0x20\n        /* \"#utility.yul\":10643:10652   */\n      dup3\n        /* \"#utility.yul\":10634:10641   */\n      dup5\n        /* \"#utility.yul\":10630:10653   */\n      sub\n        /* \"#utility.yul\":10626:10658   */\n      slt\n        /* \"#utility.yul\":10623:10742   */\n      iszero\n      tag_309\n      jumpi\n        /* \"#utility.yul\":10661:10740   */\n      tag_310\n      tag_166\n      jump\t// in\n    tag_310:\n        /* \"#utility.yul\":10623:10742   */\n    tag_309:\n        /* \"#utility.yul\":10781:10782   */\n      0x00\n        /* \"#utility.yul\":10806:10867   */\n      tag_311\n        /* \"#utility.yul\":10859:10866   */\n      dup5\n        /* \"#utility.yul\":10850:10856   */\n      dup3\n        /* \"#utility.yul\":10839:10848   */\n      dup6\n        /* \"#utility.yul\":10835:10857   */\n      add\n        /* \"#utility.yul\":10806:10867   */\n      tag_191\n      jump\t// in\n    tag_311:\n        /* \"#utility.yul\":10796:10867   */\n      swap2\n      pop\n        /* \"#utility.yul\":10752:10877   */\n      pop\n        /* \"#utility.yul\":10539:10884   */\n      swap3\n      swap2\n      pop\n      pop\n      jump\t// out\n        /* \"#utility.yul\":10890:11059   */\n    tag_192:\n        /* \"#utility.yul\":10974:10985   */\n      0x00\n        /* \"#utility.yul\":11008:11014   */\n      dup3\n        /* \"#utility.yul\":11003:11006   */\n      dup3\n        /* \"#utility.yul\":10996:11015   */\n      mstore\n        /* \"#utility.yul\":11048:11052   */\n      0x20\n        /* \"#utility.yul\":11043:11046   */\n      dup3\n        /* \"#utility.yul\":11039:11053   */\n      add\n        /* \"#utility.yul\":11024:11053   */\n      swap1\n      pop\n        /* \"#utility.yul\":10890:11059   */\n      swap3\n      swap2\n      pop\n      pop\n      jump\t// out\n        /* \"#utility.yul\":11065:11233   */\n    tag_193:\n        /* \"#utility.yul\":11205:11225   */\n      0x496e76616c6964206c6f616e20696e6465780000000000000000000000000000\n        /* \"#utility.yul\":11201:11202   */\n      0x00\n        /* \"#utility.yul\":11193:11199   */\n      dup3\n        /* \"#utility.yul\":11189:11203   */\n      add\n        /* \"#utility.yul\":11182:11226   */\n      mstore\n        /* \"#utility.yul\":11065:11233   */\n      pop\n      jump\t// out\n        /* \"#utility.yul\":11239:11605   */\n    tag_194:\n        /* \"#utility.yul\":11381:11384   */\n      0x00\n        /* \"#utility.yul\":11402:11469   */\n      tag_315\n        /* \"#utility.yul\":11466:11468   */\n      0x12\n        /* \"#utility.yul\":11461:11464   */\n      dup4\n        /* \"#utility.yul\":11402:11469   */\n      tag_192\n      jump\t// in\n    tag_315:\n        /* \"#utility.yul\":11395:11469   */\n      swap2\n      pop\n        /* \"#utility.yul\":11478:11571   */\n      tag_316\n        /* \"#utility.yul\":11567:11570   */\n      dup3\n        /* \"#utility.yul\":11478:11571   */\n      tag_193\n      jump\t// in\n    tag_316:\n        /* \"#utility.yul\":11596:11598   */\n      0x20\n        /* \"#utility.yul\":11591:11594   */\n      dup3\n        /* \"#utility.yul\":11587:11599   */\n      add\n        /* \"#utility.yul\":11580:11599   */\n      swap1\n      pop\n        /* \"#utility.yul\":11239:11605   */\n      swap2\n      swap1\n      pop\n      jump\t// out\n        /* \"#utility.yul\":11611:12030   */\n    tag_77:\n        /* \"#utility.yul\":11777:11781   */\n      0x00\n        /* \"#utility.yul\":11815:11817   */\n      0x20\n        /* \"#utility.yul\":11804:11813   */\n      dup3\n        /* \"#utility.yul\":11800:11818   */\n      add\n        /* \"#utility.yul\":11792:11818   */\n      swap1\n      pop\n        /* \"#utility.yul\":11864:11873   */\n      dup2\n        /* \"#utility.yul\":11858:11862   */\n      dup2\n        /* \"#utility.yul\":11854:11874   */\n      sub\n        /* \"#utility.yul\":11850:11851   */\n      0x00\n        /* \"#utility.yul\":11839:11848   */\n      dup4\n        /* \"#utility.yul\":11835:11852   */\n      add\n        /* \"#utility.yul\":11828:11875   */\n      mstore\n        /* \"#utility.yul\":11892:12023   */\n      tag_318\n        /* \"#utility.yul\":12018:12022   */\n      dup2\n        /* \"#utility.yul\":11892:12023   */\n      tag_194\n      jump\t// in\n    tag_318:\n        /* \"#utility.yul\":11884:12023   */\n      swap1\n      pop\n        /* \"#utility.yul\":11611:12030   */\n      swap2\n      swap1\n      pop\n      jump\t// out\n        /* \"#utility.yul\":12036:12216   */\n    tag_80:\n        /* \"#utility.yul\":12084:12161   */\n      0x4e487b7100000000000000000000000000000000000000000000000000000000\n        /* \"#utility.yul\":12081:12082   */\n      0x00\n        /* \"#utility.yul\":12074:12162   */\n      mstore\n        /* \"#utility.yul\":12181:12185   */\n      0x32\n        /* \"#utility.yul\":12178:12179   */\n      0x04\n        /* \"#utility.yul\":12171:12186   */\n      mstore\n        /* \"#utility.yul\":12205:12209   */\n      0x24\n        /* \"#utility.yul\":12202:12203   */\n      0x00\n        /* \"#utility.yul\":12195:12210   */\n      revert\n        /* \"#utility.yul\":12222:12391   */\n    tag_195:\n        /* \"#utility.yul\":12362:12383   */\n      0x4c6f616e20616c72656164792072657061696400000000000000000000000000\n        /* \"#utility.yul\":12358:12359   */\n      0x00\n        /* \"#utility.yul\":12350:12356   */\n      dup3\n        /* \"#utility.yul\":12346:12360   */\n      add\n        /* \"#utility.yul\":12339:12384   */\n      mstore\n        /* \"#utility.yul\":12222:12391   */\n      pop\n      jump\t// out\n        /* \"#utility.yul\":12397:12763   */\n    tag_196:\n        /* \"#utility.yul\":12539:12542   */\n      0x00\n        /* \"#utility.yul\":12560:12627   */\n      tag_322\n        /* \"#utility.yul\":12624:12626   */\n      0x13\n        /* \"#utility.yul\":12619:12622   */\n      dup4\n        /* \"#utility.yul\":12560:12627   */\n      tag_192\n      jump\t// in\n    tag_322:\n        /* \"#utility.yul\":12553:12627   */\n      swap2\n      pop\n        /* \"#utility.yul\":12636:12729   */\n      tag_323\n        /* \"#utility.yul\":12725:12728   */\n      dup3\n        /* \"#utility.yul\":12636:12729   */\n      tag_195\n      jump\t// in\n    tag_323:\n        /* \"#utility.yul\":12754:12756   */\n      0x20\n        /* \"#utility.yul\":12749:12752   */\n      dup3\n        /* \"#utility.yul\":12745:12757   */\n      add\n        /* \"#utility.yul\":12738:12757   */\n      swap1\n      pop\n        /* \"#utility.yul\":12397:12763   */\n      swap2\n      swap1\n      pop\n      jump\t// out\n        /* \"#utility.yul\":12769:13188   */\n    tag_84:\n        /* \"#utility.yul\":12935:12939   */\n      0x00\n        /* \"#utility.yul\":12973:12975   */\n      0x20\n        /* \"#utility.yul\":12962:12971   */\n      dup3\n        /* \"#utility.yul\":12958:12976   */\n      add\n        /* \"#utility.yul\":12950:12976   */\n      swap1\n      pop\n        /* \"#utility.yul\":13022:13031   */\n      dup2\n        /* \"#utility.yul\":13016:13020   */\n      dup2\n        /* \"#utility.yul\":13012:13032   */\n      sub\n        /* \"#utility.yul\":13008:13009   */\n      0x00\n        /* \"#utility.yul\":12997:13006   */\n      dup4\n        /* \"#utility.yul\":12993:13010   */\n      add\n        /* \"#utility.yul\":12986:13033   */\n      mstore\n        /* \"#utility.yul\":13050:13181   */\n      tag_325\n        /* \"#utility.yul\":13176:13180   */\n      dup2\n        /* \"#utility.yul\":13050:13181   */\n      tag_196\n      jump\t// in\n    tag_325:\n        /* \"#utility.yul\":13042:13181   */\n      swap1\n      pop\n        /* \"#utility.yul\":12769:13188   */\n      swap2\n      swap1\n      pop\n      jump\t// out\n        /* \"#utility.yul\":13194:13337   */\n    tag_197:\n        /* \"#utility.yul\":13251:13256   */\n      0x00\n        /* \"#utility.yul\":13282:13288   */\n      dup2\n        /* \"#utility.yul\":13276:13289   */\n      mload\n        /* \"#utility.yul\":13267:13289   */\n      swap1\n      pop\n        /* \"#utility.yul\":13298:13331   */\n      tag_327\n        /* \"#utility.yul\":13325:13330   */\n      dup2\n        /* \"#utility.yul\":13298:13331   */\n      tag_173\n      jump\t// in\n    tag_327:\n        /* \"#utility.yul\":13194:13337   */\n      swap3\n      swap2\n      pop\n      pop\n      jump\t// out\n        /* \"#utility.yul\":13343:13694   */\n    tag_89:\n        /* \"#utility.yul\":13413:13419   */\n      0x00\n        /* \"#utility.yul\":13462:13464   */\n      0x20\n        /* \"#utility.yul\":13450:13459   */\n      dup3\n        /* \"#utility.yul\":13441:13448   */\n      dup5\n        /* \"#utility.yul\":13437:13460   */\n      sub\n        /* \"#utility.yul\":13433:13465   */\n      slt\n        /* \"#utility.yul\":13430:13549   */\n      iszero\n      tag_329\n      jumpi\n        /* \"#utility.yul\":13468:13547   */\n      tag_330\n      tag_166\n      jump\t// in\n    tag_330:\n        /* \"#utility.yul\":13430:13549   */\n    tag_329:\n        /* \"#utility.yul\":13588:13589   */\n      0x00\n        /* \"#utility.yul\":13613:13677   */\n      tag_331\n        /* \"#utility.yul\":13669:13676   */\n      dup5\n        /* \"#utility.yul\":13660:13666   */\n      dup3\n        /* \"#utility.yul\":13649:13658   */\n      dup6\n        /* \"#utility.yul\":13645:13667   */\n      add\n        /* \"#utility.yul\":13613:13677   */\n      tag_197\n      jump\t// in\n    tag_331:\n        /* \"#utility.yul\":13603:13677   */\n      swap2\n      pop\n        /* \"#utility.yul\":13559:13687   */\n      pop\n        /* \"#utility.yul\":13343:13694   */\n      swap3\n      swap2\n      pop\n      pop\n      jump\t// out\n        /* \"#utility.yul\":13700:13881   */\n    tag_198:\n        /* \"#utility.yul\":13840:13873   */\n      0x496e73756666696369656e74206c6f616e20746f6b656e2062616c616e636500\n        /* \"#utility.yul\":13836:13837   */\n      0x00\n        /* \"#utility.yul\":13828:13834   */\n      dup3\n        /* \"#utility.yul\":13824:13838   */\n      add\n        /* \"#utility.yul\":13817:13874   */\n      mstore\n        /* \"#utility.yul\":13700:13881   */\n      pop\n      jump\t// out\n        /* \"#utility.yul\":13887:14253   */\n    tag_199:\n        /* \"#utility.yul\":14029:14032   */\n      0x00\n        /* \"#utility.yul\":14050:14117   */\n      tag_334\n        /* \"#utility.yul\":14114:14116   */\n      0x1f\n        /* \"#utility.yul\":14109:14112   */\n      dup4\n        /* \"#utility.yul\":14050:14117   */\n      tag_192\n      jump\t// in\n    tag_334:\n        /* \"#utility.yul\":14043:14117   */\n      swap2\n      pop\n        /* \"#utility.yul\":14126:14219   */\n      tag_335\n        /* \"#utility.yul\":14215:14218   */\n      dup3\n        /* \"#utility.yul\":14126:14219   */\n      tag_198\n      jump\t// in\n    tag_335:\n        /* \"#utility.yul\":14244:14246   */\n      0x20\n        /* \"#utility.yul\":14239:14242   */\n      dup3\n        /* \"#utility.yul\":14235:14247   */\n      add\n        /* \"#utility.yul\":14228:14247   */\n      swap1\n      pop\n        /* \"#utility.yul\":13887:14253   */\n      swap2\n      swap1\n      pop\n      jump\t// out\n        /* \"#utility.yul\":14259:14678   */\n    tag_92:\n        /* \"#utility.yul\":14425:14429   */\n      0x00\n        /* \"#utility.yul\":14463:14465   */\n      0x20\n        /* \"#utility.yul\":14452:14461   */\n      dup3\n        /* \"#utility.yul\":14448:14466   */\n      add\n        /* \"#utility.yul\":14440:14466   */\n      swap1\n      pop\n        /* \"#utility.yul\":14512:14521   */\n      dup2\n        /* \"#utility.yul\":14506:14510   */\n      dup2\n        /* \"#utility.yul\":14502:14522   */\n      sub\n        /* \"#utility.yul\":14498:14499   */\n      0x00\n        /* \"#utility.yul\":14487:14496   */\n      dup4\n        /* \"#utility.yul\":14483:14500   */\n      add\n        /* \"#utility.yul\":14476:14523   */\n      mstore\n        /* \"#utility.yul\":14540:14671   */\n      tag_337\n        /* \"#utility.yul\":14666:14670   */\n      dup2\n        /* \"#utility.yul\":14540:14671   */\n      tag_199\n      jump\t// in\n    tag_337:\n        /* \"#utility.yul\":14532:14671   */\n      swap1\n      pop\n        /* \"#utility.yul\":14259:14678   */\n      swap2\n      swap1\n      pop\n      jump\t// out\n        /* \"#utility.yul\":14684:15126   */\n    tag_94:\n        /* \"#utility.yul\":14833:14837   */\n      0x00\n        /* \"#utility.yul\":14871:14873   */\n      0x60\n        /* \"#utility.yul\":14860:14869   */\n      dup3\n        /* \"#utility.yul\":14856:14874   */\n      add\n        /* \"#utility.yul\":14848:14874   */\n      swap1\n      pop\n        /* \"#utility.yul\":14884:14955   */\n      tag_339\n        /* \"#utility.yul\":14952:14953   */\n      0x00\n        /* \"#utility.yul\":14941:14950   */\n      dup4\n        /* \"#utility.yul\":14937:14954   */\n      add\n        /* \"#utility.yul\":14928:14934   */\n      dup7\n        /* \"#utility.yul\":14884:14955   */\n      tag_175\n      jump\t// in\n    tag_339:\n        /* \"#utility.yul\":14965:15037   */\n      tag_340\n        /* \"#utility.yul\":15033:15035   */\n      0x20\n        /* \"#utility.yul\":15022:15031   */\n      dup4\n        /* \"#utility.yul\":15018:15036   */\n      add\n        /* \"#utility.yul\":15009:15015   */\n      dup6\n        /* \"#utility.yul\":14965:15037   */\n      tag_175\n      jump\t// in\n    tag_340:\n        /* \"#utility.yul\":15047:15119   */\n      tag_341\n        /* \"#utility.yul\":15115:15117   */\n      0x40\n        /* \"#utility.yul\":15104:15113   */\n      dup4\n        /* \"#utility.yul\":15100:15118   */\n      add\n        /* \"#utility.yul\":15091:15097   */\n      dup5\n        /* \"#utility.yul\":15047:15119   */\n      tag_176\n      jump\t// in\n    tag_341:\n        /* \"#utility.yul\":14684:15126   */\n      swap5\n      swap4\n      pop\n      pop\n      pop\n      pop\n      jump\t// out\n        /* \"#utility.yul\":15132:15464   */\n    tag_103:\n        /* \"#utility.yul\":15253:15257   */\n      0x00\n        /* \"#utility.yul\":15291:15293   */\n      0x40\n        /* \"#utility.yul\":15280:15289   */\n      dup3\n        /* \"#utility.yul\":15276:15294   */\n      add\n        /* \"#utility.yul\":15268:15294   */\n      swap1\n      pop\n        /* \"#utility.yul\":15304:15375   */\n      tag_343\n        /* \"#utility.yul\":15372:15373   */\n      0x00\n        /* \"#utility.yul\":15361:15370   */\n      dup4\n        /* \"#utility.yul\":15357:15374   */\n      add\n        /* \"#utility.yul\":15348:15354   */\n      dup6\n        /* \"#utility.yul\":15304:15375   */\n      tag_176\n      jump\t// in\n    tag_343:\n        /* \"#utility.yul\":15385:15457   */\n      tag_344\n        /* \"#utility.yul\":15453:15455   */\n      0x20\n        /* \"#utility.yul\":15442:15451   */\n      dup4\n        /* \"#utility.yul\":15438:15456   */\n      add\n        /* \"#utility.yul\":15429:15435   */\n      dup5\n        /* \"#utility.yul\":15385:15457   */\n      tag_175\n      jump\t// in\n    tag_344:\n        /* \"#utility.yul\":15132:15464   */\n      swap4\n      swap3\n      pop\n      pop\n      pop\n      jump\t// out\n        /* \"#utility.yul\":15470:15697   */\n    tag_200:\n        /* \"#utility.yul\":15610:15644   */\n      0x436f6c6c61746572616c20616d6f756e74206d75737420626520677265617465\n        /* \"#utility.yul\":15606:15607   */\n      0x00\n        /* \"#utility.yul\":15598:15604   */\n      dup3\n        /* \"#utility.yul\":15594:15608   */\n      add\n        /* \"#utility.yul\":15587:15645   */\n      mstore\n        /* \"#utility.yul\":15679:15689   */\n      0x72207468616e2030000000000000000000000000000000000000000000000000\n        /* \"#utility.yul\":15674:15676   */\n      0x20\n        /* \"#utility.yul\":15666:15672   */\n      dup3\n        /* \"#utility.yul\":15662:15677   */\n      add\n        /* \"#utility.yul\":15655:15690   */\n      mstore\n        /* \"#utility.yul\":15470:15697   */\n      pop\n      jump\t// out\n        /* \"#utility.yul\":15703:16069   */\n    tag_201:\n        /* \"#utility.yul\":15845:15848   */\n      0x00\n        /* \"#utility.yul\":15866:15933   */\n      tag_347\n        /* \"#utility.yul\":15930:15932   */\n      0x28\n        /* \"#utility.yul\":15925:15928   */\n      dup4\n        /* \"#utility.yul\":15866:15933   */\n      tag_192\n      jump\t// in\n    tag_347:\n        /* \"#utility.yul\":15859:15933   */\n      swap2\n      pop\n        /* \"#utility.yul\":15942:16035   */\n      tag_348\n        /* \"#utility.yul\":16031:16034   */\n      dup3\n        /* \"#utility.yul\":15942:16035   */\n      tag_200\n      jump\t// in\n    tag_348:\n        /* \"#utility.yul\":16060:16062   */\n      0x40\n        /* \"#utility.yul\":16055:16058   */\n      dup3\n        /* \"#utility.yul\":16051:16063   */\n      add\n        /* \"#utility.yul\":16044:16063   */\n      swap1\n      pop\n        /* \"#utility.yul\":15703:16069   */\n      swap2\n      swap1\n      pop\n      jump\t// out\n        /* \"#utility.yul\":16075:16494   */\n    tag_120:\n        /* \"#utility.yul\":16241:16245   */\n      0x00\n        /* \"#utility.yul\":16279:16281   */\n      0x20\n        /* \"#utility.yul\":16268:16277   */\n      dup3\n        /* \"#utility.yul\":16264:16282   */\n      add\n        /* \"#utility.yul\":16256:16282   */\n      swap1\n      pop\n        /* \"#utility.yul\":16328:16337   */\n      dup2\n        /* \"#utility.yul\":16322:16326   */\n      dup2\n        /* \"#utility.yul\":16318:16338   */\n      sub\n        /* \"#utility.yul\":16314:16315   */\n      0x00\n        /* \"#utility.yul\":16303:16312   */\n      dup4\n        /* \"#utility.yul\":16299:16316   */\n      add\n        /* \"#utility.yul\":16292:16339   */\n      mstore\n        /* \"#utility.yul\":16356:16487   */\n      tag_350\n        /* \"#utility.yul\":16482:16486   */\n      dup2\n        /* \"#utility.yul\":16356:16487   */\n      tag_201\n      jump\t// in\n    tag_350:\n        /* \"#utility.yul\":16348:16487   */\n      swap1\n      pop\n        /* \"#utility.yul\":16075:16494   */\n      swap2\n      swap1\n      pop\n      jump\t// out\n        /* \"#utility.yul\":16500:16721   */\n    tag_202:\n        /* \"#utility.yul\":16640:16674   */\n      0x4c6f616e20616d6f756e74206d7573742062652067726561746572207468616e\n        /* \"#utility.yul\":16636:16637   */\n      0x00\n        /* \"#utility.yul\":16628:16634   */\n      dup3\n        /* \"#utility.yul\":16624:16638   */\n      add\n        /* \"#utility.yul\":16617:16675   */\n      mstore\n        /* \"#utility.yul\":16709:16713   */\n      0x2030000000000000000000000000000000000000000000000000000000000000\n        /* \"#utility.yul\":16704:16706   */\n      0x20\n        /* \"#utility.yul\":16696:16702   */\n      dup3\n        /* \"#utility.yul\":16692:16707   */\n      add\n        /* \"#utility.yul\":16685:16714   */\n      mstore\n        /* \"#utility.yul\":16500:16721   */\n      pop\n      jump\t// out\n        /* \"#utility.yul\":16727:17093   */\n    tag_203:\n        /* \"#utility.yul\":16869:16872   */\n      0x00\n        /* \"#utility.yul\":16890:16957   */\n      tag_353\n        /* \"#utility.yul\":16954:16956   */\n      0x22\n        /* \"#utility.yul\":16949:16952   */\n      dup4\n        /* \"#utility.yul\":16890:16957   */\n      tag_192\n      jump\t// in\n    tag_353:\n        /* \"#utility.yul\":16883:16957   */\n      swap2\n      pop\n        /* \"#utility.yul\":16966:17059   */\n      tag_354\n        /* \"#utility.yul\":17055:17058   */\n      dup3\n        /* \"#utility.yul\":16966:17059   */\n      tag_202\n      jump\t// in\n    tag_354:\n        /* \"#utility.yul\":17084:17086   */\n      0x40\n        /* \"#utility.yul\":17079:17082   */\n      dup3\n        /* \"#utility.yul\":17075:17087   */\n      add\n        /* \"#utility.yul\":17068:17087   */\n      swap1\n      pop\n        /* \"#utility.yul\":16727:17093   */\n      swap2\n      swap1\n      pop\n      jump\t// out\n        /* \"#utility.yul\":17099:17518   */\n    tag_123:\n        /* \"#utility.yul\":17265:17269   */\n      0x00\n        /* \"#utility.yul\":17303:17305   */\n      0x20\n        /* \"#utility.yul\":17292:17301   */\n      dup3\n        /* \"#utility.yul\":17288:17306   */\n      add\n        /* \"#utility.yul\":17280:17306   */\n      swap1\n      pop\n        /* \"#utility.yul\":17352:17361   */\n      dup2\n        /* \"#utility.yul\":17346:17350   */\n      dup2\n        /* \"#utility.yul\":17342:17362   */\n      sub\n        /* \"#utility.yul\":17338:17339   */\n      0x00\n        /* \"#utility.yul\":17327:17336   */\n      dup4\n        /* \"#utility.yul\":17323:17340   */\n      add\n        /* \"#utility.yul\":17316:17363   */\n      mstore\n        /* \"#utility.yul\":17380:17511   */\n      tag_356\n        /* \"#utility.yul\":17506:17510   */\n      dup2\n        /* \"#utility.yul\":17380:17511   */\n      tag_203\n      jump\t// in\n    tag_356:\n        /* \"#utility.yul\":17372:17511   */\n      swap1\n      pop\n        /* \"#utility.yul\":17099:17518   */\n      swap2\n      swap1\n      pop\n      jump\t// out\n        /* \"#utility.yul\":17524:17705   */\n    tag_204:\n        /* \"#utility.yul\":17664:17697   */\n      0x496e73756666696369656e7420636f6c6c61746572616c2062616c616e636500\n        /* \"#utility.yul\":17660:17661   */\n      0x00\n        /* \"#utility.yul\":17652:17658   */\n      dup3\n        /* \"#utility.yul\":17648:17662   */\n      add\n        /* \"#utility.yul\":17641:17698   */\n      mstore\n        /* \"#utility.yul\":17524:17705   */\n      pop\n      jump\t// out\n        /* \"#utility.yul\":17711:18077   */\n    tag_205:\n        /* \"#utility.yul\":17853:17856   */\n      0x00\n        /* \"#utility.yul\":17874:17941   */\n      tag_359\n        /* \"#utility.yul\":17938:17940   */\n      0x1f\n        /* \"#utility.yul\":17933:17936   */\n      dup4\n        /* \"#utility.yul\":17874:17941   */\n      tag_192\n      jump\t// in\n    tag_359:\n        /* \"#utility.yul\":17867:17941   */\n      swap2\n      pop\n        /* \"#utility.yul\":17950:18043   */\n      tag_360\n        /* \"#utility.yul\":18039:18042   */\n      dup3\n        /* \"#utility.yul\":17950:18043   */\n      tag_204\n      jump\t// in\n    tag_360:\n        /* \"#utility.yul\":18068:18070   */\n      0x20\n        /* \"#utility.yul\":18063:18066   */\n      dup3\n        /* \"#utility.yul\":18059:18071   */\n      add\n        /* \"#utility.yul\":18052:18071   */\n      swap1\n      pop\n        /* \"#utility.yul\":17711:18077   */\n      swap2\n      swap1\n      pop\n      jump\t// out\n        /* \"#utility.yul\":18083:18502   */\n    tag_130:\n        /* \"#utility.yul\":18249:18253   */\n      0x00\n        /* \"#utility.yul\":18287:18289   */\n      0x20\n        /* \"#utility.yul\":18276:18285   */\n      dup3\n        /* \"#utility.yul\":18272:18290   */\n      add\n        /* \"#utility.yul\":18264:18290   */\n      swap1\n      pop\n        /* \"#utility.yul\":18336:18345   */\n      dup2\n        /* \"#utility.yul\":18330:18334   */\n      dup2\n        /* \"#utility.yul\":18326:18346   */\n      sub\n        /* \"#utility.yul\":18322:18323   */\n      0x00\n        /* \"#utility.yul\":18311:18320   */\n      dup4\n        /* \"#utility.yul\":18307:18324   */\n      add\n        /* \"#utility.yul\":18300:18347   */\n      mstore\n        /* \"#utility.yul\":18364:18495   */\n      tag_362\n        /* \"#utility.yul\":18490:18494   */\n      dup2\n        /* \"#utility.yul\":18364:18495   */\n      tag_205\n      jump\t// in\n    tag_362:\n        /* \"#utility.yul\":18356:18495   */\n      swap1\n      pop\n        /* \"#utility.yul\":18083:18502   */\n      swap2\n      swap1\n      pop\n      jump\t// out\n        /* \"#utility.yul\":18508:18728   */\n    tag_206:\n        /* \"#utility.yul\":18648:18682   */\n      0x496e73756666696369656e74206c6f616e20746f6b656e206c69717569646974\n        /* \"#utility.yul\":18644:18645   */\n      0x00\n        /* \"#utility.yul\":18636:18642   */\n      dup3\n        /* \"#utility.yul\":18632:18646   */\n      add\n        /* \"#utility.yul\":18625:18683   */\n      mstore\n        /* \"#utility.yul\":18717:18720   */\n      0x7900000000000000000000000000000000000000000000000000000000000000\n        /* \"#utility.yul\":18712:18714   */\n      0x20\n        /* \"#utility.yul\":18704:18710   */\n      dup3\n        /* \"#utility.yul\":18700:18715   */\n      add\n        /* \"#utility.yul\":18693:18721   */\n      mstore\n        /* \"#utility.yul\":18508:18728   */\n      pop\n      jump\t// out\n        /* \"#utility.yul\":18734:19100   */\n    tag_207:\n        /* \"#utility.yul\":18876:18879   */\n      0x00\n        /* \"#utility.yul\":18897:18964   */\n      tag_365\n        /* \"#utility.yul\":18961:18963   */\n      0x21\n        /* \"#utility.yul\":18956:18959   */\n      dup4\n        /* \"#utility.yul\":18897:18964   */\n      tag_192\n      jump\t// in\n    tag_365:\n        /* \"#utility.yul\":18890:18964   */\n      swap2\n      pop\n        /* \"#utility.yul\":18973:19066   */\n      tag_366\n        /* \"#utility.yul\":19062:19065   */\n      dup3\n        /* \"#utility.yul\":18973:19066   */\n      tag_206\n      jump\t// in\n    tag_366:\n        /* \"#utility.yul\":19091:19093   */\n      0x40\n        /* \"#utility.yul\":19086:19089   */\n      dup3\n        /* \"#utility.yul\":19082:19094   */\n      add\n        /* \"#utility.yul\":19075:19094   */\n      swap1\n      pop\n        /* \"#utility.yul\":18734:19100   */\n      swap2\n      swap1\n      pop\n      jump\t// out\n        /* \"#utility.yul\":19106:19525   */\n    tag_137:\n        /* \"#utility.yul\":19272:19276   */\n      0x00\n        /* \"#utility.yul\":19310:19312   */\n      0x20\n        /* \"#utility.yul\":19299:19308   */\n      dup3\n        /* \"#utility.yul\":19295:19313   */\n      add\n        /* \"#utility.yul\":19287:19313   */\n      swap1\n      pop\n        /* \"#utility.yul\":19359:19368   */\n      dup2\n        /* \"#utility.yul\":19353:19357   */\n      dup2\n        /* \"#utility.yul\":19349:19369   */\n      sub\n        /* \"#utility.yul\":19345:19346   */\n      0x00\n        /* \"#utility.yul\":19334:19343   */\n      dup4\n        /* \"#utility.yul\":19330:19347   */\n      add\n        /* \"#utility.yul\":19323:19370   */\n      mstore\n        /* \"#utility.yul\":19387:19518   */\n      tag_368\n        /* \"#utility.yul\":19513:19517   */\n      dup2\n        /* \"#utility.yul\":19387:19518   */\n      tag_207\n      jump\t// in\n    tag_368:\n        /* \"#utility.yul\":19379:19518   */\n      swap1\n      pop\n        /* \"#utility.yul\":19106:19525   */\n      swap2\n      swap1\n      pop\n      jump\t// out\n\n    auxdata: 0xa2646970667358221220b83dcd9847a5feb19a190d04d381554097fe447a6ad4563ae54e1266d6f7df7e64736f6c634300081a0033\n}\n",
				"bytecode": {
					"linkReferences": {},
					"object": "608060405234801561000f575f80fd5b50335f73ffffffffffffffffffffffffffffffffffffffff168173ffffffffffffffffffffffffffffffffffffffff1603610081575f6040517f1e4fbdf70000000000000000000000000000000000000000000000000000000081526004016100789190610196565b60405180910390fd5b6100908161009660201b60201c565b506101af565b5f805f9054906101000a900473ffffffffffffffffffffffffffffffffffffffff169050815f806101000a81548173ffffffffffffffffffffffffffffffffffffffff021916908373ffffffffffffffffffffffffffffffffffffffff1602179055508173ffffffffffffffffffffffffffffffffffffffff168173ffffffffffffffffffffffffffffffffffffffff167f8be0079c531659141344cd1fd0a4f28419497f9722a3daafe3b4186f6b6457e060405160405180910390a35050565b5f73ffffffffffffffffffffffffffffffffffffffff82169050919050565b5f61018082610157565b9050919050565b61019081610176565b82525050565b5f6020820190506101a95f830184610187565b92915050565b611b65806101bc5f395ff3fe608060405234801561000f575f80fd5b506004361061009c575f3560e01c8063d13d5e5611610064578063d13d5e5614610134578063d988ef2014610164578063e7153a7c14610194578063f2fde38b146101b0578063f53c61e0146101cc5761009c565b806306b091f9146100a0578063715018a6146100bc5780638da5cb5b146100c657806398c61c37146100e4578063ab7b1c8914610118575b5f80fd5b6100ba60048036038101906100b59190611304565b6101fc565b005b6100c4610284565b005b6100ce610297565b6040516100db9190611351565b60405180910390f35b6100fe60048036038101906100f99190611304565b6102be565b60405161010f959493929190611393565b60405180910390f35b610132600480360381019061012d91906113e4565b610355565b005b61014e60048036038101906101499190611304565b6107a4565b60405161015b91906114a2565b60405180910390f35b61017e600480360381019061017991906114bb565b610974565b60405161018b91906115f4565b60405180910390f35b6101ae60048036038101906101a99190611614565b610ae5565b005b6101ca60048036038101906101c591906114bb565b610fff565b005b6101e660048036038101906101e191906114bb565b611083565b6040516101f39190611678565b60405180910390f35b6102046110cc565b8173ffffffffffffffffffffffffffffffffffffffff1663a9059cbb33836040518363ffffffff1660e01b815260040161023f929190611691565b6020604051808303815f875af115801561025b573d5f803e3d5ffd5b505050506040513d601f19601f8201168201806040525081019061027f91906116e2565b505050565b61028c6110cc565b6102955f611153565b565b5f805f9054906101000a900473ffffffffffffffffffffffffffffffffffffffff16905090565b6001602052815f5260405f2081815481106102d7575f80fd5b905f5260205f2090600402015f9150915050805f015490806001015490806002015f9054906101000a900473ffffffffffffffffffffffffffffffffffffffff1690806003015f9054906101000a900473ffffffffffffffffffffffffffffffffffffffff16908060030160149054906101000a900460ff16905085565b60015f3373ffffffffffffffffffffffffffffffffffffffff1673ffffffffffffffffffffffffffffffffffffffff1681526020019081526020015f208054905081106103d7576040517f08c379a00000000000000000000000000000000000000000000000000000000081526004016103ce90611767565b60405180910390fd5b5f60015f3373ffffffffffffffffffffffffffffffffffffffff1673ffffffffffffffffffffffffffffffffffffffff1681526020019081526020015f20828154811061042757610426611785565b5b905f5260205f20906004020190508060030160149054906101000a900460ff1615610487576040517f08c379a000000000000000000000000000000000000000000000000000000000815260040161047e906117fc565b60405180910390fd5b5f816003015f9054906101000a900473ffffffffffffffffffffffffffffffffffffffff1690505f826002015f9054906101000a900473ffffffffffffffffffffffffffffffffffffffff16905082600101548273ffffffffffffffffffffffffffffffffffffffff166370a08231336040518263ffffffff1660e01b81526004016105139190611351565b602060405180830381865afa15801561052e573d5f803e3d5ffd5b505050506040513d601f19601f82011682018060405250810190610552919061182e565b1015610593576040517f08c379a000000000000000000000000000000000000000000000000000000000815260040161058a906118a3565b60405180910390fd5b8173ffffffffffffffffffffffffffffffffffffffff166323b872dd333086600101546040518463ffffffff1660e01b81526004016105d4939291906118c1565b6020604051808303815f875af11580156105f0573d5f803e3d5ffd5b505050506040513d601f19601f8201168201806040525081019061061491906116e2565b508073ffffffffffffffffffffffffffffffffffffffff1663a9059cbb33855f01546040518363ffffffff1660e01b8152600401610653929190611691565b6020604051808303815f875af115801561066f573d5f803e3d5ffd5b505050506040513d601f19601f8201168201806040525081019061069391906116e2565b5060018360030160146101000a81548160ff0219169083151502179055503373ffffffffffffffffffffffffffffffffffffffff167f0d92e40293701683f5207fc6802754aaddf166e5f5da04d1077d8d55fefb61b08460010154856003015f9054906101000a900473ffffffffffffffffffffffffffffffffffffffff166040516107209291906118f6565b60405180910390a23373ffffffffffffffffffffffffffffffffffffffff167f887eb7234a2c4fa94c5778832c90928b2ce458cfee0053ed170baa8cde476fb5845f0154856002015f9054906101000a900473ffffffffffffffffffffffffffffffffffffffff166040516107969291906118f6565b60405180910390a250505050565b6107ac61121b565b60015f8473ffffffffffffffffffffffffffffffffffffffff1673ffffffffffffffffffffffffffffffffffffffff1681526020019081526020015f2080549050821061082e576040517f08c379a000000000000000000000000000000000000000000000000000000000815260040161082590611767565b60405180910390fd5b60015f8473ffffffffffffffffffffffffffffffffffffffff1673ffffffffffffffffffffffffffffffffffffffff1681526020019081526020015f20828154811061087d5761087c611785565b5b905f5260205f2090600402016040518060a00160405290815f820154815260200160018201548152602001600282015f9054906101000a900473ffffffffffffffffffffffffffffffffffffffff1673ffffffffffffffffffffffffffffffffffffffff1673ffffffffffffffffffffffffffffffffffffffff168152602001600382015f9054906101000a900473ffffffffffffffffffffffffffffffffffffffff1673ffffffffffffffffffffffffffffffffffffffff1673ffffffffffffffffffffffffffffffffffffffff1681526020016003820160149054906101000a900460ff161515151581525050905092915050565b606060015f8373ffffffffffffffffffffffffffffffffffffffff1673ffffffffffffffffffffffffffffffffffffffff1681526020019081526020015f20805480602002602001604051908101604052809291908181526020015f905b82821015610ada578382905f5260205f2090600402016040518060a00160405290815f820154815260200160018201548152602001600282015f9054906101000a900473ffffffffffffffffffffffffffffffffffffffff1673ffffffffffffffffffffffffffffffffffffffff1673ffffffffffffffffffffffffffffffffffffffff168152602001600382015f9054906101000a900473ffffffffffffffffffffffffffffffffffffffff1673ffffffffffffffffffffffffffffffffffffffff1673ffffffffffffffffffffffffffffffffffffffff1681526020016003820160149054906101000a900460ff161515151581525050815260200190600101906109d2565b505050509050919050565b5f8411610b27576040517f08c379a0000000000000000000000000000000000000000000000000000000008152600401610b1e9061198d565b60405180910390fd5b5f8211610b69576040517f08c379a0000000000000000000000000000000000000000000000000000000008152600401610b6090611a1b565b60405180910390fd5b5f8390505f829050858273ffffffffffffffffffffffffffffffffffffffff166370a08231336040518263ffffffff1660e01b8152600401610bab9190611351565b602060405180830381865afa158015610bc6573d5f803e3d5ffd5b505050506040513d601f19601f82011682018060405250810190610bea919061182e565b1015610c2b576040517f08c379a0000000000000000000000000000000000000000000000000000000008152600401610c2290611a83565b60405180910390fd5b838173ffffffffffffffffffffffffffffffffffffffff166370a08231306040518263ffffffff1660e01b8152600401610c659190611351565b602060405180830381865afa158015610c80573d5f803e3d5ffd5b505050506040513d601f19601f82011682018060405250810190610ca4919061182e565b1015610ce5576040517f08c379a0000000000000000000000000000000000000000000000000000000008152600401610cdc90611b11565b60405180910390fd5b8173ffffffffffffffffffffffffffffffffffffffff166323b872dd3330896040518463ffffffff1660e01b8152600401610d22939291906118c1565b6020604051808303815f875af1158015610d3e573d5f803e3d5ffd5b505050506040513d601f19601f82011682018060405250810190610d6291906116e2565b508073ffffffffffffffffffffffffffffffffffffffff1663a9059cbb33866040518363ffffffff1660e01b8152600401610d9e929190611691565b6020604051808303815f875af1158015610dba573d5f803e3d5ffd5b505050506040513d601f19601f82011682018060405250810190610dde91906116e2565b5060015f3373ffffffffffffffffffffffffffffffffffffffff1673ffffffffffffffffffffffffffffffffffffffff1681526020019081526020015f206040518060a001604052808881526020018681526020018773ffffffffffffffffffffffffffffffffffffffff1681526020018573ffffffffffffffffffffffffffffffffffffffff1681526020015f1515815250908060018154018082558091505060019003905f5260205f2090600402015f909190919091505f820151815f0155602082015181600101556040820151816002015f6101000a81548173ffffffffffffffffffffffffffffffffffffffff021916908373ffffffffffffffffffffffffffffffffffffffff1602179055506060820151816003015f6101000a81548173ffffffffffffffffffffffffffffffffffffffff021916908373ffffffffffffffffffffffffffffffffffffffff16021790555060808201518160030160146101000a81548160ff02191690831515021790555050503373ffffffffffffffffffffffffffffffffffffffff167f56b60085244fe1afa467f92231debadc8bcb6127e9dbf35dbb58ca8406a423fe8787604051610f9f9291906118f6565b60405180910390a23373ffffffffffffffffffffffffffffffffffffffff167fe5024716f30be6e51e2a7cc6145e6659cd5bdb7a0c451e22b7e9d39c9b5f03ac8585604051610fef9291906118f6565b60405180910390a2505050505050565b6110076110cc565b5f73ffffffffffffffffffffffffffffffffffffffff168173ffffffffffffffffffffffffffffffffffffffff1603611077575f6040517f1e4fbdf700000000000000000000000000000000000000000000000000000000815260040161106e9190611351565b60405180910390fd5b61108081611153565b50565b5f60015f8373ffffffffffffffffffffffffffffffffffffffff1673ffffffffffffffffffffffffffffffffffffffff1681526020019081526020015f20805490509050919050565b6110d4611214565b73ffffffffffffffffffffffffffffffffffffffff166110f2610297565b73ffffffffffffffffffffffffffffffffffffffff161461115157611115611214565b6040517f118cdaa70000000000000000000000000000000000000000000000000000000081526004016111489190611351565b60405180910390fd5b565b5f805f9054906101000a900473ffffffffffffffffffffffffffffffffffffffff169050815f806101000a81548173ffffffffffffffffffffffffffffffffffffffff021916908373ffffffffffffffffffffffffffffffffffffffff1602179055508173ffffffffffffffffffffffffffffffffffffffff168173ffffffffffffffffffffffffffffffffffffffff167f8be0079c531659141344cd1fd0a4f28419497f9722a3daafe3b4186f6b6457e060405160405180910390a35050565b5f33905090565b6040518060a001604052805f81526020015f81526020015f73ffffffffffffffffffffffffffffffffffffffff1681526020015f73ffffffffffffffffffffffffffffffffffffffff1681526020015f151581525090565b5f80fd5b5f73ffffffffffffffffffffffffffffffffffffffff82169050919050565b5f6112a082611277565b9050919050565b6112b081611296565b81146112ba575f80fd5b50565b5f813590506112cb816112a7565b92915050565b5f819050919050565b6112e3816112d1565b81146112ed575f80fd5b50565b5f813590506112fe816112da565b92915050565b5f806040838503121561131a57611319611273565b5b5f611327858286016112bd565b9250506020611338858286016112f0565b9150509250929050565b61134b81611296565b82525050565b5f6020820190506113645f830184611342565b92915050565b611373816112d1565b82525050565b5f8115159050919050565b61138d81611379565b82525050565b5f60a0820190506113a65f83018861136a565b6113b3602083018761136a565b6113c06040830186611342565b6113cd6060830185611342565b6113da6080830184611384565b9695505050505050565b5f602082840312156113f9576113f8611273565b5b5f611406848285016112f0565b91505092915050565b611418816112d1565b82525050565b61142781611296565b82525050565b61143681611379565b82525050565b60a082015f8201516114505f85018261140f565b506020820151611463602085018261140f565b506040820151611476604085018261141e565b506060820151611489606085018261141e565b50608082015161149c608085018261142d565b50505050565b5f60a0820190506114b55f83018461143c565b92915050565b5f602082840312156114d0576114cf611273565b5b5f6114dd848285016112bd565b91505092915050565b5f81519050919050565b5f82825260208201905092915050565b5f819050602082019050919050565b60a082015f8201516115235f85018261140f565b506020820151611536602085018261140f565b506040820151611549604085018261141e565b50606082015161155c606085018261141e565b50608082015161156f608085018261142d565b50505050565b5f611580838361150f565b60a08301905092915050565b5f602082019050919050565b5f6115a2826114e6565b6115ac81856114f0565b93506115b783611500565b805f5b838110156115e75781516115ce8882611575565b97506115d98361158c565b9250506001810190506115ba565b5085935050505092915050565b5f6020820190508181035f83015261160c8184611598565b905092915050565b5f805f806080858703121561162c5761162b611273565b5b5f611639878288016112f0565b945050602061164a878288016112bd565b935050604061165b878288016112f0565b925050606061166c878288016112bd565b91505092959194509250565b5f60208201905061168b5f83018461136a565b92915050565b5f6040820190506116a45f830185611342565b6116b1602083018461136a565b9392505050565b6116c181611379565b81146116cb575f80fd5b50565b5f815190506116dc816116b8565b92915050565b5f602082840312156116f7576116f6611273565b5b5f611704848285016116ce565b91505092915050565b5f82825260208201905092915050565b7f496e76616c6964206c6f616e20696e64657800000000000000000000000000005f82015250565b5f61175160128361170d565b915061175c8261171d565b602082019050919050565b5f6020820190508181035f83015261177e81611745565b9050919050565b7f4e487b71000000000000000000000000000000000000000000000000000000005f52603260045260245ffd5b7f4c6f616e20616c726561647920726570616964000000000000000000000000005f82015250565b5f6117e660138361170d565b91506117f1826117b2565b602082019050919050565b5f6020820190508181035f830152611813816117da565b9050919050565b5f81519050611828816112da565b92915050565b5f6020828403121561184357611842611273565b5b5f6118508482850161181a565b91505092915050565b7f496e73756666696369656e74206c6f616e20746f6b656e2062616c616e6365005f82015250565b5f61188d601f8361170d565b915061189882611859565b602082019050919050565b5f6020820190508181035f8301526118ba81611881565b9050919050565b5f6060820190506118d45f830186611342565b6118e16020830185611342565b6118ee604083018461136a565b949350505050565b5f6040820190506119095f83018561136a565b6119166020830184611342565b9392505050565b7f436f6c6c61746572616c20616d6f756e74206d757374206265206772656174655f8201527f72207468616e2030000000000000000000000000000000000000000000000000602082015250565b5f61197760288361170d565b91506119828261191d565b604082019050919050565b5f6020820190508181035f8301526119a48161196b565b9050919050565b7f4c6f616e20616d6f756e74206d7573742062652067726561746572207468616e5f8201527f2030000000000000000000000000000000000000000000000000000000000000602082015250565b5f611a0560228361170d565b9150611a10826119ab565b604082019050919050565b5f6020820190508181035f830152611a32816119f9565b9050919050565b7f496e73756666696369656e7420636f6c6c61746572616c2062616c616e6365005f82015250565b5f611a6d601f8361170d565b9150611a7882611a39565b602082019050919050565b5f6020820190508181035f830152611a9a81611a61565b9050919050565b7f496e73756666696369656e74206c6f616e20746f6b656e206c697175696469745f8201527f7900000000000000000000000000000000000000000000000000000000000000602082015250565b5f611afb60218361170d565b9150611b0682611aa1565b604082019050919050565b5f6020820190508181035f830152611b2881611aef565b905091905056fea2646970667358221220b83dcd9847a5feb19a190d04d381554097fe447a6ad4563ae54e1266d6f7df7e64736f6c634300081a0033",
					"opcodes": "PUSH1 0x80 PUSH1 0x40 MSTORE CALLVALUE DUP1 ISZERO PUSH2 0xF JUMPI PUSH0 DUP1 REVERT JUMPDEST POP CALLER PUSH0 PUSH20 0xFFFFFFFFFFFFFFFFFFFFFFFFFFFFFFFFFFFFFFFF AND DUP2 PUSH20 0xFFFFFFFFFFFFFFFFFFFFFFFFFFFFFFFFFFFFFFFF AND SUB PUSH2 0x81 JUMPI PUSH0 PUSH1 0x40 MLOAD PUSH32 0x1E4FBDF700000000000000000000000000000000000000000000000000000000 DUP2 MSTORE PUSH1 0x4 ADD PUSH2 0x78 SWAP2 SWAP1 PUSH2 0x196 JUMP JUMPDEST PUSH1 0x40 MLOAD DUP1 SWAP2 SUB SWAP1 REVERT JUMPDEST PUSH2 0x90 DUP2 PUSH2 0x96 PUSH1 0x20 SHL PUSH1 0x20 SHR JUMP JUMPDEST POP PUSH2 0x1AF JUMP JUMPDEST PUSH0 DUP1 PUSH0 SWAP1 SLOAD SWAP1 PUSH2 0x100 EXP SWAP1 DIV PUSH20 0xFFFFFFFFFFFFFFFFFFFFFFFFFFFFFFFFFFFFFFFF AND SWAP1 POP DUP2 PUSH0 DUP1 PUSH2 0x100 EXP DUP2 SLOAD DUP2 PUSH20 0xFFFFFFFFFFFFFFFFFFFFFFFFFFFFFFFFFFFFFFFF MUL NOT AND SWAP1 DUP4 PUSH20 0xFFFFFFFFFFFFFFFFFFFFFFFFFFFFFFFFFFFFFFFF AND MUL OR SWAP1 SSTORE POP DUP2 PUSH20 0xFFFFFFFFFFFFFFFFFFFFFFFFFFFFFFFFFFFFFFFF AND DUP2 PUSH20 0xFFFFFFFFFFFFFFFFFFFFFFFFFFFFFFFFFFFFFFFF AND PUSH32 0x8BE0079C531659141344CD1FD0A4F28419497F9722A3DAAFE3B4186F6B6457E0 PUSH1 0x40 MLOAD PUSH1 0x40 MLOAD DUP1 SWAP2 SUB SWAP1 LOG3 POP POP JUMP JUMPDEST PUSH0 PUSH20 0xFFFFFFFFFFFFFFFFFFFFFFFFFFFFFFFFFFFFFFFF DUP3 AND SWAP1 POP SWAP2 SWAP1 POP JUMP JUMPDEST PUSH0 PUSH2 0x180 DUP3 PUSH2 0x157 JUMP JUMPDEST SWAP1 POP SWAP2 SWAP1 POP JUMP JUMPDEST PUSH2 0x190 DUP2 PUSH2 0x176 JUMP JUMPDEST DUP3 MSTORE POP POP JUMP JUMPDEST PUSH0 PUSH1 0x20 DUP3 ADD SWAP1 POP PUSH2 0x1A9 PUSH0 DUP4 ADD DUP5 PUSH2 0x187 JUMP JUMPDEST SWAP3 SWAP2 POP POP JUMP JUMPDEST PUSH2 0x1B65 DUP1 PUSH2 0x1BC PUSH0 CODECOPY PUSH0 RETURN INVALID PUSH1 0x80 PUSH1 0x40 MSTORE CALLVALUE DUP1 ISZERO PUSH2 0xF JUMPI PUSH0 DUP1 REVERT JUMPDEST POP PUSH1 0x4 CALLDATASIZE LT PUSH2 0x9C JUMPI PUSH0 CALLDATALOAD PUSH1 0xE0 SHR DUP1 PUSH4 0xD13D5E56 GT PUSH2 0x64 JUMPI DUP1 PUSH4 0xD13D5E56 EQ PUSH2 0x134 JUMPI DUP1 PUSH4 0xD988EF20 EQ PUSH2 0x164 JUMPI DUP1 PUSH4 0xE7153A7C EQ PUSH2 0x194 JUMPI DUP1 PUSH4 0xF2FDE38B EQ PUSH2 0x1B0 JUMPI DUP1 PUSH4 0xF53C61E0 EQ PUSH2 0x1CC JUMPI PUSH2 0x9C JUMP JUMPDEST DUP1 PUSH4 0x6B091F9 EQ PUSH2 0xA0 JUMPI DUP1 PUSH4 0x715018A6 EQ PUSH2 0xBC JUMPI DUP1 PUSH4 0x8DA5CB5B EQ PUSH2 0xC6 JUMPI DUP1 PUSH4 0x98C61C37 EQ PUSH2 0xE4 JUMPI DUP1 PUSH4 0xAB7B1C89 EQ PUSH2 0x118 JUMPI JUMPDEST PUSH0 DUP1 REVERT JUMPDEST PUSH2 0xBA PUSH1 0x4 DUP1 CALLDATASIZE SUB DUP2 ADD SWAP1 PUSH2 0xB5 SWAP2 SWAP1 PUSH2 0x1304 JUMP JUMPDEST PUSH2 0x1FC JUMP JUMPDEST STOP JUMPDEST PUSH2 0xC4 PUSH2 0x284 JUMP JUMPDEST STOP JUMPDEST PUSH2 0xCE PUSH2 0x297 JUMP JUMPDEST PUSH1 0x40 MLOAD PUSH2 0xDB SWAP2 SWAP1 PUSH2 0x1351 JUMP JUMPDEST PUSH1 0x40 MLOAD DUP1 SWAP2 SUB SWAP1 RETURN JUMPDEST PUSH2 0xFE PUSH1 0x4 DUP1 CALLDATASIZE SUB DUP2 ADD SWAP1 PUSH2 0xF9 SWAP2 SWAP1 PUSH2 0x1304 JUMP JUMPDEST PUSH2 0x2BE JUMP JUMPDEST PUSH1 0x40 MLOAD PUSH2 0x10F SWAP6 SWAP5 SWAP4 SWAP3 SWAP2 SWAP1 PUSH2 0x1393 JUMP JUMPDEST PUSH1 0x40 MLOAD DUP1 SWAP2 SUB SWAP1 RETURN JUMPDEST PUSH2 0x132 PUSH1 0x4 DUP1 CALLDATASIZE SUB DUP2 ADD SWAP1 PUSH2 0x12D SWAP2 SWAP1 PUSH2 0x13E4 JUMP JUMPDEST PUSH2 0x355 JUMP JUMPDEST STOP JUMPDEST PUSH2 0x14E PUSH1 0x4 DUP1 CALLDATASIZE SUB DUP2 ADD SWAP1 PUSH2 0x149 SWAP2 SWAP1 PUSH2 0x1304 JUMP JUMPDEST PUSH2 0x7A4 JUMP JUMPDEST PUSH1 0x40 MLOAD PUSH2 0x15B SWAP2 SWAP1 PUSH2 0x14A2 JUMP JUMPDEST PUSH1 0x40 MLOAD DUP1 SWAP2 SUB SWAP1 RETURN JUMPDEST PUSH2 0x17E PUSH1 0x4 DUP1 CALLDATASIZE SUB DUP2 ADD SWAP1 PUSH2 0x179 SWAP2 SWAP1 PUSH2 0x14BB JUMP JUMPDEST PUSH2 0x974 JUMP JUMPDEST PUSH1 0x40 MLOAD PUSH2 0x18B SWAP2 SWAP1 PUSH2 0x15F4 JUMP JUMPDEST PUSH1 0x40 MLOAD DUP1 SWAP2 SUB SWAP1 RETURN JUMPDEST PUSH2 0x1AE PUSH1 0x4 DUP1 CALLDATASIZE SUB DUP2 ADD SWAP1 PUSH2 0x1A9 SWAP2 SWAP1 PUSH2 0x1614 JUMP JUMPDEST PUSH2 0xAE5 JUMP JUMPDEST STOP JUMPDEST PUSH2 0x1CA PUSH1 0x4 DUP1 CALLDATASIZE SUB DUP2 ADD SWAP1 PUSH2 0x1C5 SWAP2 SWAP1 PUSH2 0x14BB JUMP JUMPDEST PUSH2 0xFFF JUMP JUMPDEST STOP JUMPDEST PUSH2 0x1E6 PUSH1 0x4 DUP1 CALLDATASIZE SUB DUP2 ADD SWAP1 PUSH2 0x1E1 SWAP2 SWAP1 PUSH2 0x14BB JUMP JUMPDEST PUSH2 0x1083 JUMP JUMPDEST PUSH1 0x40 MLOAD PUSH2 0x1F3 SWAP2 SWAP1 PUSH2 0x1678 JUMP JUMPDEST PUSH1 0x40 MLOAD DUP1 SWAP2 SUB SWAP1 RETURN JUMPDEST PUSH2 0x204 PUSH2 0x10CC JUMP JUMPDEST DUP2 PUSH20 0xFFFFFFFFFFFFFFFFFFFFFFFFFFFFFFFFFFFFFFFF AND PUSH4 0xA9059CBB CALLER DUP4 PUSH1 0x40 MLOAD DUP4 PUSH4 0xFFFFFFFF AND PUSH1 0xE0 SHL DUP2 MSTORE PUSH1 0x4 ADD PUSH2 0x23F SWAP3 SWAP2 SWAP1 PUSH2 0x1691 JUMP JUMPDEST PUSH1 0x20 PUSH1 0x40 MLOAD DUP1 DUP4 SUB DUP2 PUSH0 DUP8 GAS CALL ISZERO DUP1 ISZERO PUSH2 0x25B JUMPI RETURNDATASIZE PUSH0 DUP1 RETURNDATACOPY RETURNDATASIZE PUSH0 REVERT JUMPDEST POP POP POP POP PUSH1 0x40 MLOAD RETURNDATASIZE PUSH1 0x1F NOT PUSH1 0x1F DUP3 ADD AND DUP3 ADD DUP1 PUSH1 0x40 MSTORE POP DUP2 ADD SWAP1 PUSH2 0x27F SWAP2 SWAP1 PUSH2 0x16E2 JUMP JUMPDEST POP POP POP JUMP JUMPDEST PUSH2 0x28C PUSH2 0x10CC JUMP JUMPDEST PUSH2 0x295 PUSH0 PUSH2 0x1153 JUMP JUMPDEST JUMP JUMPDEST PUSH0 DUP1 PUSH0 SWAP1 SLOAD SWAP1 PUSH2 0x100 EXP SWAP1 DIV PUSH20 0xFFFFFFFFFFFFFFFFFFFFFFFFFFFFFFFFFFFFFFFF AND SWAP1 POP SWAP1 JUMP JUMPDEST PUSH1 0x1 PUSH1 0x20 MSTORE DUP2 PUSH0 MSTORE PUSH1 0x40 PUSH0 KECCAK256 DUP2 DUP2 SLOAD DUP2 LT PUSH2 0x2D7 JUMPI PUSH0 DUP1 REVERT JUMPDEST SWAP1 PUSH0 MSTORE PUSH1 0x20 PUSH0 KECCAK256 SWAP1 PUSH1 0x4 MUL ADD PUSH0 SWAP2 POP SWAP2 POP POP DUP1 PUSH0 ADD SLOAD SWAP1 DUP1 PUSH1 0x1 ADD SLOAD SWAP1 DUP1 PUSH1 0x2 ADD PUSH0 SWAP1 SLOAD SWAP1 PUSH2 0x100 EXP SWAP1 DIV PUSH20 0xFFFFFFFFFFFFFFFFFFFFFFFFFFFFFFFFFFFFFFFF AND SWAP1 DUP1 PUSH1 0x3 ADD PUSH0 SWAP1 SLOAD SWAP1 PUSH2 0x100 EXP SWAP1 DIV PUSH20 0xFFFFFFFFFFFFFFFFFFFFFFFFFFFFFFFFFFFFFFFF AND SWAP1 DUP1 PUSH1 0x3 ADD PUSH1 0x14 SWAP1 SLOAD SWAP1 PUSH2 0x100 EXP SWAP1 DIV PUSH1 0xFF AND SWAP1 POP DUP6 JUMP JUMPDEST PUSH1 0x1 PUSH0 CALLER PUSH20 0xFFFFFFFFFFFFFFFFFFFFFFFFFFFFFFFFFFFFFFFF AND PUSH20 0xFFFFFFFFFFFFFFFFFFFFFFFFFFFFFFFFFFFFFFFF AND DUP2 MSTORE PUSH1 0x20 ADD SWAP1 DUP2 MSTORE PUSH1 0x20 ADD PUSH0 KECCAK256 DUP1 SLOAD SWAP1 POP DUP2 LT PUSH2 0x3D7 JUMPI PUSH1 0x40 MLOAD PUSH32 0x8C379A000000000000000000000000000000000000000000000000000000000 DUP2 MSTORE PUSH1 0x4 ADD PUSH2 0x3CE SWAP1 PUSH2 0x1767 JUMP JUMPDEST PUSH1 0x40 MLOAD DUP1 SWAP2 SUB SWAP1 REVERT JUMPDEST PUSH0 PUSH1 0x1 PUSH0 CALLER PUSH20 0xFFFFFFFFFFFFFFFFFFFFFFFFFFFFFFFFFFFFFFFF AND PUSH20 0xFFFFFFFFFFFFFFFFFFFFFFFFFFFFFFFFFFFFFFFF AND DUP2 MSTORE PUSH1 0x20 ADD SWAP1 DUP2 MSTORE PUSH1 0x20 ADD PUSH0 KECCAK256 DUP3 DUP2 SLOAD DUP2 LT PUSH2 0x427 JUMPI PUSH2 0x426 PUSH2 0x1785 JUMP JUMPDEST JUMPDEST SWAP1 PUSH0 MSTORE PUSH1 0x20 PUSH0 KECCAK256 SWAP1 PUSH1 0x4 MUL ADD SWAP1 POP DUP1 PUSH1 0x3 ADD PUSH1 0x14 SWAP1 SLOAD SWAP1 PUSH2 0x100 EXP SWAP1 DIV PUSH1 0xFF AND ISZERO PUSH2 0x487 JUMPI PUSH1 0x40 MLOAD PUSH32 0x8C379A000000000000000000000000000000000000000000000000000000000 DUP2 MSTORE PUSH1 0x4 ADD PUSH2 0x47E SWAP1 PUSH2 0x17FC JUMP JUMPDEST PUSH1 0x40 MLOAD DUP1 SWAP2 SUB SWAP1 REVERT JUMPDEST PUSH0 DUP2 PUSH1 0x3 ADD PUSH0 SWAP1 SLOAD SWAP1 PUSH2 0x100 EXP SWAP1 DIV PUSH20 0xFFFFFFFFFFFFFFFFFFFFFFFFFFFFFFFFFFFFFFFF AND SWAP1 POP PUSH0 DUP3 PUSH1 0x2 ADD PUSH0 SWAP1 SLOAD SWAP1 PUSH2 0x100 EXP SWAP1 DIV PUSH20 0xFFFFFFFFFFFFFFFFFFFFFFFFFFFFFFFFFFFFFFFF AND SWAP1 POP DUP3 PUSH1 0x1 ADD SLOAD DUP3 PUSH20 0xFFFFFFFFFFFFFFFFFFFFFFFFFFFFFFFFFFFFFFFF AND PUSH4 0x70A08231 CALLER PUSH1 0x40 MLOAD DUP3 PUSH4 0xFFFFFFFF AND PUSH1 0xE0 SHL DUP2 MSTORE PUSH1 0x4 ADD PUSH2 0x513 SWAP2 SWAP1 PUSH2 0x1351 JUMP JUMPDEST PUSH1 0x20 PUSH1 0x40 MLOAD DUP1 DUP4 SUB DUP2 DUP7 GAS STATICCALL ISZERO DUP1 ISZERO PUSH2 0x52E JUMPI RETURNDATASIZE PUSH0 DUP1 RETURNDATACOPY RETURNDATASIZE PUSH0 REVERT JUMPDEST POP POP POP POP PUSH1 0x40 MLOAD RETURNDATASIZE PUSH1 0x1F NOT PUSH1 0x1F DUP3 ADD AND DUP3 ADD DUP1 PUSH1 0x40 MSTORE POP DUP2 ADD SWAP1 PUSH2 0x552 SWAP2 SWAP1 PUSH2 0x182E JUMP JUMPDEST LT ISZERO PUSH2 0x593 JUMPI PUSH1 0x40 MLOAD PUSH32 0x8C379A000000000000000000000000000000000000000000000000000000000 DUP2 MSTORE PUSH1 0x4 ADD PUSH2 0x58A SWAP1 PUSH2 0x18A3 JUMP JUMPDEST PUSH1 0x40 MLOAD DUP1 SWAP2 SUB SWAP1 REVERT JUMPDEST DUP2 PUSH20 0xFFFFFFFFFFFFFFFFFFFFFFFFFFFFFFFFFFFFFFFF AND PUSH4 0x23B872DD CALLER ADDRESS DUP7 PUSH1 0x1 ADD SLOAD PUSH1 0x40 MLOAD DUP5 PUSH4 0xFFFFFFFF AND PUSH1 0xE0 SHL DUP2 MSTORE PUSH1 0x4 ADD PUSH2 0x5D4 SWAP4 SWAP3 SWAP2 SWAP1 PUSH2 0x18C1 JUMP JUMPDEST PUSH1 0x20 PUSH1 0x40 MLOAD DUP1 DUP4 SUB DUP2 PUSH0 DUP8 GAS CALL ISZERO DUP1 ISZERO PUSH2 0x5F0 JUMPI RETURNDATASIZE PUSH0 DUP1 RETURNDATACOPY RETURNDATASIZE PUSH0 REVERT JUMPDEST POP POP POP POP PUSH1 0x40 MLOAD RETURNDATASIZE PUSH1 0x1F NOT PUSH1 0x1F DUP3 ADD AND DUP3 ADD DUP1 PUSH1 0x40 MSTORE POP DUP2 ADD SWAP1 PUSH2 0x614 SWAP2 SWAP1 PUSH2 0x16E2 JUMP JUMPDEST POP DUP1 PUSH20 0xFFFFFFFFFFFFFFFFFFFFFFFFFFFFFFFFFFFFFFFF AND PUSH4 0xA9059CBB CALLER DUP6 PUSH0 ADD SLOAD PUSH1 0x40 MLOAD DUP4 PUSH4 0xFFFFFFFF AND PUSH1 0xE0 SHL DUP2 MSTORE PUSH1 0x4 ADD PUSH2 0x653 SWAP3 SWAP2 SWAP1 PUSH2 0x1691 JUMP JUMPDEST PUSH1 0x20 PUSH1 0x40 MLOAD DUP1 DUP4 SUB DUP2 PUSH0 DUP8 GAS CALL ISZERO DUP1 ISZERO PUSH2 0x66F JUMPI RETURNDATASIZE PUSH0 DUP1 RETURNDATACOPY RETURNDATASIZE PUSH0 REVERT JUMPDEST POP POP POP POP PUSH1 0x40 MLOAD RETURNDATASIZE PUSH1 0x1F NOT PUSH1 0x1F DUP3 ADD AND DUP3 ADD DUP1 PUSH1 0x40 MSTORE POP DUP2 ADD SWAP1 PUSH2 0x693 SWAP2 SWAP1 PUSH2 0x16E2 JUMP JUMPDEST POP PUSH1 0x1 DUP4 PUSH1 0x3 ADD PUSH1 0x14 PUSH2 0x100 EXP DUP2 SLOAD DUP2 PUSH1 0xFF MUL NOT AND SWAP1 DUP4 ISZERO ISZERO MUL OR SWAP1 SSTORE POP CALLER PUSH20 0xFFFFFFFFFFFFFFFFFFFFFFFFFFFFFFFFFFFFFFFF AND PUSH32 0xD92E40293701683F5207FC6802754AADDF166E5F5DA04D1077D8D55FEFB61B0 DUP5 PUSH1 0x1 ADD SLOAD DUP6 PUSH1 0x3 ADD PUSH0 SWAP1 SLOAD SWAP1 PUSH2 0x100 EXP SWAP1 DIV PUSH20 0xFFFFFFFFFFFFFFFFFFFFFFFFFFFFFFFFFFFFFFFF AND PUSH1 0x40 MLOAD PUSH2 0x720 SWAP3 SWAP2 SWAP1 PUSH2 0x18F6 JUMP JUMPDEST PUSH1 0x40 MLOAD DUP1 SWAP2 SUB SWAP1 LOG2 CALLER PUSH20 0xFFFFFFFFFFFFFFFFFFFFFFFFFFFFFFFFFFFFFFFF AND PUSH32 0x887EB7234A2C4FA94C5778832C90928B2CE458CFEE0053ED170BAA8CDE476FB5 DUP5 PUSH0 ADD SLOAD DUP6 PUSH1 0x2 ADD PUSH0 SWAP1 SLOAD SWAP1 PUSH2 0x100 EXP SWAP1 DIV PUSH20 0xFFFFFFFFFFFFFFFFFFFFFFFFFFFFFFFFFFFFFFFF AND PUSH1 0x40 MLOAD PUSH2 0x796 SWAP3 SWAP2 SWAP1 PUSH2 0x18F6 JUMP JUMPDEST PUSH1 0x40 MLOAD DUP1 SWAP2 SUB SWAP1 LOG2 POP POP POP POP JUMP JUMPDEST PUSH2 0x7AC PUSH2 0x121B JUMP JUMPDEST PUSH1 0x1 PUSH0 DUP5 PUSH20 0xFFFFFFFFFFFFFFFFFFFFFFFFFFFFFFFFFFFFFFFF AND PUSH20 0xFFFFFFFFFFFFFFFFFFFFFFFFFFFFFFFFFFFFFFFF AND DUP2 MSTORE PUSH1 0x20 ADD SWAP1 DUP2 MSTORE PUSH1 0x20 ADD PUSH0 KECCAK256 DUP1 SLOAD SWAP1 POP DUP3 LT PUSH2 0x82E JUMPI PUSH1 0x40 MLOAD PUSH32 0x8C379A000000000000000000000000000000000000000000000000000000000 DUP2 MSTORE PUSH1 0x4 ADD PUSH2 0x825 SWAP1 PUSH2 0x1767 JUMP JUMPDEST PUSH1 0x40 MLOAD DUP1 SWAP2 SUB SWAP1 REVERT JUMPDEST PUSH1 0x1 PUSH0 DUP5 PUSH20 0xFFFFFFFFFFFFFFFFFFFFFFFFFFFFFFFFFFFFFFFF AND PUSH20 0xFFFFFFFFFFFFFFFFFFFFFFFFFFFFFFFFFFFFFFFF AND DUP2 MSTORE PUSH1 0x20 ADD SWAP1 DUP2 MSTORE PUSH1 0x20 ADD PUSH0 KECCAK256 DUP3 DUP2 SLOAD DUP2 LT PUSH2 0x87D JUMPI PUSH2 0x87C PUSH2 0x1785 JUMP JUMPDEST JUMPDEST SWAP1 PUSH0 MSTORE PUSH1 0x20 PUSH0 KECCAK256 SWAP1 PUSH1 0x4 MUL ADD PUSH1 0x40 MLOAD DUP1 PUSH1 0xA0 ADD PUSH1 0x40 MSTORE SWAP1 DUP2 PUSH0 DUP3 ADD SLOAD DUP2 MSTORE PUSH1 0x20 ADD PUSH1 0x1 DUP3 ADD SLOAD DUP2 MSTORE PUSH1 0x20 ADD PUSH1 0x2 DUP3 ADD PUSH0 SWAP1 SLOAD SWAP1 PUSH2 0x100 EXP SWAP1 DIV PUSH20 0xFFFFFFFFFFFFFFFFFFFFFFFFFFFFFFFFFFFFFFFF AND PUSH20 0xFFFFFFFFFFFFFFFFFFFFFFFFFFFFFFFFFFFFFFFF AND PUSH20 0xFFFFFFFFFFFFFFFFFFFFFFFFFFFFFFFFFFFFFFFF AND DUP2 MSTORE PUSH1 0x20 ADD PUSH1 0x3 DUP3 ADD PUSH0 SWAP1 SLOAD SWAP1 PUSH2 0x100 EXP SWAP1 DIV PUSH20 0xFFFFFFFFFFFFFFFFFFFFFFFFFFFFFFFFFFFFFFFF AND PUSH20 0xFFFFFFFFFFFFFFFFFFFFFFFFFFFFFFFFFFFFFFFF AND PUSH20 0xFFFFFFFFFFFFFFFFFFFFFFFFFFFFFFFFFFFFFFFF AND DUP2 MSTORE PUSH1 0x20 ADD PUSH1 0x3 DUP3 ADD PUSH1 0x14 SWAP1 SLOAD SWAP1 PUSH2 0x100 EXP SWAP1 DIV PUSH1 0xFF AND ISZERO ISZERO ISZERO ISZERO DUP2 MSTORE POP POP SWAP1 POP SWAP3 SWAP2 POP POP JUMP JUMPDEST PUSH1 0x60 PUSH1 0x1 PUSH0 DUP4 PUSH20 0xFFFFFFFFFFFFFFFFFFFFFFFFFFFFFFFFFFFFFFFF AND PUSH20 0xFFFFFFFFFFFFFFFFFFFFFFFFFFFFFFFFFFFFFFFF AND DUP2 MSTORE PUSH1 0x20 ADD SWAP1 DUP2 MSTORE PUSH1 0x20 ADD PUSH0 KECCAK256 DUP1 SLOAD DUP1 PUSH1 0x20 MUL PUSH1 0x20 ADD PUSH1 0x40 MLOAD SWAP1 DUP2 ADD PUSH1 0x40 MSTORE DUP1 SWAP3 SWAP2 SWAP1 DUP2 DUP2 MSTORE PUSH1 0x20 ADD PUSH0 SWAP1 JUMPDEST DUP3 DUP3 LT ISZERO PUSH2 0xADA JUMPI DUP4 DUP3 SWAP1 PUSH0 MSTORE PUSH1 0x20 PUSH0 KECCAK256 SWAP1 PUSH1 0x4 MUL ADD PUSH1 0x40 MLOAD DUP1 PUSH1 0xA0 ADD PUSH1 0x40 MSTORE SWAP1 DUP2 PUSH0 DUP3 ADD SLOAD DUP2 MSTORE PUSH1 0x20 ADD PUSH1 0x1 DUP3 ADD SLOAD DUP2 MSTORE PUSH1 0x20 ADD PUSH1 0x2 DUP3 ADD PUSH0 SWAP1 SLOAD SWAP1 PUSH2 0x100 EXP SWAP1 DIV PUSH20 0xFFFFFFFFFFFFFFFFFFFFFFFFFFFFFFFFFFFFFFFF AND PUSH20 0xFFFFFFFFFFFFFFFFFFFFFFFFFFFFFFFFFFFFFFFF AND PUSH20 0xFFFFFFFFFFFFFFFFFFFFFFFFFFFFFFFFFFFFFFFF AND DUP2 MSTORE PUSH1 0x20 ADD PUSH1 0x3 DUP3 ADD PUSH0 SWAP1 SLOAD SWAP1 PUSH2 0x100 EXP SWAP1 DIV PUSH20 0xFFFFFFFFFFFFFFFFFFFFFFFFFFFFFFFFFFFFFFFF AND PUSH20 0xFFFFFFFFFFFFFFFFFFFFFFFFFFFFFFFFFFFFFFFF AND PUSH20 0xFFFFFFFFFFFFFFFFFFFFFFFFFFFFFFFFFFFFFFFF AND DUP2 MSTORE PUSH1 0x20 ADD PUSH1 0x3 DUP3 ADD PUSH1 0x14 SWAP1 SLOAD SWAP1 PUSH2 0x100 EXP SWAP1 DIV PUSH1 0xFF AND ISZERO ISZERO ISZERO ISZERO DUP2 MSTORE POP POP DUP2 MSTORE PUSH1 0x20 ADD SWAP1 PUSH1 0x1 ADD SWAP1 PUSH2 0x9D2 JUMP JUMPDEST POP POP POP POP SWAP1 POP SWAP2 SWAP1 POP JUMP JUMPDEST PUSH0 DUP5 GT PUSH2 0xB27 JUMPI PUSH1 0x40 MLOAD PUSH32 0x8C379A000000000000000000000000000000000000000000000000000000000 DUP2 MSTORE PUSH1 0x4 ADD PUSH2 0xB1E SWAP1 PUSH2 0x198D JUMP JUMPDEST PUSH1 0x40 MLOAD DUP1 SWAP2 SUB SWAP1 REVERT JUMPDEST PUSH0 DUP3 GT PUSH2 0xB69 JUMPI PUSH1 0x40 MLOAD PUSH32 0x8C379A000000000000000000000000000000000000000000000000000000000 DUP2 MSTORE PUSH1 0x4 ADD PUSH2 0xB60 SWAP1 PUSH2 0x1A1B JUMP JUMPDEST PUSH1 0x40 MLOAD DUP1 SWAP2 SUB SWAP1 REVERT JUMPDEST PUSH0 DUP4 SWAP1 POP PUSH0 DUP3 SWAP1 POP DUP6 DUP3 PUSH20 0xFFFFFFFFFFFFFFFFFFFFFFFFFFFFFFFFFFFFFFFF AND PUSH4 0x70A08231 CALLER PUSH1 0x40 MLOAD DUP3 PUSH4 0xFFFFFFFF AND PUSH1 0xE0 SHL DUP2 MSTORE PUSH1 0x4 ADD PUSH2 0xBAB SWAP2 SWAP1 PUSH2 0x1351 JUMP JUMPDEST PUSH1 0x20 PUSH1 0x40 MLOAD DUP1 DUP4 SUB DUP2 DUP7 GAS STATICCALL ISZERO DUP1 ISZERO PUSH2 0xBC6 JUMPI RETURNDATASIZE PUSH0 DUP1 RETURNDATACOPY RETURNDATASIZE PUSH0 REVERT JUMPDEST POP POP POP POP PUSH1 0x40 MLOAD RETURNDATASIZE PUSH1 0x1F NOT PUSH1 0x1F DUP3 ADD AND DUP3 ADD DUP1 PUSH1 0x40 MSTORE POP DUP2 ADD SWAP1 PUSH2 0xBEA SWAP2 SWAP1 PUSH2 0x182E JUMP JUMPDEST LT ISZERO PUSH2 0xC2B JUMPI PUSH1 0x40 MLOAD PUSH32 0x8C379A000000000000000000000000000000000000000000000000000000000 DUP2 MSTORE PUSH1 0x4 ADD PUSH2 0xC22 SWAP1 PUSH2 0x1A83 JUMP JUMPDEST PUSH1 0x40 MLOAD DUP1 SWAP2 SUB SWAP1 REVERT JUMPDEST DUP4 DUP2 PUSH20 0xFFFFFFFFFFFFFFFFFFFFFFFFFFFFFFFFFFFFFFFF AND PUSH4 0x70A08231 ADDRESS PUSH1 0x40 MLOAD DUP3 PUSH4 0xFFFFFFFF AND PUSH1 0xE0 SHL DUP2 MSTORE PUSH1 0x4 ADD PUSH2 0xC65 SWAP2 SWAP1 PUSH2 0x1351 JUMP JUMPDEST PUSH1 0x20 PUSH1 0x40 MLOAD DUP1 DUP4 SUB DUP2 DUP7 GAS STATICCALL ISZERO DUP1 ISZERO PUSH2 0xC80 JUMPI RETURNDATASIZE PUSH0 DUP1 RETURNDATACOPY RETURNDATASIZE PUSH0 REVERT JUMPDEST POP POP POP POP PUSH1 0x40 MLOAD RETURNDATASIZE PUSH1 0x1F NOT PUSH1 0x1F DUP3 ADD AND DUP3 ADD DUP1 PUSH1 0x40 MSTORE POP DUP2 ADD SWAP1 PUSH2 0xCA4 SWAP2 SWAP1 PUSH2 0x182E JUMP JUMPDEST LT ISZERO PUSH2 0xCE5 JUMPI PUSH1 0x40 MLOAD PUSH32 0x8C379A000000000000000000000000000000000000000000000000000000000 DUP2 MSTORE PUSH1 0x4 ADD PUSH2 0xCDC SWAP1 PUSH2 0x1B11 JUMP JUMPDEST PUSH1 0x40 MLOAD DUP1 SWAP2 SUB SWAP1 REVERT JUMPDEST DUP2 PUSH20 0xFFFFFFFFFFFFFFFFFFFFFFFFFFFFFFFFFFFFFFFF AND PUSH4 0x23B872DD CALLER ADDRESS DUP10 PUSH1 0x40 MLOAD DUP5 PUSH4 0xFFFFFFFF AND PUSH1 0xE0 SHL DUP2 MSTORE PUSH1 0x4 ADD PUSH2 0xD22 SWAP4 SWAP3 SWAP2 SWAP1 PUSH2 0x18C1 JUMP JUMPDEST PUSH1 0x20 PUSH1 0x40 MLOAD DUP1 DUP4 SUB DUP2 PUSH0 DUP8 GAS CALL ISZERO DUP1 ISZERO PUSH2 0xD3E JUMPI RETURNDATASIZE PUSH0 DUP1 RETURNDATACOPY RETURNDATASIZE PUSH0 REVERT JUMPDEST POP POP POP POP PUSH1 0x40 MLOAD RETURNDATASIZE PUSH1 0x1F NOT PUSH1 0x1F DUP3 ADD AND DUP3 ADD DUP1 PUSH1 0x40 MSTORE POP DUP2 ADD SWAP1 PUSH2 0xD62 SWAP2 SWAP1 PUSH2 0x16E2 JUMP JUMPDEST POP DUP1 PUSH20 0xFFFFFFFFFFFFFFFFFFFFFFFFFFFFFFFFFFFFFFFF AND PUSH4 0xA9059CBB CALLER DUP7 PUSH1 0x40 MLOAD DUP4 PUSH4 0xFFFFFFFF AND PUSH1 0xE0 SHL DUP2 MSTORE PUSH1 0x4 ADD PUSH2 0xD9E SWAP3 SWAP2 SWAP1 PUSH2 0x1691 JUMP JUMPDEST PUSH1 0x20 PUSH1 0x40 MLOAD DUP1 DUP4 SUB DUP2 PUSH0 DUP8 GAS CALL ISZERO DUP1 ISZERO PUSH2 0xDBA JUMPI RETURNDATASIZE PUSH0 DUP1 RETURNDATACOPY RETURNDATASIZE PUSH0 REVERT JUMPDEST POP POP POP POP PUSH1 0x40 MLOAD RETURNDATASIZE PUSH1 0x1F NOT PUSH1 0x1F DUP3 ADD AND DUP3 ADD DUP1 PUSH1 0x40 MSTORE POP DUP2 ADD SWAP1 PUSH2 0xDDE SWAP2 SWAP1 PUSH2 0x16E2 JUMP JUMPDEST POP PUSH1 0x1 PUSH0 CALLER PUSH20 0xFFFFFFFFFFFFFFFFFFFFFFFFFFFFFFFFFFFFFFFF AND PUSH20 0xFFFFFFFFFFFFFFFFFFFFFFFFFFFFFFFFFFFFFFFF AND DUP2 MSTORE PUSH1 0x20 ADD SWAP1 DUP2 MSTORE PUSH1 0x20 ADD PUSH0 KECCAK256 PUSH1 0x40 MLOAD DUP1 PUSH1 0xA0 ADD PUSH1 0x40 MSTORE DUP1 DUP9 DUP2 MSTORE PUSH1 0x20 ADD DUP7 DUP2 MSTORE PUSH1 0x20 ADD DUP8 PUSH20 0xFFFFFFFFFFFFFFFFFFFFFFFFFFFFFFFFFFFFFFFF AND DUP2 MSTORE PUSH1 0x20 ADD DUP6 PUSH20 0xFFFFFFFFFFFFFFFFFFFFFFFFFFFFFFFFFFFFFFFF AND DUP2 MSTORE PUSH1 0x20 ADD PUSH0 ISZERO ISZERO DUP2 MSTORE POP SWAP1 DUP1 PUSH1 0x1 DUP2 SLOAD ADD DUP1 DUP3 SSTORE DUP1 SWAP2 POP POP PUSH1 0x1 SWAP1 SUB SWAP1 PUSH0 MSTORE PUSH1 0x20 PUSH0 KECCAK256 SWAP1 PUSH1 0x4 MUL ADD PUSH0 SWAP1 SWAP2 SWAP1 SWAP2 SWAP1 SWAP2 POP PUSH0 DUP3 ADD MLOAD DUP2 PUSH0 ADD SSTORE PUSH1 0x20 DUP3 ADD MLOAD DUP2 PUSH1 0x1 ADD SSTORE PUSH1 0x40 DUP3 ADD MLOAD DUP2 PUSH1 0x2 ADD PUSH0 PUSH2 0x100 EXP DUP2 SLOAD DUP2 PUSH20 0xFFFFFFFFFFFFFFFFFFFFFFFFFFFFFFFFFFFFFFFF MUL NOT AND SWAP1 DUP4 PUSH20 0xFFFFFFFFFFFFFFFFFFFFFFFFFFFFFFFFFFFFFFFF AND MUL OR SWAP1 SSTORE POP PUSH1 0x60 DUP3 ADD MLOAD DUP2 PUSH1 0x3 ADD PUSH0 PUSH2 0x100 EXP DUP2 SLOAD DUP2 PUSH20 0xFFFFFFFFFFFFFFFFFFFFFFFFFFFFFFFFFFFFFFFF MUL NOT AND SWAP1 DUP4 PUSH20 0xFFFFFFFFFFFFFFFFFFFFFFFFFFFFFFFFFFFFFFFF AND MUL OR SWAP1 SSTORE POP PUSH1 0x80 DUP3 ADD MLOAD DUP2 PUSH1 0x3 ADD PUSH1 0x14 PUSH2 0x100 EXP DUP2 SLOAD DUP2 PUSH1 0xFF MUL NOT AND SWAP1 DUP4 ISZERO ISZERO MUL OR SWAP1 SSTORE POP POP POP CALLER PUSH20 0xFFFFFFFFFFFFFFFFFFFFFFFFFFFFFFFFFFFFFFFF AND PUSH32 0x56B60085244FE1AFA467F92231DEBADC8BCB6127E9DBF35DBB58CA8406A423FE DUP8 DUP8 PUSH1 0x40 MLOAD PUSH2 0xF9F SWAP3 SWAP2 SWAP1 PUSH2 0x18F6 JUMP JUMPDEST PUSH1 0x40 MLOAD DUP1 SWAP2 SUB SWAP1 LOG2 CALLER PUSH20 0xFFFFFFFFFFFFFFFFFFFFFFFFFFFFFFFFFFFFFFFF AND PUSH32 0xE5024716F30BE6E51E2A7CC6145E6659CD5BDB7A0C451E22B7E9D39C9B5F03AC DUP6 DUP6 PUSH1 0x40 MLOAD PUSH2 0xFEF SWAP3 SWAP2 SWAP1 PUSH2 0x18F6 JUMP JUMPDEST PUSH1 0x40 MLOAD DUP1 SWAP2 SUB SWAP1 LOG2 POP POP POP POP POP POP JUMP JUMPDEST PUSH2 0x1007 PUSH2 0x10CC JUMP JUMPDEST PUSH0 PUSH20 0xFFFFFFFFFFFFFFFFFFFFFFFFFFFFFFFFFFFFFFFF AND DUP2 PUSH20 0xFFFFFFFFFFFFFFFFFFFFFFFFFFFFFFFFFFFFFFFF AND SUB PUSH2 0x1077 JUMPI PUSH0 PUSH1 0x40 MLOAD PUSH32 0x1E4FBDF700000000000000000000000000000000000000000000000000000000 DUP2 MSTORE PUSH1 0x4 ADD PUSH2 0x106E SWAP2 SWAP1 PUSH2 0x1351 JUMP JUMPDEST PUSH1 0x40 MLOAD DUP1 SWAP2 SUB SWAP1 REVERT JUMPDEST PUSH2 0x1080 DUP2 PUSH2 0x1153 JUMP JUMPDEST POP JUMP JUMPDEST PUSH0 PUSH1 0x1 PUSH0 DUP4 PUSH20 0xFFFFFFFFFFFFFFFFFFFFFFFFFFFFFFFFFFFFFFFF AND PUSH20 0xFFFFFFFFFFFFFFFFFFFFFFFFFFFFFFFFFFFFFFFF AND DUP2 MSTORE PUSH1 0x20 ADD SWAP1 DUP2 MSTORE PUSH1 0x20 ADD PUSH0 KECCAK256 DUP1 SLOAD SWAP1 POP SWAP1 POP SWAP2 SWAP1 POP JUMP JUMPDEST PUSH2 0x10D4 PUSH2 0x1214 JUMP JUMPDEST PUSH20 0xFFFFFFFFFFFFFFFFFFFFFFFFFFFFFFFFFFFFFFFF AND PUSH2 0x10F2 PUSH2 0x297 JUMP JUMPDEST PUSH20 0xFFFFFFFFFFFFFFFFFFFFFFFFFFFFFFFFFFFFFFFF AND EQ PUSH2 0x1151 JUMPI PUSH2 0x1115 PUSH2 0x1214 JUMP JUMPDEST PUSH1 0x40 MLOAD PUSH32 0x118CDAA700000000000000000000000000000000000000000000000000000000 DUP2 MSTORE PUSH1 0x4 ADD PUSH2 0x1148 SWAP2 SWAP1 PUSH2 0x1351 JUMP JUMPDEST PUSH1 0x40 MLOAD DUP1 SWAP2 SUB SWAP1 REVERT JUMPDEST JUMP JUMPDEST PUSH0 DUP1 PUSH0 SWAP1 SLOAD SWAP1 PUSH2 0x100 EXP SWAP1 DIV PUSH20 0xFFFFFFFFFFFFFFFFFFFFFFFFFFFFFFFFFFFFFFFF AND SWAP1 POP DUP2 PUSH0 DUP1 PUSH2 0x100 EXP DUP2 SLOAD DUP2 PUSH20 0xFFFFFFFFFFFFFFFFFFFFFFFFFFFFFFFFFFFFFFFF MUL NOT AND SWAP1 DUP4 PUSH20 0xFFFFFFFFFFFFFFFFFFFFFFFFFFFFFFFFFFFFFFFF AND MUL OR SWAP1 SSTORE POP DUP2 PUSH20 0xFFFFFFFFFFFFFFFFFFFFFFFFFFFFFFFFFFFFFFFF AND DUP2 PUSH20 0xFFFFFFFFFFFFFFFFFFFFFFFFFFFFFFFFFFFFFFFF AND PUSH32 0x8BE0079C531659141344CD1FD0A4F28419497F9722A3DAAFE3B4186F6B6457E0 PUSH1 0x40 MLOAD PUSH1 0x40 MLOAD DUP1 SWAP2 SUB SWAP1 LOG3 POP POP JUMP JUMPDEST PUSH0 CALLER SWAP1 POP SWAP1 JUMP JUMPDEST PUSH1 0x40 MLOAD DUP1 PUSH1 0xA0 ADD PUSH1 0x40 MSTORE DUP1 PUSH0 DUP2 MSTORE PUSH1 0x20 ADD PUSH0 DUP2 MSTORE PUSH1 0x20 ADD PUSH0 PUSH20 0xFFFFFFFFFFFFFFFFFFFFFFFFFFFFFFFFFFFFFFFF AND DUP2 MSTORE PUSH1 0x20 ADD PUSH0 PUSH20 0xFFFFFFFFFFFFFFFFFFFFFFFFFFFFFFFFFFFFFFFF AND DUP2 MSTORE PUSH1 0x20 ADD PUSH0 ISZERO ISZERO DUP2 MSTORE POP SWAP1 JUMP JUMPDEST PUSH0 DUP1 REVERT JUMPDEST PUSH0 PUSH20 0xFFFFFFFFFFFFFFFFFFFFFFFFFFFFFFFFFFFFFFFF DUP3 AND SWAP1 POP SWAP2 SWAP1 POP JUMP JUMPDEST PUSH0 PUSH2 0x12A0 DUP3 PUSH2 0x1277 JUMP JUMPDEST SWAP1 POP SWAP2 SWAP1 POP JUMP JUMPDEST PUSH2 0x12B0 DUP2 PUSH2 0x1296 JUMP JUMPDEST DUP2 EQ PUSH2 0x12BA JUMPI PUSH0 DUP1 REVERT JUMPDEST POP JUMP JUMPDEST PUSH0 DUP2 CALLDATALOAD SWAP1 POP PUSH2 0x12CB DUP2 PUSH2 0x12A7 JUMP JUMPDEST SWAP3 SWAP2 POP POP JUMP JUMPDEST PUSH0 DUP2 SWAP1 POP SWAP2 SWAP1 POP JUMP JUMPDEST PUSH2 0x12E3 DUP2 PUSH2 0x12D1 JUMP JUMPDEST DUP2 EQ PUSH2 0x12ED JUMPI PUSH0 DUP1 REVERT JUMPDEST POP JUMP JUMPDEST PUSH0 DUP2 CALLDATALOAD SWAP1 POP PUSH2 0x12FE DUP2 PUSH2 0x12DA JUMP JUMPDEST SWAP3 SWAP2 POP POP JUMP JUMPDEST PUSH0 DUP1 PUSH1 0x40 DUP4 DUP6 SUB SLT ISZERO PUSH2 0x131A JUMPI PUSH2 0x1319 PUSH2 0x1273 JUMP JUMPDEST JUMPDEST PUSH0 PUSH2 0x1327 DUP6 DUP3 DUP7 ADD PUSH2 0x12BD JUMP JUMPDEST SWAP3 POP POP PUSH1 0x20 PUSH2 0x1338 DUP6 DUP3 DUP7 ADD PUSH2 0x12F0 JUMP JUMPDEST SWAP2 POP POP SWAP3 POP SWAP3 SWAP1 POP JUMP JUMPDEST PUSH2 0x134B DUP2 PUSH2 0x1296 JUMP JUMPDEST DUP3 MSTORE POP POP JUMP JUMPDEST PUSH0 PUSH1 0x20 DUP3 ADD SWAP1 POP PUSH2 0x1364 PUSH0 DUP4 ADD DUP5 PUSH2 0x1342 JUMP JUMPDEST SWAP3 SWAP2 POP POP JUMP JUMPDEST PUSH2 0x1373 DUP2 PUSH2 0x12D1 JUMP JUMPDEST DUP3 MSTORE POP POP JUMP JUMPDEST PUSH0 DUP2 ISZERO ISZERO SWAP1 POP SWAP2 SWAP1 POP JUMP JUMPDEST PUSH2 0x138D DUP2 PUSH2 0x1379 JUMP JUMPDEST DUP3 MSTORE POP POP JUMP JUMPDEST PUSH0 PUSH1 0xA0 DUP3 ADD SWAP1 POP PUSH2 0x13A6 PUSH0 DUP4 ADD DUP9 PUSH2 0x136A JUMP JUMPDEST PUSH2 0x13B3 PUSH1 0x20 DUP4 ADD DUP8 PUSH2 0x136A JUMP JUMPDEST PUSH2 0x13C0 PUSH1 0x40 DUP4 ADD DUP7 PUSH2 0x1342 JUMP JUMPDEST PUSH2 0x13CD PUSH1 0x60 DUP4 ADD DUP6 PUSH2 0x1342 JUMP JUMPDEST PUSH2 0x13DA PUSH1 0x80 DUP4 ADD DUP5 PUSH2 0x1384 JUMP JUMPDEST SWAP7 SWAP6 POP POP POP POP POP POP JUMP JUMPDEST PUSH0 PUSH1 0x20 DUP3 DUP5 SUB SLT ISZERO PUSH2 0x13F9 JUMPI PUSH2 0x13F8 PUSH2 0x1273 JUMP JUMPDEST JUMPDEST PUSH0 PUSH2 0x1406 DUP5 DUP3 DUP6 ADD PUSH2 0x12F0 JUMP JUMPDEST SWAP2 POP POP SWAP3 SWAP2 POP POP JUMP JUMPDEST PUSH2 0x1418 DUP2 PUSH2 0x12D1 JUMP JUMPDEST DUP3 MSTORE POP POP JUMP JUMPDEST PUSH2 0x1427 DUP2 PUSH2 0x1296 JUMP JUMPDEST DUP3 MSTORE POP POP JUMP JUMPDEST PUSH2 0x1436 DUP2 PUSH2 0x1379 JUMP JUMPDEST DUP3 MSTORE POP POP JUMP JUMPDEST PUSH1 0xA0 DUP3 ADD PUSH0 DUP3 ADD MLOAD PUSH2 0x1450 PUSH0 DUP6 ADD DUP3 PUSH2 0x140F JUMP JUMPDEST POP PUSH1 0x20 DUP3 ADD MLOAD PUSH2 0x1463 PUSH1 0x20 DUP6 ADD DUP3 PUSH2 0x140F JUMP JUMPDEST POP PUSH1 0x40 DUP3 ADD MLOAD PUSH2 0x1476 PUSH1 0x40 DUP6 ADD DUP3 PUSH2 0x141E JUMP JUMPDEST POP PUSH1 0x60 DUP3 ADD MLOAD PUSH2 0x1489 PUSH1 0x60 DUP6 ADD DUP3 PUSH2 0x141E JUMP JUMPDEST POP PUSH1 0x80 DUP3 ADD MLOAD PUSH2 0x149C PUSH1 0x80 DUP6 ADD DUP3 PUSH2 0x142D JUMP JUMPDEST POP POP POP POP JUMP JUMPDEST PUSH0 PUSH1 0xA0 DUP3 ADD SWAP1 POP PUSH2 0x14B5 PUSH0 DUP4 ADD DUP5 PUSH2 0x143C JUMP JUMPDEST SWAP3 SWAP2 POP POP JUMP JUMPDEST PUSH0 PUSH1 0x20 DUP3 DUP5 SUB SLT ISZERO PUSH2 0x14D0 JUMPI PUSH2 0x14CF PUSH2 0x1273 JUMP JUMPDEST JUMPDEST PUSH0 PUSH2 0x14DD DUP5 DUP3 DUP6 ADD PUSH2 0x12BD JUMP JUMPDEST SWAP2 POP POP SWAP3 SWAP2 POP POP JUMP JUMPDEST PUSH0 DUP2 MLOAD SWAP1 POP SWAP2 SWAP1 POP JUMP JUMPDEST PUSH0 DUP3 DUP3 MSTORE PUSH1 0x20 DUP3 ADD SWAP1 POP SWAP3 SWAP2 POP POP JUMP JUMPDEST PUSH0 DUP2 SWAP1 POP PUSH1 0x20 DUP3 ADD SWAP1 POP SWAP2 SWAP1 POP JUMP JUMPDEST PUSH1 0xA0 DUP3 ADD PUSH0 DUP3 ADD MLOAD PUSH2 0x1523 PUSH0 DUP6 ADD DUP3 PUSH2 0x140F JUMP JUMPDEST POP PUSH1 0x20 DUP3 ADD MLOAD PUSH2 0x1536 PUSH1 0x20 DUP6 ADD DUP3 PUSH2 0x140F JUMP JUMPDEST POP PUSH1 0x40 DUP3 ADD MLOAD PUSH2 0x1549 PUSH1 0x40 DUP6 ADD DUP3 PUSH2 0x141E JUMP JUMPDEST POP PUSH1 0x60 DUP3 ADD MLOAD PUSH2 0x155C PUSH1 0x60 DUP6 ADD DUP3 PUSH2 0x141E JUMP JUMPDEST POP PUSH1 0x80 DUP3 ADD MLOAD PUSH2 0x156F PUSH1 0x80 DUP6 ADD DUP3 PUSH2 0x142D JUMP JUMPDEST POP POP POP POP JUMP JUMPDEST PUSH0 PUSH2 0x1580 DUP4 DUP4 PUSH2 0x150F JUMP JUMPDEST PUSH1 0xA0 DUP4 ADD SWAP1 POP SWAP3 SWAP2 POP POP JUMP JUMPDEST PUSH0 PUSH1 0x20 DUP3 ADD SWAP1 POP SWAP2 SWAP1 POP JUMP JUMPDEST PUSH0 PUSH2 0x15A2 DUP3 PUSH2 0x14E6 JUMP JUMPDEST PUSH2 0x15AC DUP2 DUP6 PUSH2 0x14F0 JUMP JUMPDEST SWAP4 POP PUSH2 0x15B7 DUP4 PUSH2 0x1500 JUMP JUMPDEST DUP1 PUSH0 JUMPDEST DUP4 DUP2 LT ISZERO PUSH2 0x15E7 JUMPI DUP2 MLOAD PUSH2 0x15CE DUP9 DUP3 PUSH2 0x1575 JUMP JUMPDEST SWAP8 POP PUSH2 0x15D9 DUP4 PUSH2 0x158C JUMP JUMPDEST SWAP3 POP POP PUSH1 0x1 DUP2 ADD SWAP1 POP PUSH2 0x15BA JUMP JUMPDEST POP DUP6 SWAP4 POP POP POP POP SWAP3 SWAP2 POP POP JUMP JUMPDEST PUSH0 PUSH1 0x20 DUP3 ADD SWAP1 POP DUP2 DUP2 SUB PUSH0 DUP4 ADD MSTORE PUSH2 0x160C DUP2 DUP5 PUSH2 0x1598 JUMP JUMPDEST SWAP1 POP SWAP3 SWAP2 POP POP JUMP JUMPDEST PUSH0 DUP1 PUSH0 DUP1 PUSH1 0x80 DUP6 DUP8 SUB SLT ISZERO PUSH2 0x162C JUMPI PUSH2 0x162B PUSH2 0x1273 JUMP JUMPDEST JUMPDEST PUSH0 PUSH2 0x1639 DUP8 DUP3 DUP9 ADD PUSH2 0x12F0 JUMP JUMPDEST SWAP5 POP POP PUSH1 0x20 PUSH2 0x164A DUP8 DUP3 DUP9 ADD PUSH2 0x12BD JUMP JUMPDEST SWAP4 POP POP PUSH1 0x40 PUSH2 0x165B DUP8 DUP3 DUP9 ADD PUSH2 0x12F0 JUMP JUMPDEST SWAP3 POP POP PUSH1 0x60 PUSH2 0x166C DUP8 DUP3 DUP9 ADD PUSH2 0x12BD JUMP JUMPDEST SWAP2 POP POP SWAP3 SWAP6 SWAP2 SWAP5 POP SWAP3 POP JUMP JUMPDEST PUSH0 PUSH1 0x20 DUP3 ADD SWAP1 POP PUSH2 0x168B PUSH0 DUP4 ADD DUP5 PUSH2 0x136A JUMP JUMPDEST SWAP3 SWAP2 POP POP JUMP JUMPDEST PUSH0 PUSH1 0x40 DUP3 ADD SWAP1 POP PUSH2 0x16A4 PUSH0 DUP4 ADD DUP6 PUSH2 0x1342 JUMP JUMPDEST PUSH2 0x16B1 PUSH1 0x20 DUP4 ADD DUP5 PUSH2 0x136A JUMP JUMPDEST SWAP4 SWAP3 POP POP POP JUMP JUMPDEST PUSH2 0x16C1 DUP2 PUSH2 0x1379 JUMP JUMPDEST DUP2 EQ PUSH2 0x16CB JUMPI PUSH0 DUP1 REVERT JUMPDEST POP JUMP JUMPDEST PUSH0 DUP2 MLOAD SWAP1 POP PUSH2 0x16DC DUP2 PUSH2 0x16B8 JUMP JUMPDEST SWAP3 SWAP2 POP POP JUMP JUMPDEST PUSH0 PUSH1 0x20 DUP3 DUP5 SUB SLT ISZERO PUSH2 0x16F7 JUMPI PUSH2 0x16F6 PUSH2 0x1273 JUMP JUMPDEST JUMPDEST PUSH0 PUSH2 0x1704 DUP5 DUP3 DUP6 ADD PUSH2 0x16CE JUMP JUMPDEST SWAP2 POP POP SWAP3 SWAP2 POP POP JUMP JUMPDEST PUSH0 DUP3 DUP3 MSTORE PUSH1 0x20 DUP3 ADD SWAP1 POP SWAP3 SWAP2 POP POP JUMP JUMPDEST PUSH32 0x496E76616C6964206C6F616E20696E6465780000000000000000000000000000 PUSH0 DUP3 ADD MSTORE POP JUMP JUMPDEST PUSH0 PUSH2 0x1751 PUSH1 0x12 DUP4 PUSH2 0x170D JUMP JUMPDEST SWAP2 POP PUSH2 0x175C DUP3 PUSH2 0x171D JUMP JUMPDEST PUSH1 0x20 DUP3 ADD SWAP1 POP SWAP2 SWAP1 POP JUMP JUMPDEST PUSH0 PUSH1 0x20 DUP3 ADD SWAP1 POP DUP2 DUP2 SUB PUSH0 DUP4 ADD MSTORE PUSH2 0x177E DUP2 PUSH2 0x1745 JUMP JUMPDEST SWAP1 POP SWAP2 SWAP1 POP JUMP JUMPDEST PUSH32 0x4E487B7100000000000000000000000000000000000000000000000000000000 PUSH0 MSTORE PUSH1 0x32 PUSH1 0x4 MSTORE PUSH1 0x24 PUSH0 REVERT JUMPDEST PUSH32 0x4C6F616E20616C72656164792072657061696400000000000000000000000000 PUSH0 DUP3 ADD MSTORE POP JUMP JUMPDEST PUSH0 PUSH2 0x17E6 PUSH1 0x13 DUP4 PUSH2 0x170D JUMP JUMPDEST SWAP2 POP PUSH2 0x17F1 DUP3 PUSH2 0x17B2 JUMP JUMPDEST PUSH1 0x20 DUP3 ADD SWAP1 POP SWAP2 SWAP1 POP JUMP JUMPDEST PUSH0 PUSH1 0x20 DUP3 ADD SWAP1 POP DUP2 DUP2 SUB PUSH0 DUP4 ADD MSTORE PUSH2 0x1813 DUP2 PUSH2 0x17DA JUMP JUMPDEST SWAP1 POP SWAP2 SWAP1 POP JUMP JUMPDEST PUSH0 DUP2 MLOAD SWAP1 POP PUSH2 0x1828 DUP2 PUSH2 0x12DA JUMP JUMPDEST SWAP3 SWAP2 POP POP JUMP JUMPDEST PUSH0 PUSH1 0x20 DUP3 DUP5 SUB SLT ISZERO PUSH2 0x1843 JUMPI PUSH2 0x1842 PUSH2 0x1273 JUMP JUMPDEST JUMPDEST PUSH0 PUSH2 0x1850 DUP5 DUP3 DUP6 ADD PUSH2 0x181A JUMP JUMPDEST SWAP2 POP POP SWAP3 SWAP2 POP POP JUMP JUMPDEST PUSH32 0x496E73756666696369656E74206C6F616E20746F6B656E2062616C616E636500 PUSH0 DUP3 ADD MSTORE POP JUMP JUMPDEST PUSH0 PUSH2 0x188D PUSH1 0x1F DUP4 PUSH2 0x170D JUMP JUMPDEST SWAP2 POP PUSH2 0x1898 DUP3 PUSH2 0x1859 JUMP JUMPDEST PUSH1 0x20 DUP3 ADD SWAP1 POP SWAP2 SWAP1 POP JUMP JUMPDEST PUSH0 PUSH1 0x20 DUP3 ADD SWAP1 POP DUP2 DUP2 SUB PUSH0 DUP4 ADD MSTORE PUSH2 0x18BA DUP2 PUSH2 0x1881 JUMP JUMPDEST SWAP1 POP SWAP2 SWAP1 POP JUMP JUMPDEST PUSH0 PUSH1 0x60 DUP3 ADD SWAP1 POP PUSH2 0x18D4 PUSH0 DUP4 ADD DUP7 PUSH2 0x1342 JUMP JUMPDEST PUSH2 0x18E1 PUSH1 0x20 DUP4 ADD DUP6 PUSH2 0x1342 JUMP JUMPDEST PUSH2 0x18EE PUSH1 0x40 DUP4 ADD DUP5 PUSH2 0x136A JUMP JUMPDEST SWAP5 SWAP4 POP POP POP POP JUMP JUMPDEST PUSH0 PUSH1 0x40 DUP3 ADD SWAP1 POP PUSH2 0x1909 PUSH0 DUP4 ADD DUP6 PUSH2 0x136A JUMP JUMPDEST PUSH2 0x1916 PUSH1 0x20 DUP4 ADD DUP5 PUSH2 0x1342 JUMP JUMPDEST SWAP4 SWAP3 POP POP POP JUMP JUMPDEST PUSH32 0x436F6C6C61746572616C20616D6F756E74206D75737420626520677265617465 PUSH0 DUP3 ADD MSTORE PUSH32 0x72207468616E2030000000000000000000000000000000000000000000000000 PUSH1 0x20 DUP3 ADD MSTORE POP JUMP JUMPDEST PUSH0 PUSH2 0x1977 PUSH1 0x28 DUP4 PUSH2 0x170D JUMP JUMPDEST SWAP2 POP PUSH2 0x1982 DUP3 PUSH2 0x191D JUMP JUMPDEST PUSH1 0x40 DUP3 ADD SWAP1 POP SWAP2 SWAP1 POP JUMP JUMPDEST PUSH0 PUSH1 0x20 DUP3 ADD SWAP1 POP DUP2 DUP2 SUB PUSH0 DUP4 ADD MSTORE PUSH2 0x19A4 DUP2 PUSH2 0x196B JUMP JUMPDEST SWAP1 POP SWAP2 SWAP1 POP JUMP JUMPDEST PUSH32 0x4C6F616E20616D6F756E74206D7573742062652067726561746572207468616E PUSH0 DUP3 ADD MSTORE PUSH32 0x2030000000000000000000000000000000000000000000000000000000000000 PUSH1 0x20 DUP3 ADD MSTORE POP JUMP JUMPDEST PUSH0 PUSH2 0x1A05 PUSH1 0x22 DUP4 PUSH2 0x170D JUMP JUMPDEST SWAP2 POP PUSH2 0x1A10 DUP3 PUSH2 0x19AB JUMP JUMPDEST PUSH1 0x40 DUP3 ADD SWAP1 POP SWAP2 SWAP1 POP JUMP JUMPDEST PUSH0 PUSH1 0x20 DUP3 ADD SWAP1 POP DUP2 DUP2 SUB PUSH0 DUP4 ADD MSTORE PUSH2 0x1A32 DUP2 PUSH2 0x19F9 JUMP JUMPDEST SWAP1 POP SWAP2 SWAP1 POP JUMP JUMPDEST PUSH32 0x496E73756666696369656E7420636F6C6C61746572616C2062616C616E636500 PUSH0 DUP3 ADD MSTORE POP JUMP JUMPDEST PUSH0 PUSH2 0x1A6D PUSH1 0x1F DUP4 PUSH2 0x170D JUMP JUMPDEST SWAP2 POP PUSH2 0x1A78 DUP3 PUSH2 0x1A39 JUMP JUMPDEST PUSH1 0x20 DUP3 ADD SWAP1 POP SWAP2 SWAP1 POP JUMP JUMPDEST PUSH0 PUSH1 0x20 DUP3 ADD SWAP1 POP DUP2 DUP2 SUB PUSH0 DUP4 ADD MSTORE PUSH2 0x1A9A DUP2 PUSH2 0x1A61 JUMP JUMPDEST SWAP1 POP SWAP2 SWAP1 POP JUMP JUMPDEST PUSH32 0x496E73756666696369656E74206C6F616E20746F6B656E206C69717569646974 PUSH0 DUP3 ADD MSTORE PUSH32 0x7900000000000000000000000000000000000000000000000000000000000000 PUSH1 0x20 DUP3 ADD MSTORE POP JUMP JUMPDEST PUSH0 PUSH2 0x1AFB PUSH1 0x21 DUP4 PUSH2 0x170D JUMP JUMPDEST SWAP2 POP PUSH2 0x1B06 DUP3 PUSH2 0x1AA1 JUMP JUMPDEST PUSH1 0x40 DUP3 ADD SWAP1 POP SWAP2 SWAP1 POP JUMP JUMPDEST PUSH0 PUSH1 0x20 DUP3 ADD SWAP1 POP DUP2 DUP2 SUB PUSH0 DUP4 ADD MSTORE PUSH2 0x1B28 DUP2 PUSH2 0x1AEF JUMP JUMPDEST SWAP1 POP SWAP2 SWAP1 POP JUMP INVALID LOG2 PUSH5 0x6970667358 0x22 SLT KECCAK256 0xB8 RETURNDATASIZE 0xCD SWAP9 SELFBALANCE 0xA5 INVALID 0xB1 SWAP11 NOT 0xD DIV 0xD3 DUP2 SSTORE BLOCKHASH SWAP8 INVALID PREVRANDAO PUSH27 0x6AD4563AE54E1266D6F7DF7E64736F6C634300081A003300000000 "
				},
				"gasEstimates": {
					"creation": {
						"codeDepositCost": "1402600",
						"executionCost": "infinite",
						"totalCost": "infinite"
					},
					"external": {
						"getLoanCount(address)": "2925",
						"getLoanDetails(address,uint256)": "infinite",
						"getLoans(address)": "infinite",
						"loans(address,uint256)": "infinite",
						"lockCollateralAndBorrow(uint256,address,uint256,address)": "infinite",
						"owner()": "2560",
						"renounceOwnership()": "infinite",
						"repayLoan(uint256)": "infinite",
						"transferOwnership(address)": "infinite",
						"withdrawTokens(address,uint256)": "infinite"
					}
				},
				"methodIdentifiers": {
					"getLoanCount(address)": "f53c61e0",
					"getLoanDetails(address,uint256)": "d13d5e56",
					"getLoans(address)": "d988ef20",
					"loans(address,uint256)": "98c61c37",
					"lockCollateralAndBorrow(uint256,address,uint256,address)": "e7153a7c",
					"owner()": "8da5cb5b",
					"renounceOwnership()": "715018a6",
					"repayLoan(uint256)": "ab7b1c89",
					"transferOwnership(address)": "f2fde38b",
					"withdrawTokens(address,uint256)": "06b091f9"
				}
			},
			"storageLayout": {
				"storage": [
					{
						"astId": 8,
						"contract": "smarrt.sol:LendingProtocol",
						"label": "_owner",
						"offset": 0,
						"slot": "0",
						"type": "t_address"
					},
					{
						"astId": 278,
						"contract": "smarrt.sol:LendingProtocol",
						"label": "loans",
						"offset": 0,
						"slot": "1",
						"type": "t_mapping(t_address,t_array(t_struct(Loan)272_storage)dyn_storage)"
					}
				],
				"types": {
					"t_address": {
						"encoding": "inplace",
						"label": "address",
						"numberOfBytes": "20"
					},
					"t_array(t_struct(Loan)272_storage)dyn_storage": {
						"base": "t_struct(Loan)272_storage",
						"encoding": "dynamic_array",
						"label": "struct LendingProtocol.Loan[]",
						"numberOfBytes": "32"
					},
					"t_bool": {
						"encoding": "inplace",
						"label": "bool",
						"numberOfBytes": "1"
					},
					"t_mapping(t_address,t_array(t_struct(Loan)272_storage)dyn_storage)": {
						"encoding": "mapping",
						"key": "t_address",
						"label": "mapping(address => struct LendingProtocol.Loan[])",
						"numberOfBytes": "32",
						"value": "t_array(t_struct(Loan)272_storage)dyn_storage"
					},
					"t_struct(Loan)272_storage": {
						"encoding": "inplace",
						"label": "struct LendingProtocol.Loan",
						"members": [
							{
								"astId": 263,
								"contract": "smarrt.sol:LendingProtocol",
								"label": "collateralAmount",
								"offset": 0,
								"slot": "0",
								"type": "t_uint256"
							},
							{
								"astId": 265,
								"contract": "smarrt.sol:LendingProtocol",
								"label": "loanAmount",
								"offset": 0,
								"slot": "1",
								"type": "t_uint256"
							},
							{
								"astId": 267,
								"contract": "smarrt.sol:LendingProtocol",
								"label": "collateralToken",
								"offset": 0,
								"slot": "2",
								"type": "t_address"
							},
							{
								"astId": 269,
								"contract": "smarrt.sol:LendingProtocol",
								"label": "loanToken",
								"offset": 0,
								"slot": "3",
								"type": "t_address"
							},
							{
								"astId": 271,
								"contract": "smarrt.sol:LendingProtocol",
								"label": "isRepaid",
								"offset": 20,
								"slot": "3",
								"type": "t_bool"
							}
						],
						"numberOfBytes": "128"
					},
					"t_uint256": {
						"encoding": "inplace",
						"label": "uint256",
						"numberOfBytes": "32"
					}
				}
			},
			"userdoc": {
				"kind": "user",
				"methods": {},
				"version": 1
			}
		}
	}
}